{
	"ERC777.sol": {
		"ERC777": {
			"abi": [
				{
					"inputs": [
						{
							"internalType": "string",
							"name": "name_",
							"type": "string"
						},
						{
							"internalType": "string",
							"name": "symbol_",
							"type": "string"
						},
						{
							"internalType": "address[]",
							"name": "defaultOperators_",
							"type": "address[]"
						}
					],
					"stateMutability": "nonpayable",
					"type": "constructor"
				},
				{
					"anonymous": false,
					"inputs": [
						{
							"indexed": true,
							"internalType": "address",
							"name": "owner",
							"type": "address"
						},
						{
							"indexed": true,
							"internalType": "address",
							"name": "spender",
							"type": "address"
						},
						{
							"indexed": false,
							"internalType": "uint256",
							"name": "value",
							"type": "uint256"
						}
					],
					"name": "Approval",
					"type": "event"
				},
				{
					"anonymous": false,
					"inputs": [
						{
							"indexed": true,
							"internalType": "address",
							"name": "operator",
							"type": "address"
						},
						{
							"indexed": true,
							"internalType": "address",
							"name": "tokenHolder",
							"type": "address"
						}
					],
					"name": "AuthorizedOperator",
					"type": "event"
				},
				{
					"anonymous": false,
					"inputs": [
						{
							"indexed": true,
							"internalType": "address",
							"name": "operator",
							"type": "address"
						},
						{
							"indexed": true,
							"internalType": "address",
							"name": "from",
							"type": "address"
						},
						{
							"indexed": false,
							"internalType": "uint256",
							"name": "amount",
							"type": "uint256"
						},
						{
							"indexed": false,
							"internalType": "bytes",
							"name": "data",
							"type": "bytes"
						},
						{
							"indexed": false,
							"internalType": "bytes",
							"name": "operatorData",
							"type": "bytes"
						}
					],
					"name": "Burned",
					"type": "event"
				},
				{
					"anonymous": false,
					"inputs": [
						{
							"indexed": true,
							"internalType": "address",
							"name": "operator",
							"type": "address"
						},
						{
							"indexed": true,
							"internalType": "address",
							"name": "to",
							"type": "address"
						},
						{
							"indexed": false,
							"internalType": "uint256",
							"name": "amount",
							"type": "uint256"
						},
						{
							"indexed": false,
							"internalType": "bytes",
							"name": "data",
							"type": "bytes"
						},
						{
							"indexed": false,
							"internalType": "bytes",
							"name": "operatorData",
							"type": "bytes"
						}
					],
					"name": "Minted",
					"type": "event"
				},
				{
					"anonymous": false,
					"inputs": [
						{
							"indexed": true,
							"internalType": "address",
							"name": "operator",
							"type": "address"
						},
						{
							"indexed": true,
							"internalType": "address",
							"name": "tokenHolder",
							"type": "address"
						}
					],
					"name": "RevokedOperator",
					"type": "event"
				},
				{
					"anonymous": false,
					"inputs": [
						{
							"indexed": true,
							"internalType": "address",
							"name": "operator",
							"type": "address"
						},
						{
							"indexed": true,
							"internalType": "address",
							"name": "from",
							"type": "address"
						},
						{
							"indexed": true,
							"internalType": "address",
							"name": "to",
							"type": "address"
						},
						{
							"indexed": false,
							"internalType": "uint256",
							"name": "amount",
							"type": "uint256"
						},
						{
							"indexed": false,
							"internalType": "bytes",
							"name": "data",
							"type": "bytes"
						},
						{
							"indexed": false,
							"internalType": "bytes",
							"name": "operatorData",
							"type": "bytes"
						}
					],
					"name": "Sent",
					"type": "event"
				},
				{
					"anonymous": false,
					"inputs": [
						{
							"indexed": true,
							"internalType": "address",
							"name": "from",
							"type": "address"
						},
						{
							"indexed": true,
							"internalType": "address",
							"name": "to",
							"type": "address"
						},
						{
							"indexed": false,
							"internalType": "uint256",
							"name": "value",
							"type": "uint256"
						}
					],
					"name": "Transfer",
					"type": "event"
				},
				{
					"inputs": [
						{
							"internalType": "address",
							"name": "holder",
							"type": "address"
						},
						{
							"internalType": "address",
							"name": "spender",
							"type": "address"
						}
					],
					"name": "allowance",
					"outputs": [
						{
							"internalType": "uint256",
							"name": "",
							"type": "uint256"
						}
					],
					"stateMutability": "view",
					"type": "function"
				},
				{
					"inputs": [
						{
							"internalType": "address",
							"name": "spender",
							"type": "address"
						},
						{
							"internalType": "uint256",
							"name": "value",
							"type": "uint256"
						}
					],
					"name": "approve",
					"outputs": [
						{
							"internalType": "bool",
							"name": "",
							"type": "bool"
						}
					],
					"stateMutability": "nonpayable",
					"type": "function"
				},
				{
					"inputs": [
						{
							"internalType": "address",
							"name": "operator",
							"type": "address"
						}
					],
					"name": "authorizeOperator",
					"outputs": [],
					"stateMutability": "nonpayable",
					"type": "function"
				},
				{
					"inputs": [
						{
							"internalType": "address",
							"name": "tokenHolder",
							"type": "address"
						}
					],
					"name": "balanceOf",
					"outputs": [
						{
							"internalType": "uint256",
							"name": "",
							"type": "uint256"
						}
					],
					"stateMutability": "view",
					"type": "function"
				},
				{
					"inputs": [
						{
							"internalType": "uint256",
							"name": "amount",
							"type": "uint256"
						},
						{
							"internalType": "bytes",
							"name": "data",
							"type": "bytes"
						}
					],
					"name": "burn",
					"outputs": [],
					"stateMutability": "nonpayable",
					"type": "function"
				},
				{
					"inputs": [],
					"name": "decimals",
					"outputs": [
						{
							"internalType": "uint8",
							"name": "",
							"type": "uint8"
						}
					],
					"stateMutability": "pure",
					"type": "function"
				},
				{
					"inputs": [],
					"name": "defaultOperators",
					"outputs": [
						{
							"internalType": "address[]",
							"name": "",
							"type": "address[]"
						}
					],
					"stateMutability": "view",
					"type": "function"
				},
				{
					"inputs": [],
					"name": "granularity",
					"outputs": [
						{
							"internalType": "uint256",
							"name": "",
							"type": "uint256"
						}
					],
					"stateMutability": "view",
					"type": "function"
				},
				{
					"inputs": [
						{
							"internalType": "address",
							"name": "operator",
							"type": "address"
						},
						{
							"internalType": "address",
							"name": "tokenHolder",
							"type": "address"
						}
					],
					"name": "isOperatorFor",
					"outputs": [
						{
							"internalType": "bool",
							"name": "",
							"type": "bool"
						}
					],
					"stateMutability": "view",
					"type": "function"
				},
				{
					"inputs": [],
					"name": "name",
					"outputs": [
						{
							"internalType": "string",
							"name": "",
							"type": "string"
						}
					],
					"stateMutability": "view",
					"type": "function"
				},
				{
					"inputs": [
						{
							"internalType": "address",
							"name": "account",
							"type": "address"
						},
						{
							"internalType": "uint256",
							"name": "amount",
							"type": "uint256"
						},
						{
							"internalType": "bytes",
							"name": "data",
							"type": "bytes"
						},
						{
							"internalType": "bytes",
							"name": "operatorData",
							"type": "bytes"
						}
					],
					"name": "operatorBurn",
					"outputs": [],
					"stateMutability": "nonpayable",
					"type": "function"
				},
				{
					"inputs": [
						{
							"internalType": "address",
							"name": "sender",
							"type": "address"
						},
						{
							"internalType": "address",
							"name": "recipient",
							"type": "address"
						},
						{
							"internalType": "uint256",
							"name": "amount",
							"type": "uint256"
						},
						{
							"internalType": "bytes",
							"name": "data",
							"type": "bytes"
						},
						{
							"internalType": "bytes",
							"name": "operatorData",
							"type": "bytes"
						}
					],
					"name": "operatorSend",
					"outputs": [],
					"stateMutability": "nonpayable",
					"type": "function"
				},
				{
					"inputs": [
						{
							"internalType": "address",
							"name": "operator",
							"type": "address"
						}
					],
					"name": "revokeOperator",
					"outputs": [],
					"stateMutability": "nonpayable",
					"type": "function"
				},
				{
					"inputs": [
						{
							"internalType": "address",
							"name": "recipient",
							"type": "address"
						},
						{
							"internalType": "uint256",
							"name": "amount",
							"type": "uint256"
						},
						{
							"internalType": "bytes",
							"name": "data",
							"type": "bytes"
						}
					],
					"name": "send",
					"outputs": [],
					"stateMutability": "nonpayable",
					"type": "function"
				},
				{
					"inputs": [],
					"name": "symbol",
					"outputs": [
						{
							"internalType": "string",
							"name": "",
							"type": "string"
						}
					],
					"stateMutability": "view",
					"type": "function"
				},
				{
					"inputs": [],
					"name": "totalSupply",
					"outputs": [
						{
							"internalType": "uint256",
							"name": "",
							"type": "uint256"
						}
					],
					"stateMutability": "view",
					"type": "function"
				},
				{
					"inputs": [
						{
							"internalType": "address",
							"name": "recipient",
							"type": "address"
						},
						{
							"internalType": "uint256",
							"name": "amount",
							"type": "uint256"
						}
					],
					"name": "transfer",
					"outputs": [
						{
							"internalType": "bool",
							"name": "",
							"type": "bool"
						}
					],
					"stateMutability": "nonpayable",
					"type": "function"
				},
				{
					"inputs": [
						{
							"internalType": "address",
							"name": "holder",
							"type": "address"
						},
						{
							"internalType": "address",
							"name": "recipient",
							"type": "address"
						},
						{
							"internalType": "uint256",
							"name": "amount",
							"type": "uint256"
						}
					],
					"name": "transferFrom",
					"outputs": [
						{
							"internalType": "bool",
							"name": "",
							"type": "bool"
						}
					],
					"stateMutability": "nonpayable",
					"type": "function"
				}
			],
			"devdoc": {
				"events": {
					"Approval(address,address,uint256)": {
						"details": "Emitted when the allowance of a `spender` for an `owner` is set by a call to {approve}. `value` is the new allowance."
					},
					"AuthorizedOperator(address,address)": {
						"details": "Emitted when `operator` is made operator for `tokenHolder`."
					},
					"Burned(address,address,uint256,bytes,bytes)": {
						"details": "Emitted when `operator` destroys `amount` tokens from `account`. Note that some additional user `data` and `operatorData` can be logged in the event."
					},
					"Minted(address,address,uint256,bytes,bytes)": {
						"details": "Emitted when `amount` tokens are created by `operator` and assigned to `to`. Note that some additional user `data` and `operatorData` can be logged in the event."
					},
					"RevokedOperator(address,address)": {
						"details": "Emitted when `operator` is revoked its operator status for `tokenHolder`."
					},
					"Transfer(address,address,uint256)": {
						"details": "Emitted when `value` tokens are moved from one account (`from`) to another (`to`). Note that `value` may be zero."
					}
				},
				"kind": "dev",
				"methods": {
					"allowance(address,address)": {
						"details": "See {IERC20-allowance}. Note that operator and allowance concepts are orthogonal: operators may not have allowance, and accounts with allowance may not be operators themselves."
					},
					"approve(address,uint256)": {
						"details": "See {IERC20-approve}. NOTE: If `value` is the maximum `uint256`, the allowance is not updated on `transferFrom`. This is semantically equivalent to an infinite approval. Note that accounts cannot have allowance issued by their operators."
					},
					"authorizeOperator(address)": {
						"details": "See {IERC777-authorizeOperator}."
					},
					"balanceOf(address)": {
						"details": "Returns the amount of tokens owned by an account (`tokenHolder`)."
					},
					"burn(uint256,bytes)": {
						"details": "See {IERC777-burn}. Also emits a {IERC20-Transfer} event for ERC20 compatibility."
					},
					"constructor": {
						"details": "`defaultOperators` may be an empty array."
					},
					"decimals()": {
						"details": "See {ERC20-decimals}. Always returns 18, as per the [ERC777 EIP](https://eips.ethereum.org/EIPS/eip-777#backward-compatibility)."
					},
					"defaultOperators()": {
						"details": "See {IERC777-defaultOperators}."
					},
					"granularity()": {
						"details": "See {IERC777-granularity}. This implementation always returns `1`."
					},
					"isOperatorFor(address,address)": {
						"details": "See {IERC777-isOperatorFor}."
					},
					"name()": {
						"details": "See {IERC777-name}."
					},
					"operatorBurn(address,uint256,bytes,bytes)": {
						"details": "See {IERC777-operatorBurn}. Emits {Burned} and {IERC20-Transfer} events."
					},
					"operatorSend(address,address,uint256,bytes,bytes)": {
						"details": "See {IERC777-operatorSend}. Emits {Sent} and {IERC20-Transfer} events."
					},
					"revokeOperator(address)": {
						"details": "See {IERC777-revokeOperator}."
					},
					"send(address,uint256,bytes)": {
						"details": "See {IERC777-send}. Also emits a {IERC20-Transfer} event for ERC20 compatibility."
					},
					"symbol()": {
						"details": "See {IERC777-symbol}."
					},
					"totalSupply()": {
						"details": "See {IERC777-totalSupply}."
					},
					"transfer(address,uint256)": {
						"details": "See {IERC20-transfer}. Unlike `send`, `recipient` is _not_ required to implement the {IERC777Recipient} interface if it is a contract. Also emits a {Sent} event."
					},
					"transferFrom(address,address,uint256)": {
						"details": "See {IERC20-transferFrom}. NOTE: Does not update the allowance if the current allowance is the maximum `uint256`. Note that operator and allowance concepts are orthogonal: operators cannot call `transferFrom` (unless they have allowance), and accounts with allowance cannot call `operatorSend` (unless they are operators). Emits {Sent}, {IERC20-Transfer} and {IERC20-Approval} events."
					}
				},
				"version": 1
			},
			"evm": {
				"assembly": "    /* \"ERC777.sol\":24363:42184  contract ERC777 is Context, IERC777, IERC20 {... */\n  mstore(0x40, 0x80)\n    /* \"ERC777.sol\":25622:26228  constructor(string memory name_, string memory symbol_, address[] memory defaultOperators_) {... */\n  callvalue\n  dup1\n  iszero\n  tag_1\n  jumpi\n  0x00\n  dup1\n  revert\ntag_1:\n  pop\n  mload(0x40)\n  sub(codesize, bytecodeSize)\n  dup1\n  bytecodeSize\n  dup4\n  codecopy\n  dup2\n  dup2\n  add\n  0x40\n  mstore\n  dup2\n  add\n  swap1\n  tag_2\n  swap2\n  swap1\n  tag_3\n  jump\t// in\ntag_2:\n    /* \"ERC777.sol\":25733:25738  name_ */\n  dup3\n    /* \"ERC777.sol\":25725:25730  _name */\n  0x02\n    /* \"ERC777.sol\":25725:25738  _name = name_ */\n  swap1\n  dup2\n  tag_6\n  swap2\n  swap1\n  tag_7\n  jump\t// in\ntag_6:\n  pop\n    /* \"ERC777.sol\":25759:25766  symbol_ */\n  dup2\n    /* \"ERC777.sol\":25749:25756  _symbol */\n  0x03\n    /* \"ERC777.sol\":25749:25766  _symbol = symbol_ */\n  swap1\n  dup2\n  tag_8\n  swap2\n  swap1\n  tag_7\n  jump\t// in\ntag_8:\n  pop\n    /* \"ERC777.sol\":25804:25821  defaultOperators_ */\n  dup1\n    /* \"ERC777.sol\":25779:25801  _defaultOperatorsArray */\n  0x04\n    /* \"ERC777.sol\":25779:25821  _defaultOperatorsArray = defaultOperators_ */\n  swap1\n  dup1\n  mload\n  swap1\n  0x20\n  add\n  swap1\n  tag_9\n  swap3\n  swap2\n  swap1\n  tag_10\n  jump\t// in\ntag_9:\n  pop\n    /* \"ERC777.sol\":25837:25846  uint256 i */\n  0x00\n    /* \"ERC777.sol\":25832:25960  for (uint256 i = 0; i < defaultOperators_.length; i++) {... */\ntag_11:\n    /* \"ERC777.sol\":25856:25873  defaultOperators_ */\n  dup2\n    /* \"ERC777.sol\":25856:25880  defaultOperators_.length */\n  mload\n    /* \"ERC777.sol\":25852:25853  i */\n  dup2\n    /* \"ERC777.sol\":25852:25880  i < defaultOperators_.length */\n  lt\n    /* \"ERC777.sol\":25832:25960  for (uint256 i = 0; i < defaultOperators_.length; i++) {... */\n  iszero\n  tag_12\n  jumpi\n    /* \"ERC777.sol\":25944:25948  true */\n  0x01\n    /* \"ERC777.sol\":25902:25919  _defaultOperators */\n  0x05\n    /* \"ERC777.sol\":25902:25941  _defaultOperators[defaultOperators_[i]] */\n  0x00\n    /* \"ERC777.sol\":25920:25937  defaultOperators_ */\n  dup5\n    /* \"ERC777.sol\":25938:25939  i */\n  dup5\n    /* \"ERC777.sol\":25920:25940  defaultOperators_[i] */\n  dup2\n  mload\n  dup2\n  lt\n  tag_14\n  jumpi\n  tag_15\n  tag_16\n  jump\t// in\ntag_15:\ntag_14:\n  0x20\n  mul\n  0x20\n  add\n  add\n  mload\n    /* \"ERC777.sol\":25902:25941  _defaultOperators[defaultOperators_[i]] */\n  0xffffffffffffffffffffffffffffffffffffffff\n  and\n  0xffffffffffffffffffffffffffffffffffffffff\n  and\n  dup2\n  mstore\n  0x20\n  add\n  swap1\n  dup2\n  mstore\n  0x20\n  add\n  0x00\n  keccak256\n  0x00\n    /* \"ERC777.sol\":25902:25948  _defaultOperators[defaultOperators_[i]] = true */\n  0x0100\n  exp\n  dup2\n  sload\n  dup2\n  0xff\n  mul\n  not\n  and\n  swap1\n  dup4\n  iszero\n  iszero\n  mul\n  or\n  swap1\n  sstore\n  pop\n    /* \"ERC777.sol\":25882:25885  i++ */\n  dup1\n  dup1\n  tag_17\n  swap1\n  tag_18\n  jump\t// in\ntag_17:\n  swap2\n  pop\n  pop\n    /* \"ERC777.sol\":25832:25960  for (uint256 i = 0; i < defaultOperators_.length; i++) {... */\n  jump(tag_11)\ntag_12:\n  pop\n    /* \"ERC777.sol\":24520:24562  0x1820a4B7618BdE71Dce8cdc73aAB6C95905faD24 */\n  0x1820a4b7618bde71dce8cdc73aab6c95905fad24\n    /* \"ERC777.sol\":26004:26045  _ERC1820_REGISTRY.setInterfaceImplementer */\n  0xffffffffffffffffffffffffffffffffffffffff\n  and\n  0x29965a1d\n    /* \"ERC777.sol\":26054:26058  this */\n  address\n    /* \"ERC777.sol\":26061:26085  keccak256(\"ERC777Token\") */\n  0xac7fbab5f54a3ca8194167523c6753bfeb96a445279294b6125b68cce2177054\n    /* \"ERC777.sol\":26095:26099  this */\n  address\n    /* \"ERC777.sol\":26004:26101  _ERC1820_REGISTRY.setInterfaceImplementer(address(this), keccak256(\"ERC777Token\"), address(this)) */\n  mload(0x40)\n  dup5\n  0xffffffff\n  and\n  0xe0\n  shl\n  dup2\n  mstore\n  0x04\n  add\n  tag_19\n  swap4\n  swap3\n  swap2\n  swap1\n  tag_20\n  jump\t// in\ntag_19:\n  0x00\n  mload(0x40)\n  dup1\n  dup4\n  sub\n  dup2\n  0x00\n  dup8\n  dup1\n  extcodesize\n  iszero\n  dup1\n  iszero\n  tag_21\n  jumpi\n  0x00\n  dup1\n  revert\ntag_21:\n  pop\n  gas\n  call\n  iszero\n  dup1\n  iszero\n  tag_23\n  jumpi\n  returndatasize\n  0x00\n  dup1\n  returndatacopy\n  revert(0x00, returndatasize)\ntag_23:\n  pop\n  pop\n  pop\n  pop\n    /* \"ERC777.sol\":24520:24562  0x1820a4B7618BdE71Dce8cdc73aAB6C95905faD24 */\n  0x1820a4b7618bde71dce8cdc73aab6c95905fad24\n    /* \"ERC777.sol\":26112:26153  _ERC1820_REGISTRY.setInterfaceImplementer */\n  0xffffffffffffffffffffffffffffffffffffffff\n  and\n  0x29965a1d\n    /* \"ERC777.sol\":26162:26166  this */\n  address\n    /* \"ERC777.sol\":26169:26192  keccak256(\"ERC20Token\") */\n  0xaea199e31a596269b42cdafd93407f14436db6e4cad65417994c2eb37381e05a\n    /* \"ERC777.sol\":26202:26206  this */\n  address\n    /* \"ERC777.sol\":26112:26208  _ERC1820_REGISTRY.setInterfaceImplementer(address(this), keccak256(\"ERC20Token\"), address(this)) */\n  mload(0x40)\n  dup5\n  0xffffffff\n  and\n  0xe0\n  shl\n  dup2\n  mstore\n  0x04\n  add\n  tag_24\n  swap4\n  swap3\n  swap2\n  swap1\n  tag_20\n  jump\t// in\ntag_24:\n  0x00\n  mload(0x40)\n  dup1\n  dup4\n  sub\n  dup2\n  0x00\n  dup8\n  dup1\n  extcodesize\n  iszero\n  dup1\n  iszero\n  tag_25\n  jumpi\n  0x00\n  dup1\n  revert\ntag_25:\n  pop\n  gas\n  call\n  iszero\n  dup1\n  iszero\n  tag_27\n  jumpi\n  returndatasize\n  0x00\n  dup1\n  returndatacopy\n  revert(0x00, returndatasize)\ntag_27:\n  pop\n  pop\n  pop\n  pop\n    /* \"ERC777.sol\":25622:26228  constructor(string memory name_, string memory symbol_, address[] memory defaultOperators_) {... */\n  pop\n  pop\n  pop\n    /* \"ERC777.sol\":24363:42184  contract ERC777 is Context, IERC777, IERC20 {... */\n  jump(tag_28)\ntag_10:\n  dup3\n  dup1\n  sload\n  dup3\n  dup3\n  sstore\n  swap1\n  0x00\n  mstore\n  keccak256(0x00, 0x20)\n  swap1\n  dup2\n  add\n  swap3\n  dup3\n  iszero\n  tag_29\n  jumpi\n  swap2\n  0x20\n  mul\n  dup3\n  add\ntag_30:\n  dup3\n  dup2\n  gt\n  iszero\n  tag_31\n  jumpi\n  dup3\n  mload\n  dup3\n  exp(0x0100, 0x00)\n  dup2\n  sload\n  dup2\n  0xffffffffffffffffffffffffffffffffffffffff\n  mul\n  not\n  and\n  swap1\n  dup4\n  0xffffffffffffffffffffffffffffffffffffffff\n  and\n  mul\n  or\n  swap1\n  sstore\n  pop\n  swap2\n  0x20\n  add\n  swap2\n  swap1\n  0x01\n  add\n  swap1\n  jump(tag_30)\ntag_31:\ntag_29:\n  pop\n  swap1\n  pop\n  tag_32\n  swap2\n  swap1\n  tag_33\n  jump\t// in\ntag_32:\n  pop\n  swap1\n  jump\t// out\ntag_33:\ntag_34:\n  dup1\n  dup3\n  gt\n  iszero\n  tag_35\n  jumpi\n  0x00\n  dup2\n  0x00\n  swap1\n  sstore\n  pop\n  0x01\n  add\n  jump(tag_34)\ntag_35:\n  pop\n  swap1\n  jump\t// out\n    /* \"#utility.yul\":7:82   */\ntag_36:\n    /* \"#utility.yul\":40:46   */\n  0x00\n    /* \"#utility.yul\":73:75   */\n  0x40\n    /* \"#utility.yul\":67:76   */\n  mload\n    /* \"#utility.yul\":57:76   */\n  swap1\n  pop\n    /* \"#utility.yul\":7:82   */\n  swap1\n  jump\t// out\n    /* \"#utility.yul\":88:205   */\ntag_37:\n    /* \"#utility.yul\":197:198   */\n  0x00\n    /* \"#utility.yul\":194:195   */\n  dup1\n    /* \"#utility.yul\":187:199   */\n  revert\n    /* \"#utility.yul\":211:328   */\ntag_38:\n    /* \"#utility.yul\":320:321   */\n  0x00\n    /* \"#utility.yul\":317:318   */\n  dup1\n    /* \"#utility.yul\":310:322   */\n  revert\n    /* \"#utility.yul\":334:451   */\ntag_39:\n    /* \"#utility.yul\":443:444   */\n  0x00\n    /* \"#utility.yul\":440:441   */\n  dup1\n    /* \"#utility.yul\":433:445   */\n  revert\n    /* \"#utility.yul\":457:574   */\ntag_40:\n    /* \"#utility.yul\":566:567   */\n  0x00\n    /* \"#utility.yul\":563:564   */\n  dup1\n    /* \"#utility.yul\":556:568   */\n  revert\n    /* \"#utility.yul\":580:682   */\ntag_41:\n    /* \"#utility.yul\":621:627   */\n  0x00\n    /* \"#utility.yul\":672:674   */\n  0x1f\n    /* \"#utility.yul\":668:675   */\n  not\n    /* \"#utility.yul\":663:665   */\n  0x1f\n    /* \"#utility.yul\":656:661   */\n  dup4\n    /* \"#utility.yul\":652:666   */\n  add\n    /* \"#utility.yul\":648:676   */\n  and\n    /* \"#utility.yul\":638:676   */\n  swap1\n  pop\n    /* \"#utility.yul\":580:682   */\n  swap2\n  swap1\n  pop\n  jump\t// out\n    /* \"#utility.yul\":688:868   */\ntag_42:\n    /* \"#utility.yul\":736:813   */\n  0x4e487b7100000000000000000000000000000000000000000000000000000000\n    /* \"#utility.yul\":733:734   */\n  0x00\n    /* \"#utility.yul\":726:814   */\n  mstore\n    /* \"#utility.yul\":833:837   */\n  0x41\n    /* \"#utility.yul\":830:831   */\n  0x04\n    /* \"#utility.yul\":823:838   */\n  mstore\n    /* \"#utility.yul\":857:861   */\n  0x24\n    /* \"#utility.yul\":854:855   */\n  0x00\n    /* \"#utility.yul\":847:862   */\n  revert\n    /* \"#utility.yul\":874:1155   */\ntag_43:\n    /* \"#utility.yul\":957:984   */\n  tag_89\n    /* \"#utility.yul\":979:983   */\n  dup3\n    /* \"#utility.yul\":957:984   */\n  tag_41\n  jump\t// in\ntag_89:\n    /* \"#utility.yul\":949:955   */\n  dup2\n    /* \"#utility.yul\":945:985   */\n  add\n    /* \"#utility.yul\":1087:1093   */\n  dup2\n    /* \"#utility.yul\":1075:1085   */\n  dup2\n    /* \"#utility.yul\":1072:1094   */\n  lt\n    /* \"#utility.yul\":1051:1069   */\n  0xffffffffffffffff\n    /* \"#utility.yul\":1039:1049   */\n  dup3\n    /* \"#utility.yul\":1036:1070   */\n  gt\n    /* \"#utility.yul\":1033:1095   */\n  or\n    /* \"#utility.yul\":1030:1118   */\n  iszero\n  tag_90\n  jumpi\n    /* \"#utility.yul\":1098:1116   */\n  tag_91\n  tag_42\n  jump\t// in\ntag_91:\n    /* \"#utility.yul\":1030:1118   */\ntag_90:\n    /* \"#utility.yul\":1138:1148   */\n  dup1\n    /* \"#utility.yul\":1134:1136   */\n  0x40\n    /* \"#utility.yul\":1127:1149   */\n  mstore\n    /* \"#utility.yul\":917:1155   */\n  pop\n    /* \"#utility.yul\":874:1155   */\n  pop\n  pop\n  jump\t// out\n    /* \"#utility.yul\":1161:1290   */\ntag_44:\n    /* \"#utility.yul\":1195:1201   */\n  0x00\n    /* \"#utility.yul\":1222:1242   */\n  tag_93\n  tag_36\n  jump\t// in\ntag_93:\n    /* \"#utility.yul\":1212:1242   */\n  swap1\n  pop\n    /* \"#utility.yul\":1251:1284   */\n  tag_94\n    /* \"#utility.yul\":1279:1283   */\n  dup3\n    /* \"#utility.yul\":1271:1277   */\n  dup3\n    /* \"#utility.yul\":1251:1284   */\n  tag_43\n  jump\t// in\ntag_94:\n    /* \"#utility.yul\":1161:1290   */\n  swap2\n  swap1\n  pop\n  jump\t// out\n    /* \"#utility.yul\":1296:1604   */\ntag_45:\n    /* \"#utility.yul\":1358:1362   */\n  0x00\n    /* \"#utility.yul\":1448:1466   */\n  0xffffffffffffffff\n    /* \"#utility.yul\":1440:1446   */\n  dup3\n    /* \"#utility.yul\":1437:1467   */\n  gt\n    /* \"#utility.yul\":1434:1490   */\n  iszero\n  tag_96\n  jumpi\n    /* \"#utility.yul\":1470:1488   */\n  tag_97\n  tag_42\n  jump\t// in\ntag_97:\n    /* \"#utility.yul\":1434:1490   */\ntag_96:\n    /* \"#utility.yul\":1508:1537   */\n  tag_98\n    /* \"#utility.yul\":1530:1536   */\n  dup3\n    /* \"#utility.yul\":1508:1537   */\n  tag_41\n  jump\t// in\ntag_98:\n    /* \"#utility.yul\":1500:1537   */\n  swap1\n  pop\n    /* \"#utility.yul\":1592:1596   */\n  0x20\n    /* \"#utility.yul\":1586:1590   */\n  dup2\n    /* \"#utility.yul\":1582:1597   */\n  add\n    /* \"#utility.yul\":1574:1597   */\n  swap1\n  pop\n    /* \"#utility.yul\":1296:1604   */\n  swap2\n  swap1\n  pop\n  jump\t// out\n    /* \"#utility.yul\":1610:1856   */\ntag_46:\n    /* \"#utility.yul\":1691:1692   */\n  0x00\n    /* \"#utility.yul\":1701:1814   */\ntag_100:\n    /* \"#utility.yul\":1715:1721   */\n  dup4\n    /* \"#utility.yul\":1712:1713   */\n  dup2\n    /* \"#utility.yul\":1709:1722   */\n  lt\n    /* \"#utility.yul\":1701:1814   */\n  iszero\n  tag_102\n  jumpi\n    /* \"#utility.yul\":1800:1801   */\n  dup1\n    /* \"#utility.yul\":1795:1798   */\n  dup3\n    /* \"#utility.yul\":1791:1802   */\n  add\n    /* \"#utility.yul\":1785:1803   */\n  mload\n    /* \"#utility.yul\":1781:1782   */\n  dup2\n    /* \"#utility.yul\":1776:1779   */\n  dup5\n    /* \"#utility.yul\":1772:1783   */\n  add\n    /* \"#utility.yul\":1765:1804   */\n  mstore\n    /* \"#utility.yul\":1737:1739   */\n  0x20\n    /* \"#utility.yul\":1734:1735   */\n  dup2\n    /* \"#utility.yul\":1730:1740   */\n  add\n    /* \"#utility.yul\":1725:1740   */\n  swap1\n  pop\n    /* \"#utility.yul\":1701:1814   */\n  jump(tag_100)\ntag_102:\n    /* \"#utility.yul\":1848:1849   */\n  0x00\n    /* \"#utility.yul\":1839:1845   */\n  dup5\n    /* \"#utility.yul\":1834:1837   */\n  dup5\n    /* \"#utility.yul\":1830:1846   */\n  add\n    /* \"#utility.yul\":1823:1850   */\n  mstore\n    /* \"#utility.yul\":1672:1856   */\n  pop\n    /* \"#utility.yul\":1610:1856   */\n  pop\n  pop\n  pop\n  jump\t// out\n    /* \"#utility.yul\":1862:2296   */\ntag_47:\n    /* \"#utility.yul\":1951:1956   */\n  0x00\n    /* \"#utility.yul\":1976:2042   */\n  tag_104\n    /* \"#utility.yul\":1992:2041   */\n  tag_105\n    /* \"#utility.yul\":2034:2040   */\n  dup5\n    /* \"#utility.yul\":1992:2041   */\n  tag_45\n  jump\t// in\ntag_105:\n    /* \"#utility.yul\":1976:2042   */\n  tag_44\n  jump\t// in\ntag_104:\n    /* \"#utility.yul\":1967:2042   */\n  swap1\n  pop\n    /* \"#utility.yul\":2065:2071   */\n  dup3\n    /* \"#utility.yul\":2058:2063   */\n  dup2\n    /* \"#utility.yul\":2051:2072   */\n  mstore\n    /* \"#utility.yul\":2103:2107   */\n  0x20\n    /* \"#utility.yul\":2096:2101   */\n  dup2\n    /* \"#utility.yul\":2092:2108   */\n  add\n    /* \"#utility.yul\":2141:2144   */\n  dup5\n    /* \"#utility.yul\":2132:2138   */\n  dup5\n    /* \"#utility.yul\":2127:2130   */\n  dup5\n    /* \"#utility.yul\":2123:2139   */\n  add\n    /* \"#utility.yul\":2120:2145   */\n  gt\n    /* \"#utility.yul\":2117:2229   */\n  iszero\n  tag_106\n  jumpi\n    /* \"#utility.yul\":2148:2227   */\n  tag_107\n  tag_40\n  jump\t// in\ntag_107:\n    /* \"#utility.yul\":2117:2229   */\ntag_106:\n    /* \"#utility.yul\":2238:2290   */\n  tag_108\n    /* \"#utility.yul\":2283:2289   */\n  dup5\n    /* \"#utility.yul\":2278:2281   */\n  dup3\n    /* \"#utility.yul\":2273:2276   */\n  dup6\n    /* \"#utility.yul\":2238:2290   */\n  tag_46\n  jump\t// in\ntag_108:\n    /* \"#utility.yul\":1957:2296   */\n  pop\n    /* \"#utility.yul\":1862:2296   */\n  swap4\n  swap3\n  pop\n  pop\n  pop\n  jump\t// out\n    /* \"#utility.yul\":2316:2671   */\ntag_48:\n    /* \"#utility.yul\":2383:2388   */\n  0x00\n    /* \"#utility.yul\":2432:2435   */\n  dup3\n    /* \"#utility.yul\":2425:2429   */\n  0x1f\n    /* \"#utility.yul\":2417:2423   */\n  dup4\n    /* \"#utility.yul\":2413:2430   */\n  add\n    /* \"#utility.yul\":2409:2436   */\n  slt\n    /* \"#utility.yul\":2399:2521   */\n  tag_110\n  jumpi\n    /* \"#utility.yul\":2440:2519   */\n  tag_111\n  tag_39\n  jump\t// in\ntag_111:\n    /* \"#utility.yul\":2399:2521   */\ntag_110:\n    /* \"#utility.yul\":2550:2556   */\n  dup2\n    /* \"#utility.yul\":2544:2557   */\n  mload\n    /* \"#utility.yul\":2575:2665   */\n  tag_112\n    /* \"#utility.yul\":2661:2664   */\n  dup5\n    /* \"#utility.yul\":2653:2659   */\n  dup3\n    /* \"#utility.yul\":2646:2650   */\n  0x20\n    /* \"#utility.yul\":2638:2644   */\n  dup7\n    /* \"#utility.yul\":2634:2651   */\n  add\n    /* \"#utility.yul\":2575:2665   */\n  tag_47\n  jump\t// in\ntag_112:\n    /* \"#utility.yul\":2566:2665   */\n  swap2\n  pop\n    /* \"#utility.yul\":2389:2671   */\n  pop\n    /* \"#utility.yul\":2316:2671   */\n  swap3\n  swap2\n  pop\n  pop\n  jump\t// out\n    /* \"#utility.yul\":2677:2988   */\ntag_49:\n    /* \"#utility.yul\":2754:2758   */\n  0x00\n    /* \"#utility.yul\":2844:2862   */\n  0xffffffffffffffff\n    /* \"#utility.yul\":2836:2842   */\n  dup3\n    /* \"#utility.yul\":2833:2863   */\n  gt\n    /* \"#utility.yul\":2830:2886   */\n  iszero\n  tag_114\n  jumpi\n    /* \"#utility.yul\":2866:2884   */\n  tag_115\n  tag_42\n  jump\t// in\ntag_115:\n    /* \"#utility.yul\":2830:2886   */\ntag_114:\n    /* \"#utility.yul\":2916:2920   */\n  0x20\n    /* \"#utility.yul\":2908:2914   */\n  dup3\n    /* \"#utility.yul\":2904:2921   */\n  mul\n    /* \"#utility.yul\":2896:2921   */\n  swap1\n  pop\n    /* \"#utility.yul\":2976:2980   */\n  0x20\n    /* \"#utility.yul\":2970:2974   */\n  dup2\n    /* \"#utility.yul\":2966:2981   */\n  add\n    /* \"#utility.yul\":2958:2981   */\n  swap1\n  pop\n    /* \"#utility.yul\":2677:2988   */\n  swap2\n  swap1\n  pop\n  jump\t// out\n    /* \"#utility.yul\":2994:3111   */\ntag_50:\n    /* \"#utility.yul\":3103:3104   */\n  0x00\n    /* \"#utility.yul\":3100:3101   */\n  dup1\n    /* \"#utility.yul\":3093:3105   */\n  revert\n    /* \"#utility.yul\":3117:3243   */\ntag_51:\n    /* \"#utility.yul\":3154:3161   */\n  0x00\n    /* \"#utility.yul\":3194:3236   */\n  0xffffffffffffffffffffffffffffffffffffffff\n    /* \"#utility.yul\":3187:3192   */\n  dup3\n    /* \"#utility.yul\":3183:3237   */\n  and\n    /* \"#utility.yul\":3172:3237   */\n  swap1\n  pop\n    /* \"#utility.yul\":3117:3243   */\n  swap2\n  swap1\n  pop\n  jump\t// out\n    /* \"#utility.yul\":3249:3345   */\ntag_52:\n    /* \"#utility.yul\":3286:3293   */\n  0x00\n    /* \"#utility.yul\":3315:3339   */\n  tag_119\n    /* \"#utility.yul\":3333:3338   */\n  dup3\n    /* \"#utility.yul\":3315:3339   */\n  tag_51\n  jump\t// in\ntag_119:\n    /* \"#utility.yul\":3304:3339   */\n  swap1\n  pop\n    /* \"#utility.yul\":3249:3345   */\n  swap2\n  swap1\n  pop\n  jump\t// out\n    /* \"#utility.yul\":3351:3473   */\ntag_53:\n    /* \"#utility.yul\":3424:3448   */\n  tag_121\n    /* \"#utility.yul\":3442:3447   */\n  dup2\n    /* \"#utility.yul\":3424:3448   */\n  tag_52\n  jump\t// in\ntag_121:\n    /* \"#utility.yul\":3417:3422   */\n  dup2\n    /* \"#utility.yul\":3414:3449   */\n  eq\n    /* \"#utility.yul\":3404:3467   */\n  tag_122\n  jumpi\n    /* \"#utility.yul\":3463:3464   */\n  0x00\n    /* \"#utility.yul\":3460:3461   */\n  dup1\n    /* \"#utility.yul\":3453:3465   */\n  revert\n    /* \"#utility.yul\":3404:3467   */\ntag_122:\n    /* \"#utility.yul\":3351:3473   */\n  pop\n  jump\t// out\n    /* \"#utility.yul\":3479:3622   */\ntag_54:\n    /* \"#utility.yul\":3536:3541   */\n  0x00\n    /* \"#utility.yul\":3567:3573   */\n  dup2\n    /* \"#utility.yul\":3561:3574   */\n  mload\n    /* \"#utility.yul\":3552:3574   */\n  swap1\n  pop\n    /* \"#utility.yul\":3583:3616   */\n  tag_124\n    /* \"#utility.yul\":3610:3615   */\n  dup2\n    /* \"#utility.yul\":3583:3616   */\n  tag_53\n  jump\t// in\ntag_124:\n    /* \"#utility.yul\":3479:3622   */\n  swap3\n  swap2\n  pop\n  pop\n  jump\t// out\n    /* \"#utility.yul\":3645:4377   */\ntag_55:\n    /* \"#utility.yul\":3752:3757   */\n  0x00\n    /* \"#utility.yul\":3777:3858   */\n  tag_126\n    /* \"#utility.yul\":3793:3857   */\n  tag_127\n    /* \"#utility.yul\":3850:3856   */\n  dup5\n    /* \"#utility.yul\":3793:3857   */\n  tag_49\n  jump\t// in\ntag_127:\n    /* \"#utility.yul\":3777:3858   */\n  tag_44\n  jump\t// in\ntag_126:\n    /* \"#utility.yul\":3768:3858   */\n  swap1\n  pop\n    /* \"#utility.yul\":3878:3883   */\n  dup1\n    /* \"#utility.yul\":3907:3913   */\n  dup4\n    /* \"#utility.yul\":3900:3905   */\n  dup3\n    /* \"#utility.yul\":3893:3914   */\n  mstore\n    /* \"#utility.yul\":3941:3945   */\n  0x20\n    /* \"#utility.yul\":3934:3939   */\n  dup3\n    /* \"#utility.yul\":3930:3946   */\n  add\n    /* \"#utility.yul\":3923:3946   */\n  swap1\n  pop\n    /* \"#utility.yul\":3994:3998   */\n  0x20\n    /* \"#utility.yul\":3986:3992   */\n  dup5\n    /* \"#utility.yul\":3982:3999   */\n  mul\n    /* \"#utility.yul\":3974:3980   */\n  dup4\n    /* \"#utility.yul\":3970:4000   */\n  add\n    /* \"#utility.yul\":4023:4026   */\n  dup6\n    /* \"#utility.yul\":4015:4021   */\n  dup2\n    /* \"#utility.yul\":4012:4027   */\n  gt\n    /* \"#utility.yul\":4009:4131   */\n  iszero\n  tag_128\n  jumpi\n    /* \"#utility.yul\":4042:4121   */\n  tag_129\n  tag_50\n  jump\t// in\ntag_129:\n    /* \"#utility.yul\":4009:4131   */\ntag_128:\n    /* \"#utility.yul\":4157:4163   */\n  dup4\n    /* \"#utility.yul\":4140:4371   */\ntag_130:\n    /* \"#utility.yul\":4174:4180   */\n  dup2\n    /* \"#utility.yul\":4169:4172   */\n  dup2\n    /* \"#utility.yul\":4166:4181   */\n  lt\n    /* \"#utility.yul\":4140:4371   */\n  iszero\n  tag_132\n  jumpi\n    /* \"#utility.yul\":4249:4252   */\n  dup1\n    /* \"#utility.yul\":4278:4326   */\n  tag_133\n    /* \"#utility.yul\":4322:4325   */\n  dup9\n    /* \"#utility.yul\":4310:4320   */\n  dup3\n    /* \"#utility.yul\":4278:4326   */\n  tag_54\n  jump\t// in\ntag_133:\n    /* \"#utility.yul\":4273:4276   */\n  dup5\n    /* \"#utility.yul\":4266:4327   */\n  mstore\n    /* \"#utility.yul\":4356:4360   */\n  0x20\n    /* \"#utility.yul\":4351:4354   */\n  dup5\n    /* \"#utility.yul\":4347:4361   */\n  add\n    /* \"#utility.yul\":4340:4361   */\n  swap4\n  pop\n    /* \"#utility.yul\":4216:4371   */\n  pop\n    /* \"#utility.yul\":4200:4204   */\n  0x20\n    /* \"#utility.yul\":4195:4198   */\n  dup2\n    /* \"#utility.yul\":4191:4205   */\n  add\n    /* \"#utility.yul\":4184:4205   */\n  swap1\n  pop\n    /* \"#utility.yul\":4140:4371   */\n  jump(tag_130)\ntag_132:\n    /* \"#utility.yul\":4144:4165   */\n  pop\n    /* \"#utility.yul\":3758:4377   */\n  pop\n  pop\n    /* \"#utility.yul\":3645:4377   */\n  swap4\n  swap3\n  pop\n  pop\n  pop\n  jump\t// out\n    /* \"#utility.yul\":4400:4785   */\ntag_56:\n    /* \"#utility.yul\":4482:4487   */\n  0x00\n    /* \"#utility.yul\":4531:4534   */\n  dup3\n    /* \"#utility.yul\":4524:4528   */\n  0x1f\n    /* \"#utility.yul\":4516:4522   */\n  dup4\n    /* \"#utility.yul\":4512:4529   */\n  add\n    /* \"#utility.yul\":4508:4535   */\n  slt\n    /* \"#utility.yul\":4498:4620   */\n  tag_135\n  jumpi\n    /* \"#utility.yul\":4539:4618   */\n  tag_136\n  tag_39\n  jump\t// in\ntag_136:\n    /* \"#utility.yul\":4498:4620   */\ntag_135:\n    /* \"#utility.yul\":4649:4655   */\n  dup2\n    /* \"#utility.yul\":4643:4656   */\n  mload\n    /* \"#utility.yul\":4674:4779   */\n  tag_137\n    /* \"#utility.yul\":4775:4778   */\n  dup5\n    /* \"#utility.yul\":4767:4773   */\n  dup3\n    /* \"#utility.yul\":4760:4764   */\n  0x20\n    /* \"#utility.yul\":4752:4758   */\n  dup7\n    /* \"#utility.yul\":4748:4765   */\n  add\n    /* \"#utility.yul\":4674:4779   */\n  tag_55\n  jump\t// in\ntag_137:\n    /* \"#utility.yul\":4665:4779   */\n  swap2\n  pop\n    /* \"#utility.yul\":4488:4785   */\n  pop\n    /* \"#utility.yul\":4400:4785   */\n  swap3\n  swap2\n  pop\n  pop\n  jump\t// out\n    /* \"#utility.yul\":4791:6003   */\ntag_3:\n    /* \"#utility.yul\":4924:4930   */\n  0x00\n    /* \"#utility.yul\":4932:4938   */\n  dup1\n    /* \"#utility.yul\":4940:4946   */\n  0x00\n    /* \"#utility.yul\":4989:4991   */\n  0x60\n    /* \"#utility.yul\":4977:4986   */\n  dup5\n    /* \"#utility.yul\":4968:4975   */\n  dup7\n    /* \"#utility.yul\":4964:4987   */\n  sub\n    /* \"#utility.yul\":4960:4992   */\n  slt\n    /* \"#utility.yul\":4957:5076   */\n  iszero\n  tag_139\n  jumpi\n    /* \"#utility.yul\":4995:5074   */\n  tag_140\n  tag_37\n  jump\t// in\ntag_140:\n    /* \"#utility.yul\":4957:5076   */\ntag_139:\n    /* \"#utility.yul\":5136:5137   */\n  0x00\n    /* \"#utility.yul\":5125:5134   */\n  dup5\n    /* \"#utility.yul\":5121:5138   */\n  add\n    /* \"#utility.yul\":5115:5139   */\n  mload\n    /* \"#utility.yul\":5166:5184   */\n  0xffffffffffffffff\n    /* \"#utility.yul\":5158:5164   */\n  dup2\n    /* \"#utility.yul\":5155:5185   */\n  gt\n    /* \"#utility.yul\":5152:5269   */\n  iszero\n  tag_141\n  jumpi\n    /* \"#utility.yul\":5188:5267   */\n  tag_142\n  tag_38\n  jump\t// in\ntag_142:\n    /* \"#utility.yul\":5152:5269   */\ntag_141:\n    /* \"#utility.yul\":5293:5367   */\n  tag_143\n    /* \"#utility.yul\":5359:5366   */\n  dup7\n    /* \"#utility.yul\":5350:5356   */\n  dup3\n    /* \"#utility.yul\":5339:5348   */\n  dup8\n    /* \"#utility.yul\":5335:5357   */\n  add\n    /* \"#utility.yul\":5293:5367   */\n  tag_48\n  jump\t// in\ntag_143:\n    /* \"#utility.yul\":5283:5367   */\n  swap4\n  pop\n    /* \"#utility.yul\":5086:5377   */\n  pop\n    /* \"#utility.yul\":5437:5439   */\n  0x20\n    /* \"#utility.yul\":5426:5435   */\n  dup5\n    /* \"#utility.yul\":5422:5440   */\n  add\n    /* \"#utility.yul\":5416:5441   */\n  mload\n    /* \"#utility.yul\":5468:5486   */\n  0xffffffffffffffff\n    /* \"#utility.yul\":5460:5466   */\n  dup2\n    /* \"#utility.yul\":5457:5487   */\n  gt\n    /* \"#utility.yul\":5454:5571   */\n  iszero\n  tag_144\n  jumpi\n    /* \"#utility.yul\":5490:5569   */\n  tag_145\n  tag_38\n  jump\t// in\ntag_145:\n    /* \"#utility.yul\":5454:5571   */\ntag_144:\n    /* \"#utility.yul\":5595:5669   */\n  tag_146\n    /* \"#utility.yul\":5661:5668   */\n  dup7\n    /* \"#utility.yul\":5652:5658   */\n  dup3\n    /* \"#utility.yul\":5641:5650   */\n  dup8\n    /* \"#utility.yul\":5637:5659   */\n  add\n    /* \"#utility.yul\":5595:5669   */\n  tag_48\n  jump\t// in\ntag_146:\n    /* \"#utility.yul\":5585:5669   */\n  swap3\n  pop\n    /* \"#utility.yul\":5387:5679   */\n  pop\n    /* \"#utility.yul\":5739:5741   */\n  0x40\n    /* \"#utility.yul\":5728:5737   */\n  dup5\n    /* \"#utility.yul\":5724:5742   */\n  add\n    /* \"#utility.yul\":5718:5743   */\n  mload\n    /* \"#utility.yul\":5770:5788   */\n  0xffffffffffffffff\n    /* \"#utility.yul\":5762:5768   */\n  dup2\n    /* \"#utility.yul\":5759:5789   */\n  gt\n    /* \"#utility.yul\":5756:5873   */\n  iszero\n  tag_147\n  jumpi\n    /* \"#utility.yul\":5792:5871   */\n  tag_148\n  tag_38\n  jump\t// in\ntag_148:\n    /* \"#utility.yul\":5756:5873   */\ntag_147:\n    /* \"#utility.yul\":5897:5986   */\n  tag_149\n    /* \"#utility.yul\":5978:5985   */\n  dup7\n    /* \"#utility.yul\":5969:5975   */\n  dup3\n    /* \"#utility.yul\":5958:5967   */\n  dup8\n    /* \"#utility.yul\":5954:5976   */\n  add\n    /* \"#utility.yul\":5897:5986   */\n  tag_56\n  jump\t// in\ntag_149:\n    /* \"#utility.yul\":5887:5986   */\n  swap2\n  pop\n    /* \"#utility.yul\":5689:5996   */\n  pop\n    /* \"#utility.yul\":4791:6003   */\n  swap3\n  pop\n  swap3\n  pop\n  swap3\n  jump\t// out\n    /* \"#utility.yul\":6009:6108   */\ntag_57:\n    /* \"#utility.yul\":6061:6067   */\n  0x00\n    /* \"#utility.yul\":6095:6100   */\n  dup2\n    /* \"#utility.yul\":6089:6101   */\n  mload\n    /* \"#utility.yul\":6079:6101   */\n  swap1\n  pop\n    /* \"#utility.yul\":6009:6108   */\n  swap2\n  swap1\n  pop\n  jump\t// out\n    /* \"#utility.yul\":6114:6294   */\ntag_58:\n    /* \"#utility.yul\":6162:6239   */\n  0x4e487b7100000000000000000000000000000000000000000000000000000000\n    /* \"#utility.yul\":6159:6160   */\n  0x00\n    /* \"#utility.yul\":6152:6240   */\n  mstore\n    /* \"#utility.yul\":6259:6263   */\n  0x22\n    /* \"#utility.yul\":6256:6257   */\n  0x04\n    /* \"#utility.yul\":6249:6264   */\n  mstore\n    /* \"#utility.yul\":6283:6287   */\n  0x24\n    /* \"#utility.yul\":6280:6281   */\n  0x00\n    /* \"#utility.yul\":6273:6288   */\n  revert\n    /* \"#utility.yul\":6300:6620   */\ntag_59:\n    /* \"#utility.yul\":6344:6350   */\n  0x00\n    /* \"#utility.yul\":6381:6382   */\n  0x02\n    /* \"#utility.yul\":6375:6379   */\n  dup3\n    /* \"#utility.yul\":6371:6383   */\n  div\n    /* \"#utility.yul\":6361:6383   */\n  swap1\n  pop\n    /* \"#utility.yul\":6428:6429   */\n  0x01\n    /* \"#utility.yul\":6422:6426   */\n  dup3\n    /* \"#utility.yul\":6418:6430   */\n  and\n    /* \"#utility.yul\":6449:6467   */\n  dup1\n    /* \"#utility.yul\":6439:6520   */\n  tag_153\n  jumpi\n    /* \"#utility.yul\":6505:6509   */\n  0x7f\n    /* \"#utility.yul\":6497:6503   */\n  dup3\n    /* \"#utility.yul\":6493:6510   */\n  and\n    /* \"#utility.yul\":6483:6510   */\n  swap2\n  pop\n    /* \"#utility.yul\":6439:6520   */\ntag_153:\n    /* \"#utility.yul\":6567:6569   */\n  0x20\n    /* \"#utility.yul\":6559:6565   */\n  dup3\n    /* \"#utility.yul\":6556:6570   */\n  lt\n    /* \"#utility.yul\":6536:6554   */\n  dup2\n    /* \"#utility.yul\":6533:6571   */\n  sub\n    /* \"#utility.yul\":6530:6614   */\n  tag_154\n  jumpi\n    /* \"#utility.yul\":6586:6604   */\n  tag_155\n  tag_58\n  jump\t// in\ntag_155:\n    /* \"#utility.yul\":6530:6614   */\ntag_154:\n    /* \"#utility.yul\":6351:6620   */\n  pop\n    /* \"#utility.yul\":6300:6620   */\n  swap2\n  swap1\n  pop\n  jump\t// out\n    /* \"#utility.yul\":6626:6767   */\ntag_60:\n    /* \"#utility.yul\":6675:6679   */\n  0x00\n    /* \"#utility.yul\":6698:6701   */\n  dup2\n    /* \"#utility.yul\":6690:6701   */\n  swap1\n  pop\n    /* \"#utility.yul\":6721:6724   */\n  dup2\n    /* \"#utility.yul\":6718:6719   */\n  0x00\n    /* \"#utility.yul\":6711:6725   */\n  mstore\n    /* \"#utility.yul\":6755:6759   */\n  0x20\n    /* \"#utility.yul\":6752:6753   */\n  0x00\n    /* \"#utility.yul\":6742:6760   */\n  keccak256\n    /* \"#utility.yul\":6734:6760   */\n  swap1\n  pop\n    /* \"#utility.yul\":6626:6767   */\n  swap2\n  swap1\n  pop\n  jump\t// out\n    /* \"#utility.yul\":6773:6866   */\ntag_61:\n    /* \"#utility.yul\":6810:6816   */\n  0x00\n    /* \"#utility.yul\":6857:6859   */\n  0x20\n    /* \"#utility.yul\":6852:6854   */\n  0x1f\n    /* \"#utility.yul\":6845:6850   */\n  dup4\n    /* \"#utility.yul\":6841:6855   */\n  add\n    /* \"#utility.yul\":6837:6860   */\n  div\n    /* \"#utility.yul\":6827:6860   */\n  swap1\n  pop\n    /* \"#utility.yul\":6773:6866   */\n  swap2\n  swap1\n  pop\n  jump\t// out\n    /* \"#utility.yul\":6872:6979   */\ntag_62:\n    /* \"#utility.yul\":6916:6924   */\n  0x00\n    /* \"#utility.yul\":6966:6971   */\n  dup3\n    /* \"#utility.yul\":6960:6964   */\n  dup3\n    /* \"#utility.yul\":6956:6972   */\n  shl\n    /* \"#utility.yul\":6935:6972   */\n  swap1\n  pop\n    /* \"#utility.yul\":6872:6979   */\n  swap3\n  swap2\n  pop\n  pop\n  jump\t// out\n    /* \"#utility.yul\":6985:7378   */\ntag_63:\n    /* \"#utility.yul\":7054:7060   */\n  0x00\n    /* \"#utility.yul\":7104:7105   */\n  0x08\n    /* \"#utility.yul\":7092:7102   */\n  dup4\n    /* \"#utility.yul\":7088:7106   */\n  mul\n    /* \"#utility.yul\":7127:7224   */\n  tag_160\n    /* \"#utility.yul\":7157:7223   */\n  0xffffffffffffffffffffffffffffffffffffffffffffffffffffffffffffffff\n    /* \"#utility.yul\":7146:7155   */\n  dup3\n    /* \"#utility.yul\":7127:7224   */\n  tag_62\n  jump\t// in\ntag_160:\n    /* \"#utility.yul\":7245:7284   */\n  tag_161\n    /* \"#utility.yul\":7275:7283   */\n  dup7\n    /* \"#utility.yul\":7264:7273   */\n  dup4\n    /* \"#utility.yul\":7245:7284   */\n  tag_62\n  jump\t// in\ntag_161:\n    /* \"#utility.yul\":7233:7284   */\n  swap6\n  pop\n    /* \"#utility.yul\":7317:7321   */\n  dup1\n    /* \"#utility.yul\":7313:7322   */\n  not\n    /* \"#utility.yul\":7306:7311   */\n  dup5\n    /* \"#utility.yul\":7302:7323   */\n  and\n    /* \"#utility.yul\":7293:7323   */\n  swap4\n  pop\n    /* \"#utility.yul\":7366:7370   */\n  dup1\n    /* \"#utility.yul\":7356:7364   */\n  dup7\n    /* \"#utility.yul\":7352:7371   */\n  and\n    /* \"#utility.yul\":7345:7350   */\n  dup5\n    /* \"#utility.yul\":7342:7372   */\n  or\n    /* \"#utility.yul\":7332:7372   */\n  swap3\n  pop\n    /* \"#utility.yul\":7061:7378   */\n  pop\n  pop\n    /* \"#utility.yul\":6985:7378   */\n  swap4\n  swap3\n  pop\n  pop\n  pop\n  jump\t// out\n    /* \"#utility.yul\":7384:7461   */\ntag_64:\n    /* \"#utility.yul\":7421:7428   */\n  0x00\n    /* \"#utility.yul\":7450:7455   */\n  dup2\n    /* \"#utility.yul\":7439:7455   */\n  swap1\n  pop\n    /* \"#utility.yul\":7384:7461   */\n  swap2\n  swap1\n  pop\n  jump\t// out\n    /* \"#utility.yul\":7467:7527   */\ntag_65:\n    /* \"#utility.yul\":7495:7498   */\n  0x00\n    /* \"#utility.yul\":7516:7521   */\n  dup2\n    /* \"#utility.yul\":7509:7521   */\n  swap1\n  pop\n    /* \"#utility.yul\":7467:7527   */\n  swap2\n  swap1\n  pop\n  jump\t// out\n    /* \"#utility.yul\":7533:7675   */\ntag_66:\n    /* \"#utility.yul\":7583:7592   */\n  0x00\n    /* \"#utility.yul\":7616:7669   */\n  tag_165\n    /* \"#utility.yul\":7634:7668   */\n  tag_166\n    /* \"#utility.yul\":7643:7667   */\n  tag_167\n    /* \"#utility.yul\":7661:7666   */\n  dup5\n    /* \"#utility.yul\":7643:7667   */\n  tag_64\n  jump\t// in\ntag_167:\n    /* \"#utility.yul\":7634:7668   */\n  tag_65\n  jump\t// in\ntag_166:\n    /* \"#utility.yul\":7616:7669   */\n  tag_64\n  jump\t// in\ntag_165:\n    /* \"#utility.yul\":7603:7669   */\n  swap1\n  pop\n    /* \"#utility.yul\":7533:7675   */\n  swap2\n  swap1\n  pop\n  jump\t// out\n    /* \"#utility.yul\":7681:7756   */\ntag_67:\n    /* \"#utility.yul\":7724:7727   */\n  0x00\n    /* \"#utility.yul\":7745:7750   */\n  dup2\n    /* \"#utility.yul\":7738:7750   */\n  swap1\n  pop\n    /* \"#utility.yul\":7681:7756   */\n  swap2\n  swap1\n  pop\n  jump\t// out\n    /* \"#utility.yul\":7762:8031   */\ntag_68:\n    /* \"#utility.yul\":7872:7911   */\n  tag_170\n    /* \"#utility.yul\":7903:7910   */\n  dup4\n    /* \"#utility.yul\":7872:7911   */\n  tag_66\n  jump\t// in\ntag_170:\n    /* \"#utility.yul\":7933:8024   */\n  tag_171\n    /* \"#utility.yul\":7982:8023   */\n  tag_172\n    /* \"#utility.yul\":8006:8022   */\n  dup3\n    /* \"#utility.yul\":7982:8023   */\n  tag_67\n  jump\t// in\ntag_172:\n    /* \"#utility.yul\":7974:7980   */\n  dup5\n    /* \"#utility.yul\":7967:7971   */\n  dup5\n    /* \"#utility.yul\":7961:7972   */\n  sload\n    /* \"#utility.yul\":7933:8024   */\n  tag_63\n  jump\t// in\ntag_171:\n    /* \"#utility.yul\":7927:7931   */\n  dup3\n    /* \"#utility.yul\":7920:8025   */\n  sstore\n    /* \"#utility.yul\":7838:8031   */\n  pop\n    /* \"#utility.yul\":7762:8031   */\n  pop\n  pop\n  pop\n  jump\t// out\n    /* \"#utility.yul\":8037:8110   */\ntag_69:\n    /* \"#utility.yul\":8082:8085   */\n  0x00\n    /* \"#utility.yul\":8037:8110   */\n  swap1\n  jump\t// out\n    /* \"#utility.yul\":8116:8305   */\ntag_70:\n    /* \"#utility.yul\":8193:8225   */\n  tag_175\n  tag_69\n  jump\t// in\ntag_175:\n    /* \"#utility.yul\":8234:8299   */\n  tag_176\n    /* \"#utility.yul\":8292:8298   */\n  dup2\n    /* \"#utility.yul\":8284:8290   */\n  dup5\n    /* \"#utility.yul\":8278:8282   */\n  dup5\n    /* \"#utility.yul\":8234:8299   */\n  tag_68\n  jump\t// in\ntag_176:\n    /* \"#utility.yul\":8169:8305   */\n  pop\n    /* \"#utility.yul\":8116:8305   */\n  pop\n  pop\n  jump\t// out\n    /* \"#utility.yul\":8311:8497   */\ntag_71:\n    /* \"#utility.yul\":8371:8491   */\ntag_178:\n    /* \"#utility.yul\":8388:8391   */\n  dup2\n    /* \"#utility.yul\":8381:8386   */\n  dup2\n    /* \"#utility.yul\":8378:8392   */\n  lt\n    /* \"#utility.yul\":8371:8491   */\n  iszero\n  tag_180\n  jumpi\n    /* \"#utility.yul\":8442:8481   */\n  tag_181\n    /* \"#utility.yul\":8479:8480   */\n  0x00\n    /* \"#utility.yul\":8472:8477   */\n  dup3\n    /* \"#utility.yul\":8442:8481   */\n  tag_70\n  jump\t// in\ntag_181:\n    /* \"#utility.yul\":8415:8416   */\n  0x01\n    /* \"#utility.yul\":8408:8413   */\n  dup2\n    /* \"#utility.yul\":8404:8417   */\n  add\n    /* \"#utility.yul\":8395:8417   */\n  swap1\n  pop\n    /* \"#utility.yul\":8371:8491   */\n  jump(tag_178)\ntag_180:\n    /* \"#utility.yul\":8311:8497   */\n  pop\n  pop\n  jump\t// out\n    /* \"#utility.yul\":8503:9046   */\ntag_72:\n    /* \"#utility.yul\":8604:8606   */\n  0x1f\n    /* \"#utility.yul\":8599:8602   */\n  dup3\n    /* \"#utility.yul\":8596:8607   */\n  gt\n    /* \"#utility.yul\":8593:9039   */\n  iszero\n  tag_183\n  jumpi\n    /* \"#utility.yul\":8638:8676   */\n  tag_184\n    /* \"#utility.yul\":8670:8675   */\n  dup2\n    /* \"#utility.yul\":8638:8676   */\n  tag_60\n  jump\t// in\ntag_184:\n    /* \"#utility.yul\":8722:8751   */\n  tag_185\n    /* \"#utility.yul\":8740:8750   */\n  dup5\n    /* \"#utility.yul\":8722:8751   */\n  tag_61\n  jump\t// in\ntag_185:\n    /* \"#utility.yul\":8712:8720   */\n  dup2\n    /* \"#utility.yul\":8708:8752   */\n  add\n    /* \"#utility.yul\":8905:8907   */\n  0x20\n    /* \"#utility.yul\":8893:8903   */\n  dup6\n    /* \"#utility.yul\":8890:8908   */\n  lt\n    /* \"#utility.yul\":8887:8936   */\n  iszero\n  tag_186\n  jumpi\n    /* \"#utility.yul\":8926:8934   */\n  dup2\n    /* \"#utility.yul\":8911:8934   */\n  swap1\n  pop\n    /* \"#utility.yul\":8887:8936   */\ntag_186:\n    /* \"#utility.yul\":8949:9029   */\n  tag_187\n    /* \"#utility.yul\":9005:9027   */\n  tag_188\n    /* \"#utility.yul\":9023:9026   */\n  dup6\n    /* \"#utility.yul\":9005:9027   */\n  tag_61\n  jump\t// in\ntag_188:\n    /* \"#utility.yul\":8995:9003   */\n  dup4\n    /* \"#utility.yul\":8991:9028   */\n  add\n    /* \"#utility.yul\":8978:8989   */\n  dup3\n    /* \"#utility.yul\":8949:9029   */\n  tag_71\n  jump\t// in\ntag_187:\n    /* \"#utility.yul\":8608:9039   */\n  pop\n  pop\n    /* \"#utility.yul\":8593:9039   */\ntag_183:\n    /* \"#utility.yul\":8503:9046   */\n  pop\n  pop\n  pop\n  jump\t// out\n    /* \"#utility.yul\":9052:9169   */\ntag_73:\n    /* \"#utility.yul\":9106:9114   */\n  0x00\n    /* \"#utility.yul\":9156:9161   */\n  dup3\n    /* \"#utility.yul\":9150:9154   */\n  dup3\n    /* \"#utility.yul\":9146:9162   */\n  shr\n    /* \"#utility.yul\":9125:9162   */\n  swap1\n  pop\n    /* \"#utility.yul\":9052:9169   */\n  swap3\n  swap2\n  pop\n  pop\n  jump\t// out\n    /* \"#utility.yul\":9175:9344   */\ntag_74:\n    /* \"#utility.yul\":9219:9225   */\n  0x00\n    /* \"#utility.yul\":9252:9303   */\n  tag_191\n    /* \"#utility.yul\":9300:9301   */\n  0x00\n    /* \"#utility.yul\":9296:9302   */\n  not\n    /* \"#utility.yul\":9288:9293   */\n  dup5\n    /* \"#utility.yul\":9285:9286   */\n  0x08\n    /* \"#utility.yul\":9281:9294   */\n  mul\n    /* \"#utility.yul\":9252:9303   */\n  tag_73\n  jump\t// in\ntag_191:\n    /* \"#utility.yul\":9248:9304   */\n  not\n    /* \"#utility.yul\":9333:9337   */\n  dup1\n    /* \"#utility.yul\":9327:9331   */\n  dup4\n    /* \"#utility.yul\":9323:9338   */\n  and\n    /* \"#utility.yul\":9313:9338   */\n  swap2\n  pop\n    /* \"#utility.yul\":9226:9344   */\n  pop\n    /* \"#utility.yul\":9175:9344   */\n  swap3\n  swap2\n  pop\n  pop\n  jump\t// out\n    /* \"#utility.yul\":9349:9644   */\ntag_75:\n    /* \"#utility.yul\":9425:9429   */\n  0x00\n    /* \"#utility.yul\":9571:9600   */\n  tag_193\n    /* \"#utility.yul\":9596:9599   */\n  dup4\n    /* \"#utility.yul\":9590:9594   */\n  dup4\n    /* \"#utility.yul\":9571:9600   */\n  tag_74\n  jump\t// in\ntag_193:\n    /* \"#utility.yul\":9563:9600   */\n  swap2\n  pop\n    /* \"#utility.yul\":9633:9636   */\n  dup3\n    /* \"#utility.yul\":9630:9631   */\n  0x02\n    /* \"#utility.yul\":9626:9637   */\n  mul\n    /* \"#utility.yul\":9620:9624   */\n  dup3\n    /* \"#utility.yul\":9617:9638   */\n  or\n    /* \"#utility.yul\":9609:9638   */\n  swap1\n  pop\n    /* \"#utility.yul\":9349:9644   */\n  swap3\n  swap2\n  pop\n  pop\n  jump\t// out\n    /* \"#utility.yul\":9649:11044   */\ntag_7:\n    /* \"#utility.yul\":9766:9803   */\n  tag_195\n    /* \"#utility.yul\":9799:9802   */\n  dup3\n    /* \"#utility.yul\":9766:9803   */\n  tag_57\n  jump\t// in\ntag_195:\n    /* \"#utility.yul\":9868:9886   */\n  0xffffffffffffffff\n    /* \"#utility.yul\":9860:9866   */\n  dup2\n    /* \"#utility.yul\":9857:9887   */\n  gt\n    /* \"#utility.yul\":9854:9910   */\n  iszero\n  tag_196\n  jumpi\n    /* \"#utility.yul\":9890:9908   */\n  tag_197\n  tag_42\n  jump\t// in\ntag_197:\n    /* \"#utility.yul\":9854:9910   */\ntag_196:\n    /* \"#utility.yul\":9934:9972   */\n  tag_198\n    /* \"#utility.yul\":9966:9970   */\n  dup3\n    /* \"#utility.yul\":9960:9971   */\n  sload\n    /* \"#utility.yul\":9934:9972   */\n  tag_59\n  jump\t// in\ntag_198:\n    /* \"#utility.yul\":10019:10086   */\n  tag_199\n    /* \"#utility.yul\":10079:10085   */\n  dup3\n    /* \"#utility.yul\":10071:10077   */\n  dup3\n    /* \"#utility.yul\":10065:10069   */\n  dup6\n    /* \"#utility.yul\":10019:10086   */\n  tag_72\n  jump\t// in\ntag_199:\n    /* \"#utility.yul\":10113:10114   */\n  0x00\n    /* \"#utility.yul\":10137:10141   */\n  0x20\n    /* \"#utility.yul\":10124:10141   */\n  swap1\n  pop\n    /* \"#utility.yul\":10169:10171   */\n  0x1f\n    /* \"#utility.yul\":10161:10167   */\n  dup4\n    /* \"#utility.yul\":10158:10172   */\n  gt\n    /* \"#utility.yul\":10186:10187   */\n  0x01\n    /* \"#utility.yul\":10181:10799   */\n  dup2\n  eq\n  tag_201\n  jumpi\n    /* \"#utility.yul\":10843:10844   */\n  0x00\n    /* \"#utility.yul\":10860:10866   */\n  dup5\n    /* \"#utility.yul\":10857:10934   */\n  iszero\n  tag_202\n  jumpi\n    /* \"#utility.yul\":10909:10918   */\n  dup3\n    /* \"#utility.yul\":10904:10907   */\n  dup8\n    /* \"#utility.yul\":10900:10919   */\n  add\n    /* \"#utility.yul\":10894:10920   */\n  mload\n    /* \"#utility.yul\":10885:10920   */\n  swap1\n  pop\n    /* \"#utility.yul\":10857:10934   */\ntag_202:\n    /* \"#utility.yul\":10960:11027   */\n  tag_203\n    /* \"#utility.yul\":11020:11026   */\n  dup6\n    /* \"#utility.yul\":11013:11018   */\n  dup3\n    /* \"#utility.yul\":10960:11027   */\n  tag_75\n  jump\t// in\ntag_203:\n    /* \"#utility.yul\":10954:10958   */\n  dup7\n    /* \"#utility.yul\":10947:11028   */\n  sstore\n    /* \"#utility.yul\":10816:11038   */\n  pop\n    /* \"#utility.yul\":10151:11038   */\n  jump(tag_200)\n    /* \"#utility.yul\":10181:10799   */\ntag_201:\n    /* \"#utility.yul\":10233:10237   */\n  0x1f\n    /* \"#utility.yul\":10229:10238   */\n  not\n    /* \"#utility.yul\":10221:10227   */\n  dup5\n    /* \"#utility.yul\":10217:10239   */\n  and\n    /* \"#utility.yul\":10267:10304   */\n  tag_204\n    /* \"#utility.yul\":10299:10303   */\n  dup7\n    /* \"#utility.yul\":10267:10304   */\n  tag_60\n  jump\t// in\ntag_204:\n    /* \"#utility.yul\":10326:10327   */\n  0x00\n    /* \"#utility.yul\":10340:10548   */\ntag_205:\n    /* \"#utility.yul\":10354:10361   */\n  dup3\n    /* \"#utility.yul\":10351:10352   */\n  dup2\n    /* \"#utility.yul\":10348:10362   */\n  lt\n    /* \"#utility.yul\":10340:10548   */\n  iszero\n  tag_207\n  jumpi\n    /* \"#utility.yul\":10433:10442   */\n  dup5\n    /* \"#utility.yul\":10428:10431   */\n  dup10\n    /* \"#utility.yul\":10424:10443   */\n  add\n    /* \"#utility.yul\":10418:10444   */\n  mload\n    /* \"#utility.yul\":10410:10416   */\n  dup3\n    /* \"#utility.yul\":10403:10445   */\n  sstore\n    /* \"#utility.yul\":10484:10485   */\n  0x01\n    /* \"#utility.yul\":10476:10482   */\n  dup3\n    /* \"#utility.yul\":10472:10486   */\n  add\n    /* \"#utility.yul\":10462:10486   */\n  swap2\n  pop\n    /* \"#utility.yul\":10531:10533   */\n  0x20\n    /* \"#utility.yul\":10520:10529   */\n  dup6\n    /* \"#utility.yul\":10516:10534   */\n  add\n    /* \"#utility.yul\":10503:10534   */\n  swap5\n  pop\n    /* \"#utility.yul\":10377:10381   */\n  0x20\n    /* \"#utility.yul\":10374:10375   */\n  dup2\n    /* \"#utility.yul\":10370:10382   */\n  add\n    /* \"#utility.yul\":10365:10382   */\n  swap1\n  pop\n    /* \"#utility.yul\":10340:10548   */\n  jump(tag_205)\ntag_207:\n    /* \"#utility.yul\":10576:10582   */\n  dup7\n    /* \"#utility.yul\":10567:10574   */\n  dup4\n    /* \"#utility.yul\":10564:10583   */\n  lt\n    /* \"#utility.yul\":10561:10740   */\n  iszero\n  tag_208\n  jumpi\n    /* \"#utility.yul\":10634:10643   */\n  dup5\n    /* \"#utility.yul\":10629:10632   */\n  dup10\n    /* \"#utility.yul\":10625:10644   */\n  add\n    /* \"#utility.yul\":10619:10645   */\n  mload\n    /* \"#utility.yul\":10677:10725   */\n  tag_209\n    /* \"#utility.yul\":10719:10723   */\n  0x1f\n    /* \"#utility.yul\":10711:10717   */\n  dup10\n    /* \"#utility.yul\":10707:10724   */\n  and\n    /* \"#utility.yul\":10696:10705   */\n  dup3\n    /* \"#utility.yul\":10677:10725   */\n  tag_74\n  jump\t// in\ntag_209:\n    /* \"#utility.yul\":10669:10675   */\n  dup4\n    /* \"#utility.yul\":10662:10726   */\n  sstore\n    /* \"#utility.yul\":10584:10740   */\n  pop\n    /* \"#utility.yul\":10561:10740   */\ntag_208:\n    /* \"#utility.yul\":10786:10787   */\n  0x01\n    /* \"#utility.yul\":10782:10783   */\n  0x02\n    /* \"#utility.yul\":10774:10780   */\n  dup9\n    /* \"#utility.yul\":10770:10784   */\n  mul\n    /* \"#utility.yul\":10766:10788   */\n  add\n    /* \"#utility.yul\":10760:10764   */\n  dup9\n    /* \"#utility.yul\":10753:10789   */\n  sstore\n    /* \"#utility.yul\":10188:10799   */\n  pop\n  pop\n  pop\n    /* \"#utility.yul\":10151:11038   */\ntag_200:\n  pop\n    /* \"#utility.yul\":9741:11044   */\n  pop\n  pop\n  pop\n    /* \"#utility.yul\":9649:11044   */\n  pop\n  pop\n  jump\t// out\n    /* \"#utility.yul\":11050:11230   */\ntag_16:\n    /* \"#utility.yul\":11098:11175   */\n  0x4e487b7100000000000000000000000000000000000000000000000000000000\n    /* \"#utility.yul\":11095:11096   */\n  0x00\n    /* \"#utility.yul\":11088:11176   */\n  mstore\n    /* \"#utility.yul\":11195:11199   */\n  0x32\n    /* \"#utility.yul\":11192:11193   */\n  0x04\n    /* \"#utility.yul\":11185:11200   */\n  mstore\n    /* \"#utility.yul\":11219:11223   */\n  0x24\n    /* \"#utility.yul\":11216:11217   */\n  0x00\n    /* \"#utility.yul\":11209:11224   */\n  revert\n    /* \"#utility.yul\":11236:11416   */\ntag_76:\n    /* \"#utility.yul\":11284:11361   */\n  0x4e487b7100000000000000000000000000000000000000000000000000000000\n    /* \"#utility.yul\":11281:11282   */\n  0x00\n    /* \"#utility.yul\":11274:11362   */\n  mstore\n    /* \"#utility.yul\":11381:11385   */\n  0x11\n    /* \"#utility.yul\":11378:11379   */\n  0x04\n    /* \"#utility.yul\":11371:11386   */\n  mstore\n    /* \"#utility.yul\":11405:11409   */\n  0x24\n    /* \"#utility.yul\":11402:11403   */\n  0x00\n    /* \"#utility.yul\":11395:11410   */\n  revert\n    /* \"#utility.yul\":11422:11655   */\ntag_18:\n    /* \"#utility.yul\":11461:11464   */\n  0x00\n    /* \"#utility.yul\":11484:11508   */\n  tag_213\n    /* \"#utility.yul\":11502:11507   */\n  dup3\n    /* \"#utility.yul\":11484:11508   */\n  tag_64\n  jump\t// in\ntag_213:\n    /* \"#utility.yul\":11475:11508   */\n  swap2\n  pop\n    /* \"#utility.yul\":11530:11596   */\n  0xffffffffffffffffffffffffffffffffffffffffffffffffffffffffffffffff\n    /* \"#utility.yul\":11523:11528   */\n  dup3\n    /* \"#utility.yul\":11520:11597   */\n  sub\n    /* \"#utility.yul\":11517:11620   */\n  tag_214\n  jumpi\n    /* \"#utility.yul\":11600:11618   */\n  tag_215\n  tag_76\n  jump\t// in\ntag_215:\n    /* \"#utility.yul\":11517:11620   */\ntag_214:\n    /* \"#utility.yul\":11647:11648   */\n  0x01\n    /* \"#utility.yul\":11640:11645   */\n  dup3\n    /* \"#utility.yul\":11636:11649   */\n  add\n    /* \"#utility.yul\":11629:11649   */\n  swap1\n  pop\n    /* \"#utility.yul\":11422:11655   */\n  swap2\n  swap1\n  pop\n  jump\t// out\n    /* \"#utility.yul\":11661:11779   */\ntag_77:\n    /* \"#utility.yul\":11748:11772   */\n  tag_217\n    /* \"#utility.yul\":11766:11771   */\n  dup2\n    /* \"#utility.yul\":11748:11772   */\n  tag_52\n  jump\t// in\ntag_217:\n    /* \"#utility.yul\":11743:11746   */\n  dup3\n    /* \"#utility.yul\":11736:11773   */\n  mstore\n    /* \"#utility.yul\":11661:11779   */\n  pop\n  pop\n  jump\t// out\n    /* \"#utility.yul\":11785:11862   */\ntag_78:\n    /* \"#utility.yul\":11822:11829   */\n  0x00\n    /* \"#utility.yul\":11851:11856   */\n  dup2\n    /* \"#utility.yul\":11840:11856   */\n  swap1\n  pop\n    /* \"#utility.yul\":11785:11862   */\n  swap2\n  swap1\n  pop\n  jump\t// out\n    /* \"#utility.yul\":11868:11986   */\ntag_79:\n    /* \"#utility.yul\":11955:11979   */\n  tag_220\n    /* \"#utility.yul\":11973:11978   */\n  dup2\n    /* \"#utility.yul\":11955:11979   */\n  tag_78\n  jump\t// in\ntag_220:\n    /* \"#utility.yul\":11950:11953   */\n  dup3\n    /* \"#utility.yul\":11943:11980   */\n  mstore\n    /* \"#utility.yul\":11868:11986   */\n  pop\n  pop\n  jump\t// out\n    /* \"#utility.yul\":11992:12434   */\ntag_20:\n    /* \"#utility.yul\":12141:12145   */\n  0x00\n    /* \"#utility.yul\":12179:12181   */\n  0x60\n    /* \"#utility.yul\":12168:12177   */\n  dup3\n    /* \"#utility.yul\":12164:12182   */\n  add\n    /* \"#utility.yul\":12156:12182   */\n  swap1\n  pop\n    /* \"#utility.yul\":12192:12263   */\n  tag_222\n    /* \"#utility.yul\":12260:12261   */\n  0x00\n    /* \"#utility.yul\":12249:12258   */\n  dup4\n    /* \"#utility.yul\":12245:12262   */\n  add\n    /* \"#utility.yul\":12236:12242   */\n  dup7\n    /* \"#utility.yul\":12192:12263   */\n  tag_77\n  jump\t// in\ntag_222:\n    /* \"#utility.yul\":12273:12345   */\n  tag_223\n    /* \"#utility.yul\":12341:12343   */\n  0x20\n    /* \"#utility.yul\":12330:12339   */\n  dup4\n    /* \"#utility.yul\":12326:12344   */\n  add\n    /* \"#utility.yul\":12317:12323   */\n  dup6\n    /* \"#utility.yul\":12273:12345   */\n  tag_79\n  jump\t// in\ntag_223:\n    /* \"#utility.yul\":12355:12427   */\n  tag_224\n    /* \"#utility.yul\":12423:12425   */\n  0x40\n    /* \"#utility.yul\":12412:12421   */\n  dup4\n    /* \"#utility.yul\":12408:12426   */\n  add\n    /* \"#utility.yul\":12399:12405   */\n  dup5\n    /* \"#utility.yul\":12355:12427   */\n  tag_77\n  jump\t// in\ntag_224:\n    /* \"#utility.yul\":11992:12434   */\n  swap5\n  swap4\n  pop\n  pop\n  pop\n  pop\n  jump\t// out\n    /* \"ERC777.sol\":24363:42184  contract ERC777 is Context, IERC777, IERC20 {... */\ntag_28:\n  dataSize(sub_0)\n  dup1\n  dataOffset(sub_0)\n  0x00\n  codecopy\n  0x00\n  return\nstop\n\nsub_0: assembly {\n        /* \"ERC777.sol\":24363:42184  contract ERC777 is Context, IERC777, IERC20 {... */\n      mstore(0x40, 0x80)\n      callvalue\n      dup1\n      iszero\n      tag_1\n      jumpi\n      0x00\n      dup1\n      revert\n    tag_1:\n      pop\n      jumpi(tag_2, lt(calldatasize, 0x04))\n      shr(0xe0, calldataload(0x00))\n      dup1\n      0x959b8c3f\n      gt\n      tag_21\n      jumpi\n      dup1\n      0xd95b6371\n      gt\n      tag_22\n      jumpi\n      dup1\n      0xd95b6371\n      eq\n      tag_16\n      jumpi\n      dup1\n      0xdd62ed3e\n      eq\n      tag_17\n      jumpi\n      dup1\n      0xfad8b32a\n      eq\n      tag_18\n      jumpi\n      dup1\n      0xfc673c4f\n      eq\n      tag_19\n      jumpi\n      dup1\n      0xfe9d9303\n      eq\n      tag_20\n      jumpi\n      jump(tag_2)\n    tag_22:\n      dup1\n      0x959b8c3f\n      eq\n      tag_12\n      jumpi\n      dup1\n      0x95d89b41\n      eq\n      tag_13\n      jumpi\n      dup1\n      0x9bd9bbc6\n      eq\n      tag_14\n      jumpi\n      dup1\n      0xa9059cbb\n      eq\n      tag_15\n      jumpi\n      jump(tag_2)\n    tag_21:\n      dup1\n      0x23b872dd\n      gt\n      tag_23\n      jumpi\n      dup1\n      0x23b872dd\n      eq\n      tag_7\n      jumpi\n      dup1\n      0x313ce567\n      eq\n      tag_8\n      jumpi\n      dup1\n      0x556f0dc7\n      eq\n      tag_9\n      jumpi\n      dup1\n      0x62ad1b83\n      eq\n      tag_10\n      jumpi\n      dup1\n      0x70a08231\n      eq\n      tag_11\n      jumpi\n      jump(tag_2)\n    tag_23:\n      dup1\n      0x06e48538\n      eq\n      tag_3\n      jumpi\n      dup1\n      0x06fdde03\n      eq\n      tag_4\n      jumpi\n      dup1\n      0x095ea7b3\n      eq\n      tag_5\n      jumpi\n      dup1\n      0x18160ddd\n      eq\n      tag_6\n      jumpi\n    tag_2:\n      0x00\n      dup1\n      revert\n        /* \"ERC777.sol\":29921:30053  function defaultOperators() public view virtual override returns (address[] memory) {... */\n    tag_3:\n      tag_24\n      tag_25\n      jump\t// in\n    tag_24:\n      mload(0x40)\n      tag_26\n      swap2\n      swap1\n      tag_27\n      jump\t// in\n    tag_26:\n      mload(0x40)\n      dup1\n      swap2\n      sub\n      swap1\n      return\n        /* \"ERC777.sol\":26287:26387  function name() public view virtual override returns (string memory) {... */\n    tag_4:\n      tag_28\n      tag_29\n      jump\t// in\n    tag_28:\n      mload(0x40)\n      tag_30\n      swap2\n      swap1\n      tag_31\n      jump\t// in\n    tag_30:\n      mload(0x40)\n      dup1\n      swap2\n      sub\n      swap1\n      return\n        /* \"ERC777.sol\":31733:31934  function approve(address spender, uint256 value) public virtual override returns (bool) {... */\n    tag_5:\n      tag_32\n      0x04\n      dup1\n      calldatasize\n      sub\n      dup2\n      add\n      swap1\n      tag_33\n      swap2\n      swap1\n      tag_34\n      jump\t// in\n    tag_33:\n      tag_35\n      jump\t// in\n    tag_32:\n      mload(0x40)\n      tag_36\n      swap2\n      swap1\n      tag_37\n      jump\t// in\n    tag_36:\n      mload(0x40)\n      dup1\n      swap2\n      sub\n      swap1\n      return\n        /* \"ERC777.sol\":27113:27238  function totalSupply() public view virtual override(IERC20, IERC777) returns (uint256) {... */\n    tag_6:\n      tag_38\n      tag_39\n      jump\t// in\n    tag_38:\n      mload(0x40)\n      tag_40\n      swap2\n      swap1\n      tag_41\n      jump\t// in\n    tag_40:\n      mload(0x40)\n      dup1\n      swap2\n      sub\n      swap1\n      return\n        /* \"ERC777.sol\":32430:32722  function transferFrom(address holder, address recipient, uint256 amount) public virtual override returns (bool) {... */\n    tag_7:\n      tag_42\n      0x04\n      dup1\n      calldatasize\n      sub\n      dup2\n      add\n      swap1\n      tag_43\n      swap2\n      swap1\n      tag_44\n      jump\t// in\n    tag_43:\n      tag_45\n      jump\t// in\n    tag_42:\n      mload(0x40)\n      tag_46\n      swap2\n      swap1\n      tag_37\n      jump\t// in\n    tag_46:\n      mload(0x40)\n      dup1\n      swap2\n      sub\n      swap1\n      return\n        /* \"ERC777.sol\":26744:26828  function decimals() public pure virtual returns (uint8) {... */\n    tag_8:\n      tag_47\n      tag_48\n      jump\t// in\n    tag_47:\n      mload(0x40)\n      tag_49\n      swap2\n      swap1\n      tag_50\n      jump\t// in\n    tag_49:\n      mload(0x40)\n      dup1\n      swap2\n      sub\n      swap1\n      return\n        /* \"ERC777.sol\":26950:27047  function granularity() public view virtual override returns (uint256) {... */\n    tag_9:\n      tag_51\n      tag_52\n      jump\t// in\n    tag_51:\n      mload(0x40)\n      tag_53\n      swap2\n      swap1\n      tag_41\n      jump\t// in\n    tag_53:\n      mload(0x40)\n      dup1\n      swap2\n      sub\n      swap1\n      return\n        /* \"ERC777.sol\":30179:30554  function operatorSend(... */\n    tag_10:\n      tag_54\n      0x04\n      dup1\n      calldatasize\n      sub\n      dup2\n      add\n      swap1\n      tag_55\n      swap2\n      swap1\n      tag_56\n      jump\t// in\n    tag_55:\n      tag_57\n      jump\t// in\n    tag_54:\n      stop\n        /* \"ERC777.sol\":27343:27495  function balanceOf(address tokenHolder) public view virtual override(IERC20, IERC777) returns (uint256) {... */\n    tag_11:\n      tag_58\n      0x04\n      dup1\n      calldatasize\n      sub\n      dup2\n      add\n      swap1\n      tag_59\n      swap2\n      swap1\n      tag_60\n      jump\t// in\n    tag_59:\n      tag_61\n      jump\t// in\n    tag_58:\n      mload(0x40)\n      tag_62\n      swap2\n      swap1\n      tag_41\n      jump\t// in\n    tag_62:\n      mload(0x40)\n      dup1\n      swap2\n      sub\n      swap1\n      return\n        /* \"ERC777.sol\":28946:29368  function authorizeOperator(address operator) public virtual override {... */\n    tag_12:\n      tag_63\n      0x04\n      dup1\n      calldatasize\n      sub\n      dup2\n      add\n      swap1\n      tag_64\n      swap2\n      swap1\n      tag_60\n      jump\t// in\n    tag_64:\n      tag_65\n      jump\t// in\n    tag_63:\n      stop\n        /* \"ERC777.sol\":26448:26552  function symbol() public view virtual override returns (string memory) {... */\n    tag_13:\n      tag_66\n      tag_67\n      jump\t// in\n    tag_66:\n      mload(0x40)\n      tag_68\n      swap2\n      swap1\n      tag_31\n      jump\t// in\n    tag_68:\n      mload(0x40)\n      dup1\n      swap2\n      sub\n      swap1\n      return\n        /* \"ERC777.sol\":27632:27797  function send(address recipient, uint256 amount, bytes memory data) public virtual override {... */\n    tag_14:\n      tag_69\n      0x04\n      dup1\n      calldatasize\n      sub\n      dup2\n      add\n      swap1\n      tag_70\n      swap2\n      swap1\n      tag_71\n      jump\t// in\n    tag_70:\n      tag_72\n      jump\t// in\n    tag_69:\n      stop\n        /* \"ERC777.sol\":28038:28224  function transfer(address recipient, uint256 amount) public virtual override returns (bool) {... */\n    tag_15:\n      tag_73\n      0x04\n      dup1\n      calldatasize\n      sub\n      dup2\n      add\n      swap1\n      tag_74\n      swap2\n      swap1\n      tag_34\n      jump\t// in\n    tag_74:\n      tag_75\n      jump\t// in\n    tag_73:\n      mload(0x40)\n      tag_76\n      swap2\n      swap1\n      tag_37\n      jump\t// in\n    tag_76:\n      mload(0x40)\n      dup1\n      swap2\n      sub\n      swap1\n      return\n        /* \"ERC777.sol\":28558:28874  function isOperatorFor(address operator, address tokenHolder) public view virtual override returns (bool) {... */\n    tag_16:\n      tag_77\n      0x04\n      dup1\n      calldatasize\n      sub\n      dup2\n      add\n      swap1\n      tag_78\n      swap2\n      swap1\n      tag_79\n      jump\t// in\n    tag_78:\n      tag_80\n      jump\t// in\n    tag_77:\n      mload(0x40)\n      tag_81\n      swap2\n      swap1\n      tag_37\n      jump\t// in\n    tag_81:\n      mload(0x40)\n      dup1\n      swap2\n      sub\n      swap1\n      return\n        /* \"ERC777.sol\":31263:31416  function allowance(address holder, address spender) public view virtual override returns (uint256) {... */\n    tag_17:\n      tag_82\n      0x04\n      dup1\n      calldatasize\n      sub\n      dup2\n      add\n      swap1\n      tag_83\n      swap2\n      swap1\n      tag_79\n      jump\t// in\n    tag_83:\n      tag_84\n      jump\t// in\n    tag_82:\n      mload(0x40)\n      tag_85\n      swap2\n      swap1\n      tag_41\n      jump\t// in\n    tag_85:\n      mload(0x40)\n      dup1\n      swap2\n      sub\n      swap1\n      return\n        /* \"ERC777.sol\":29437:29850  function revokeOperator(address operator) public virtual override {... */\n    tag_18:\n      tag_86\n      0x04\n      dup1\n      calldatasize\n      sub\n      dup2\n      add\n      swap1\n      tag_87\n      swap2\n      swap1\n      tag_60\n      jump\t// in\n    tag_87:\n      tag_88\n      jump\t// in\n    tag_86:\n      stop\n        /* \"ERC777.sol\":30682:31015  function operatorBurn(... */\n    tag_19:\n      tag_89\n      0x04\n      dup1\n      calldatasize\n      sub\n      dup2\n      add\n      swap1\n      tag_90\n      swap2\n      swap1\n      tag_91\n      jump\t// in\n    tag_90:\n      tag_92\n      jump\t// in\n    tag_89:\n      stop\n        /* \"ERC777.sol\":28361:28490  function burn(uint256 amount, bytes memory data) public virtual override {... */\n    tag_20:\n      tag_93\n      0x04\n      dup1\n      calldatasize\n      sub\n      dup2\n      add\n      swap1\n      tag_94\n      swap2\n      swap1\n      tag_95\n      jump\t// in\n    tag_94:\n      tag_96\n      jump\t// in\n    tag_93:\n      stop\n        /* \"ERC777.sol\":29921:30053  function defaultOperators() public view virtual override returns (address[] memory) {... */\n    tag_25:\n        /* \"ERC777.sol\":29987:30003  address[] memory */\n      0x60\n        /* \"ERC777.sol\":30023:30045  _defaultOperatorsArray */\n      0x04\n        /* \"ERC777.sol\":30016:30045  return _defaultOperatorsArray */\n      dup1\n      sload\n      dup1\n      0x20\n      mul\n      0x20\n      add\n      mload(0x40)\n      swap1\n      dup2\n      add\n      0x40\n      mstore\n      dup1\n      swap3\n      swap2\n      swap1\n      dup2\n      dup2\n      mstore\n      0x20\n      add\n      dup3\n      dup1\n      sload\n      dup1\n      iszero\n      tag_98\n      jumpi\n      0x20\n      mul\n      dup3\n      add\n      swap2\n      swap1\n      0x00\n      mstore\n      keccak256(0x00, 0x20)\n      swap1\n    tag_99:\n      dup2\n      0x00\n      swap1\n      sload\n      swap1\n      0x0100\n      exp\n      swap1\n      div\n      0xffffffffffffffffffffffffffffffffffffffff\n      and\n      0xffffffffffffffffffffffffffffffffffffffff\n      and\n      dup2\n      mstore\n      0x20\n      add\n      swap1\n      0x01\n      add\n      swap1\n      dup1\n      dup4\n      gt\n      tag_99\n      jumpi\n    tag_98:\n      pop\n      pop\n      pop\n      pop\n      pop\n      swap1\n      pop\n        /* \"ERC777.sol\":29921:30053  function defaultOperators() public view virtual override returns (address[] memory) {... */\n      swap1\n      jump\t// out\n        /* \"ERC777.sol\":26287:26387  function name() public view virtual override returns (string memory) {... */\n    tag_29:\n        /* \"ERC777.sol\":26341:26354  string memory */\n      0x60\n        /* \"ERC777.sol\":26374:26379  _name */\n      0x02\n        /* \"ERC777.sol\":26367:26379  return _name */\n      dup1\n      sload\n      tag_101\n      swap1\n      tag_102\n      jump\t// in\n    tag_101:\n      dup1\n      0x1f\n      add\n      0x20\n      dup1\n      swap2\n      div\n      mul\n      0x20\n      add\n      mload(0x40)\n      swap1\n      dup2\n      add\n      0x40\n      mstore\n      dup1\n      swap3\n      swap2\n      swap1\n      dup2\n      dup2\n      mstore\n      0x20\n      add\n      dup3\n      dup1\n      sload\n      tag_103\n      swap1\n      tag_102\n      jump\t// in\n    tag_103:\n      dup1\n      iszero\n      tag_104\n      jumpi\n      dup1\n      0x1f\n      lt\n      tag_105\n      jumpi\n      0x0100\n      dup1\n      dup4\n      sload\n      div\n      mul\n      dup4\n      mstore\n      swap2\n      0x20\n      add\n      swap2\n      jump(tag_104)\n    tag_105:\n      dup3\n      add\n      swap2\n      swap1\n      0x00\n      mstore\n      keccak256(0x00, 0x20)\n      swap1\n    tag_106:\n      dup2\n      sload\n      dup2\n      mstore\n      swap1\n      0x01\n      add\n      swap1\n      0x20\n      add\n      dup1\n      dup4\n      gt\n      tag_106\n      jumpi\n      dup3\n      swap1\n      sub\n      0x1f\n      and\n      dup3\n      add\n      swap2\n    tag_104:\n      pop\n      pop\n      pop\n      pop\n      pop\n      swap1\n      pop\n        /* \"ERC777.sol\":26287:26387  function name() public view virtual override returns (string memory) {... */\n      swap1\n      jump\t// out\n        /* \"ERC777.sol\":31733:31934  function approve(address spender, uint256 value) public virtual override returns (bool) {... */\n    tag_35:\n        /* \"ERC777.sol\":31815:31819  bool */\n      0x00\n        /* \"ERC777.sol\":31832:31846  address holder */\n      dup1\n        /* \"ERC777.sol\":31849:31861  _msgSender() */\n      tag_108\n        /* \"ERC777.sol\":31849:31859  _msgSender */\n      tag_109\n        /* \"ERC777.sol\":31849:31861  _msgSender() */\n      jump\t// in\n    tag_108:\n        /* \"ERC777.sol\":31832:31861  address holder = _msgSender() */\n      swap1\n      pop\n        /* \"ERC777.sol\":31872:31904  _approve(holder, spender, value) */\n      tag_110\n        /* \"ERC777.sol\":31881:31887  holder */\n      dup2\n        /* \"ERC777.sol\":31889:31896  spender */\n      dup6\n        /* \"ERC777.sol\":31898:31903  value */\n      dup6\n        /* \"ERC777.sol\":31872:31880  _approve */\n      tag_111\n        /* \"ERC777.sol\":31872:31904  _approve(holder, spender, value) */\n      jump\t// in\n    tag_110:\n        /* \"ERC777.sol\":31922:31926  true */\n      0x01\n        /* \"ERC777.sol\":31915:31926  return true */\n      swap2\n      pop\n      pop\n        /* \"ERC777.sol\":31733:31934  function approve(address spender, uint256 value) public virtual override returns (bool) {... */\n      swap3\n      swap2\n      pop\n      pop\n      jump\t// out\n        /* \"ERC777.sol\":27113:27238  function totalSupply() public view virtual override(IERC20, IERC777) returns (uint256) {... */\n    tag_39:\n        /* \"ERC777.sol\":27191:27198  uint256 */\n      0x00\n        /* \"ERC777.sol\":27218:27230  _totalSupply */\n      sload(0x01)\n        /* \"ERC777.sol\":27211:27230  return _totalSupply */\n      swap1\n      pop\n        /* \"ERC777.sol\":27113:27238  function totalSupply() public view virtual override(IERC20, IERC777) returns (uint256) {... */\n      swap1\n      jump\t// out\n        /* \"ERC777.sol\":32430:32722  function transferFrom(address holder, address recipient, uint256 amount) public virtual override returns (bool) {... */\n    tag_45:\n        /* \"ERC777.sol\":32536:32540  bool */\n      0x00\n        /* \"ERC777.sol\":32553:32568  address spender */\n      dup1\n        /* \"ERC777.sol\":32571:32583  _msgSender() */\n      tag_114\n        /* \"ERC777.sol\":32571:32581  _msgSender */\n      tag_109\n        /* \"ERC777.sol\":32571:32583  _msgSender() */\n      jump\t// in\n    tag_114:\n        /* \"ERC777.sol\":32553:32583  address spender = _msgSender() */\n      swap1\n      pop\n        /* \"ERC777.sol\":32594:32634  _spendAllowance(holder, spender, amount) */\n      tag_115\n        /* \"ERC777.sol\":32610:32616  holder */\n      dup6\n        /* \"ERC777.sol\":32618:32625  spender */\n      dup3\n        /* \"ERC777.sol\":32627:32633  amount */\n      dup6\n        /* \"ERC777.sol\":32594:32609  _spendAllowance */\n      tag_116\n        /* \"ERC777.sol\":32594:32634  _spendAllowance(holder, spender, amount) */\n      jump\t// in\n    tag_115:\n        /* \"ERC777.sol\":32645:32692  _send(holder, recipient, amount, \"\", \"\", false) */\n      tag_117\n        /* \"ERC777.sol\":32651:32657  holder */\n      dup6\n        /* \"ERC777.sol\":32659:32668  recipient */\n      dup6\n        /* \"ERC777.sol\":32670:32676  amount */\n      dup6\n        /* \"ERC777.sol\":32645:32692  _send(holder, recipient, amount, \"\", \"\", false) */\n      mload(0x40)\n      dup1\n      0x20\n      add\n      0x40\n      mstore\n      dup1\n      0x00\n      dup2\n      mstore\n      pop\n      mload(0x40)\n      dup1\n      0x20\n      add\n      0x40\n      mstore\n      dup1\n      0x00\n      dup2\n      mstore\n      pop\n        /* \"ERC777.sol\":32686:32691  false */\n      0x00\n        /* \"ERC777.sol\":32645:32650  _send */\n      tag_118\n        /* \"ERC777.sol\":32645:32692  _send(holder, recipient, amount, \"\", \"\", false) */\n      jump\t// in\n    tag_117:\n        /* \"ERC777.sol\":32710:32714  true */\n      0x01\n        /* \"ERC777.sol\":32703:32714  return true */\n      swap2\n      pop\n      pop\n        /* \"ERC777.sol\":32430:32722  function transferFrom(address holder, address recipient, uint256 amount) public virtual override returns (bool) {... */\n      swap4\n      swap3\n      pop\n      pop\n      pop\n      jump\t// out\n        /* \"ERC777.sol\":26744:26828  function decimals() public pure virtual returns (uint8) {... */\n    tag_48:\n        /* \"ERC777.sol\":26793:26798  uint8 */\n      0x00\n        /* \"ERC777.sol\":26818:26820  18 */\n      0x12\n        /* \"ERC777.sol\":26811:26820  return 18 */\n      swap1\n      pop\n        /* \"ERC777.sol\":26744:26828  function decimals() public pure virtual returns (uint8) {... */\n      swap1\n      jump\t// out\n        /* \"ERC777.sol\":26950:27047  function granularity() public view virtual override returns (uint256) {... */\n    tag_52:\n        /* \"ERC777.sol\":27011:27018  uint256 */\n      0x00\n        /* \"ERC777.sol\":27038:27039  1 */\n      0x01\n        /* \"ERC777.sol\":27031:27039  return 1 */\n      swap1\n      pop\n        /* \"ERC777.sol\":26950:27047  function granularity() public view virtual override returns (uint256) {... */\n      swap1\n      jump\t// out\n        /* \"ERC777.sol\":30179:30554  function operatorSend(... */\n    tag_57:\n        /* \"ERC777.sol\":30393:30428  isOperatorFor(_msgSender(), sender) */\n      tag_122\n        /* \"ERC777.sol\":30407:30419  _msgSender() */\n      tag_123\n        /* \"ERC777.sol\":30407:30417  _msgSender */\n      tag_109\n        /* \"ERC777.sol\":30407:30419  _msgSender() */\n      jump\t// in\n    tag_123:\n        /* \"ERC777.sol\":30421:30427  sender */\n      dup7\n        /* \"ERC777.sol\":30393:30406  isOperatorFor */\n      tag_80\n        /* \"ERC777.sol\":30393:30428  isOperatorFor(_msgSender(), sender) */\n      jump\t// in\n    tag_122:\n        /* \"ERC777.sol\":30385:30477  require(isOperatorFor(_msgSender(), sender), \"ERC777: caller is not an operator for holder\") */\n      tag_124\n      jumpi\n      mload(0x40)\n      0x08c379a000000000000000000000000000000000000000000000000000000000\n      dup2\n      mstore\n      0x04\n      add\n      tag_125\n      swap1\n      tag_126\n      jump\t// in\n    tag_125:\n      mload(0x40)\n      dup1\n      swap2\n      sub\n      swap1\n      revert\n    tag_124:\n        /* \"ERC777.sol\":30488:30546  _send(sender, recipient, amount, data, operatorData, true) */\n      tag_127\n        /* \"ERC777.sol\":30494:30500  sender */\n      dup6\n        /* \"ERC777.sol\":30502:30511  recipient */\n      dup6\n        /* \"ERC777.sol\":30513:30519  amount */\n      dup6\n        /* \"ERC777.sol\":30521:30525  data */\n      dup6\n        /* \"ERC777.sol\":30527:30539  operatorData */\n      dup6\n        /* \"ERC777.sol\":30541:30545  true */\n      0x01\n        /* \"ERC777.sol\":30488:30493  _send */\n      tag_118\n        /* \"ERC777.sol\":30488:30546  _send(sender, recipient, amount, data, operatorData, true) */\n      jump\t// in\n    tag_127:\n        /* \"ERC777.sol\":30179:30554  function operatorSend(... */\n      pop\n      pop\n      pop\n      pop\n      pop\n      jump\t// out\n        /* \"ERC777.sol\":27343:27495  function balanceOf(address tokenHolder) public view virtual override(IERC20, IERC777) returns (uint256) {... */\n    tag_61:\n        /* \"ERC777.sol\":27438:27445  uint256 */\n      0x00\n        /* \"ERC777.sol\":27465:27474  _balances */\n      dup1\n        /* \"ERC777.sol\":27465:27487  _balances[tokenHolder] */\n      0x00\n        /* \"ERC777.sol\":27475:27486  tokenHolder */\n      dup4\n        /* \"ERC777.sol\":27465:27487  _balances[tokenHolder] */\n      0xffffffffffffffffffffffffffffffffffffffff\n      and\n      0xffffffffffffffffffffffffffffffffffffffff\n      and\n      dup2\n      mstore\n      0x20\n      add\n      swap1\n      dup2\n      mstore\n      0x20\n      add\n      0x00\n      keccak256\n      sload\n        /* \"ERC777.sol\":27458:27487  return _balances[tokenHolder] */\n      swap1\n      pop\n        /* \"ERC777.sol\":27343:27495  function balanceOf(address tokenHolder) public view virtual override(IERC20, IERC777) returns (uint256) {... */\n      swap2\n      swap1\n      pop\n      jump\t// out\n        /* \"ERC777.sol\":28946:29368  function authorizeOperator(address operator) public virtual override {... */\n    tag_65:\n        /* \"ERC777.sol\":29050:29058  operator */\n      dup1\n        /* \"ERC777.sol\":29034:29058  _msgSender() != operator */\n      0xffffffffffffffffffffffffffffffffffffffff\n      and\n        /* \"ERC777.sol\":29034:29046  _msgSender() */\n      tag_130\n        /* \"ERC777.sol\":29034:29044  _msgSender */\n      tag_109\n        /* \"ERC777.sol\":29034:29046  _msgSender() */\n      jump\t// in\n    tag_130:\n        /* \"ERC777.sol\":29034:29058  _msgSender() != operator */\n      0xffffffffffffffffffffffffffffffffffffffff\n      and\n      sub\n        /* \"ERC777.sol\":29026:29099  require(_msgSender() != operator, \"ERC777: authorizing self as operator\") */\n      tag_131\n      jumpi\n      mload(0x40)\n      0x08c379a000000000000000000000000000000000000000000000000000000000\n      dup2\n      mstore\n      0x04\n      add\n      tag_132\n      swap1\n      tag_133\n      jump\t// in\n    tag_132:\n      mload(0x40)\n      dup1\n      swap2\n      sub\n      swap1\n      revert\n    tag_131:\n        /* \"ERC777.sol\":29116:29133  _defaultOperators */\n      0x05\n        /* \"ERC777.sol\":29116:29143  _defaultOperators[operator] */\n      0x00\n        /* \"ERC777.sol\":29134:29142  operator */\n      dup3\n        /* \"ERC777.sol\":29116:29143  _defaultOperators[operator] */\n      0xffffffffffffffffffffffffffffffffffffffff\n      and\n      0xffffffffffffffffffffffffffffffffffffffff\n      and\n      dup2\n      mstore\n      0x20\n      add\n      swap1\n      dup2\n      mstore\n      0x20\n      add\n      0x00\n      keccak256\n      0x00\n      swap1\n      sload\n      swap1\n      0x0100\n      exp\n      swap1\n      div\n      0xff\n      and\n        /* \"ERC777.sol\":29112:29301  if (_defaultOperators[operator]) {... */\n      iszero\n      tag_134\n      jumpi\n        /* \"ERC777.sol\":29167:29191  _revokedDefaultOperators */\n      0x07\n        /* \"ERC777.sol\":29167:29205  _revokedDefaultOperators[_msgSender()] */\n      0x00\n        /* \"ERC777.sol\":29192:29204  _msgSender() */\n      tag_135\n        /* \"ERC777.sol\":29192:29202  _msgSender */\n      tag_109\n        /* \"ERC777.sol\":29192:29204  _msgSender() */\n      jump\t// in\n    tag_135:\n        /* \"ERC777.sol\":29167:29205  _revokedDefaultOperators[_msgSender()] */\n      0xffffffffffffffffffffffffffffffffffffffff\n      and\n      0xffffffffffffffffffffffffffffffffffffffff\n      and\n      dup2\n      mstore\n      0x20\n      add\n      swap1\n      dup2\n      mstore\n      0x20\n      add\n      0x00\n      keccak256\n        /* \"ERC777.sol\":29167:29215  _revokedDefaultOperators[_msgSender()][operator] */\n      0x00\n        /* \"ERC777.sol\":29206:29214  operator */\n      dup3\n        /* \"ERC777.sol\":29167:29215  _revokedDefaultOperators[_msgSender()][operator] */\n      0xffffffffffffffffffffffffffffffffffffffff\n      and\n      0xffffffffffffffffffffffffffffffffffffffff\n      and\n      dup2\n      mstore\n      0x20\n      add\n      swap1\n      dup2\n      mstore\n      0x20\n      add\n      0x00\n      keccak256\n      0x00\n        /* \"ERC777.sol\":29160:29215  delete _revokedDefaultOperators[_msgSender()][operator] */\n      0x0100\n      exp\n      dup2\n      sload\n      swap1\n      0xff\n      mul\n      not\n      and\n      swap1\n      sstore\n        /* \"ERC777.sol\":29112:29301  if (_defaultOperators[operator]) {... */\n      jump(tag_136)\n    tag_134:\n        /* \"ERC777.sol\":29285:29289  true */\n      0x01\n        /* \"ERC777.sol\":29248:29258  _operators */\n      0x06\n        /* \"ERC777.sol\":29248:29272  _operators[_msgSender()] */\n      0x00\n        /* \"ERC777.sol\":29259:29271  _msgSender() */\n      tag_137\n        /* \"ERC777.sol\":29259:29269  _msgSender */\n      tag_109\n        /* \"ERC777.sol\":29259:29271  _msgSender() */\n      jump\t// in\n    tag_137:\n        /* \"ERC777.sol\":29248:29272  _operators[_msgSender()] */\n      0xffffffffffffffffffffffffffffffffffffffff\n      and\n      0xffffffffffffffffffffffffffffffffffffffff\n      and\n      dup2\n      mstore\n      0x20\n      add\n      swap1\n      dup2\n      mstore\n      0x20\n      add\n      0x00\n      keccak256\n        /* \"ERC777.sol\":29248:29282  _operators[_msgSender()][operator] */\n      0x00\n        /* \"ERC777.sol\":29273:29281  operator */\n      dup4\n        /* \"ERC777.sol\":29248:29282  _operators[_msgSender()][operator] */\n      0xffffffffffffffffffffffffffffffffffffffff\n      and\n      0xffffffffffffffffffffffffffffffffffffffff\n      and\n      dup2\n      mstore\n      0x20\n      add\n      swap1\n      dup2\n      mstore\n      0x20\n      add\n      0x00\n      keccak256\n      0x00\n        /* \"ERC777.sol\":29248:29289  _operators[_msgSender()][operator] = true */\n      0x0100\n      exp\n      dup2\n      sload\n      dup2\n      0xff\n      mul\n      not\n      and\n      swap1\n      dup4\n      iszero\n      iszero\n      mul\n      or\n      swap1\n      sstore\n      pop\n        /* \"ERC777.sol\":29112:29301  if (_defaultOperators[operator]) {... */\n    tag_136:\n        /* \"ERC777.sol\":29347:29359  _msgSender() */\n      tag_138\n        /* \"ERC777.sol\":29347:29357  _msgSender */\n      tag_109\n        /* \"ERC777.sol\":29347:29359  _msgSender() */\n      jump\t// in\n    tag_138:\n        /* \"ERC777.sol\":29318:29360  AuthorizedOperator(operator, _msgSender()) */\n      0xffffffffffffffffffffffffffffffffffffffff\n      and\n        /* \"ERC777.sol\":29337:29345  operator */\n      dup2\n        /* \"ERC777.sol\":29318:29360  AuthorizedOperator(operator, _msgSender()) */\n      0xffffffffffffffffffffffffffffffffffffffff\n      and\n      0xf4caeb2d6ca8932a215a353d0703c326ec2d81fc68170f320eb2ab49e9df61f9\n      mload(0x40)\n      mload(0x40)\n      dup1\n      swap2\n      sub\n      swap1\n      log3\n        /* \"ERC777.sol\":28946:29368  function authorizeOperator(address operator) public virtual override {... */\n      pop\n      jump\t// out\n        /* \"ERC777.sol\":26448:26552  function symbol() public view virtual override returns (string memory) {... */\n    tag_67:\n        /* \"ERC777.sol\":26504:26517  string memory */\n      0x60\n        /* \"ERC777.sol\":26537:26544  _symbol */\n      0x03\n        /* \"ERC777.sol\":26530:26544  return _symbol */\n      dup1\n      sload\n      tag_140\n      swap1\n      tag_102\n      jump\t// in\n    tag_140:\n      dup1\n      0x1f\n      add\n      0x20\n      dup1\n      swap2\n      div\n      mul\n      0x20\n      add\n      mload(0x40)\n      swap1\n      dup2\n      add\n      0x40\n      mstore\n      dup1\n      swap3\n      swap2\n      swap1\n      dup2\n      dup2\n      mstore\n      0x20\n      add\n      dup3\n      dup1\n      sload\n      tag_141\n      swap1\n      tag_102\n      jump\t// in\n    tag_141:\n      dup1\n      iszero\n      tag_142\n      jumpi\n      dup1\n      0x1f\n      lt\n      tag_143\n      jumpi\n      0x0100\n      dup1\n      dup4\n      sload\n      div\n      mul\n      dup4\n      mstore\n      swap2\n      0x20\n      add\n      swap2\n      jump(tag_142)\n    tag_143:\n      dup3\n      add\n      swap2\n      swap1\n      0x00\n      mstore\n      keccak256(0x00, 0x20)\n      swap1\n    tag_144:\n      dup2\n      sload\n      dup2\n      mstore\n      swap1\n      0x01\n      add\n      swap1\n      0x20\n      add\n      dup1\n      dup4\n      gt\n      tag_144\n      jumpi\n      dup3\n      swap1\n      sub\n      0x1f\n      and\n      dup3\n      add\n      swap2\n    tag_142:\n      pop\n      pop\n      pop\n      pop\n      pop\n      swap1\n      pop\n        /* \"ERC777.sol\":26448:26552  function symbol() public view virtual override returns (string memory) {... */\n      swap1\n      jump\t// out\n        /* \"ERC777.sol\":27632:27797  function send(address recipient, uint256 amount, bytes memory data) public virtual override {... */\n    tag_72:\n        /* \"ERC777.sol\":27735:27789  _send(_msgSender(), recipient, amount, data, \"\", true) */\n      tag_146\n        /* \"ERC777.sol\":27741:27753  _msgSender() */\n      tag_147\n        /* \"ERC777.sol\":27741:27751  _msgSender */\n      tag_109\n        /* \"ERC777.sol\":27741:27753  _msgSender() */\n      jump\t// in\n    tag_147:\n        /* \"ERC777.sol\":27755:27764  recipient */\n      dup5\n        /* \"ERC777.sol\":27766:27772  amount */\n      dup5\n        /* \"ERC777.sol\":27774:27778  data */\n      dup5\n        /* \"ERC777.sol\":27735:27789  _send(_msgSender(), recipient, amount, data, \"\", true) */\n      mload(0x40)\n      dup1\n      0x20\n      add\n      0x40\n      mstore\n      dup1\n      0x00\n      dup2\n      mstore\n      pop\n        /* \"ERC777.sol\":27784:27788  true */\n      0x01\n        /* \"ERC777.sol\":27735:27740  _send */\n      tag_118\n        /* \"ERC777.sol\":27735:27789  _send(_msgSender(), recipient, amount, data, \"\", true) */\n      jump\t// in\n    tag_146:\n        /* \"ERC777.sol\":27632:27797  function send(address recipient, uint256 amount, bytes memory data) public virtual override {... */\n      pop\n      pop\n      pop\n      jump\t// out\n        /* \"ERC777.sol\":28038:28224  function transfer(address recipient, uint256 amount) public virtual override returns (bool) {... */\n    tag_75:\n        /* \"ERC777.sol\":28124:28128  bool */\n      0x00\n        /* \"ERC777.sol\":28141:28194  _send(_msgSender(), recipient, amount, \"\", \"\", false) */\n      tag_149\n        /* \"ERC777.sol\":28147:28159  _msgSender() */\n      tag_150\n        /* \"ERC777.sol\":28147:28157  _msgSender */\n      tag_109\n        /* \"ERC777.sol\":28147:28159  _msgSender() */\n      jump\t// in\n    tag_150:\n        /* \"ERC777.sol\":28161:28170  recipient */\n      dup5\n        /* \"ERC777.sol\":28172:28178  amount */\n      dup5\n        /* \"ERC777.sol\":28141:28194  _send(_msgSender(), recipient, amount, \"\", \"\", false) */\n      mload(0x40)\n      dup1\n      0x20\n      add\n      0x40\n      mstore\n      dup1\n      0x00\n      dup2\n      mstore\n      pop\n      mload(0x40)\n      dup1\n      0x20\n      add\n      0x40\n      mstore\n      dup1\n      0x00\n      dup2\n      mstore\n      pop\n        /* \"ERC777.sol\":28188:28193  false */\n      0x00\n        /* \"ERC777.sol\":28141:28146  _send */\n      tag_118\n        /* \"ERC777.sol\":28141:28194  _send(_msgSender(), recipient, amount, \"\", \"\", false) */\n      jump\t// in\n    tag_149:\n        /* \"ERC777.sol\":28212:28216  true */\n      0x01\n        /* \"ERC777.sol\":28205:28216  return true */\n      swap1\n      pop\n        /* \"ERC777.sol\":28038:28224  function transfer(address recipient, uint256 amount) public virtual override returns (bool) {... */\n      swap3\n      swap2\n      pop\n      pop\n      jump\t// out\n        /* \"ERC777.sol\":28558:28874  function isOperatorFor(address operator, address tokenHolder) public view virtual override returns (bool) {... */\n    tag_80:\n        /* \"ERC777.sol\":28658:28662  bool */\n      0x00\n        /* \"ERC777.sol\":28707:28718  tokenHolder */\n      dup2\n        /* \"ERC777.sol\":28695:28718  operator == tokenHolder */\n      0xffffffffffffffffffffffffffffffffffffffff\n      and\n        /* \"ERC777.sol\":28695:28703  operator */\n      dup4\n        /* \"ERC777.sol\":28695:28718  operator == tokenHolder */\n      0xffffffffffffffffffffffffffffffffffffffff\n      and\n      eq\n        /* \"ERC777.sol\":28695:28816  operator == tokenHolder ||... */\n      dup1\n      tag_152\n      jumpi\n      pop\n        /* \"ERC777.sol\":28736:28753  _defaultOperators */\n      0x05\n        /* \"ERC777.sol\":28736:28763  _defaultOperators[operator] */\n      0x00\n        /* \"ERC777.sol\":28754:28762  operator */\n      dup5\n        /* \"ERC777.sol\":28736:28763  _defaultOperators[operator] */\n      0xffffffffffffffffffffffffffffffffffffffff\n      and\n      0xffffffffffffffffffffffffffffffffffffffff\n      and\n      dup2\n      mstore\n      0x20\n      add\n      swap1\n      dup2\n      mstore\n      0x20\n      add\n      0x00\n      keccak256\n      0x00\n      swap1\n      sload\n      swap1\n      0x0100\n      exp\n      swap1\n      div\n      0xff\n      and\n        /* \"ERC777.sol\":28736:28815  _defaultOperators[operator] && !_revokedDefaultOperators[tokenHolder][operator] */\n      dup1\n      iszero\n      tag_153\n      jumpi\n      pop\n        /* \"ERC777.sol\":28768:28792  _revokedDefaultOperators */\n      0x07\n        /* \"ERC777.sol\":28768:28805  _revokedDefaultOperators[tokenHolder] */\n      0x00\n        /* \"ERC777.sol\":28793:28804  tokenHolder */\n      dup4\n        /* \"ERC777.sol\":28768:28805  _revokedDefaultOperators[tokenHolder] */\n      0xffffffffffffffffffffffffffffffffffffffff\n      and\n      0xffffffffffffffffffffffffffffffffffffffff\n      and\n      dup2\n      mstore\n      0x20\n      add\n      swap1\n      dup2\n      mstore\n      0x20\n      add\n      0x00\n      keccak256\n        /* \"ERC777.sol\":28768:28815  _revokedDefaultOperators[tokenHolder][operator] */\n      0x00\n        /* \"ERC777.sol\":28806:28814  operator */\n      dup5\n        /* \"ERC777.sol\":28768:28815  _revokedDefaultOperators[tokenHolder][operator] */\n      0xffffffffffffffffffffffffffffffffffffffff\n      and\n      0xffffffffffffffffffffffffffffffffffffffff\n      and\n      dup2\n      mstore\n      0x20\n      add\n      swap1\n      dup2\n      mstore\n      0x20\n      add\n      0x00\n      keccak256\n      0x00\n      swap1\n      sload\n      swap1\n      0x0100\n      exp\n      swap1\n      div\n      0xff\n      and\n        /* \"ERC777.sol\":28767:28815  !_revokedDefaultOperators[tokenHolder][operator] */\n      iszero\n        /* \"ERC777.sol\":28736:28815  _defaultOperators[operator] && !_revokedDefaultOperators[tokenHolder][operator] */\n    tag_153:\n        /* \"ERC777.sol\":28695:28816  operator == tokenHolder ||... */\n    tag_152:\n        /* \"ERC777.sol\":28695:28866  operator == tokenHolder ||... */\n      dup1\n      tag_154\n      jumpi\n      pop\n        /* \"ERC777.sol\":28833:28843  _operators */\n      0x06\n        /* \"ERC777.sol\":28833:28856  _operators[tokenHolder] */\n      0x00\n        /* \"ERC777.sol\":28844:28855  tokenHolder */\n      dup4\n        /* \"ERC777.sol\":28833:28856  _operators[tokenHolder] */\n      0xffffffffffffffffffffffffffffffffffffffff\n      and\n      0xffffffffffffffffffffffffffffffffffffffff\n      and\n      dup2\n      mstore\n      0x20\n      add\n      swap1\n      dup2\n      mstore\n      0x20\n      add\n      0x00\n      keccak256\n        /* \"ERC777.sol\":28833:28866  _operators[tokenHolder][operator] */\n      0x00\n        /* \"ERC777.sol\":28857:28865  operator */\n      dup5\n        /* \"ERC777.sol\":28833:28866  _operators[tokenHolder][operator] */\n      0xffffffffffffffffffffffffffffffffffffffff\n      and\n      0xffffffffffffffffffffffffffffffffffffffff\n      and\n      dup2\n      mstore\n      0x20\n      add\n      swap1\n      dup2\n      mstore\n      0x20\n      add\n      0x00\n      keccak256\n      0x00\n      swap1\n      sload\n      swap1\n      0x0100\n      exp\n      swap1\n      div\n      0xff\n      and\n        /* \"ERC777.sol\":28695:28866  operator == tokenHolder ||... */\n    tag_154:\n        /* \"ERC777.sol\":28675:28866  return... */\n      swap1\n      pop\n        /* \"ERC777.sol\":28558:28874  function isOperatorFor(address operator, address tokenHolder) public view virtual override returns (bool) {... */\n      swap3\n      swap2\n      pop\n      pop\n      jump\t// out\n        /* \"ERC777.sol\":31263:31416  function allowance(address holder, address spender) public view virtual override returns (uint256) {... */\n    tag_84:\n        /* \"ERC777.sol\":31353:31360  uint256 */\n      0x00\n        /* \"ERC777.sol\":31380:31391  _allowances */\n      0x08\n        /* \"ERC777.sol\":31380:31399  _allowances[holder] */\n      0x00\n        /* \"ERC777.sol\":31392:31398  holder */\n      dup5\n        /* \"ERC777.sol\":31380:31399  _allowances[holder] */\n      0xffffffffffffffffffffffffffffffffffffffff\n      and\n      0xffffffffffffffffffffffffffffffffffffffff\n      and\n      dup2\n      mstore\n      0x20\n      add\n      swap1\n      dup2\n      mstore\n      0x20\n      add\n      0x00\n      keccak256\n        /* \"ERC777.sol\":31380:31408  _allowances[holder][spender] */\n      0x00\n        /* \"ERC777.sol\":31400:31407  spender */\n      dup4\n        /* \"ERC777.sol\":31380:31408  _allowances[holder][spender] */\n      0xffffffffffffffffffffffffffffffffffffffff\n      and\n      0xffffffffffffffffffffffffffffffffffffffff\n      and\n      dup2\n      mstore\n      0x20\n      add\n      swap1\n      dup2\n      mstore\n      0x20\n      add\n      0x00\n      keccak256\n      sload\n        /* \"ERC777.sol\":31373:31408  return _allowances[holder][spender] */\n      swap1\n      pop\n        /* \"ERC777.sol\":31263:31416  function allowance(address holder, address spender) public view virtual override returns (uint256) {... */\n      swap3\n      swap2\n      pop\n      pop\n      jump\t// out\n        /* \"ERC777.sol\":29437:29850  function revokeOperator(address operator) public virtual override {... */\n    tag_88:\n        /* \"ERC777.sol\":29534:29546  _msgSender() */\n      tag_157\n        /* \"ERC777.sol\":29534:29544  _msgSender */\n      tag_109\n        /* \"ERC777.sol\":29534:29546  _msgSender() */\n      jump\t// in\n    tag_157:\n        /* \"ERC777.sol\":29522:29546  operator != _msgSender() */\n      0xffffffffffffffffffffffffffffffffffffffff\n      and\n        /* \"ERC777.sol\":29522:29530  operator */\n      dup2\n        /* \"ERC777.sol\":29522:29546  operator != _msgSender() */\n      0xffffffffffffffffffffffffffffffffffffffff\n      and\n      sub\n        /* \"ERC777.sol\":29514:29584  require(operator != _msgSender(), \"ERC777: revoking self as operator\") */\n      tag_158\n      jumpi\n      mload(0x40)\n      0x08c379a000000000000000000000000000000000000000000000000000000000\n      dup2\n      mstore\n      0x04\n      add\n      tag_159\n      swap1\n      tag_160\n      jump\t// in\n    tag_159:\n      mload(0x40)\n      dup1\n      swap2\n      sub\n      swap1\n      revert\n    tag_158:\n        /* \"ERC777.sol\":29601:29618  _defaultOperators */\n      0x05\n        /* \"ERC777.sol\":29601:29628  _defaultOperators[operator] */\n      0x00\n        /* \"ERC777.sol\":29619:29627  operator */\n      dup3\n        /* \"ERC777.sol\":29601:29628  _defaultOperators[operator] */\n      0xffffffffffffffffffffffffffffffffffffffff\n      and\n      0xffffffffffffffffffffffffffffffffffffffff\n      and\n      dup2\n      mstore\n      0x20\n      add\n      swap1\n      dup2\n      mstore\n      0x20\n      add\n      0x00\n      keccak256\n      0x00\n      swap1\n      sload\n      swap1\n      0x0100\n      exp\n      swap1\n      div\n      0xff\n      and\n        /* \"ERC777.sol\":29597:29786  if (_defaultOperators[operator]) {... */\n      iszero\n      tag_161\n      jumpi\n        /* \"ERC777.sol\":29696:29700  true */\n      0x01\n        /* \"ERC777.sol\":29645:29669  _revokedDefaultOperators */\n      0x07\n        /* \"ERC777.sol\":29645:29683  _revokedDefaultOperators[_msgSender()] */\n      0x00\n        /* \"ERC777.sol\":29670:29682  _msgSender() */\n      tag_162\n        /* \"ERC777.sol\":29670:29680  _msgSender */\n      tag_109\n        /* \"ERC777.sol\":29670:29682  _msgSender() */\n      jump\t// in\n    tag_162:\n        /* \"ERC777.sol\":29645:29683  _revokedDefaultOperators[_msgSender()] */\n      0xffffffffffffffffffffffffffffffffffffffff\n      and\n      0xffffffffffffffffffffffffffffffffffffffff\n      and\n      dup2\n      mstore\n      0x20\n      add\n      swap1\n      dup2\n      mstore\n      0x20\n      add\n      0x00\n      keccak256\n        /* \"ERC777.sol\":29645:29693  _revokedDefaultOperators[_msgSender()][operator] */\n      0x00\n        /* \"ERC777.sol\":29684:29692  operator */\n      dup4\n        /* \"ERC777.sol\":29645:29693  _revokedDefaultOperators[_msgSender()][operator] */\n      0xffffffffffffffffffffffffffffffffffffffff\n      and\n      0xffffffffffffffffffffffffffffffffffffffff\n      and\n      dup2\n      mstore\n      0x20\n      add\n      swap1\n      dup2\n      mstore\n      0x20\n      add\n      0x00\n      keccak256\n      0x00\n        /* \"ERC777.sol\":29645:29700  _revokedDefaultOperators[_msgSender()][operator] = true */\n      0x0100\n      exp\n      dup2\n      sload\n      dup2\n      0xff\n      mul\n      not\n      and\n      swap1\n      dup4\n      iszero\n      iszero\n      mul\n      or\n      swap1\n      sstore\n      pop\n        /* \"ERC777.sol\":29597:29786  if (_defaultOperators[operator]) {... */\n      jump(tag_163)\n    tag_161:\n        /* \"ERC777.sol\":29740:29750  _operators */\n      0x06\n        /* \"ERC777.sol\":29740:29764  _operators[_msgSender()] */\n      0x00\n        /* \"ERC777.sol\":29751:29763  _msgSender() */\n      tag_164\n        /* \"ERC777.sol\":29751:29761  _msgSender */\n      tag_109\n        /* \"ERC777.sol\":29751:29763  _msgSender() */\n      jump\t// in\n    tag_164:\n        /* \"ERC777.sol\":29740:29764  _operators[_msgSender()] */\n      0xffffffffffffffffffffffffffffffffffffffff\n      and\n      0xffffffffffffffffffffffffffffffffffffffff\n      and\n      dup2\n      mstore\n      0x20\n      add\n      swap1\n      dup2\n      mstore\n      0x20\n      add\n      0x00\n      keccak256\n        /* \"ERC777.sol\":29740:29774  _operators[_msgSender()][operator] */\n      0x00\n        /* \"ERC777.sol\":29765:29773  operator */\n      dup3\n        /* \"ERC777.sol\":29740:29774  _operators[_msgSender()][operator] */\n      0xffffffffffffffffffffffffffffffffffffffff\n      and\n      0xffffffffffffffffffffffffffffffffffffffff\n      and\n      dup2\n      mstore\n      0x20\n      add\n      swap1\n      dup2\n      mstore\n      0x20\n      add\n      0x00\n      keccak256\n      0x00\n        /* \"ERC777.sol\":29733:29774  delete _operators[_msgSender()][operator] */\n      0x0100\n      exp\n      dup2\n      sload\n      swap1\n      0xff\n      mul\n      not\n      and\n      swap1\n      sstore\n        /* \"ERC777.sol\":29597:29786  if (_defaultOperators[operator]) {... */\n    tag_163:\n        /* \"ERC777.sol\":29829:29841  _msgSender() */\n      tag_165\n        /* \"ERC777.sol\":29829:29839  _msgSender */\n      tag_109\n        /* \"ERC777.sol\":29829:29841  _msgSender() */\n      jump\t// in\n    tag_165:\n        /* \"ERC777.sol\":29803:29842  RevokedOperator(operator, _msgSender()) */\n      0xffffffffffffffffffffffffffffffffffffffff\n      and\n        /* \"ERC777.sol\":29819:29827  operator */\n      dup2\n        /* \"ERC777.sol\":29803:29842  RevokedOperator(operator, _msgSender()) */\n      0xffffffffffffffffffffffffffffffffffffffff\n      and\n      0x50546e66e5f44d728365dc3908c63bc5cfeeab470722c1677e3073a6ac294aa1\n      mload(0x40)\n      mload(0x40)\n      dup1\n      swap2\n      sub\n      swap1\n      log3\n        /* \"ERC777.sol\":29437:29850  function revokeOperator(address operator) public virtual override {... */\n      pop\n      jump\t// out\n        /* \"ERC777.sol\":30682:31015  function operatorBurn(... */\n    tag_92:\n        /* \"ERC777.sol\":30869:30905  isOperatorFor(_msgSender(), account) */\n      tag_167\n        /* \"ERC777.sol\":30883:30895  _msgSender() */\n      tag_168\n        /* \"ERC777.sol\":30883:30893  _msgSender */\n      tag_109\n        /* \"ERC777.sol\":30883:30895  _msgSender() */\n      jump\t// in\n    tag_168:\n        /* \"ERC777.sol\":30897:30904  account */\n      dup6\n        /* \"ERC777.sol\":30869:30882  isOperatorFor */\n      tag_80\n        /* \"ERC777.sol\":30869:30905  isOperatorFor(_msgSender(), account) */\n      jump\t// in\n    tag_167:\n        /* \"ERC777.sol\":30861:30954  require(isOperatorFor(_msgSender(), account), \"ERC777: caller is not an operator for holder\") */\n      tag_169\n      jumpi\n      mload(0x40)\n      0x08c379a000000000000000000000000000000000000000000000000000000000\n      dup2\n      mstore\n      0x04\n      add\n      tag_170\n      swap1\n      tag_126\n      jump\t// in\n    tag_170:\n      mload(0x40)\n      dup1\n      swap2\n      sub\n      swap1\n      revert\n    tag_169:\n        /* \"ERC777.sol\":30965:31007  _burn(account, amount, data, operatorData) */\n      tag_171\n        /* \"ERC777.sol\":30971:30978  account */\n      dup5\n        /* \"ERC777.sol\":30980:30986  amount */\n      dup5\n        /* \"ERC777.sol\":30988:30992  data */\n      dup5\n        /* \"ERC777.sol\":30994:31006  operatorData */\n      dup5\n        /* \"ERC777.sol\":30965:30970  _burn */\n      tag_172\n        /* \"ERC777.sol\":30965:31007  _burn(account, amount, data, operatorData) */\n      jump\t// in\n    tag_171:\n        /* \"ERC777.sol\":30682:31015  function operatorBurn(... */\n      pop\n      pop\n      pop\n      pop\n      jump\t// out\n        /* \"ERC777.sol\":28361:28490  function burn(uint256 amount, bytes memory data) public virtual override {... */\n    tag_96:\n        /* \"ERC777.sol\":28445:28482  _burn(_msgSender(), amount, data, \"\") */\n      tag_174\n        /* \"ERC777.sol\":28451:28463  _msgSender() */\n      tag_175\n        /* \"ERC777.sol\":28451:28461  _msgSender */\n      tag_109\n        /* \"ERC777.sol\":28451:28463  _msgSender() */\n      jump\t// in\n    tag_175:\n        /* \"ERC777.sol\":28465:28471  amount */\n      dup4\n        /* \"ERC777.sol\":28473:28477  data */\n      dup4\n        /* \"ERC777.sol\":28445:28482  _burn(_msgSender(), amount, data, \"\") */\n      mload(0x40)\n      dup1\n      0x20\n      add\n      0x40\n      mstore\n      dup1\n      0x00\n      dup2\n      mstore\n      pop\n        /* \"ERC777.sol\":28445:28450  _burn */\n      tag_172\n        /* \"ERC777.sol\":28445:28482  _burn(_msgSender(), amount, data, \"\") */\n      jump\t// in\n    tag_174:\n        /* \"ERC777.sol\":28361:28490  function burn(uint256 amount, bytes memory data) public virtual override {... */\n      pop\n      pop\n      jump\t// out\n        /* \"ERC777.sol\":19988:20086  function _msgSender() internal view virtual returns (address) {... */\n    tag_109:\n        /* \"ERC777.sol\":20041:20048  address */\n      0x00\n        /* \"ERC777.sol\":20068:20078  msg.sender */\n      caller\n        /* \"ERC777.sol\":20061:20078  return msg.sender */\n      swap1\n      pop\n        /* \"ERC777.sol\":19988:20086  function _msgSender() internal view virtual returns (address) {... */\n      swap1\n      jump\t// out\n        /* \"ERC777.sol\":37984:38333  function _approve(address holder, address spender, uint256 value) internal virtual {... */\n    tag_111:\n        /* \"ERC777.sol\":38104:38105  0 */\n      0x00\n        /* \"ERC777.sol\":38086:38106  holder != address(0) */\n      0xffffffffffffffffffffffffffffffffffffffff\n      and\n        /* \"ERC777.sol\":38086:38092  holder */\n      dup4\n        /* \"ERC777.sol\":38086:38106  holder != address(0) */\n      0xffffffffffffffffffffffffffffffffffffffff\n      and\n      sub\n        /* \"ERC777.sol\":38078:38148  require(holder != address(0), \"ERC777: approve from the zero address\") */\n      tag_178\n      jumpi\n      mload(0x40)\n      0x08c379a000000000000000000000000000000000000000000000000000000000\n      dup2\n      mstore\n      0x04\n      add\n      tag_179\n      swap1\n      tag_180\n      jump\t// in\n    tag_179:\n      mload(0x40)\n      dup1\n      swap2\n      sub\n      swap1\n      revert\n    tag_178:\n        /* \"ERC777.sol\":38186:38187  0 */\n      0x00\n        /* \"ERC777.sol\":38167:38188  spender != address(0) */\n      0xffffffffffffffffffffffffffffffffffffffff\n      and\n        /* \"ERC777.sol\":38167:38174  spender */\n      dup3\n        /* \"ERC777.sol\":38167:38188  spender != address(0) */\n      0xffffffffffffffffffffffffffffffffffffffff\n      and\n      sub\n        /* \"ERC777.sol\":38159:38228  require(spender != address(0), \"ERC777: approve to the zero address\") */\n      tag_181\n      jumpi\n      mload(0x40)\n      0x08c379a000000000000000000000000000000000000000000000000000000000\n      dup2\n      mstore\n      0x04\n      add\n      tag_182\n      swap1\n      tag_183\n      jump\t// in\n    tag_182:\n      mload(0x40)\n      dup1\n      swap2\n      sub\n      swap1\n      revert\n    tag_181:\n        /* \"ERC777.sol\":38272:38277  value */\n      dup1\n        /* \"ERC777.sol\":38241:38252  _allowances */\n      0x08\n        /* \"ERC777.sol\":38241:38260  _allowances[holder] */\n      0x00\n        /* \"ERC777.sol\":38253:38259  holder */\n      dup6\n        /* \"ERC777.sol\":38241:38260  _allowances[holder] */\n      0xffffffffffffffffffffffffffffffffffffffff\n      and\n      0xffffffffffffffffffffffffffffffffffffffff\n      and\n      dup2\n      mstore\n      0x20\n      add\n      swap1\n      dup2\n      mstore\n      0x20\n      add\n      0x00\n      keccak256\n        /* \"ERC777.sol\":38241:38269  _allowances[holder][spender] */\n      0x00\n        /* \"ERC777.sol\":38261:38268  spender */\n      dup5\n        /* \"ERC777.sol\":38241:38269  _allowances[holder][spender] */\n      0xffffffffffffffffffffffffffffffffffffffff\n      and\n      0xffffffffffffffffffffffffffffffffffffffff\n      and\n      dup2\n      mstore\n      0x20\n      add\n      swap1\n      dup2\n      mstore\n      0x20\n      add\n      0x00\n      keccak256\n        /* \"ERC777.sol\":38241:38277  _allowances[holder][spender] = value */\n      dup2\n      swap1\n      sstore\n      pop\n        /* \"ERC777.sol\":38310:38317  spender */\n      dup2\n        /* \"ERC777.sol\":38293:38325  Approval(holder, spender, value) */\n      0xffffffffffffffffffffffffffffffffffffffff\n      and\n        /* \"ERC777.sol\":38302:38308  holder */\n      dup4\n        /* \"ERC777.sol\":38293:38325  Approval(holder, spender, value) */\n      0xffffffffffffffffffffffffffffffffffffffff\n      and\n      0x8c5be1e5ebec7d5bd14f71427d1e84f3dd0314c0f7b2291e5b200ac8c7c3b925\n        /* \"ERC777.sol\":38319:38324  value */\n      dup4\n        /* \"ERC777.sol\":38293:38325  Approval(holder, spender, value) */\n      mload(0x40)\n      tag_184\n      swap2\n      swap1\n      tag_41\n      jump\t// in\n    tag_184:\n      mload(0x40)\n      dup1\n      swap2\n      sub\n      swap1\n      log3\n        /* \"ERC777.sol\":37984:38333  function _approve(address holder, address spender, uint256 value) internal virtual {... */\n      pop\n      pop\n      pop\n      jump\t// out\n        /* \"ERC777.sol\":40992:41412  function _spendAllowance(address owner, address spender, uint256 amount) internal virtual {... */\n    tag_116:\n        /* \"ERC777.sol\":41093:41117  uint256 currentAllowance */\n      0x00\n        /* \"ERC777.sol\":41120:41145  allowance(owner, spender) */\n      tag_186\n        /* \"ERC777.sol\":41130:41135  owner */\n      dup5\n        /* \"ERC777.sol\":41137:41144  spender */\n      dup5\n        /* \"ERC777.sol\":41120:41129  allowance */\n      tag_84\n        /* \"ERC777.sol\":41120:41145  allowance(owner, spender) */\n      jump\t// in\n    tag_186:\n        /* \"ERC777.sol\":41093:41145  uint256 currentAllowance = allowance(owner, spender) */\n      swap1\n      pop\n        /* \"ERC777.sol\":41180:41197  type(uint256).max */\n      0xffffffffffffffffffffffffffffffffffffffffffffffffffffffffffffffff\n        /* \"ERC777.sol\":41160:41176  currentAllowance */\n      dup2\n        /* \"ERC777.sol\":41160:41197  currentAllowance != type(uint256).max */\n      eq\n        /* \"ERC777.sol\":41156:41405  if (currentAllowance != type(uint256).max) {... */\n      tag_187\n      jumpi\n        /* \"ERC777.sol\":41242:41248  amount */\n      dup2\n        /* \"ERC777.sol\":41222:41238  currentAllowance */\n      dup2\n        /* \"ERC777.sol\":41222:41248  currentAllowance >= amount */\n      lt\n      iszero\n        /* \"ERC777.sol\":41214:41283  require(currentAllowance >= amount, \"ERC777: insufficient allowance\") */\n      tag_188\n      jumpi\n      mload(0x40)\n      0x08c379a000000000000000000000000000000000000000000000000000000000\n      dup2\n      mstore\n      0x04\n      add\n      tag_189\n      swap1\n      tag_190\n      jump\t// in\n    tag_189:\n      mload(0x40)\n      dup1\n      swap2\n      sub\n      swap1\n      revert\n    tag_188:\n        /* \"ERC777.sol\":41327:41378  _approve(owner, spender, currentAllowance - amount) */\n      tag_191\n        /* \"ERC777.sol\":41336:41341  owner */\n      dup5\n        /* \"ERC777.sol\":41343:41350  spender */\n      dup5\n        /* \"ERC777.sol\":41371:41377  amount */\n      dup5\n        /* \"ERC777.sol\":41352:41368  currentAllowance */\n      dup5\n        /* \"ERC777.sol\":41352:41377  currentAllowance - amount */\n      sub\n        /* \"ERC777.sol\":41327:41335  _approve */\n      tag_111\n        /* \"ERC777.sol\":41327:41378  _approve(owner, spender, currentAllowance - amount) */\n      jump\t// in\n    tag_191:\n        /* \"ERC777.sol\":41156:41405  if (currentAllowance != type(uint256).max) {... */\n    tag_187:\n        /* \"ERC777.sol\":41082:41412  {... */\n      pop\n        /* \"ERC777.sol\":40992:41412  function _spendAllowance(address owner, address spender, uint256 amount) internal virtual {... */\n      pop\n      pop\n      pop\n      jump\t// out\n        /* \"ERC777.sol\":35419:36095  function _send(... */\n    tag_118:\n        /* \"ERC777.sol\":35665:35666  0 */\n      0x00\n        /* \"ERC777.sol\":35649:35667  from != address(0) */\n      0xffffffffffffffffffffffffffffffffffffffff\n      and\n        /* \"ERC777.sol\":35649:35653  from */\n      dup7\n        /* \"ERC777.sol\":35649:35667  from != address(0) */\n      0xffffffffffffffffffffffffffffffffffffffff\n      and\n      sub\n        /* \"ERC777.sol\":35641:35710  require(from != address(0), \"ERC777: transfer from the zero address\") */\n      tag_193\n      jumpi\n      mload(0x40)\n      0x08c379a000000000000000000000000000000000000000000000000000000000\n      dup2\n      mstore\n      0x04\n      add\n      tag_194\n      swap1\n      tag_195\n      jump\t// in\n    tag_194:\n      mload(0x40)\n      dup1\n      swap2\n      sub\n      swap1\n      revert\n    tag_193:\n        /* \"ERC777.sol\":35743:35744  0 */\n      0x00\n        /* \"ERC777.sol\":35729:35745  to != address(0) */\n      0xffffffffffffffffffffffffffffffffffffffff\n      and\n        /* \"ERC777.sol\":35729:35731  to */\n      dup6\n        /* \"ERC777.sol\":35729:35745  to != address(0) */\n      0xffffffffffffffffffffffffffffffffffffffff\n      and\n      sub\n        /* \"ERC777.sol\":35721:35786  require(to != address(0), \"ERC777: transfer to the zero address\") */\n      tag_196\n      jumpi\n      mload(0x40)\n      0x08c379a000000000000000000000000000000000000000000000000000000000\n      dup2\n      mstore\n      0x04\n      add\n      tag_197\n      swap1\n      tag_198\n      jump\t// in\n    tag_197:\n      mload(0x40)\n      dup1\n      swap2\n      sub\n      swap1\n      revert\n    tag_196:\n        /* \"ERC777.sol\":35799:35815  address operator */\n      0x00\n        /* \"ERC777.sol\":35818:35830  _msgSender() */\n      tag_199\n        /* \"ERC777.sol\":35818:35828  _msgSender */\n      tag_109\n        /* \"ERC777.sol\":35818:35830  _msgSender() */\n      jump\t// in\n    tag_199:\n        /* \"ERC777.sol\":35799:35830  address operator = _msgSender() */\n      swap1\n      pop\n        /* \"ERC777.sol\":35843:35912  _callTokensToSend(operator, from, to, amount, userData, operatorData) */\n      tag_200\n        /* \"ERC777.sol\":35861:35869  operator */\n      dup2\n        /* \"ERC777.sol\":35871:35875  from */\n      dup9\n        /* \"ERC777.sol\":35877:35879  to */\n      dup9\n        /* \"ERC777.sol\":35881:35887  amount */\n      dup9\n        /* \"ERC777.sol\":35889:35897  userData */\n      dup9\n        /* \"ERC777.sol\":35899:35911  operatorData */\n      dup9\n        /* \"ERC777.sol\":35843:35860  _callTokensToSend */\n      tag_201\n        /* \"ERC777.sol\":35843:35912  _callTokensToSend(operator, from, to, amount, userData, operatorData) */\n      jump\t// in\n    tag_200:\n        /* \"ERC777.sol\":35925:35982  _move(operator, from, to, amount, userData, operatorData) */\n      tag_202\n        /* \"ERC777.sol\":35931:35939  operator */\n      dup2\n        /* \"ERC777.sol\":35941:35945  from */\n      dup9\n        /* \"ERC777.sol\":35947:35949  to */\n      dup9\n        /* \"ERC777.sol\":35951:35957  amount */\n      dup9\n        /* \"ERC777.sol\":35959:35967  userData */\n      dup9\n        /* \"ERC777.sol\":35969:35981  operatorData */\n      dup9\n        /* \"ERC777.sol\":35925:35930  _move */\n      tag_203\n        /* \"ERC777.sol\":35925:35982  _move(operator, from, to, amount, userData, operatorData) */\n      jump\t// in\n    tag_202:\n        /* \"ERC777.sol\":35995:36087  _callTokensReceived(operator, from, to, amount, userData, operatorData, requireReceptionAck) */\n      tag_204\n        /* \"ERC777.sol\":36015:36023  operator */\n      dup2\n        /* \"ERC777.sol\":36025:36029  from */\n      dup9\n        /* \"ERC777.sol\":36031:36033  to */\n      dup9\n        /* \"ERC777.sol\":36035:36041  amount */\n      dup9\n        /* \"ERC777.sol\":36043:36051  userData */\n      dup9\n        /* \"ERC777.sol\":36053:36065  operatorData */\n      dup9\n        /* \"ERC777.sol\":36067:36086  requireReceptionAck */\n      dup9\n        /* \"ERC777.sol\":35995:36014  _callTokensReceived */\n      tag_205\n        /* \"ERC777.sol\":35995:36087  _callTokensReceived(operator, from, to, amount, userData, operatorData, requireReceptionAck) */\n      jump\t// in\n    tag_204:\n        /* \"ERC777.sol\":35630:36095  {... */\n      pop\n        /* \"ERC777.sol\":35419:36095  function _send(... */\n      pop\n      pop\n      pop\n      pop\n      pop\n      pop\n      jump\t// out\n        /* \"ERC777.sol\":36409:37201  function _burn(address from, uint256 amount, bytes memory data, bytes memory operatorData) internal virtual {... */\n    tag_172:\n        /* \"ERC777.sol\":36552:36553  0 */\n      0x00\n        /* \"ERC777.sol\":36536:36554  from != address(0) */\n      0xffffffffffffffffffffffffffffffffffffffff\n      and\n        /* \"ERC777.sol\":36536:36540  from */\n      dup5\n        /* \"ERC777.sol\":36536:36554  from != address(0) */\n      0xffffffffffffffffffffffffffffffffffffffff\n      and\n      sub\n        /* \"ERC777.sol\":36528:36593  require(from != address(0), \"ERC777: burn from the zero address\") */\n      tag_207\n      jumpi\n      mload(0x40)\n      0x08c379a000000000000000000000000000000000000000000000000000000000\n      dup2\n      mstore\n      0x04\n      add\n      tag_208\n      swap1\n      tag_209\n      jump\t// in\n    tag_208:\n      mload(0x40)\n      dup1\n      swap2\n      sub\n      swap1\n      revert\n    tag_207:\n        /* \"ERC777.sol\":36606:36622  address operator */\n      0x00\n        /* \"ERC777.sol\":36625:36637  _msgSender() */\n      tag_210\n        /* \"ERC777.sol\":36625:36635  _msgSender */\n      tag_109\n        /* \"ERC777.sol\":36625:36637  _msgSender() */\n      jump\t// in\n    tag_210:\n        /* \"ERC777.sol\":36606:36637  address operator = _msgSender() */\n      swap1\n      pop\n        /* \"ERC777.sol\":36650:36723  _callTokensToSend(operator, from, address(0), amount, data, operatorData) */\n      tag_211\n        /* \"ERC777.sol\":36668:36676  operator */\n      dup2\n        /* \"ERC777.sol\":36678:36682  from */\n      dup7\n        /* \"ERC777.sol\":36692:36693  0 */\n      0x00\n        /* \"ERC777.sol\":36696:36702  amount */\n      dup8\n        /* \"ERC777.sol\":36704:36708  data */\n      dup8\n        /* \"ERC777.sol\":36710:36722  operatorData */\n      dup8\n        /* \"ERC777.sol\":36650:36667  _callTokensToSend */\n      tag_201\n        /* \"ERC777.sol\":36650:36723  _callTokensToSend(operator, from, address(0), amount, data, operatorData) */\n      jump\t// in\n    tag_211:\n        /* \"ERC777.sol\":36736:36792  _beforeTokenTransfer(operator, from, address(0), amount) */\n      tag_212\n        /* \"ERC777.sol\":36757:36765  operator */\n      dup2\n        /* \"ERC777.sol\":36767:36771  from */\n      dup7\n        /* \"ERC777.sol\":36781:36782  0 */\n      0x00\n        /* \"ERC777.sol\":36785:36791  amount */\n      dup8\n        /* \"ERC777.sol\":36736:36756  _beforeTokenTransfer */\n      tag_213\n        /* \"ERC777.sol\":36736:36792  _beforeTokenTransfer(operator, from, address(0), amount) */\n      jump\t// in\n    tag_212:\n        /* \"ERC777.sol\":36840:36859  uint256 fromBalance */\n      0x00\n        /* \"ERC777.sol\":36862:36871  _balances */\n      dup1\n        /* \"ERC777.sol\":36862:36877  _balances[from] */\n      0x00\n        /* \"ERC777.sol\":36872:36876  from */\n      dup8\n        /* \"ERC777.sol\":36862:36877  _balances[from] */\n      0xffffffffffffffffffffffffffffffffffffffff\n      and\n      0xffffffffffffffffffffffffffffffffffffffff\n      and\n      dup2\n      mstore\n      0x20\n      add\n      swap1\n      dup2\n      mstore\n      0x20\n      add\n      0x00\n      keccak256\n      sload\n        /* \"ERC777.sol\":36840:36877  uint256 fromBalance = _balances[from] */\n      swap1\n      pop\n        /* \"ERC777.sol\":36911:36917  amount */\n      dup5\n        /* \"ERC777.sol\":36896:36907  fromBalance */\n      dup2\n        /* \"ERC777.sol\":36896:36917  fromBalance >= amount */\n      lt\n      iszero\n        /* \"ERC777.sol\":36888:36957  require(fromBalance >= amount, \"ERC777: burn amount exceeds balance\") */\n      tag_214\n      jumpi\n      mload(0x40)\n      0x08c379a000000000000000000000000000000000000000000000000000000000\n      dup2\n      mstore\n      0x04\n      add\n      tag_215\n      swap1\n      tag_216\n      jump\t// in\n    tag_215:\n      mload(0x40)\n      dup1\n      swap2\n      sub\n      swap1\n      revert\n    tag_214:\n        /* \"ERC777.sol\":37025:37031  amount */\n      dup5\n        /* \"ERC777.sol\":37011:37022  fromBalance */\n      dup2\n        /* \"ERC777.sol\":37011:37031  fromBalance - amount */\n      sub\n        /* \"ERC777.sol\":36993:37002  _balances */\n      0x00\n        /* \"ERC777.sol\":36993:37008  _balances[from] */\n      dup1\n        /* \"ERC777.sol\":37003:37007  from */\n      dup9\n        /* \"ERC777.sol\":36993:37008  _balances[from] */\n      0xffffffffffffffffffffffffffffffffffffffff\n      and\n      0xffffffffffffffffffffffffffffffffffffffff\n      and\n      dup2\n      mstore\n      0x20\n      add\n      swap1\n      dup2\n      mstore\n      0x20\n      add\n      0x00\n      keccak256\n        /* \"ERC777.sol\":36993:37031  _balances[from] = fromBalance - amount */\n      dup2\n      swap1\n      sstore\n      pop\n        /* \"ERC777.sol\":37069:37075  amount */\n      dup5\n        /* \"ERC777.sol\":37053:37065  _totalSupply */\n      0x01\n      0x00\n        /* \"ERC777.sol\":37053:37075  _totalSupply -= amount */\n      dup3\n      dup3\n      sload\n      tag_217\n      swap2\n      swap1\n      tag_218\n      jump\t// in\n    tag_217:\n      swap3\n      pop\n      pop\n      dup2\n      swap1\n      sstore\n      pop\n        /* \"ERC777.sol\":37110:37114  from */\n      dup6\n        /* \"ERC777.sol\":37093:37143  Burned(operator, from, amount, data, operatorData) */\n      0xffffffffffffffffffffffffffffffffffffffff\n      and\n        /* \"ERC777.sol\":37100:37108  operator */\n      dup3\n        /* \"ERC777.sol\":37093:37143  Burned(operator, from, amount, data, operatorData) */\n      0xffffffffffffffffffffffffffffffffffffffff\n      and\n      0xa78a9be3a7b862d26933ad85fb11d80ef66b8f972d7cbba06621d583943a4098\n        /* \"ERC777.sol\":37116:37122  amount */\n      dup8\n        /* \"ERC777.sol\":37124:37128  data */\n      dup8\n        /* \"ERC777.sol\":37130:37142  operatorData */\n      dup8\n        /* \"ERC777.sol\":37093:37143  Burned(operator, from, amount, data, operatorData) */\n      mload(0x40)\n      tag_219\n      swap4\n      swap3\n      swap2\n      swap1\n      tag_220\n      jump\t// in\n    tag_219:\n      mload(0x40)\n      dup1\n      swap2\n      sub\n      swap1\n      log3\n        /* \"ERC777.sol\":37182:37183  0 */\n      0x00\n        /* \"ERC777.sol\":37159:37193  Transfer(from, address(0), amount) */\n      0xffffffffffffffffffffffffffffffffffffffff\n      and\n        /* \"ERC777.sol\":37168:37172  from */\n      dup7\n        /* \"ERC777.sol\":37159:37193  Transfer(from, address(0), amount) */\n      0xffffffffffffffffffffffffffffffffffffffff\n      and\n      0xddf252ad1be2c89b69c2b068fc378daa952ba7f163c4a11628f55a4df523b3ef\n        /* \"ERC777.sol\":37186:37192  amount */\n      dup8\n        /* \"ERC777.sol\":37159:37193  Transfer(from, address(0), amount) */\n      mload(0x40)\n      tag_221\n      swap2\n      swap1\n      tag_41\n      jump\t// in\n    tag_221:\n      mload(0x40)\n      dup1\n      swap2\n      sub\n      swap1\n      log3\n        /* \"ERC777.sol\":36517:37201  {... */\n      pop\n      pop\n        /* \"ERC777.sol\":36409:37201  function _burn(address from, uint256 amount, bytes memory data, bytes memory operatorData) internal virtual {... */\n      pop\n      pop\n      pop\n      pop\n      jump\t// out\n        /* \"ERC777.sol\":38817:39301  function _callTokensToSend(... */\n    tag_201:\n        /* \"ERC777.sol\":39034:39053  address implementer */\n      0x00\n        /* \"ERC777.sol\":24520:24562  0x1820a4B7618BdE71Dce8cdc73aAB6C95905faD24 */\n      0x1820a4b7618bde71dce8cdc73aab6c95905fad24\n        /* \"ERC777.sol\":39056:39097  _ERC1820_REGISTRY.getInterfaceImplementer */\n      0xffffffffffffffffffffffffffffffffffffffff\n      and\n      0xaabbb8ca\n        /* \"ERC777.sol\":39098:39102  from */\n      dup8\n        /* \"ERC777.sol\":24778:24809  keccak256(\"ERC777TokensSender\") */\n      0x29ddb589b1fb5fc7cf394961c1adf5f8c6454761adf795e67fe149f658abe895\n        /* \"ERC777.sol\":39056:39134  _ERC1820_REGISTRY.getInterfaceImplementer(from, _TOKENS_SENDER_INTERFACE_HASH) */\n      mload(0x40)\n      dup4\n      0xffffffff\n      and\n      0xe0\n      shl\n      dup2\n      mstore\n      0x04\n      add\n      tag_223\n      swap3\n      swap2\n      swap1\n      tag_224\n      jump\t// in\n    tag_223:\n      0x20\n      mload(0x40)\n      dup1\n      dup4\n      sub\n      dup2\n      dup7\n      gas\n      staticcall\n      iszero\n      dup1\n      iszero\n      tag_226\n      jumpi\n      returndatasize\n      0x00\n      dup1\n      returndatacopy\n      revert(0x00, returndatasize)\n    tag_226:\n      pop\n      pop\n      pop\n      pop\n      mload(0x40)\n      returndatasize\n      not(0x1f)\n      0x1f\n      dup3\n      add\n      and\n      dup3\n      add\n      dup1\n      0x40\n      mstore\n      pop\n      dup2\n      add\n      swap1\n      tag_227\n      swap2\n      swap1\n      tag_228\n      jump\t// in\n    tag_227:\n        /* \"ERC777.sol\":39034:39134  address implementer = _ERC1820_REGISTRY.getInterfaceImplementer(from, _TOKENS_SENDER_INTERFACE_HASH) */\n      swap1\n      pop\n        /* \"ERC777.sol\":39172:39173  0 */\n      0x00\n        /* \"ERC777.sol\":39149:39174  implementer != address(0) */\n      0xffffffffffffffffffffffffffffffffffffffff\n      and\n        /* \"ERC777.sol\":39149:39160  implementer */\n      dup2\n        /* \"ERC777.sol\":39149:39174  implementer != address(0) */\n      0xffffffffffffffffffffffffffffffffffffffff\n      and\n      eq\n        /* \"ERC777.sol\":39145:39294  if (implementer != address(0)) {... */\n      tag_229\n      jumpi\n        /* \"ERC777.sol\":39205:39216  implementer */\n      dup1\n        /* \"ERC777.sol\":39191:39230  IERC777Sender(implementer).tokensToSend */\n      0xffffffffffffffffffffffffffffffffffffffff\n      and\n      0x75ab9782\n        /* \"ERC777.sol\":39231:39239  operator */\n      dup9\n        /* \"ERC777.sol\":39241:39245  from */\n      dup9\n        /* \"ERC777.sol\":39247:39249  to */\n      dup9\n        /* \"ERC777.sol\":39251:39257  amount */\n      dup9\n        /* \"ERC777.sol\":39259:39267  userData */\n      dup9\n        /* \"ERC777.sol\":39269:39281  operatorData */\n      dup9\n        /* \"ERC777.sol\":39191:39282  IERC777Sender(implementer).tokensToSend(operator, from, to, amount, userData, operatorData) */\n      mload(0x40)\n      dup8\n      0xffffffff\n      and\n      0xe0\n      shl\n      dup2\n      mstore\n      0x04\n      add\n      tag_230\n      swap7\n      swap6\n      swap5\n      swap4\n      swap3\n      swap2\n      swap1\n      tag_231\n      jump\t// in\n    tag_230:\n      0x00\n      mload(0x40)\n      dup1\n      dup4\n      sub\n      dup2\n      0x00\n      dup8\n      dup1\n      extcodesize\n      iszero\n      dup1\n      iszero\n      tag_232\n      jumpi\n      0x00\n      dup1\n      revert\n    tag_232:\n      pop\n      gas\n      call\n      iszero\n      dup1\n      iszero\n      tag_234\n      jumpi\n      returndatasize\n      0x00\n      dup1\n      returndatacopy\n      revert(0x00, returndatasize)\n    tag_234:\n      pop\n      pop\n      pop\n      pop\n        /* \"ERC777.sol\":39145:39294  if (implementer != address(0)) {... */\n    tag_229:\n        /* \"ERC777.sol\":39023:39301  {... */\n      pop\n        /* \"ERC777.sol\":38817:39301  function _callTokensToSend(... */\n      pop\n      pop\n      pop\n      pop\n      pop\n      pop\n      jump\t// out\n        /* \"ERC777.sol\":37209:37839  function _move(... */\n    tag_203:\n        /* \"ERC777.sol\":37414:37462  _beforeTokenTransfer(operator, from, to, amount) */\n      tag_236\n        /* \"ERC777.sol\":37435:37443  operator */\n      dup7\n        /* \"ERC777.sol\":37445:37449  from */\n      dup7\n        /* \"ERC777.sol\":37451:37453  to */\n      dup7\n        /* \"ERC777.sol\":37455:37461  amount */\n      dup7\n        /* \"ERC777.sol\":37414:37434  _beforeTokenTransfer */\n      tag_213\n        /* \"ERC777.sol\":37414:37462  _beforeTokenTransfer(operator, from, to, amount) */\n      jump\t// in\n    tag_236:\n        /* \"ERC777.sol\":37475:37494  uint256 fromBalance */\n      0x00\n        /* \"ERC777.sol\":37497:37506  _balances */\n      dup1\n        /* \"ERC777.sol\":37497:37512  _balances[from] */\n      0x00\n        /* \"ERC777.sol\":37507:37511  from */\n      dup8\n        /* \"ERC777.sol\":37497:37512  _balances[from] */\n      0xffffffffffffffffffffffffffffffffffffffff\n      and\n      0xffffffffffffffffffffffffffffffffffffffff\n      and\n      dup2\n      mstore\n      0x20\n      add\n      swap1\n      dup2\n      mstore\n      0x20\n      add\n      0x00\n      keccak256\n      sload\n        /* \"ERC777.sol\":37475:37512  uint256 fromBalance = _balances[from] */\n      swap1\n      pop\n        /* \"ERC777.sol\":37546:37552  amount */\n      dup4\n        /* \"ERC777.sol\":37531:37542  fromBalance */\n      dup2\n        /* \"ERC777.sol\":37531:37552  fromBalance >= amount */\n      lt\n      iszero\n        /* \"ERC777.sol\":37523:37596  require(fromBalance >= amount, \"ERC777: transfer amount exceeds balance\") */\n      tag_237\n      jumpi\n      mload(0x40)\n      0x08c379a000000000000000000000000000000000000000000000000000000000\n      dup2\n      mstore\n      0x04\n      add\n      tag_238\n      swap1\n      tag_239\n      jump\t// in\n    tag_238:\n      mload(0x40)\n      dup1\n      swap2\n      sub\n      swap1\n      revert\n    tag_237:\n        /* \"ERC777.sol\":37664:37670  amount */\n      dup4\n        /* \"ERC777.sol\":37650:37661  fromBalance */\n      dup2\n        /* \"ERC777.sol\":37650:37670  fromBalance - amount */\n      sub\n        /* \"ERC777.sol\":37632:37641  _balances */\n      0x00\n        /* \"ERC777.sol\":37632:37647  _balances[from] */\n      dup1\n        /* \"ERC777.sol\":37642:37646  from */\n      dup9\n        /* \"ERC777.sol\":37632:37647  _balances[from] */\n      0xffffffffffffffffffffffffffffffffffffffff\n      and\n      0xffffffffffffffffffffffffffffffffffffffff\n      and\n      dup2\n      mstore\n      0x20\n      add\n      swap1\n      dup2\n      mstore\n      0x20\n      add\n      0x00\n      keccak256\n        /* \"ERC777.sol\":37632:37670  _balances[from] = fromBalance - amount */\n      dup2\n      swap1\n      sstore\n      pop\n        /* \"ERC777.sol\":37709:37715  amount */\n      dup4\n        /* \"ERC777.sol\":37692:37701  _balances */\n      0x00\n        /* \"ERC777.sol\":37692:37705  _balances[to] */\n      dup1\n        /* \"ERC777.sol\":37702:37704  to */\n      dup8\n        /* \"ERC777.sol\":37692:37705  _balances[to] */\n      0xffffffffffffffffffffffffffffffffffffffff\n      and\n      0xffffffffffffffffffffffffffffffffffffffff\n      and\n      dup2\n      mstore\n      0x20\n      add\n      swap1\n      dup2\n      mstore\n      0x20\n      add\n      0x00\n      keccak256\n      0x00\n        /* \"ERC777.sol\":37692:37715  _balances[to] += amount */\n      dup3\n      dup3\n      sload\n      tag_240\n      swap2\n      swap1\n      tag_241\n      jump\t// in\n    tag_240:\n      swap3\n      pop\n      pop\n      dup2\n      swap1\n      sstore\n      pop\n        /* \"ERC777.sol\":37754:37756  to */\n      dup5\n        /* \"ERC777.sol\":37733:37789  Sent(operator, from, to, amount, userData, operatorData) */\n      0xffffffffffffffffffffffffffffffffffffffff\n      and\n        /* \"ERC777.sol\":37748:37752  from */\n      dup7\n        /* \"ERC777.sol\":37733:37789  Sent(operator, from, to, amount, userData, operatorData) */\n      0xffffffffffffffffffffffffffffffffffffffff\n      and\n        /* \"ERC777.sol\":37738:37746  operator */\n      dup9\n        /* \"ERC777.sol\":37733:37789  Sent(operator, from, to, amount, userData, operatorData) */\n      0xffffffffffffffffffffffffffffffffffffffff\n      and\n      0x06b541ddaa720db2b10a4d0cdac39b8d360425fc073085fac19bc82614677987\n        /* \"ERC777.sol\":37758:37764  amount */\n      dup8\n        /* \"ERC777.sol\":37766:37774  userData */\n      dup8\n        /* \"ERC777.sol\":37776:37788  operatorData */\n      dup8\n        /* \"ERC777.sol\":37733:37789  Sent(operator, from, to, amount, userData, operatorData) */\n      mload(0x40)\n      tag_242\n      swap4\n      swap3\n      swap2\n      swap1\n      tag_220\n      jump\t// in\n    tag_242:\n      mload(0x40)\n      dup1\n      swap2\n      sub\n      swap1\n      log4\n        /* \"ERC777.sol\":37820:37822  to */\n      dup5\n        /* \"ERC777.sol\":37805:37831  Transfer(from, to, amount) */\n      0xffffffffffffffffffffffffffffffffffffffff\n      and\n        /* \"ERC777.sol\":37814:37818  from */\n      dup7\n        /* \"ERC777.sol\":37805:37831  Transfer(from, to, amount) */\n      0xffffffffffffffffffffffffffffffffffffffff\n      and\n      0xddf252ad1be2c89b69c2b068fc378daa952ba7f163c4a11628f55a4df523b3ef\n        /* \"ERC777.sol\":37824:37830  amount */\n      dup7\n        /* \"ERC777.sol\":37805:37831  Transfer(from, to, amount) */\n      mload(0x40)\n      tag_243\n      swap2\n      swap1\n      tag_41\n      jump\t// in\n    tag_243:\n      mload(0x40)\n      dup1\n      swap2\n      sub\n      swap1\n      log3\n        /* \"ERC777.sol\":37403:37839  {... */\n      pop\n        /* \"ERC777.sol\":37209:37839  function _move(... */\n      pop\n      pop\n      pop\n      pop\n      pop\n      pop\n      jump\t// out\n        /* \"ERC777.sol\":40003:40694  function _callTokensReceived(... */\n    tag_205:\n        /* \"ERC777.sol\":40257:40276  address implementer */\n      0x00\n        /* \"ERC777.sol\":24520:24562  0x1820a4B7618BdE71Dce8cdc73aAB6C95905faD24 */\n      0x1820a4b7618bde71dce8cdc73aab6c95905fad24\n        /* \"ERC777.sol\":40279:40320  _ERC1820_REGISTRY.getInterfaceImplementer */\n      0xffffffffffffffffffffffffffffffffffffffff\n      and\n      0xaabbb8ca\n        /* \"ERC777.sol\":40321:40323  to */\n      dup8\n        /* \"ERC777.sol\":24876:24910  keccak256(\"ERC777TokensRecipient\") */\n      0xb281fc8c12954d22544db45de3159a39272895b169a852b314f9cc762e44c53b\n        /* \"ERC777.sol\":40279:40358  _ERC1820_REGISTRY.getInterfaceImplementer(to, _TOKENS_RECIPIENT_INTERFACE_HASH) */\n      mload(0x40)\n      dup4\n      0xffffffff\n      and\n      0xe0\n      shl\n      dup2\n      mstore\n      0x04\n      add\n      tag_245\n      swap3\n      swap2\n      swap1\n      tag_224\n      jump\t// in\n    tag_245:\n      0x20\n      mload(0x40)\n      dup1\n      dup4\n      sub\n      dup2\n      dup7\n      gas\n      staticcall\n      iszero\n      dup1\n      iszero\n      tag_247\n      jumpi\n      returndatasize\n      0x00\n      dup1\n      returndatacopy\n      revert(0x00, returndatasize)\n    tag_247:\n      pop\n      pop\n      pop\n      pop\n      mload(0x40)\n      returndatasize\n      not(0x1f)\n      0x1f\n      dup3\n      add\n      and\n      dup3\n      add\n      dup1\n      0x40\n      mstore\n      pop\n      dup2\n      add\n      swap1\n      tag_248\n      swap2\n      swap1\n      tag_228\n      jump\t// in\n    tag_248:\n        /* \"ERC777.sol\":40257:40358  address implementer = _ERC1820_REGISTRY.getInterfaceImplementer(to, _TOKENS_RECIPIENT_INTERFACE_HASH) */\n      swap1\n      pop\n        /* \"ERC777.sol\":40396:40397  0 */\n      0x00\n        /* \"ERC777.sol\":40373:40398  implementer != address(0) */\n      0xffffffffffffffffffffffffffffffffffffffff\n      and\n        /* \"ERC777.sol\":40373:40384  implementer */\n      dup2\n        /* \"ERC777.sol\":40373:40398  implementer != address(0) */\n      0xffffffffffffffffffffffffffffffffffffffff\n      and\n      eq\n        /* \"ERC777.sol\":40369:40687  if (implementer != address(0)) {... */\n      tag_249\n      jumpi\n        /* \"ERC777.sol\":40432:40443  implementer */\n      dup1\n        /* \"ERC777.sol\":40415:40459  IERC777Recipient(implementer).tokensReceived */\n      0xffffffffffffffffffffffffffffffffffffffff\n      and\n      0x23de29\n        /* \"ERC777.sol\":40460:40468  operator */\n      dup10\n        /* \"ERC777.sol\":40470:40474  from */\n      dup10\n        /* \"ERC777.sol\":40476:40478  to */\n      dup10\n        /* \"ERC777.sol\":40480:40486  amount */\n      dup10\n        /* \"ERC777.sol\":40488:40496  userData */\n      dup10\n        /* \"ERC777.sol\":40498:40510  operatorData */\n      dup10\n        /* \"ERC777.sol\":40415:40511  IERC777Recipient(implementer).tokensReceived(operator, from, to, amount, userData, operatorData) */\n      mload(0x40)\n      dup8\n      0xffffffff\n      and\n      0xe0\n      shl\n      dup2\n      mstore\n      0x04\n      add\n      tag_250\n      swap7\n      swap6\n      swap5\n      swap4\n      swap3\n      swap2\n      swap1\n      tag_231\n      jump\t// in\n    tag_250:\n      0x00\n      mload(0x40)\n      dup1\n      dup4\n      sub\n      dup2\n      0x00\n      dup8\n      dup1\n      extcodesize\n      iszero\n      dup1\n      iszero\n      tag_251\n      jumpi\n      0x00\n      dup1\n      revert\n    tag_251:\n      pop\n      gas\n      call\n      iszero\n      dup1\n      iszero\n      tag_253\n      jumpi\n      returndatasize\n      0x00\n      dup1\n      returndatacopy\n      revert(0x00, returndatasize)\n    tag_253:\n      pop\n      pop\n      pop\n      pop\n        /* \"ERC777.sol\":40369:40687  if (implementer != address(0)) {... */\n      jump(tag_254)\n    tag_249:\n        /* \"ERC777.sol\":40533:40552  requireReceptionAck */\n      dup2\n        /* \"ERC777.sol\":40529:40687  if (requireReceptionAck) {... */\n      iszero\n      tag_255\n      jumpi\n        /* \"ERC777.sol\":40578:40593  to.isContract() */\n      tag_256\n        /* \"ERC777.sol\":40578:40580  to */\n      dup7\n        /* \"ERC777.sol\":40578:40591  to.isContract */\n      0xffffffffffffffffffffffffffffffffffffffff\n      and\n      tag_257\n        /* \"ERC777.sol\":40578:40593  to.isContract() */\n      jump\t// in\n    tag_256:\n        /* \"ERC777.sol\":40577:40593  !to.isContract() */\n      iszero\n        /* \"ERC777.sol\":40569:40675  require(!to.isContract(), \"ERC777: token recipient contract has no implementer for ERC777TokensRecipient\") */\n      tag_258\n      jumpi\n      mload(0x40)\n      0x08c379a000000000000000000000000000000000000000000000000000000000\n      dup2\n      mstore\n      0x04\n      add\n      tag_259\n      swap1\n      tag_260\n      jump\t// in\n    tag_259:\n      mload(0x40)\n      dup1\n      swap2\n      sub\n      swap1\n      revert\n    tag_258:\n        /* \"ERC777.sol\":40529:40687  if (requireReceptionAck) {... */\n    tag_255:\n        /* \"ERC777.sol\":40369:40687  if (implementer != address(0)) {... */\n    tag_254:\n        /* \"ERC777.sol\":40246:40694  {... */\n      pop\n        /* \"ERC777.sol\":40003:40694  function _callTokensReceived(... */\n      pop\n      pop\n      pop\n      pop\n      pop\n      pop\n      pop\n      jump\t// out\n        /* \"ERC777.sol\":42072:42181  function _beforeTokenTransfer(address operator, address from, address to, uint256 amount) internal virtual {} */\n    tag_213:\n      pop\n      pop\n      pop\n      pop\n      jump\t// out\n        /* \"ERC777.sol\":11797:12123  function isContract(address account) internal view returns (bool) {... */\n    tag_257:\n        /* \"ERC777.sol\":11857:11861  bool */\n      0x00\n        /* \"ERC777.sol\":12114:12115  0 */\n      dup1\n        /* \"ERC777.sol\":12092:12099  account */\n      dup3\n        /* \"ERC777.sol\":12092:12111  account.code.length */\n      0xffffffffffffffffffffffffffffffffffffffff\n      and\n      extcodesize\n        /* \"ERC777.sol\":12092:12115  account.code.length > 0 */\n      gt\n        /* \"ERC777.sol\":12085:12115  return account.code.length > 0 */\n      swap1\n      pop\n        /* \"ERC777.sol\":11797:12123  function isContract(address account) internal view returns (bool) {... */\n      swap2\n      swap1\n      pop\n      jump\t// out\n        /* \"#utility.yul\":7:121   */\n    tag_263:\n        /* \"#utility.yul\":74:80   */\n      0x00\n        /* \"#utility.yul\":108:113   */\n      dup2\n        /* \"#utility.yul\":102:114   */\n      mload\n        /* \"#utility.yul\":92:114   */\n      swap1\n      pop\n        /* \"#utility.yul\":7:121   */\n      swap2\n      swap1\n      pop\n      jump\t// out\n        /* \"#utility.yul\":127:311   */\n    tag_264:\n        /* \"#utility.yul\":226:237   */\n      0x00\n        /* \"#utility.yul\":260:266   */\n      dup3\n        /* \"#utility.yul\":255:258   */\n      dup3\n        /* \"#utility.yul\":248:267   */\n      mstore\n        /* \"#utility.yul\":300:304   */\n      0x20\n        /* \"#utility.yul\":295:298   */\n      dup3\n        /* \"#utility.yul\":291:305   */\n      add\n        /* \"#utility.yul\":276:305   */\n      swap1\n      pop\n        /* \"#utility.yul\":127:311   */\n      swap3\n      swap2\n      pop\n      pop\n      jump\t// out\n        /* \"#utility.yul\":317:449   */\n    tag_265:\n        /* \"#utility.yul\":384:388   */\n      0x00\n        /* \"#utility.yul\":407:410   */\n      dup2\n        /* \"#utility.yul\":399:410   */\n      swap1\n      pop\n        /* \"#utility.yul\":437:441   */\n      0x20\n        /* \"#utility.yul\":432:435   */\n      dup3\n        /* \"#utility.yul\":428:442   */\n      add\n        /* \"#utility.yul\":420:442   */\n      swap1\n      pop\n        /* \"#utility.yul\":317:449   */\n      swap2\n      swap1\n      pop\n      jump\t// out\n        /* \"#utility.yul\":455:581   */\n    tag_266:\n        /* \"#utility.yul\":492:499   */\n      0x00\n        /* \"#utility.yul\":532:574   */\n      0xffffffffffffffffffffffffffffffffffffffff\n        /* \"#utility.yul\":525:530   */\n      dup3\n        /* \"#utility.yul\":521:575   */\n      and\n        /* \"#utility.yul\":510:575   */\n      swap1\n      pop\n        /* \"#utility.yul\":455:581   */\n      swap2\n      swap1\n      pop\n      jump\t// out\n        /* \"#utility.yul\":587:683   */\n    tag_267:\n        /* \"#utility.yul\":624:631   */\n      0x00\n        /* \"#utility.yul\":653:677   */\n      tag_338\n        /* \"#utility.yul\":671:676   */\n      dup3\n        /* \"#utility.yul\":653:677   */\n      tag_266\n      jump\t// in\n    tag_338:\n        /* \"#utility.yul\":642:677   */\n      swap1\n      pop\n        /* \"#utility.yul\":587:683   */\n      swap2\n      swap1\n      pop\n      jump\t// out\n        /* \"#utility.yul\":689:797   */\n    tag_268:\n        /* \"#utility.yul\":766:790   */\n      tag_340\n        /* \"#utility.yul\":784:789   */\n      dup2\n        /* \"#utility.yul\":766:790   */\n      tag_267\n      jump\t// in\n    tag_340:\n        /* \"#utility.yul\":761:764   */\n      dup3\n        /* \"#utility.yul\":754:791   */\n      mstore\n        /* \"#utility.yul\":689:797   */\n      pop\n      pop\n      jump\t// out\n        /* \"#utility.yul\":803:982   */\n    tag_269:\n        /* \"#utility.yul\":872:882   */\n      0x00\n        /* \"#utility.yul\":893:939   */\n      tag_342\n        /* \"#utility.yul\":935:938   */\n      dup4\n        /* \"#utility.yul\":927:933   */\n      dup4\n        /* \"#utility.yul\":893:939   */\n      tag_268\n      jump\t// in\n    tag_342:\n        /* \"#utility.yul\":971:975   */\n      0x20\n        /* \"#utility.yul\":966:969   */\n      dup4\n        /* \"#utility.yul\":962:976   */\n      add\n        /* \"#utility.yul\":948:976   */\n      swap1\n      pop\n        /* \"#utility.yul\":803:982   */\n      swap3\n      swap2\n      pop\n      pop\n      jump\t// out\n        /* \"#utility.yul\":988:1101   */\n    tag_270:\n        /* \"#utility.yul\":1058:1062   */\n      0x00\n        /* \"#utility.yul\":1090:1094   */\n      0x20\n        /* \"#utility.yul\":1085:1088   */\n      dup3\n        /* \"#utility.yul\":1081:1095   */\n      add\n        /* \"#utility.yul\":1073:1095   */\n      swap1\n      pop\n        /* \"#utility.yul\":988:1101   */\n      swap2\n      swap1\n      pop\n      jump\t// out\n        /* \"#utility.yul\":1137:1869   */\n    tag_271:\n        /* \"#utility.yul\":1256:1259   */\n      0x00\n        /* \"#utility.yul\":1285:1339   */\n      tag_345\n        /* \"#utility.yul\":1333:1338   */\n      dup3\n        /* \"#utility.yul\":1285:1339   */\n      tag_263\n      jump\t// in\n    tag_345:\n        /* \"#utility.yul\":1355:1441   */\n      tag_346\n        /* \"#utility.yul\":1434:1440   */\n      dup2\n        /* \"#utility.yul\":1429:1432   */\n      dup6\n        /* \"#utility.yul\":1355:1441   */\n      tag_264\n      jump\t// in\n    tag_346:\n        /* \"#utility.yul\":1348:1441   */\n      swap4\n      pop\n        /* \"#utility.yul\":1465:1521   */\n      tag_347\n        /* \"#utility.yul\":1515:1520   */\n      dup4\n        /* \"#utility.yul\":1465:1521   */\n      tag_265\n      jump\t// in\n    tag_347:\n        /* \"#utility.yul\":1544:1551   */\n      dup1\n        /* \"#utility.yul\":1575:1576   */\n      0x00\n        /* \"#utility.yul\":1560:1844   */\n    tag_348:\n        /* \"#utility.yul\":1585:1591   */\n      dup4\n        /* \"#utility.yul\":1582:1583   */\n      dup2\n        /* \"#utility.yul\":1579:1592   */\n      lt\n        /* \"#utility.yul\":1560:1844   */\n      iszero\n      tag_350\n      jumpi\n        /* \"#utility.yul\":1661:1667   */\n      dup2\n        /* \"#utility.yul\":1655:1668   */\n      mload\n        /* \"#utility.yul\":1688:1751   */\n      tag_351\n        /* \"#utility.yul\":1747:1750   */\n      dup9\n        /* \"#utility.yul\":1732:1745   */\n      dup3\n        /* \"#utility.yul\":1688:1751   */\n      tag_269\n      jump\t// in\n    tag_351:\n        /* \"#utility.yul\":1681:1751   */\n      swap8\n      pop\n        /* \"#utility.yul\":1774:1834   */\n      tag_352\n        /* \"#utility.yul\":1827:1833   */\n      dup4\n        /* \"#utility.yul\":1774:1834   */\n      tag_270\n      jump\t// in\n    tag_352:\n        /* \"#utility.yul\":1764:1834   */\n      swap3\n      pop\n        /* \"#utility.yul\":1620:1844   */\n      pop\n        /* \"#utility.yul\":1607:1608   */\n      0x01\n        /* \"#utility.yul\":1604:1605   */\n      dup2\n        /* \"#utility.yul\":1600:1609   */\n      add\n        /* \"#utility.yul\":1595:1609   */\n      swap1\n      pop\n        /* \"#utility.yul\":1560:1844   */\n      jump(tag_348)\n    tag_350:\n        /* \"#utility.yul\":1564:1578   */\n      pop\n        /* \"#utility.yul\":1860:1863   */\n      dup6\n        /* \"#utility.yul\":1853:1863   */\n      swap4\n      pop\n        /* \"#utility.yul\":1261:1869   */\n      pop\n      pop\n      pop\n        /* \"#utility.yul\":1137:1869   */\n      swap3\n      swap2\n      pop\n      pop\n      jump\t// out\n        /* \"#utility.yul\":1875:2248   */\n    tag_27:\n        /* \"#utility.yul\":2018:2022   */\n      0x00\n        /* \"#utility.yul\":2056:2058   */\n      0x20\n        /* \"#utility.yul\":2045:2054   */\n      dup3\n        /* \"#utility.yul\":2041:2059   */\n      add\n        /* \"#utility.yul\":2033:2059   */\n      swap1\n      pop\n        /* \"#utility.yul\":2105:2114   */\n      dup2\n        /* \"#utility.yul\":2099:2103   */\n      dup2\n        /* \"#utility.yul\":2095:2115   */\n      sub\n        /* \"#utility.yul\":2091:2092   */\n      0x00\n        /* \"#utility.yul\":2080:2089   */\n      dup4\n        /* \"#utility.yul\":2076:2093   */\n      add\n        /* \"#utility.yul\":2069:2116   */\n      mstore\n        /* \"#utility.yul\":2133:2241   */\n      tag_354\n        /* \"#utility.yul\":2236:2240   */\n      dup2\n        /* \"#utility.yul\":2227:2233   */\n      dup5\n        /* \"#utility.yul\":2133:2241   */\n      tag_271\n      jump\t// in\n    tag_354:\n        /* \"#utility.yul\":2125:2241   */\n      swap1\n      pop\n        /* \"#utility.yul\":1875:2248   */\n      swap3\n      swap2\n      pop\n      pop\n      jump\t// out\n        /* \"#utility.yul\":2254:2353   */\n    tag_272:\n        /* \"#utility.yul\":2306:2312   */\n      0x00\n        /* \"#utility.yul\":2340:2345   */\n      dup2\n        /* \"#utility.yul\":2334:2346   */\n      mload\n        /* \"#utility.yul\":2324:2346   */\n      swap1\n      pop\n        /* \"#utility.yul\":2254:2353   */\n      swap2\n      swap1\n      pop\n      jump\t// out\n        /* \"#utility.yul\":2359:2528   */\n    tag_273:\n        /* \"#utility.yul\":2443:2454   */\n      0x00\n        /* \"#utility.yul\":2477:2483   */\n      dup3\n        /* \"#utility.yul\":2472:2475   */\n      dup3\n        /* \"#utility.yul\":2465:2484   */\n      mstore\n        /* \"#utility.yul\":2517:2521   */\n      0x20\n        /* \"#utility.yul\":2512:2515   */\n      dup3\n        /* \"#utility.yul\":2508:2522   */\n      add\n        /* \"#utility.yul\":2493:2522   */\n      swap1\n      pop\n        /* \"#utility.yul\":2359:2528   */\n      swap3\n      swap2\n      pop\n      pop\n      jump\t// out\n        /* \"#utility.yul\":2534:2780   */\n    tag_274:\n        /* \"#utility.yul\":2615:2616   */\n      0x00\n        /* \"#utility.yul\":2625:2738   */\n    tag_358:\n        /* \"#utility.yul\":2639:2645   */\n      dup4\n        /* \"#utility.yul\":2636:2637   */\n      dup2\n        /* \"#utility.yul\":2633:2646   */\n      lt\n        /* \"#utility.yul\":2625:2738   */\n      iszero\n      tag_360\n      jumpi\n        /* \"#utility.yul\":2724:2725   */\n      dup1\n        /* \"#utility.yul\":2719:2722   */\n      dup3\n        /* \"#utility.yul\":2715:2726   */\n      add\n        /* \"#utility.yul\":2709:2727   */\n      mload\n        /* \"#utility.yul\":2705:2706   */\n      dup2\n        /* \"#utility.yul\":2700:2703   */\n      dup5\n        /* \"#utility.yul\":2696:2707   */\n      add\n        /* \"#utility.yul\":2689:2728   */\n      mstore\n        /* \"#utility.yul\":2661:2663   */\n      0x20\n        /* \"#utility.yul\":2658:2659   */\n      dup2\n        /* \"#utility.yul\":2654:2664   */\n      add\n        /* \"#utility.yul\":2649:2664   */\n      swap1\n      pop\n        /* \"#utility.yul\":2625:2738   */\n      jump(tag_358)\n    tag_360:\n        /* \"#utility.yul\":2772:2773   */\n      0x00\n        /* \"#utility.yul\":2763:2769   */\n      dup5\n        /* \"#utility.yul\":2758:2761   */\n      dup5\n        /* \"#utility.yul\":2754:2770   */\n      add\n        /* \"#utility.yul\":2747:2774   */\n      mstore\n        /* \"#utility.yul\":2596:2780   */\n      pop\n        /* \"#utility.yul\":2534:2780   */\n      pop\n      pop\n      pop\n      jump\t// out\n        /* \"#utility.yul\":2786:2888   */\n    tag_275:\n        /* \"#utility.yul\":2827:2833   */\n      0x00\n        /* \"#utility.yul\":2878:2880   */\n      0x1f\n        /* \"#utility.yul\":2874:2881   */\n      not\n        /* \"#utility.yul\":2869:2871   */\n      0x1f\n        /* \"#utility.yul\":2862:2867   */\n      dup4\n        /* \"#utility.yul\":2858:2872   */\n      add\n        /* \"#utility.yul\":2854:2882   */\n      and\n        /* \"#utility.yul\":2844:2882   */\n      swap1\n      pop\n        /* \"#utility.yul\":2786:2888   */\n      swap2\n      swap1\n      pop\n      jump\t// out\n        /* \"#utility.yul\":2894:3271   */\n    tag_276:\n        /* \"#utility.yul\":2982:2985   */\n      0x00\n        /* \"#utility.yul\":3010:3049   */\n      tag_363\n        /* \"#utility.yul\":3043:3048   */\n      dup3\n        /* \"#utility.yul\":3010:3049   */\n      tag_272\n      jump\t// in\n    tag_363:\n        /* \"#utility.yul\":3065:3136   */\n      tag_364\n        /* \"#utility.yul\":3129:3135   */\n      dup2\n        /* \"#utility.yul\":3124:3127   */\n      dup6\n        /* \"#utility.yul\":3065:3136   */\n      tag_273\n      jump\t// in\n    tag_364:\n        /* \"#utility.yul\":3058:3136   */\n      swap4\n      pop\n        /* \"#utility.yul\":3145:3210   */\n      tag_365\n        /* \"#utility.yul\":3203:3209   */\n      dup2\n        /* \"#utility.yul\":3198:3201   */\n      dup6\n        /* \"#utility.yul\":3191:3195   */\n      0x20\n        /* \"#utility.yul\":3184:3189   */\n      dup7\n        /* \"#utility.yul\":3180:3196   */\n      add\n        /* \"#utility.yul\":3145:3210   */\n      tag_274\n      jump\t// in\n    tag_365:\n        /* \"#utility.yul\":3235:3264   */\n      tag_366\n        /* \"#utility.yul\":3257:3263   */\n      dup2\n        /* \"#utility.yul\":3235:3264   */\n      tag_275\n      jump\t// in\n    tag_366:\n        /* \"#utility.yul\":3230:3233   */\n      dup5\n        /* \"#utility.yul\":3226:3265   */\n      add\n        /* \"#utility.yul\":3219:3265   */\n      swap2\n      pop\n        /* \"#utility.yul\":2986:3271   */\n      pop\n        /* \"#utility.yul\":2894:3271   */\n      swap3\n      swap2\n      pop\n      pop\n      jump\t// out\n        /* \"#utility.yul\":3277:3590   */\n    tag_31:\n        /* \"#utility.yul\":3390:3394   */\n      0x00\n        /* \"#utility.yul\":3428:3430   */\n      0x20\n        /* \"#utility.yul\":3417:3426   */\n      dup3\n        /* \"#utility.yul\":3413:3431   */\n      add\n        /* \"#utility.yul\":3405:3431   */\n      swap1\n      pop\n        /* \"#utility.yul\":3477:3486   */\n      dup2\n        /* \"#utility.yul\":3471:3475   */\n      dup2\n        /* \"#utility.yul\":3467:3487   */\n      sub\n        /* \"#utility.yul\":3463:3464   */\n      0x00\n        /* \"#utility.yul\":3452:3461   */\n      dup4\n        /* \"#utility.yul\":3448:3465   */\n      add\n        /* \"#utility.yul\":3441:3488   */\n      mstore\n        /* \"#utility.yul\":3505:3583   */\n      tag_368\n        /* \"#utility.yul\":3578:3582   */\n      dup2\n        /* \"#utility.yul\":3569:3575   */\n      dup5\n        /* \"#utility.yul\":3505:3583   */\n      tag_276\n      jump\t// in\n    tag_368:\n        /* \"#utility.yul\":3497:3583   */\n      swap1\n      pop\n        /* \"#utility.yul\":3277:3590   */\n      swap3\n      swap2\n      pop\n      pop\n      jump\t// out\n        /* \"#utility.yul\":3596:3671   */\n    tag_277:\n        /* \"#utility.yul\":3629:3635   */\n      0x00\n        /* \"#utility.yul\":3662:3664   */\n      0x40\n        /* \"#utility.yul\":3656:3665   */\n      mload\n        /* \"#utility.yul\":3646:3665   */\n      swap1\n      pop\n        /* \"#utility.yul\":3596:3671   */\n      swap1\n      jump\t// out\n        /* \"#utility.yul\":3677:3794   */\n    tag_278:\n        /* \"#utility.yul\":3786:3787   */\n      0x00\n        /* \"#utility.yul\":3783:3784   */\n      dup1\n        /* \"#utility.yul\":3776:3788   */\n      revert\n        /* \"#utility.yul\":3800:3917   */\n    tag_279:\n        /* \"#utility.yul\":3909:3910   */\n      0x00\n        /* \"#utility.yul\":3906:3907   */\n      dup1\n        /* \"#utility.yul\":3899:3911   */\n      revert\n        /* \"#utility.yul\":3923:4045   */\n    tag_280:\n        /* \"#utility.yul\":3996:4020   */\n      tag_373\n        /* \"#utility.yul\":4014:4019   */\n      dup2\n        /* \"#utility.yul\":3996:4020   */\n      tag_267\n      jump\t// in\n    tag_373:\n        /* \"#utility.yul\":3989:3994   */\n      dup2\n        /* \"#utility.yul\":3986:4021   */\n      eq\n        /* \"#utility.yul\":3976:4039   */\n      tag_374\n      jumpi\n        /* \"#utility.yul\":4035:4036   */\n      0x00\n        /* \"#utility.yul\":4032:4033   */\n      dup1\n        /* \"#utility.yul\":4025:4037   */\n      revert\n        /* \"#utility.yul\":3976:4039   */\n    tag_374:\n        /* \"#utility.yul\":3923:4045   */\n      pop\n      jump\t// out\n        /* \"#utility.yul\":4051:4190   */\n    tag_281:\n        /* \"#utility.yul\":4097:4102   */\n      0x00\n        /* \"#utility.yul\":4135:4141   */\n      dup2\n        /* \"#utility.yul\":4122:4142   */\n      calldataload\n        /* \"#utility.yul\":4113:4142   */\n      swap1\n      pop\n        /* \"#utility.yul\":4151:4184   */\n      tag_376\n        /* \"#utility.yul\":4178:4183   */\n      dup2\n        /* \"#utility.yul\":4151:4184   */\n      tag_280\n      jump\t// in\n    tag_376:\n        /* \"#utility.yul\":4051:4190   */\n      swap3\n      swap2\n      pop\n      pop\n      jump\t// out\n        /* \"#utility.yul\":4196:4273   */\n    tag_282:\n        /* \"#utility.yul\":4233:4240   */\n      0x00\n        /* \"#utility.yul\":4262:4267   */\n      dup2\n        /* \"#utility.yul\":4251:4267   */\n      swap1\n      pop\n        /* \"#utility.yul\":4196:4273   */\n      swap2\n      swap1\n      pop\n      jump\t// out\n        /* \"#utility.yul\":4279:4401   */\n    tag_283:\n        /* \"#utility.yul\":4352:4376   */\n      tag_379\n        /* \"#utility.yul\":4370:4375   */\n      dup2\n        /* \"#utility.yul\":4352:4376   */\n      tag_282\n      jump\t// in\n    tag_379:\n        /* \"#utility.yul\":4345:4350   */\n      dup2\n        /* \"#utility.yul\":4342:4377   */\n      eq\n        /* \"#utility.yul\":4332:4395   */\n      tag_380\n      jumpi\n        /* \"#utility.yul\":4391:4392   */\n      0x00\n        /* \"#utility.yul\":4388:4389   */\n      dup1\n        /* \"#utility.yul\":4381:4393   */\n      revert\n        /* \"#utility.yul\":4332:4395   */\n    tag_380:\n        /* \"#utility.yul\":4279:4401   */\n      pop\n      jump\t// out\n        /* \"#utility.yul\":4407:4546   */\n    tag_284:\n        /* \"#utility.yul\":4453:4458   */\n      0x00\n        /* \"#utility.yul\":4491:4497   */\n      dup2\n        /* \"#utility.yul\":4478:4498   */\n      calldataload\n        /* \"#utility.yul\":4469:4498   */\n      swap1\n      pop\n        /* \"#utility.yul\":4507:4540   */\n      tag_382\n        /* \"#utility.yul\":4534:4539   */\n      dup2\n        /* \"#utility.yul\":4507:4540   */\n      tag_283\n      jump\t// in\n    tag_382:\n        /* \"#utility.yul\":4407:4546   */\n      swap3\n      swap2\n      pop\n      pop\n      jump\t// out\n        /* \"#utility.yul\":4552:5026   */\n    tag_34:\n        /* \"#utility.yul\":4620:4626   */\n      0x00\n        /* \"#utility.yul\":4628:4634   */\n      dup1\n        /* \"#utility.yul\":4677:4679   */\n      0x40\n        /* \"#utility.yul\":4665:4674   */\n      dup4\n        /* \"#utility.yul\":4656:4663   */\n      dup6\n        /* \"#utility.yul\":4652:4675   */\n      sub\n        /* \"#utility.yul\":4648:4680   */\n      slt\n        /* \"#utility.yul\":4645:4764   */\n      iszero\n      tag_384\n      jumpi\n        /* \"#utility.yul\":4683:4762   */\n      tag_385\n      tag_278\n      jump\t// in\n    tag_385:\n        /* \"#utility.yul\":4645:4764   */\n    tag_384:\n        /* \"#utility.yul\":4803:4804   */\n      0x00\n        /* \"#utility.yul\":4828:4881   */\n      tag_386\n        /* \"#utility.yul\":4873:4880   */\n      dup6\n        /* \"#utility.yul\":4864:4870   */\n      dup3\n        /* \"#utility.yul\":4853:4862   */\n      dup7\n        /* \"#utility.yul\":4849:4871   */\n      add\n        /* \"#utility.yul\":4828:4881   */\n      tag_281\n      jump\t// in\n    tag_386:\n        /* \"#utility.yul\":4818:4881   */\n      swap3\n      pop\n        /* \"#utility.yul\":4774:4891   */\n      pop\n        /* \"#utility.yul\":4930:4932   */\n      0x20\n        /* \"#utility.yul\":4956:5009   */\n      tag_387\n        /* \"#utility.yul\":5001:5008   */\n      dup6\n        /* \"#utility.yul\":4992:4998   */\n      dup3\n        /* \"#utility.yul\":4981:4990   */\n      dup7\n        /* \"#utility.yul\":4977:4999   */\n      add\n        /* \"#utility.yul\":4956:5009   */\n      tag_284\n      jump\t// in\n    tag_387:\n        /* \"#utility.yul\":4946:5009   */\n      swap2\n      pop\n        /* \"#utility.yul\":4901:5019   */\n      pop\n        /* \"#utility.yul\":4552:5026   */\n      swap3\n      pop\n      swap3\n      swap1\n      pop\n      jump\t// out\n        /* \"#utility.yul\":5032:5122   */\n    tag_285:\n        /* \"#utility.yul\":5066:5073   */\n      0x00\n        /* \"#utility.yul\":5109:5114   */\n      dup2\n        /* \"#utility.yul\":5102:5115   */\n      iszero\n        /* \"#utility.yul\":5095:5116   */\n      iszero\n        /* \"#utility.yul\":5084:5116   */\n      swap1\n      pop\n        /* \"#utility.yul\":5032:5122   */\n      swap2\n      swap1\n      pop\n      jump\t// out\n        /* \"#utility.yul\":5128:5237   */\n    tag_286:\n        /* \"#utility.yul\":5209:5230   */\n      tag_390\n        /* \"#utility.yul\":5224:5229   */\n      dup2\n        /* \"#utility.yul\":5209:5230   */\n      tag_285\n      jump\t// in\n    tag_390:\n        /* \"#utility.yul\":5204:5207   */\n      dup3\n        /* \"#utility.yul\":5197:5231   */\n      mstore\n        /* \"#utility.yul\":5128:5237   */\n      pop\n      pop\n      jump\t// out\n        /* \"#utility.yul\":5243:5453   */\n    tag_37:\n        /* \"#utility.yul\":5330:5334   */\n      0x00\n        /* \"#utility.yul\":5368:5370   */\n      0x20\n        /* \"#utility.yul\":5357:5366   */\n      dup3\n        /* \"#utility.yul\":5353:5371   */\n      add\n        /* \"#utility.yul\":5345:5371   */\n      swap1\n      pop\n        /* \"#utility.yul\":5381:5446   */\n      tag_392\n        /* \"#utility.yul\":5443:5444   */\n      0x00\n        /* \"#utility.yul\":5432:5441   */\n      dup4\n        /* \"#utility.yul\":5428:5445   */\n      add\n        /* \"#utility.yul\":5419:5425   */\n      dup5\n        /* \"#utility.yul\":5381:5446   */\n      tag_286\n      jump\t// in\n    tag_392:\n        /* \"#utility.yul\":5243:5453   */\n      swap3\n      swap2\n      pop\n      pop\n      jump\t// out\n        /* \"#utility.yul\":5459:5577   */\n    tag_287:\n        /* \"#utility.yul\":5546:5570   */\n      tag_394\n        /* \"#utility.yul\":5564:5569   */\n      dup2\n        /* \"#utility.yul\":5546:5570   */\n      tag_282\n      jump\t// in\n    tag_394:\n        /* \"#utility.yul\":5541:5544   */\n      dup3\n        /* \"#utility.yul\":5534:5571   */\n      mstore\n        /* \"#utility.yul\":5459:5577   */\n      pop\n      pop\n      jump\t// out\n        /* \"#utility.yul\":5583:5805   */\n    tag_41:\n        /* \"#utility.yul\":5676:5680   */\n      0x00\n        /* \"#utility.yul\":5714:5716   */\n      0x20\n        /* \"#utility.yul\":5703:5712   */\n      dup3\n        /* \"#utility.yul\":5699:5717   */\n      add\n        /* \"#utility.yul\":5691:5717   */\n      swap1\n      pop\n        /* \"#utility.yul\":5727:5798   */\n      tag_396\n        /* \"#utility.yul\":5795:5796   */\n      0x00\n        /* \"#utility.yul\":5784:5793   */\n      dup4\n        /* \"#utility.yul\":5780:5797   */\n      add\n        /* \"#utility.yul\":5771:5777   */\n      dup5\n        /* \"#utility.yul\":5727:5798   */\n      tag_287\n      jump\t// in\n    tag_396:\n        /* \"#utility.yul\":5583:5805   */\n      swap3\n      swap2\n      pop\n      pop\n      jump\t// out\n        /* \"#utility.yul\":5811:6430   */\n    tag_44:\n        /* \"#utility.yul\":5888:5894   */\n      0x00\n        /* \"#utility.yul\":5896:5902   */\n      dup1\n        /* \"#utility.yul\":5904:5910   */\n      0x00\n        /* \"#utility.yul\":5953:5955   */\n      0x60\n        /* \"#utility.yul\":5941:5950   */\n      dup5\n        /* \"#utility.yul\":5932:5939   */\n      dup7\n        /* \"#utility.yul\":5928:5951   */\n      sub\n        /* \"#utility.yul\":5924:5956   */\n      slt\n        /* \"#utility.yul\":5921:6040   */\n      iszero\n      tag_398\n      jumpi\n        /* \"#utility.yul\":5959:6038   */\n      tag_399\n      tag_278\n      jump\t// in\n    tag_399:\n        /* \"#utility.yul\":5921:6040   */\n    tag_398:\n        /* \"#utility.yul\":6079:6080   */\n      0x00\n        /* \"#utility.yul\":6104:6157   */\n      tag_400\n        /* \"#utility.yul\":6149:6156   */\n      dup7\n        /* \"#utility.yul\":6140:6146   */\n      dup3\n        /* \"#utility.yul\":6129:6138   */\n      dup8\n        /* \"#utility.yul\":6125:6147   */\n      add\n        /* \"#utility.yul\":6104:6157   */\n      tag_281\n      jump\t// in\n    tag_400:\n        /* \"#utility.yul\":6094:6157   */\n      swap4\n      pop\n        /* \"#utility.yul\":6050:6167   */\n      pop\n        /* \"#utility.yul\":6206:6208   */\n      0x20\n        /* \"#utility.yul\":6232:6285   */\n      tag_401\n        /* \"#utility.yul\":6277:6284   */\n      dup7\n        /* \"#utility.yul\":6268:6274   */\n      dup3\n        /* \"#utility.yul\":6257:6266   */\n      dup8\n        /* \"#utility.yul\":6253:6275   */\n      add\n        /* \"#utility.yul\":6232:6285   */\n      tag_281\n      jump\t// in\n    tag_401:\n        /* \"#utility.yul\":6222:6285   */\n      swap3\n      pop\n        /* \"#utility.yul\":6177:6295   */\n      pop\n        /* \"#utility.yul\":6334:6336   */\n      0x40\n        /* \"#utility.yul\":6360:6413   */\n      tag_402\n        /* \"#utility.yul\":6405:6412   */\n      dup7\n        /* \"#utility.yul\":6396:6402   */\n      dup3\n        /* \"#utility.yul\":6385:6394   */\n      dup8\n        /* \"#utility.yul\":6381:6403   */\n      add\n        /* \"#utility.yul\":6360:6413   */\n      tag_284\n      jump\t// in\n    tag_402:\n        /* \"#utility.yul\":6350:6413   */\n      swap2\n      pop\n        /* \"#utility.yul\":6305:6423   */\n      pop\n        /* \"#utility.yul\":5811:6430   */\n      swap3\n      pop\n      swap3\n      pop\n      swap3\n      jump\t// out\n        /* \"#utility.yul\":6436:6522   */\n    tag_288:\n        /* \"#utility.yul\":6471:6478   */\n      0x00\n        /* \"#utility.yul\":6511:6515   */\n      0xff\n        /* \"#utility.yul\":6504:6509   */\n      dup3\n        /* \"#utility.yul\":6500:6516   */\n      and\n        /* \"#utility.yul\":6489:6516   */\n      swap1\n      pop\n        /* \"#utility.yul\":6436:6522   */\n      swap2\n      swap1\n      pop\n      jump\t// out\n        /* \"#utility.yul\":6528:6640   */\n    tag_289:\n        /* \"#utility.yul\":6611:6633   */\n      tag_405\n        /* \"#utility.yul\":6627:6632   */\n      dup2\n        /* \"#utility.yul\":6611:6633   */\n      tag_288\n      jump\t// in\n    tag_405:\n        /* \"#utility.yul\":6606:6609   */\n      dup3\n        /* \"#utility.yul\":6599:6634   */\n      mstore\n        /* \"#utility.yul\":6528:6640   */\n      pop\n      pop\n      jump\t// out\n        /* \"#utility.yul\":6646:6860   */\n    tag_50:\n        /* \"#utility.yul\":6735:6739   */\n      0x00\n        /* \"#utility.yul\":6773:6775   */\n      0x20\n        /* \"#utility.yul\":6762:6771   */\n      dup3\n        /* \"#utility.yul\":6758:6776   */\n      add\n        /* \"#utility.yul\":6750:6776   */\n      swap1\n      pop\n        /* \"#utility.yul\":6786:6853   */\n      tag_407\n        /* \"#utility.yul\":6850:6851   */\n      0x00\n        /* \"#utility.yul\":6839:6848   */\n      dup4\n        /* \"#utility.yul\":6835:6852   */\n      add\n        /* \"#utility.yul\":6826:6832   */\n      dup5\n        /* \"#utility.yul\":6786:6853   */\n      tag_289\n      jump\t// in\n    tag_407:\n        /* \"#utility.yul\":6646:6860   */\n      swap3\n      swap2\n      pop\n      pop\n      jump\t// out\n        /* \"#utility.yul\":6866:6983   */\n    tag_290:\n        /* \"#utility.yul\":6975:6976   */\n      0x00\n        /* \"#utility.yul\":6972:6973   */\n      dup1\n        /* \"#utility.yul\":6965:6977   */\n      revert\n        /* \"#utility.yul\":6989:7106   */\n    tag_291:\n        /* \"#utility.yul\":7098:7099   */\n      0x00\n        /* \"#utility.yul\":7095:7096   */\n      dup1\n        /* \"#utility.yul\":7088:7100   */\n      revert\n        /* \"#utility.yul\":7112:7292   */\n    tag_292:\n        /* \"#utility.yul\":7160:7237   */\n      0x4e487b7100000000000000000000000000000000000000000000000000000000\n        /* \"#utility.yul\":7157:7158   */\n      0x00\n        /* \"#utility.yul\":7150:7238   */\n      mstore\n        /* \"#utility.yul\":7257:7261   */\n      0x41\n        /* \"#utility.yul\":7254:7255   */\n      0x04\n        /* \"#utility.yul\":7247:7262   */\n      mstore\n        /* \"#utility.yul\":7281:7285   */\n      0x24\n        /* \"#utility.yul\":7278:7279   */\n      0x00\n        /* \"#utility.yul\":7271:7286   */\n      revert\n        /* \"#utility.yul\":7298:7579   */\n    tag_293:\n        /* \"#utility.yul\":7381:7408   */\n      tag_412\n        /* \"#utility.yul\":7403:7407   */\n      dup3\n        /* \"#utility.yul\":7381:7408   */\n      tag_275\n      jump\t// in\n    tag_412:\n        /* \"#utility.yul\":7373:7379   */\n      dup2\n        /* \"#utility.yul\":7369:7409   */\n      add\n        /* \"#utility.yul\":7511:7517   */\n      dup2\n        /* \"#utility.yul\":7499:7509   */\n      dup2\n        /* \"#utility.yul\":7496:7518   */\n      lt\n        /* \"#utility.yul\":7475:7493   */\n      0xffffffffffffffff\n        /* \"#utility.yul\":7463:7473   */\n      dup3\n        /* \"#utility.yul\":7460:7494   */\n      gt\n        /* \"#utility.yul\":7457:7519   */\n      or\n        /* \"#utility.yul\":7454:7542   */\n      iszero\n      tag_413\n      jumpi\n        /* \"#utility.yul\":7522:7540   */\n      tag_414\n      tag_292\n      jump\t// in\n    tag_414:\n        /* \"#utility.yul\":7454:7542   */\n    tag_413:\n        /* \"#utility.yul\":7562:7572   */\n      dup1\n        /* \"#utility.yul\":7558:7560   */\n      0x40\n        /* \"#utility.yul\":7551:7573   */\n      mstore\n        /* \"#utility.yul\":7341:7579   */\n      pop\n        /* \"#utility.yul\":7298:7579   */\n      pop\n      pop\n      jump\t// out\n        /* \"#utility.yul\":7585:7714   */\n    tag_294:\n        /* \"#utility.yul\":7619:7625   */\n      0x00\n        /* \"#utility.yul\":7646:7666   */\n      tag_416\n      tag_277\n      jump\t// in\n    tag_416:\n        /* \"#utility.yul\":7636:7666   */\n      swap1\n      pop\n        /* \"#utility.yul\":7675:7708   */\n      tag_417\n        /* \"#utility.yul\":7703:7707   */\n      dup3\n        /* \"#utility.yul\":7695:7701   */\n      dup3\n        /* \"#utility.yul\":7675:7708   */\n      tag_293\n      jump\t// in\n    tag_417:\n        /* \"#utility.yul\":7585:7714   */\n      swap2\n      swap1\n      pop\n      jump\t// out\n        /* \"#utility.yul\":7720:8027   */\n    tag_295:\n        /* \"#utility.yul\":7781:7785   */\n      0x00\n        /* \"#utility.yul\":7871:7889   */\n      0xffffffffffffffff\n        /* \"#utility.yul\":7863:7869   */\n      dup3\n        /* \"#utility.yul\":7860:7890   */\n      gt\n        /* \"#utility.yul\":7857:7913   */\n      iszero\n      tag_419\n      jumpi\n        /* \"#utility.yul\":7893:7911   */\n      tag_420\n      tag_292\n      jump\t// in\n    tag_420:\n        /* \"#utility.yul\":7857:7913   */\n    tag_419:\n        /* \"#utility.yul\":7931:7960   */\n      tag_421\n        /* \"#utility.yul\":7953:7959   */\n      dup3\n        /* \"#utility.yul\":7931:7960   */\n      tag_275\n      jump\t// in\n    tag_421:\n        /* \"#utility.yul\":7923:7960   */\n      swap1\n      pop\n        /* \"#utility.yul\":8015:8019   */\n      0x20\n        /* \"#utility.yul\":8009:8013   */\n      dup2\n        /* \"#utility.yul\":8005:8020   */\n      add\n        /* \"#utility.yul\":7997:8020   */\n      swap1\n      pop\n        /* \"#utility.yul\":7720:8027   */\n      swap2\n      swap1\n      pop\n      jump\t// out\n        /* \"#utility.yul\":8033:8179   */\n    tag_296:\n        /* \"#utility.yul\":8130:8136   */\n      dup3\n        /* \"#utility.yul\":8125:8128   */\n      dup2\n        /* \"#utility.yul\":8120:8123   */\n      dup4\n        /* \"#utility.yul\":8107:8137   */\n      calldatacopy\n        /* \"#utility.yul\":8171:8172   */\n      0x00\n        /* \"#utility.yul\":8162:8168   */\n      dup4\n        /* \"#utility.yul\":8157:8160   */\n      dup4\n        /* \"#utility.yul\":8153:8169   */\n      add\n        /* \"#utility.yul\":8146:8173   */\n      mstore\n        /* \"#utility.yul\":8033:8179   */\n      pop\n      pop\n      pop\n      jump\t// out\n        /* \"#utility.yul\":8185:8608   */\n    tag_297:\n        /* \"#utility.yul\":8262:8267   */\n      0x00\n        /* \"#utility.yul\":8287:8352   */\n      tag_424\n        /* \"#utility.yul\":8303:8351   */\n      tag_425\n        /* \"#utility.yul\":8344:8350   */\n      dup5\n        /* \"#utility.yul\":8303:8351   */\n      tag_295\n      jump\t// in\n    tag_425:\n        /* \"#utility.yul\":8287:8352   */\n      tag_294\n      jump\t// in\n    tag_424:\n        /* \"#utility.yul\":8278:8352   */\n      swap1\n      pop\n        /* \"#utility.yul\":8375:8381   */\n      dup3\n        /* \"#utility.yul\":8368:8373   */\n      dup2\n        /* \"#utility.yul\":8361:8382   */\n      mstore\n        /* \"#utility.yul\":8413:8417   */\n      0x20\n        /* \"#utility.yul\":8406:8411   */\n      dup2\n        /* \"#utility.yul\":8402:8418   */\n      add\n        /* \"#utility.yul\":8451:8454   */\n      dup5\n        /* \"#utility.yul\":8442:8448   */\n      dup5\n        /* \"#utility.yul\":8437:8440   */\n      dup5\n        /* \"#utility.yul\":8433:8449   */\n      add\n        /* \"#utility.yul\":8430:8455   */\n      gt\n        /* \"#utility.yul\":8427:8539   */\n      iszero\n      tag_426\n      jumpi\n        /* \"#utility.yul\":8458:8537   */\n      tag_427\n      tag_291\n      jump\t// in\n    tag_427:\n        /* \"#utility.yul\":8427:8539   */\n    tag_426:\n        /* \"#utility.yul\":8548:8602   */\n      tag_428\n        /* \"#utility.yul\":8595:8601   */\n      dup5\n        /* \"#utility.yul\":8590:8593   */\n      dup3\n        /* \"#utility.yul\":8585:8588   */\n      dup6\n        /* \"#utility.yul\":8548:8602   */\n      tag_296\n      jump\t// in\n    tag_428:\n        /* \"#utility.yul\":8268:8608   */\n      pop\n        /* \"#utility.yul\":8185:8608   */\n      swap4\n      swap3\n      pop\n      pop\n      pop\n      jump\t// out\n        /* \"#utility.yul\":8627:8965   */\n    tag_298:\n        /* \"#utility.yul\":8682:8687   */\n      0x00\n        /* \"#utility.yul\":8731:8734   */\n      dup3\n        /* \"#utility.yul\":8724:8728   */\n      0x1f\n        /* \"#utility.yul\":8716:8722   */\n      dup4\n        /* \"#utility.yul\":8712:8729   */\n      add\n        /* \"#utility.yul\":8708:8735   */\n      slt\n        /* \"#utility.yul\":8698:8820   */\n      tag_430\n      jumpi\n        /* \"#utility.yul\":8739:8818   */\n      tag_431\n      tag_290\n      jump\t// in\n    tag_431:\n        /* \"#utility.yul\":8698:8820   */\n    tag_430:\n        /* \"#utility.yul\":8856:8862   */\n      dup2\n        /* \"#utility.yul\":8843:8863   */\n      calldataload\n        /* \"#utility.yul\":8881:8959   */\n      tag_432\n        /* \"#utility.yul\":8955:8958   */\n      dup5\n        /* \"#utility.yul\":8947:8953   */\n      dup3\n        /* \"#utility.yul\":8940:8944   */\n      0x20\n        /* \"#utility.yul\":8932:8938   */\n      dup7\n        /* \"#utility.yul\":8928:8945   */\n      add\n        /* \"#utility.yul\":8881:8959   */\n      tag_297\n      jump\t// in\n    tag_432:\n        /* \"#utility.yul\":8872:8959   */\n      swap2\n      pop\n        /* \"#utility.yul\":8688:8965   */\n      pop\n        /* \"#utility.yul\":8627:8965   */\n      swap3\n      swap2\n      pop\n      pop\n      jump\t// out\n        /* \"#utility.yul\":8971:10238   */\n    tag_56:\n        /* \"#utility.yul\":9084:9090   */\n      0x00\n        /* \"#utility.yul\":9092:9098   */\n      dup1\n        /* \"#utility.yul\":9100:9106   */\n      0x00\n        /* \"#utility.yul\":9108:9114   */\n      dup1\n        /* \"#utility.yul\":9116:9122   */\n      0x00\n        /* \"#utility.yul\":9165:9168   */\n      0xa0\n        /* \"#utility.yul\":9153:9162   */\n      dup7\n        /* \"#utility.yul\":9144:9151   */\n      dup9\n        /* \"#utility.yul\":9140:9163   */\n      sub\n        /* \"#utility.yul\":9136:9169   */\n      slt\n        /* \"#utility.yul\":9133:9253   */\n      iszero\n      tag_434\n      jumpi\n        /* \"#utility.yul\":9172:9251   */\n      tag_435\n      tag_278\n      jump\t// in\n    tag_435:\n        /* \"#utility.yul\":9133:9253   */\n    tag_434:\n        /* \"#utility.yul\":9292:9293   */\n      0x00\n        /* \"#utility.yul\":9317:9370   */\n      tag_436\n        /* \"#utility.yul\":9362:9369   */\n      dup9\n        /* \"#utility.yul\":9353:9359   */\n      dup3\n        /* \"#utility.yul\":9342:9351   */\n      dup10\n        /* \"#utility.yul\":9338:9360   */\n      add\n        /* \"#utility.yul\":9317:9370   */\n      tag_281\n      jump\t// in\n    tag_436:\n        /* \"#utility.yul\":9307:9370   */\n      swap6\n      pop\n        /* \"#utility.yul\":9263:9380   */\n      pop\n        /* \"#utility.yul\":9419:9421   */\n      0x20\n        /* \"#utility.yul\":9445:9498   */\n      tag_437\n        /* \"#utility.yul\":9490:9497   */\n      dup9\n        /* \"#utility.yul\":9481:9487   */\n      dup3\n        /* \"#utility.yul\":9470:9479   */\n      dup10\n        /* \"#utility.yul\":9466:9488   */\n      add\n        /* \"#utility.yul\":9445:9498   */\n      tag_281\n      jump\t// in\n    tag_437:\n        /* \"#utility.yul\":9435:9498   */\n      swap5\n      pop\n        /* \"#utility.yul\":9390:9508   */\n      pop\n        /* \"#utility.yul\":9547:9549   */\n      0x40\n        /* \"#utility.yul\":9573:9626   */\n      tag_438\n        /* \"#utility.yul\":9618:9625   */\n      dup9\n        /* \"#utility.yul\":9609:9615   */\n      dup3\n        /* \"#utility.yul\":9598:9607   */\n      dup10\n        /* \"#utility.yul\":9594:9616   */\n      add\n        /* \"#utility.yul\":9573:9626   */\n      tag_284\n      jump\t// in\n    tag_438:\n        /* \"#utility.yul\":9563:9626   */\n      swap4\n      pop\n        /* \"#utility.yul\":9518:9636   */\n      pop\n        /* \"#utility.yul\":9703:9705   */\n      0x60\n        /* \"#utility.yul\":9692:9701   */\n      dup7\n        /* \"#utility.yul\":9688:9706   */\n      add\n        /* \"#utility.yul\":9675:9707   */\n      calldataload\n        /* \"#utility.yul\":9734:9752   */\n      0xffffffffffffffff\n        /* \"#utility.yul\":9726:9732   */\n      dup2\n        /* \"#utility.yul\":9723:9753   */\n      gt\n        /* \"#utility.yul\":9720:9837   */\n      iszero\n      tag_439\n      jumpi\n        /* \"#utility.yul\":9756:9835   */\n      tag_440\n      tag_279\n      jump\t// in\n    tag_440:\n        /* \"#utility.yul\":9720:9837   */\n    tag_439:\n        /* \"#utility.yul\":9861:9923   */\n      tag_441\n        /* \"#utility.yul\":9915:9922   */\n      dup9\n        /* \"#utility.yul\":9906:9912   */\n      dup3\n        /* \"#utility.yul\":9895:9904   */\n      dup10\n        /* \"#utility.yul\":9891:9913   */\n      add\n        /* \"#utility.yul\":9861:9923   */\n      tag_298\n      jump\t// in\n    tag_441:\n        /* \"#utility.yul\":9851:9923   */\n      swap3\n      pop\n        /* \"#utility.yul\":9646:9933   */\n      pop\n        /* \"#utility.yul\":10000:10003   */\n      0x80\n        /* \"#utility.yul\":9989:9998   */\n      dup7\n        /* \"#utility.yul\":9985:10004   */\n      add\n        /* \"#utility.yul\":9972:10005   */\n      calldataload\n        /* \"#utility.yul\":10032:10050   */\n      0xffffffffffffffff\n        /* \"#utility.yul\":10024:10030   */\n      dup2\n        /* \"#utility.yul\":10021:10051   */\n      gt\n        /* \"#utility.yul\":10018:10135   */\n      iszero\n      tag_442\n      jumpi\n        /* \"#utility.yul\":10054:10133   */\n      tag_443\n      tag_279\n      jump\t// in\n    tag_443:\n        /* \"#utility.yul\":10018:10135   */\n    tag_442:\n        /* \"#utility.yul\":10159:10221   */\n      tag_444\n        /* \"#utility.yul\":10213:10220   */\n      dup9\n        /* \"#utility.yul\":10204:10210   */\n      dup3\n        /* \"#utility.yul\":10193:10202   */\n      dup10\n        /* \"#utility.yul\":10189:10211   */\n      add\n        /* \"#utility.yul\":10159:10221   */\n      tag_298\n      jump\t// in\n    tag_444:\n        /* \"#utility.yul\":10149:10221   */\n      swap2\n      pop\n        /* \"#utility.yul\":9943:10231   */\n      pop\n        /* \"#utility.yul\":8971:10238   */\n      swap3\n      swap6\n      pop\n      swap3\n      swap6\n      swap1\n      swap4\n      pop\n      jump\t// out\n        /* \"#utility.yul\":10244:10573   */\n    tag_60:\n        /* \"#utility.yul\":10303:10309   */\n      0x00\n        /* \"#utility.yul\":10352:10354   */\n      0x20\n        /* \"#utility.yul\":10340:10349   */\n      dup3\n        /* \"#utility.yul\":10331:10338   */\n      dup5\n        /* \"#utility.yul\":10327:10350   */\n      sub\n        /* \"#utility.yul\":10323:10355   */\n      slt\n        /* \"#utility.yul\":10320:10439   */\n      iszero\n      tag_446\n      jumpi\n        /* \"#utility.yul\":10358:10437   */\n      tag_447\n      tag_278\n      jump\t// in\n    tag_447:\n        /* \"#utility.yul\":10320:10439   */\n    tag_446:\n        /* \"#utility.yul\":10478:10479   */\n      0x00\n        /* \"#utility.yul\":10503:10556   */\n      tag_448\n        /* \"#utility.yul\":10548:10555   */\n      dup5\n        /* \"#utility.yul\":10539:10545   */\n      dup3\n        /* \"#utility.yul\":10528:10537   */\n      dup6\n        /* \"#utility.yul\":10524:10546   */\n      add\n        /* \"#utility.yul\":10503:10556   */\n      tag_281\n      jump\t// in\n    tag_448:\n        /* \"#utility.yul\":10493:10556   */\n      swap2\n      pop\n        /* \"#utility.yul\":10449:10566   */\n      pop\n        /* \"#utility.yul\":10244:10573   */\n      swap3\n      swap2\n      pop\n      pop\n      jump\t// out\n        /* \"#utility.yul\":10579:11376   */\n    tag_71:\n        /* \"#utility.yul\":10665:10671   */\n      0x00\n        /* \"#utility.yul\":10673:10679   */\n      dup1\n        /* \"#utility.yul\":10681:10687   */\n      0x00\n        /* \"#utility.yul\":10730:10732   */\n      0x60\n        /* \"#utility.yul\":10718:10727   */\n      dup5\n        /* \"#utility.yul\":10709:10716   */\n      dup7\n        /* \"#utility.yul\":10705:10728   */\n      sub\n        /* \"#utility.yul\":10701:10733   */\n      slt\n        /* \"#utility.yul\":10698:10817   */\n      iszero\n      tag_450\n      jumpi\n        /* \"#utility.yul\":10736:10815   */\n      tag_451\n      tag_278\n      jump\t// in\n    tag_451:\n        /* \"#utility.yul\":10698:10817   */\n    tag_450:\n        /* \"#utility.yul\":10856:10857   */\n      0x00\n        /* \"#utility.yul\":10881:10934   */\n      tag_452\n        /* \"#utility.yul\":10926:10933   */\n      dup7\n        /* \"#utility.yul\":10917:10923   */\n      dup3\n        /* \"#utility.yul\":10906:10915   */\n      dup8\n        /* \"#utility.yul\":10902:10924   */\n      add\n        /* \"#utility.yul\":10881:10934   */\n      tag_281\n      jump\t// in\n    tag_452:\n        /* \"#utility.yul\":10871:10934   */\n      swap4\n      pop\n        /* \"#utility.yul\":10827:10944   */\n      pop\n        /* \"#utility.yul\":10983:10985   */\n      0x20\n        /* \"#utility.yul\":11009:11062   */\n      tag_453\n        /* \"#utility.yul\":11054:11061   */\n      dup7\n        /* \"#utility.yul\":11045:11051   */\n      dup3\n        /* \"#utility.yul\":11034:11043   */\n      dup8\n        /* \"#utility.yul\":11030:11052   */\n      add\n        /* \"#utility.yul\":11009:11062   */\n      tag_284\n      jump\t// in\n    tag_453:\n        /* \"#utility.yul\":10999:11062   */\n      swap3\n      pop\n        /* \"#utility.yul\":10954:11072   */\n      pop\n        /* \"#utility.yul\":11139:11141   */\n      0x40\n        /* \"#utility.yul\":11128:11137   */\n      dup5\n        /* \"#utility.yul\":11124:11142   */\n      add\n        /* \"#utility.yul\":11111:11143   */\n      calldataload\n        /* \"#utility.yul\":11170:11188   */\n      0xffffffffffffffff\n        /* \"#utility.yul\":11162:11168   */\n      dup2\n        /* \"#utility.yul\":11159:11189   */\n      gt\n        /* \"#utility.yul\":11156:11273   */\n      iszero\n      tag_454\n      jumpi\n        /* \"#utility.yul\":11192:11271   */\n      tag_455\n      tag_279\n      jump\t// in\n    tag_455:\n        /* \"#utility.yul\":11156:11273   */\n    tag_454:\n        /* \"#utility.yul\":11297:11359   */\n      tag_456\n        /* \"#utility.yul\":11351:11358   */\n      dup7\n        /* \"#utility.yul\":11342:11348   */\n      dup3\n        /* \"#utility.yul\":11331:11340   */\n      dup8\n        /* \"#utility.yul\":11327:11349   */\n      add\n        /* \"#utility.yul\":11297:11359   */\n      tag_298\n      jump\t// in\n    tag_456:\n        /* \"#utility.yul\":11287:11359   */\n      swap2\n      pop\n        /* \"#utility.yul\":11082:11369   */\n      pop\n        /* \"#utility.yul\":10579:11376   */\n      swap3\n      pop\n      swap3\n      pop\n      swap3\n      jump\t// out\n        /* \"#utility.yul\":11382:11856   */\n    tag_79:\n        /* \"#utility.yul\":11450:11456   */\n      0x00\n        /* \"#utility.yul\":11458:11464   */\n      dup1\n        /* \"#utility.yul\":11507:11509   */\n      0x40\n        /* \"#utility.yul\":11495:11504   */\n      dup4\n        /* \"#utility.yul\":11486:11493   */\n      dup6\n        /* \"#utility.yul\":11482:11505   */\n      sub\n        /* \"#utility.yul\":11478:11510   */\n      slt\n        /* \"#utility.yul\":11475:11594   */\n      iszero\n      tag_458\n      jumpi\n        /* \"#utility.yul\":11513:11592   */\n      tag_459\n      tag_278\n      jump\t// in\n    tag_459:\n        /* \"#utility.yul\":11475:11594   */\n    tag_458:\n        /* \"#utility.yul\":11633:11634   */\n      0x00\n        /* \"#utility.yul\":11658:11711   */\n      tag_460\n        /* \"#utility.yul\":11703:11710   */\n      dup6\n        /* \"#utility.yul\":11694:11700   */\n      dup3\n        /* \"#utility.yul\":11683:11692   */\n      dup7\n        /* \"#utility.yul\":11679:11701   */\n      add\n        /* \"#utility.yul\":11658:11711   */\n      tag_281\n      jump\t// in\n    tag_460:\n        /* \"#utility.yul\":11648:11711   */\n      swap3\n      pop\n        /* \"#utility.yul\":11604:11721   */\n      pop\n        /* \"#utility.yul\":11760:11762   */\n      0x20\n        /* \"#utility.yul\":11786:11839   */\n      tag_461\n        /* \"#utility.yul\":11831:11838   */\n      dup6\n        /* \"#utility.yul\":11822:11828   */\n      dup3\n        /* \"#utility.yul\":11811:11820   */\n      dup7\n        /* \"#utility.yul\":11807:11829   */\n      add\n        /* \"#utility.yul\":11786:11839   */\n      tag_281\n      jump\t// in\n    tag_461:\n        /* \"#utility.yul\":11776:11839   */\n      swap2\n      pop\n        /* \"#utility.yul\":11731:11849   */\n      pop\n        /* \"#utility.yul\":11382:11856   */\n      swap3\n      pop\n      swap3\n      swap1\n      pop\n      jump\t// out\n        /* \"#utility.yul\":11862:12983   */\n    tag_91:\n        /* \"#utility.yul\":11966:11972   */\n      0x00\n        /* \"#utility.yul\":11974:11980   */\n      dup1\n        /* \"#utility.yul\":11982:11988   */\n      0x00\n        /* \"#utility.yul\":11990:11996   */\n      dup1\n        /* \"#utility.yul\":12039:12042   */\n      0x80\n        /* \"#utility.yul\":12027:12036   */\n      dup6\n        /* \"#utility.yul\":12018:12025   */\n      dup8\n        /* \"#utility.yul\":12014:12037   */\n      sub\n        /* \"#utility.yul\":12010:12043   */\n      slt\n        /* \"#utility.yul\":12007:12127   */\n      iszero\n      tag_463\n      jumpi\n        /* \"#utility.yul\":12046:12125   */\n      tag_464\n      tag_278\n      jump\t// in\n    tag_464:\n        /* \"#utility.yul\":12007:12127   */\n    tag_463:\n        /* \"#utility.yul\":12166:12167   */\n      0x00\n        /* \"#utility.yul\":12191:12244   */\n      tag_465\n        /* \"#utility.yul\":12236:12243   */\n      dup8\n        /* \"#utility.yul\":12227:12233   */\n      dup3\n        /* \"#utility.yul\":12216:12225   */\n      dup9\n        /* \"#utility.yul\":12212:12234   */\n      add\n        /* \"#utility.yul\":12191:12244   */\n      tag_281\n      jump\t// in\n    tag_465:\n        /* \"#utility.yul\":12181:12244   */\n      swap5\n      pop\n        /* \"#utility.yul\":12137:12254   */\n      pop\n        /* \"#utility.yul\":12293:12295   */\n      0x20\n        /* \"#utility.yul\":12319:12372   */\n      tag_466\n        /* \"#utility.yul\":12364:12371   */\n      dup8\n        /* \"#utility.yul\":12355:12361   */\n      dup3\n        /* \"#utility.yul\":12344:12353   */\n      dup9\n        /* \"#utility.yul\":12340:12362   */\n      add\n        /* \"#utility.yul\":12319:12372   */\n      tag_284\n      jump\t// in\n    tag_466:\n        /* \"#utility.yul\":12309:12372   */\n      swap4\n      pop\n        /* \"#utility.yul\":12264:12382   */\n      pop\n        /* \"#utility.yul\":12449:12451   */\n      0x40\n        /* \"#utility.yul\":12438:12447   */\n      dup6\n        /* \"#utility.yul\":12434:12452   */\n      add\n        /* \"#utility.yul\":12421:12453   */\n      calldataload\n        /* \"#utility.yul\":12480:12498   */\n      0xffffffffffffffff\n        /* \"#utility.yul\":12472:12478   */\n      dup2\n        /* \"#utility.yul\":12469:12499   */\n      gt\n        /* \"#utility.yul\":12466:12583   */\n      iszero\n      tag_467\n      jumpi\n        /* \"#utility.yul\":12502:12581   */\n      tag_468\n      tag_279\n      jump\t// in\n    tag_468:\n        /* \"#utility.yul\":12466:12583   */\n    tag_467:\n        /* \"#utility.yul\":12607:12669   */\n      tag_469\n        /* \"#utility.yul\":12661:12668   */\n      dup8\n        /* \"#utility.yul\":12652:12658   */\n      dup3\n        /* \"#utility.yul\":12641:12650   */\n      dup9\n        /* \"#utility.yul\":12637:12659   */\n      add\n        /* \"#utility.yul\":12607:12669   */\n      tag_298\n      jump\t// in\n    tag_469:\n        /* \"#utility.yul\":12597:12669   */\n      swap3\n      pop\n        /* \"#utility.yul\":12392:12679   */\n      pop\n        /* \"#utility.yul\":12746:12748   */\n      0x60\n        /* \"#utility.yul\":12735:12744   */\n      dup6\n        /* \"#utility.yul\":12731:12749   */\n      add\n        /* \"#utility.yul\":12718:12750   */\n      calldataload\n        /* \"#utility.yul\":12777:12795   */\n      0xffffffffffffffff\n        /* \"#utility.yul\":12769:12775   */\n      dup2\n        /* \"#utility.yul\":12766:12796   */\n      gt\n        /* \"#utility.yul\":12763:12880   */\n      iszero\n      tag_470\n      jumpi\n        /* \"#utility.yul\":12799:12878   */\n      tag_471\n      tag_279\n      jump\t// in\n    tag_471:\n        /* \"#utility.yul\":12763:12880   */\n    tag_470:\n        /* \"#utility.yul\":12904:12966   */\n      tag_472\n        /* \"#utility.yul\":12958:12965   */\n      dup8\n        /* \"#utility.yul\":12949:12955   */\n      dup3\n        /* \"#utility.yul\":12938:12947   */\n      dup9\n        /* \"#utility.yul\":12934:12956   */\n      add\n        /* \"#utility.yul\":12904:12966   */\n      tag_298\n      jump\t// in\n    tag_472:\n        /* \"#utility.yul\":12894:12966   */\n      swap2\n      pop\n        /* \"#utility.yul\":12689:12976   */\n      pop\n        /* \"#utility.yul\":11862:12983   */\n      swap3\n      swap6\n      swap2\n      swap5\n      pop\n      swap3\n      pop\n      jump\t// out\n        /* \"#utility.yul\":12989:13641   */\n    tag_95:\n        /* \"#utility.yul\":13066:13072   */\n      0x00\n        /* \"#utility.yul\":13074:13080   */\n      dup1\n        /* \"#utility.yul\":13123:13125   */\n      0x40\n        /* \"#utility.yul\":13111:13120   */\n      dup4\n        /* \"#utility.yul\":13102:13109   */\n      dup6\n        /* \"#utility.yul\":13098:13121   */\n      sub\n        /* \"#utility.yul\":13094:13126   */\n      slt\n        /* \"#utility.yul\":13091:13210   */\n      iszero\n      tag_474\n      jumpi\n        /* \"#utility.yul\":13129:13208   */\n      tag_475\n      tag_278\n      jump\t// in\n    tag_475:\n        /* \"#utility.yul\":13091:13210   */\n    tag_474:\n        /* \"#utility.yul\":13249:13250   */\n      0x00\n        /* \"#utility.yul\":13274:13327   */\n      tag_476\n        /* \"#utility.yul\":13319:13326   */\n      dup6\n        /* \"#utility.yul\":13310:13316   */\n      dup3\n        /* \"#utility.yul\":13299:13308   */\n      dup7\n        /* \"#utility.yul\":13295:13317   */\n      add\n        /* \"#utility.yul\":13274:13327   */\n      tag_284\n      jump\t// in\n    tag_476:\n        /* \"#utility.yul\":13264:13327   */\n      swap3\n      pop\n        /* \"#utility.yul\":13220:13337   */\n      pop\n        /* \"#utility.yul\":13404:13406   */\n      0x20\n        /* \"#utility.yul\":13393:13402   */\n      dup4\n        /* \"#utility.yul\":13389:13407   */\n      add\n        /* \"#utility.yul\":13376:13408   */\n      calldataload\n        /* \"#utility.yul\":13435:13453   */\n      0xffffffffffffffff\n        /* \"#utility.yul\":13427:13433   */\n      dup2\n        /* \"#utility.yul\":13424:13454   */\n      gt\n        /* \"#utility.yul\":13421:13538   */\n      iszero\n      tag_477\n      jumpi\n        /* \"#utility.yul\":13457:13536   */\n      tag_478\n      tag_279\n      jump\t// in\n    tag_478:\n        /* \"#utility.yul\":13421:13538   */\n    tag_477:\n        /* \"#utility.yul\":13562:13624   */\n      tag_479\n        /* \"#utility.yul\":13616:13623   */\n      dup6\n        /* \"#utility.yul\":13607:13613   */\n      dup3\n        /* \"#utility.yul\":13596:13605   */\n      dup7\n        /* \"#utility.yul\":13592:13614   */\n      add\n        /* \"#utility.yul\":13562:13624   */\n      tag_298\n      jump\t// in\n    tag_479:\n        /* \"#utility.yul\":13552:13624   */\n      swap2\n      pop\n        /* \"#utility.yul\":13347:13634   */\n      pop\n        /* \"#utility.yul\":12989:13641   */\n      swap3\n      pop\n      swap3\n      swap1\n      pop\n      jump\t// out\n        /* \"#utility.yul\":13647:13827   */\n    tag_299:\n        /* \"#utility.yul\":13695:13772   */\n      0x4e487b7100000000000000000000000000000000000000000000000000000000\n        /* \"#utility.yul\":13692:13693   */\n      0x00\n        /* \"#utility.yul\":13685:13773   */\n      mstore\n        /* \"#utility.yul\":13792:13796   */\n      0x22\n        /* \"#utility.yul\":13789:13790   */\n      0x04\n        /* \"#utility.yul\":13782:13797   */\n      mstore\n        /* \"#utility.yul\":13816:13820   */\n      0x24\n        /* \"#utility.yul\":13813:13814   */\n      0x00\n        /* \"#utility.yul\":13806:13821   */\n      revert\n        /* \"#utility.yul\":13833:14153   */\n    tag_102:\n        /* \"#utility.yul\":13877:13883   */\n      0x00\n        /* \"#utility.yul\":13914:13915   */\n      0x02\n        /* \"#utility.yul\":13908:13912   */\n      dup3\n        /* \"#utility.yul\":13904:13916   */\n      div\n        /* \"#utility.yul\":13894:13916   */\n      swap1\n      pop\n        /* \"#utility.yul\":13961:13962   */\n      0x01\n        /* \"#utility.yul\":13955:13959   */\n      dup3\n        /* \"#utility.yul\":13951:13963   */\n      and\n        /* \"#utility.yul\":13982:14000   */\n      dup1\n        /* \"#utility.yul\":13972:14053   */\n      tag_482\n      jumpi\n        /* \"#utility.yul\":14038:14042   */\n      0x7f\n        /* \"#utility.yul\":14030:14036   */\n      dup3\n        /* \"#utility.yul\":14026:14043   */\n      and\n        /* \"#utility.yul\":14016:14043   */\n      swap2\n      pop\n        /* \"#utility.yul\":13972:14053   */\n    tag_482:\n        /* \"#utility.yul\":14100:14102   */\n      0x20\n        /* \"#utility.yul\":14092:14098   */\n      dup3\n        /* \"#utility.yul\":14089:14103   */\n      lt\n        /* \"#utility.yul\":14069:14087   */\n      dup2\n        /* \"#utility.yul\":14066:14104   */\n      sub\n        /* \"#utility.yul\":14063:14147   */\n      tag_483\n      jumpi\n        /* \"#utility.yul\":14119:14137   */\n      tag_484\n      tag_299\n      jump\t// in\n    tag_484:\n        /* \"#utility.yul\":14063:14147   */\n    tag_483:\n        /* \"#utility.yul\":13884:14153   */\n      pop\n        /* \"#utility.yul\":13833:14153   */\n      swap2\n      swap1\n      pop\n      jump\t// out\n        /* \"#utility.yul\":14159:14390   */\n    tag_300:\n        /* \"#utility.yul\":14299:14333   */\n      0x4552433737373a2063616c6c6572206973206e6f7420616e206f70657261746f\n        /* \"#utility.yul\":14295:14296   */\n      0x00\n        /* \"#utility.yul\":14287:14293   */\n      dup3\n        /* \"#utility.yul\":14283:14297   */\n      add\n        /* \"#utility.yul\":14276:14334   */\n      mstore\n        /* \"#utility.yul\":14368:14382   */\n      0x7220666f7220686f6c6465720000000000000000000000000000000000000000\n        /* \"#utility.yul\":14363:14365   */\n      0x20\n        /* \"#utility.yul\":14355:14361   */\n      dup3\n        /* \"#utility.yul\":14351:14366   */\n      add\n        /* \"#utility.yul\":14344:14383   */\n      mstore\n        /* \"#utility.yul\":14159:14390   */\n      pop\n      jump\t// out\n        /* \"#utility.yul\":14396:14762   */\n    tag_301:\n        /* \"#utility.yul\":14538:14541   */\n      0x00\n        /* \"#utility.yul\":14559:14626   */\n      tag_487\n        /* \"#utility.yul\":14623:14625   */\n      0x2c\n        /* \"#utility.yul\":14618:14621   */\n      dup4\n        /* \"#utility.yul\":14559:14626   */\n      tag_273\n      jump\t// in\n    tag_487:\n        /* \"#utility.yul\":14552:14626   */\n      swap2\n      pop\n        /* \"#utility.yul\":14635:14728   */\n      tag_488\n        /* \"#utility.yul\":14724:14727   */\n      dup3\n        /* \"#utility.yul\":14635:14728   */\n      tag_300\n      jump\t// in\n    tag_488:\n        /* \"#utility.yul\":14753:14755   */\n      0x40\n        /* \"#utility.yul\":14748:14751   */\n      dup3\n        /* \"#utility.yul\":14744:14756   */\n      add\n        /* \"#utility.yul\":14737:14756   */\n      swap1\n      pop\n        /* \"#utility.yul\":14396:14762   */\n      swap2\n      swap1\n      pop\n      jump\t// out\n        /* \"#utility.yul\":14768:15187   */\n    tag_126:\n        /* \"#utility.yul\":14934:14938   */\n      0x00\n        /* \"#utility.yul\":14972:14974   */\n      0x20\n        /* \"#utility.yul\":14961:14970   */\n      dup3\n        /* \"#utility.yul\":14957:14975   */\n      add\n        /* \"#utility.yul\":14949:14975   */\n      swap1\n      pop\n        /* \"#utility.yul\":15021:15030   */\n      dup2\n        /* \"#utility.yul\":15015:15019   */\n      dup2\n        /* \"#utility.yul\":15011:15031   */\n      sub\n        /* \"#utility.yul\":15007:15008   */\n      0x00\n        /* \"#utility.yul\":14996:15005   */\n      dup4\n        /* \"#utility.yul\":14992:15009   */\n      add\n        /* \"#utility.yul\":14985:15032   */\n      mstore\n        /* \"#utility.yul\":15049:15180   */\n      tag_490\n        /* \"#utility.yul\":15175:15179   */\n      dup2\n        /* \"#utility.yul\":15049:15180   */\n      tag_301\n      jump\t// in\n    tag_490:\n        /* \"#utility.yul\":15041:15180   */\n      swap1\n      pop\n        /* \"#utility.yul\":14768:15187   */\n      swap2\n      swap1\n      pop\n      jump\t// out\n        /* \"#utility.yul\":15193:15416   */\n    tag_302:\n        /* \"#utility.yul\":15333:15367   */\n      0x4552433737373a20617574686f72697a696e672073656c66206173206f706572\n        /* \"#utility.yul\":15329:15330   */\n      0x00\n        /* \"#utility.yul\":15321:15327   */\n      dup3\n        /* \"#utility.yul\":15317:15331   */\n      add\n        /* \"#utility.yul\":15310:15368   */\n      mstore\n        /* \"#utility.yul\":15402:15408   */\n      0x61746f7200000000000000000000000000000000000000000000000000000000\n        /* \"#utility.yul\":15397:15399   */\n      0x20\n        /* \"#utility.yul\":15389:15395   */\n      dup3\n        /* \"#utility.yul\":15385:15400   */\n      add\n        /* \"#utility.yul\":15378:15409   */\n      mstore\n        /* \"#utility.yul\":15193:15416   */\n      pop\n      jump\t// out\n        /* \"#utility.yul\":15422:15788   */\n    tag_303:\n        /* \"#utility.yul\":15564:15567   */\n      0x00\n        /* \"#utility.yul\":15585:15652   */\n      tag_493\n        /* \"#utility.yul\":15649:15651   */\n      0x24\n        /* \"#utility.yul\":15644:15647   */\n      dup4\n        /* \"#utility.yul\":15585:15652   */\n      tag_273\n      jump\t// in\n    tag_493:\n        /* \"#utility.yul\":15578:15652   */\n      swap2\n      pop\n        /* \"#utility.yul\":15661:15754   */\n      tag_494\n        /* \"#utility.yul\":15750:15753   */\n      dup3\n        /* \"#utility.yul\":15661:15754   */\n      tag_302\n      jump\t// in\n    tag_494:\n        /* \"#utility.yul\":15779:15781   */\n      0x40\n        /* \"#utility.yul\":15774:15777   */\n      dup3\n        /* \"#utility.yul\":15770:15782   */\n      add\n        /* \"#utility.yul\":15763:15782   */\n      swap1\n      pop\n        /* \"#utility.yul\":15422:15788   */\n      swap2\n      swap1\n      pop\n      jump\t// out\n        /* \"#utility.yul\":15794:16213   */\n    tag_133:\n        /* \"#utility.yul\":15960:15964   */\n      0x00\n        /* \"#utility.yul\":15998:16000   */\n      0x20\n        /* \"#utility.yul\":15987:15996   */\n      dup3\n        /* \"#utility.yul\":15983:16001   */\n      add\n        /* \"#utility.yul\":15975:16001   */\n      swap1\n      pop\n        /* \"#utility.yul\":16047:16056   */\n      dup2\n        /* \"#utility.yul\":16041:16045   */\n      dup2\n        /* \"#utility.yul\":16037:16057   */\n      sub\n        /* \"#utility.yul\":16033:16034   */\n      0x00\n        /* \"#utility.yul\":16022:16031   */\n      dup4\n        /* \"#utility.yul\":16018:16035   */\n      add\n        /* \"#utility.yul\":16011:16058   */\n      mstore\n        /* \"#utility.yul\":16075:16206   */\n      tag_496\n        /* \"#utility.yul\":16201:16205   */\n      dup2\n        /* \"#utility.yul\":16075:16206   */\n      tag_303\n      jump\t// in\n    tag_496:\n        /* \"#utility.yul\":16067:16206   */\n      swap1\n      pop\n        /* \"#utility.yul\":15794:16213   */\n      swap2\n      swap1\n      pop\n      jump\t// out\n        /* \"#utility.yul\":16219:16439   */\n    tag_304:\n        /* \"#utility.yul\":16359:16393   */\n      0x4552433737373a207265766f6b696e672073656c66206173206f70657261746f\n        /* \"#utility.yul\":16355:16356   */\n      0x00\n        /* \"#utility.yul\":16347:16353   */\n      dup3\n        /* \"#utility.yul\":16343:16357   */\n      add\n        /* \"#utility.yul\":16336:16394   */\n      mstore\n        /* \"#utility.yul\":16428:16431   */\n      0x7200000000000000000000000000000000000000000000000000000000000000\n        /* \"#utility.yul\":16423:16425   */\n      0x20\n        /* \"#utility.yul\":16415:16421   */\n      dup3\n        /* \"#utility.yul\":16411:16426   */\n      add\n        /* \"#utility.yul\":16404:16432   */\n      mstore\n        /* \"#utility.yul\":16219:16439   */\n      pop\n      jump\t// out\n        /* \"#utility.yul\":16445:16811   */\n    tag_305:\n        /* \"#utility.yul\":16587:16590   */\n      0x00\n        /* \"#utility.yul\":16608:16675   */\n      tag_499\n        /* \"#utility.yul\":16672:16674   */\n      0x21\n        /* \"#utility.yul\":16667:16670   */\n      dup4\n        /* \"#utility.yul\":16608:16675   */\n      tag_273\n      jump\t// in\n    tag_499:\n        /* \"#utility.yul\":16601:16675   */\n      swap2\n      pop\n        /* \"#utility.yul\":16684:16777   */\n      tag_500\n        /* \"#utility.yul\":16773:16776   */\n      dup3\n        /* \"#utility.yul\":16684:16777   */\n      tag_304\n      jump\t// in\n    tag_500:\n        /* \"#utility.yul\":16802:16804   */\n      0x40\n        /* \"#utility.yul\":16797:16800   */\n      dup3\n        /* \"#utility.yul\":16793:16805   */\n      add\n        /* \"#utility.yul\":16786:16805   */\n      swap1\n      pop\n        /* \"#utility.yul\":16445:16811   */\n      swap2\n      swap1\n      pop\n      jump\t// out\n        /* \"#utility.yul\":16817:17236   */\n    tag_160:\n        /* \"#utility.yul\":16983:16987   */\n      0x00\n        /* \"#utility.yul\":17021:17023   */\n      0x20\n        /* \"#utility.yul\":17010:17019   */\n      dup3\n        /* \"#utility.yul\":17006:17024   */\n      add\n        /* \"#utility.yul\":16998:17024   */\n      swap1\n      pop\n        /* \"#utility.yul\":17070:17079   */\n      dup2\n        /* \"#utility.yul\":17064:17068   */\n      dup2\n        /* \"#utility.yul\":17060:17080   */\n      sub\n        /* \"#utility.yul\":17056:17057   */\n      0x00\n        /* \"#utility.yul\":17045:17054   */\n      dup4\n        /* \"#utility.yul\":17041:17058   */\n      add\n        /* \"#utility.yul\":17034:17081   */\n      mstore\n        /* \"#utility.yul\":17098:17229   */\n      tag_502\n        /* \"#utility.yul\":17224:17228   */\n      dup2\n        /* \"#utility.yul\":17098:17229   */\n      tag_305\n      jump\t// in\n    tag_502:\n        /* \"#utility.yul\":17090:17229   */\n      swap1\n      pop\n        /* \"#utility.yul\":16817:17236   */\n      swap2\n      swap1\n      pop\n      jump\t// out\n        /* \"#utility.yul\":17242:17466   */\n    tag_306:\n        /* \"#utility.yul\":17382:17416   */\n      0x4552433737373a20617070726f76652066726f6d20746865207a65726f206164\n        /* \"#utility.yul\":17378:17379   */\n      0x00\n        /* \"#utility.yul\":17370:17376   */\n      dup3\n        /* \"#utility.yul\":17366:17380   */\n      add\n        /* \"#utility.yul\":17359:17417   */\n      mstore\n        /* \"#utility.yul\":17451:17458   */\n      0x6472657373000000000000000000000000000000000000000000000000000000\n        /* \"#utility.yul\":17446:17448   */\n      0x20\n        /* \"#utility.yul\":17438:17444   */\n      dup3\n        /* \"#utility.yul\":17434:17449   */\n      add\n        /* \"#utility.yul\":17427:17459   */\n      mstore\n        /* \"#utility.yul\":17242:17466   */\n      pop\n      jump\t// out\n        /* \"#utility.yul\":17472:17838   */\n    tag_307:\n        /* \"#utility.yul\":17614:17617   */\n      0x00\n        /* \"#utility.yul\":17635:17702   */\n      tag_505\n        /* \"#utility.yul\":17699:17701   */\n      0x25\n        /* \"#utility.yul\":17694:17697   */\n      dup4\n        /* \"#utility.yul\":17635:17702   */\n      tag_273\n      jump\t// in\n    tag_505:\n        /* \"#utility.yul\":17628:17702   */\n      swap2\n      pop\n        /* \"#utility.yul\":17711:17804   */\n      tag_506\n        /* \"#utility.yul\":17800:17803   */\n      dup3\n        /* \"#utility.yul\":17711:17804   */\n      tag_306\n      jump\t// in\n    tag_506:\n        /* \"#utility.yul\":17829:17831   */\n      0x40\n        /* \"#utility.yul\":17824:17827   */\n      dup3\n        /* \"#utility.yul\":17820:17832   */\n      add\n        /* \"#utility.yul\":17813:17832   */\n      swap1\n      pop\n        /* \"#utility.yul\":17472:17838   */\n      swap2\n      swap1\n      pop\n      jump\t// out\n        /* \"#utility.yul\":17844:18263   */\n    tag_180:\n        /* \"#utility.yul\":18010:18014   */\n      0x00\n        /* \"#utility.yul\":18048:18050   */\n      0x20\n        /* \"#utility.yul\":18037:18046   */\n      dup3\n        /* \"#utility.yul\":18033:18051   */\n      add\n        /* \"#utility.yul\":18025:18051   */\n      swap1\n      pop\n        /* \"#utility.yul\":18097:18106   */\n      dup2\n        /* \"#utility.yul\":18091:18095   */\n      dup2\n        /* \"#utility.yul\":18087:18107   */\n      sub\n        /* \"#utility.yul\":18083:18084   */\n      0x00\n        /* \"#utility.yul\":18072:18081   */\n      dup4\n        /* \"#utility.yul\":18068:18085   */\n      add\n        /* \"#utility.yul\":18061:18108   */\n      mstore\n        /* \"#utility.yul\":18125:18256   */\n      tag_508\n        /* \"#utility.yul\":18251:18255   */\n      dup2\n        /* \"#utility.yul\":18125:18256   */\n      tag_307\n      jump\t// in\n    tag_508:\n        /* \"#utility.yul\":18117:18256   */\n      swap1\n      pop\n        /* \"#utility.yul\":17844:18263   */\n      swap2\n      swap1\n      pop\n      jump\t// out\n        /* \"#utility.yul\":18269:18491   */\n    tag_308:\n        /* \"#utility.yul\":18409:18443   */\n      0x4552433737373a20617070726f766520746f20746865207a65726f2061646472\n        /* \"#utility.yul\":18405:18406   */\n      0x00\n        /* \"#utility.yul\":18397:18403   */\n      dup3\n        /* \"#utility.yul\":18393:18407   */\n      add\n        /* \"#utility.yul\":18386:18444   */\n      mstore\n        /* \"#utility.yul\":18478:18483   */\n      0x6573730000000000000000000000000000000000000000000000000000000000\n        /* \"#utility.yul\":18473:18475   */\n      0x20\n        /* \"#utility.yul\":18465:18471   */\n      dup3\n        /* \"#utility.yul\":18461:18476   */\n      add\n        /* \"#utility.yul\":18454:18484   */\n      mstore\n        /* \"#utility.yul\":18269:18491   */\n      pop\n      jump\t// out\n        /* \"#utility.yul\":18497:18863   */\n    tag_309:\n        /* \"#utility.yul\":18639:18642   */\n      0x00\n        /* \"#utility.yul\":18660:18727   */\n      tag_511\n        /* \"#utility.yul\":18724:18726   */\n      0x23\n        /* \"#utility.yul\":18719:18722   */\n      dup4\n        /* \"#utility.yul\":18660:18727   */\n      tag_273\n      jump\t// in\n    tag_511:\n        /* \"#utility.yul\":18653:18727   */\n      swap2\n      pop\n        /* \"#utility.yul\":18736:18829   */\n      tag_512\n        /* \"#utility.yul\":18825:18828   */\n      dup3\n        /* \"#utility.yul\":18736:18829   */\n      tag_308\n      jump\t// in\n    tag_512:\n        /* \"#utility.yul\":18854:18856   */\n      0x40\n        /* \"#utility.yul\":18849:18852   */\n      dup3\n        /* \"#utility.yul\":18845:18857   */\n      add\n        /* \"#utility.yul\":18838:18857   */\n      swap1\n      pop\n        /* \"#utility.yul\":18497:18863   */\n      swap2\n      swap1\n      pop\n      jump\t// out\n        /* \"#utility.yul\":18869:19288   */\n    tag_183:\n        /* \"#utility.yul\":19035:19039   */\n      0x00\n        /* \"#utility.yul\":19073:19075   */\n      0x20\n        /* \"#utility.yul\":19062:19071   */\n      dup3\n        /* \"#utility.yul\":19058:19076   */\n      add\n        /* \"#utility.yul\":19050:19076   */\n      swap1\n      pop\n        /* \"#utility.yul\":19122:19131   */\n      dup2\n        /* \"#utility.yul\":19116:19120   */\n      dup2\n        /* \"#utility.yul\":19112:19132   */\n      sub\n        /* \"#utility.yul\":19108:19109   */\n      0x00\n        /* \"#utility.yul\":19097:19106   */\n      dup4\n        /* \"#utility.yul\":19093:19110   */\n      add\n        /* \"#utility.yul\":19086:19133   */\n      mstore\n        /* \"#utility.yul\":19150:19281   */\n      tag_514\n        /* \"#utility.yul\":19276:19280   */\n      dup2\n        /* \"#utility.yul\":19150:19281   */\n      tag_309\n      jump\t// in\n    tag_514:\n        /* \"#utility.yul\":19142:19281   */\n      swap1\n      pop\n        /* \"#utility.yul\":18869:19288   */\n      swap2\n      swap1\n      pop\n      jump\t// out\n        /* \"#utility.yul\":19294:19474   */\n    tag_310:\n        /* \"#utility.yul\":19434:19466   */\n      0x4552433737373a20696e73756666696369656e7420616c6c6f77616e63650000\n        /* \"#utility.yul\":19430:19431   */\n      0x00\n        /* \"#utility.yul\":19422:19428   */\n      dup3\n        /* \"#utility.yul\":19418:19432   */\n      add\n        /* \"#utility.yul\":19411:19467   */\n      mstore\n        /* \"#utility.yul\":19294:19474   */\n      pop\n      jump\t// out\n        /* \"#utility.yul\":19480:19846   */\n    tag_311:\n        /* \"#utility.yul\":19622:19625   */\n      0x00\n        /* \"#utility.yul\":19643:19710   */\n      tag_517\n        /* \"#utility.yul\":19707:19709   */\n      0x1e\n        /* \"#utility.yul\":19702:19705   */\n      dup4\n        /* \"#utility.yul\":19643:19710   */\n      tag_273\n      jump\t// in\n    tag_517:\n        /* \"#utility.yul\":19636:19710   */\n      swap2\n      pop\n        /* \"#utility.yul\":19719:19812   */\n      tag_518\n        /* \"#utility.yul\":19808:19811   */\n      dup3\n        /* \"#utility.yul\":19719:19812   */\n      tag_310\n      jump\t// in\n    tag_518:\n        /* \"#utility.yul\":19837:19839   */\n      0x20\n        /* \"#utility.yul\":19832:19835   */\n      dup3\n        /* \"#utility.yul\":19828:19840   */\n      add\n        /* \"#utility.yul\":19821:19840   */\n      swap1\n      pop\n        /* \"#utility.yul\":19480:19846   */\n      swap2\n      swap1\n      pop\n      jump\t// out\n        /* \"#utility.yul\":19852:20271   */\n    tag_190:\n        /* \"#utility.yul\":20018:20022   */\n      0x00\n        /* \"#utility.yul\":20056:20058   */\n      0x20\n        /* \"#utility.yul\":20045:20054   */\n      dup3\n        /* \"#utility.yul\":20041:20059   */\n      add\n        /* \"#utility.yul\":20033:20059   */\n      swap1\n      pop\n        /* \"#utility.yul\":20105:20114   */\n      dup2\n        /* \"#utility.yul\":20099:20103   */\n      dup2\n        /* \"#utility.yul\":20095:20115   */\n      sub\n        /* \"#utility.yul\":20091:20092   */\n      0x00\n        /* \"#utility.yul\":20080:20089   */\n      dup4\n        /* \"#utility.yul\":20076:20093   */\n      add\n        /* \"#utility.yul\":20069:20116   */\n      mstore\n        /* \"#utility.yul\":20133:20264   */\n      tag_520\n        /* \"#utility.yul\":20259:20263   */\n      dup2\n        /* \"#utility.yul\":20133:20264   */\n      tag_311\n      jump\t// in\n    tag_520:\n        /* \"#utility.yul\":20125:20264   */\n      swap1\n      pop\n        /* \"#utility.yul\":19852:20271   */\n      swap2\n      swap1\n      pop\n      jump\t// out\n        /* \"#utility.yul\":20277:20502   */\n    tag_312:\n        /* \"#utility.yul\":20417:20451   */\n      0x4552433737373a207472616e736665722066726f6d20746865207a65726f2061\n        /* \"#utility.yul\":20413:20414   */\n      0x00\n        /* \"#utility.yul\":20405:20411   */\n      dup3\n        /* \"#utility.yul\":20401:20415   */\n      add\n        /* \"#utility.yul\":20394:20452   */\n      mstore\n        /* \"#utility.yul\":20486:20494   */\n      0x6464726573730000000000000000000000000000000000000000000000000000\n        /* \"#utility.yul\":20481:20483   */\n      0x20\n        /* \"#utility.yul\":20473:20479   */\n      dup3\n        /* \"#utility.yul\":20469:20484   */\n      add\n        /* \"#utility.yul\":20462:20495   */\n      mstore\n        /* \"#utility.yul\":20277:20502   */\n      pop\n      jump\t// out\n        /* \"#utility.yul\":20508:20874   */\n    tag_313:\n        /* \"#utility.yul\":20650:20653   */\n      0x00\n        /* \"#utility.yul\":20671:20738   */\n      tag_523\n        /* \"#utility.yul\":20735:20737   */\n      0x26\n        /* \"#utility.yul\":20730:20733   */\n      dup4\n        /* \"#utility.yul\":20671:20738   */\n      tag_273\n      jump\t// in\n    tag_523:\n        /* \"#utility.yul\":20664:20738   */\n      swap2\n      pop\n        /* \"#utility.yul\":20747:20840   */\n      tag_524\n        /* \"#utility.yul\":20836:20839   */\n      dup3\n        /* \"#utility.yul\":20747:20840   */\n      tag_312\n      jump\t// in\n    tag_524:\n        /* \"#utility.yul\":20865:20867   */\n      0x40\n        /* \"#utility.yul\":20860:20863   */\n      dup3\n        /* \"#utility.yul\":20856:20868   */\n      add\n        /* \"#utility.yul\":20849:20868   */\n      swap1\n      pop\n        /* \"#utility.yul\":20508:20874   */\n      swap2\n      swap1\n      pop\n      jump\t// out\n        /* \"#utility.yul\":20880:21299   */\n    tag_195:\n        /* \"#utility.yul\":21046:21050   */\n      0x00\n        /* \"#utility.yul\":21084:21086   */\n      0x20\n        /* \"#utility.yul\":21073:21082   */\n      dup3\n        /* \"#utility.yul\":21069:21087   */\n      add\n        /* \"#utility.yul\":21061:21087   */\n      swap1\n      pop\n        /* \"#utility.yul\":21133:21142   */\n      dup2\n        /* \"#utility.yul\":21127:21131   */\n      dup2\n        /* \"#utility.yul\":21123:21143   */\n      sub\n        /* \"#utility.yul\":21119:21120   */\n      0x00\n        /* \"#utility.yul\":21108:21117   */\n      dup4\n        /* \"#utility.yul\":21104:21121   */\n      add\n        /* \"#utility.yul\":21097:21144   */\n      mstore\n        /* \"#utility.yul\":21161:21292   */\n      tag_526\n        /* \"#utility.yul\":21287:21291   */\n      dup2\n        /* \"#utility.yul\":21161:21292   */\n      tag_313\n      jump\t// in\n    tag_526:\n        /* \"#utility.yul\":21153:21292   */\n      swap1\n      pop\n        /* \"#utility.yul\":20880:21299   */\n      swap2\n      swap1\n      pop\n      jump\t// out\n        /* \"#utility.yul\":21305:21528   */\n    tag_314:\n        /* \"#utility.yul\":21445:21479   */\n      0x4552433737373a207472616e7366657220746f20746865207a65726f20616464\n        /* \"#utility.yul\":21441:21442   */\n      0x00\n        /* \"#utility.yul\":21433:21439   */\n      dup3\n        /* \"#utility.yul\":21429:21443   */\n      add\n        /* \"#utility.yul\":21422:21480   */\n      mstore\n        /* \"#utility.yul\":21514:21520   */\n      0x7265737300000000000000000000000000000000000000000000000000000000\n        /* \"#utility.yul\":21509:21511   */\n      0x20\n        /* \"#utility.yul\":21501:21507   */\n      dup3\n        /* \"#utility.yul\":21497:21512   */\n      add\n        /* \"#utility.yul\":21490:21521   */\n      mstore\n        /* \"#utility.yul\":21305:21528   */\n      pop\n      jump\t// out\n        /* \"#utility.yul\":21534:21900   */\n    tag_315:\n        /* \"#utility.yul\":21676:21679   */\n      0x00\n        /* \"#utility.yul\":21697:21764   */\n      tag_529\n        /* \"#utility.yul\":21761:21763   */\n      0x24\n        /* \"#utility.yul\":21756:21759   */\n      dup4\n        /* \"#utility.yul\":21697:21764   */\n      tag_273\n      jump\t// in\n    tag_529:\n        /* \"#utility.yul\":21690:21764   */\n      swap2\n      pop\n        /* \"#utility.yul\":21773:21866   */\n      tag_530\n        /* \"#utility.yul\":21862:21865   */\n      dup3\n        /* \"#utility.yul\":21773:21866   */\n      tag_314\n      jump\t// in\n    tag_530:\n        /* \"#utility.yul\":21891:21893   */\n      0x40\n        /* \"#utility.yul\":21886:21889   */\n      dup3\n        /* \"#utility.yul\":21882:21894   */\n      add\n        /* \"#utility.yul\":21875:21894   */\n      swap1\n      pop\n        /* \"#utility.yul\":21534:21900   */\n      swap2\n      swap1\n      pop\n      jump\t// out\n        /* \"#utility.yul\":21906:22325   */\n    tag_198:\n        /* \"#utility.yul\":22072:22076   */\n      0x00\n        /* \"#utility.yul\":22110:22112   */\n      0x20\n        /* \"#utility.yul\":22099:22108   */\n      dup3\n        /* \"#utility.yul\":22095:22113   */\n      add\n        /* \"#utility.yul\":22087:22113   */\n      swap1\n      pop\n        /* \"#utility.yul\":22159:22168   */\n      dup2\n        /* \"#utility.yul\":22153:22157   */\n      dup2\n        /* \"#utility.yul\":22149:22169   */\n      sub\n        /* \"#utility.yul\":22145:22146   */\n      0x00\n        /* \"#utility.yul\":22134:22143   */\n      dup4\n        /* \"#utility.yul\":22130:22147   */\n      add\n        /* \"#utility.yul\":22123:22170   */\n      mstore\n        /* \"#utility.yul\":22187:22318   */\n      tag_532\n        /* \"#utility.yul\":22313:22317   */\n      dup2\n        /* \"#utility.yul\":22187:22318   */\n      tag_315\n      jump\t// in\n    tag_532:\n        /* \"#utility.yul\":22179:22318   */\n      swap1\n      pop\n        /* \"#utility.yul\":21906:22325   */\n      swap2\n      swap1\n      pop\n      jump\t// out\n        /* \"#utility.yul\":22331:22552   */\n    tag_316:\n        /* \"#utility.yul\":22471:22505   */\n      0x4552433737373a206275726e2066726f6d20746865207a65726f206164647265\n        /* \"#utility.yul\":22467:22468   */\n      0x00\n        /* \"#utility.yul\":22459:22465   */\n      dup3\n        /* \"#utility.yul\":22455:22469   */\n      add\n        /* \"#utility.yul\":22448:22506   */\n      mstore\n        /* \"#utility.yul\":22540:22544   */\n      0x7373000000000000000000000000000000000000000000000000000000000000\n        /* \"#utility.yul\":22535:22537   */\n      0x20\n        /* \"#utility.yul\":22527:22533   */\n      dup3\n        /* \"#utility.yul\":22523:22538   */\n      add\n        /* \"#utility.yul\":22516:22545   */\n      mstore\n        /* \"#utility.yul\":22331:22552   */\n      pop\n      jump\t// out\n        /* \"#utility.yul\":22558:22924   */\n    tag_317:\n        /* \"#utility.yul\":22700:22703   */\n      0x00\n        /* \"#utility.yul\":22721:22788   */\n      tag_535\n        /* \"#utility.yul\":22785:22787   */\n      0x22\n        /* \"#utility.yul\":22780:22783   */\n      dup4\n        /* \"#utility.yul\":22721:22788   */\n      tag_273\n      jump\t// in\n    tag_535:\n        /* \"#utility.yul\":22714:22788   */\n      swap2\n      pop\n        /* \"#utility.yul\":22797:22890   */\n      tag_536\n        /* \"#utility.yul\":22886:22889   */\n      dup3\n        /* \"#utility.yul\":22797:22890   */\n      tag_316\n      jump\t// in\n    tag_536:\n        /* \"#utility.yul\":22915:22917   */\n      0x40\n        /* \"#utility.yul\":22910:22913   */\n      dup3\n        /* \"#utility.yul\":22906:22918   */\n      add\n        /* \"#utility.yul\":22899:22918   */\n      swap1\n      pop\n        /* \"#utility.yul\":22558:22924   */\n      swap2\n      swap1\n      pop\n      jump\t// out\n        /* \"#utility.yul\":22930:23349   */\n    tag_209:\n        /* \"#utility.yul\":23096:23100   */\n      0x00\n        /* \"#utility.yul\":23134:23136   */\n      0x20\n        /* \"#utility.yul\":23123:23132   */\n      dup3\n        /* \"#utility.yul\":23119:23137   */\n      add\n        /* \"#utility.yul\":23111:23137   */\n      swap1\n      pop\n        /* \"#utility.yul\":23183:23192   */\n      dup2\n        /* \"#utility.yul\":23177:23181   */\n      dup2\n        /* \"#utility.yul\":23173:23193   */\n      sub\n        /* \"#utility.yul\":23169:23170   */\n      0x00\n        /* \"#utility.yul\":23158:23167   */\n      dup4\n        /* \"#utility.yul\":23154:23171   */\n      add\n        /* \"#utility.yul\":23147:23194   */\n      mstore\n        /* \"#utility.yul\":23211:23342   */\n      tag_538\n        /* \"#utility.yul\":23337:23341   */\n      dup2\n        /* \"#utility.yul\":23211:23342   */\n      tag_317\n      jump\t// in\n    tag_538:\n        /* \"#utility.yul\":23203:23342   */\n      swap1\n      pop\n        /* \"#utility.yul\":22930:23349   */\n      swap2\n      swap1\n      pop\n      jump\t// out\n        /* \"#utility.yul\":23355:23577   */\n    tag_318:\n        /* \"#utility.yul\":23495:23529   */\n      0x4552433737373a206275726e20616d6f756e7420657863656564732062616c61\n        /* \"#utility.yul\":23491:23492   */\n      0x00\n        /* \"#utility.yul\":23483:23489   */\n      dup3\n        /* \"#utility.yul\":23479:23493   */\n      add\n        /* \"#utility.yul\":23472:23530   */\n      mstore\n        /* \"#utility.yul\":23564:23569   */\n      0x6e63650000000000000000000000000000000000000000000000000000000000\n        /* \"#utility.yul\":23559:23561   */\n      0x20\n        /* \"#utility.yul\":23551:23557   */\n      dup3\n        /* \"#utility.yul\":23547:23562   */\n      add\n        /* \"#utility.yul\":23540:23570   */\n      mstore\n        /* \"#utility.yul\":23355:23577   */\n      pop\n      jump\t// out\n        /* \"#utility.yul\":23583:23949   */\n    tag_319:\n        /* \"#utility.yul\":23725:23728   */\n      0x00\n        /* \"#utility.yul\":23746:23813   */\n      tag_541\n        /* \"#utility.yul\":23810:23812   */\n      0x23\n        /* \"#utility.yul\":23805:23808   */\n      dup4\n        /* \"#utility.yul\":23746:23813   */\n      tag_273\n      jump\t// in\n    tag_541:\n        /* \"#utility.yul\":23739:23813   */\n      swap2\n      pop\n        /* \"#utility.yul\":23822:23915   */\n      tag_542\n        /* \"#utility.yul\":23911:23914   */\n      dup3\n        /* \"#utility.yul\":23822:23915   */\n      tag_318\n      jump\t// in\n    tag_542:\n        /* \"#utility.yul\":23940:23942   */\n      0x40\n        /* \"#utility.yul\":23935:23938   */\n      dup3\n        /* \"#utility.yul\":23931:23943   */\n      add\n        /* \"#utility.yul\":23924:23943   */\n      swap1\n      pop\n        /* \"#utility.yul\":23583:23949   */\n      swap2\n      swap1\n      pop\n      jump\t// out\n        /* \"#utility.yul\":23955:24374   */\n    tag_216:\n        /* \"#utility.yul\":24121:24125   */\n      0x00\n        /* \"#utility.yul\":24159:24161   */\n      0x20\n        /* \"#utility.yul\":24148:24157   */\n      dup3\n        /* \"#utility.yul\":24144:24162   */\n      add\n        /* \"#utility.yul\":24136:24162   */\n      swap1\n      pop\n        /* \"#utility.yul\":24208:24217   */\n      dup2\n        /* \"#utility.yul\":24202:24206   */\n      dup2\n        /* \"#utility.yul\":24198:24218   */\n      sub\n        /* \"#utility.yul\":24194:24195   */\n      0x00\n        /* \"#utility.yul\":24183:24192   */\n      dup4\n        /* \"#utility.yul\":24179:24196   */\n      add\n        /* \"#utility.yul\":24172:24219   */\n      mstore\n        /* \"#utility.yul\":24236:24367   */\n      tag_544\n        /* \"#utility.yul\":24362:24366   */\n      dup2\n        /* \"#utility.yul\":24236:24367   */\n      tag_319\n      jump\t// in\n    tag_544:\n        /* \"#utility.yul\":24228:24367   */\n      swap1\n      pop\n        /* \"#utility.yul\":23955:24374   */\n      swap2\n      swap1\n      pop\n      jump\t// out\n        /* \"#utility.yul\":24380:24560   */\n    tag_320:\n        /* \"#utility.yul\":24428:24505   */\n      0x4e487b7100000000000000000000000000000000000000000000000000000000\n        /* \"#utility.yul\":24425:24426   */\n      0x00\n        /* \"#utility.yul\":24418:24506   */\n      mstore\n        /* \"#utility.yul\":24525:24529   */\n      0x11\n        /* \"#utility.yul\":24522:24523   */\n      0x04\n        /* \"#utility.yul\":24515:24530   */\n      mstore\n        /* \"#utility.yul\":24549:24553   */\n      0x24\n        /* \"#utility.yul\":24546:24547   */\n      0x00\n        /* \"#utility.yul\":24539:24554   */\n      revert\n        /* \"#utility.yul\":24566:24760   */\n    tag_218:\n        /* \"#utility.yul\":24606:24610   */\n      0x00\n        /* \"#utility.yul\":24626:24646   */\n      tag_547\n        /* \"#utility.yul\":24644:24645   */\n      dup3\n        /* \"#utility.yul\":24626:24646   */\n      tag_282\n      jump\t// in\n    tag_547:\n        /* \"#utility.yul\":24621:24646   */\n      swap2\n      pop\n        /* \"#utility.yul\":24660:24680   */\n      tag_548\n        /* \"#utility.yul\":24678:24679   */\n      dup4\n        /* \"#utility.yul\":24660:24680   */\n      tag_282\n      jump\t// in\n    tag_548:\n        /* \"#utility.yul\":24655:24680   */\n      swap3\n      pop\n        /* \"#utility.yul\":24704:24705   */\n      dup3\n        /* \"#utility.yul\":24701:24702   */\n      dup3\n        /* \"#utility.yul\":24697:24706   */\n      sub\n        /* \"#utility.yul\":24689:24706   */\n      swap1\n      pop\n        /* \"#utility.yul\":24728:24729   */\n      dup2\n        /* \"#utility.yul\":24722:24726   */\n      dup2\n        /* \"#utility.yul\":24719:24730   */\n      gt\n        /* \"#utility.yul\":24716:24753   */\n      iszero\n      tag_549\n      jumpi\n        /* \"#utility.yul\":24733:24751   */\n      tag_550\n      tag_320\n      jump\t// in\n    tag_550:\n        /* \"#utility.yul\":24716:24753   */\n    tag_549:\n        /* \"#utility.yul\":24566:24760   */\n      swap3\n      swap2\n      pop\n      pop\n      jump\t// out\n        /* \"#utility.yul\":24766:24864   */\n    tag_321:\n        /* \"#utility.yul\":24817:24823   */\n      0x00\n        /* \"#utility.yul\":24851:24856   */\n      dup2\n        /* \"#utility.yul\":24845:24857   */\n      mload\n        /* \"#utility.yul\":24835:24857   */\n      swap1\n      pop\n        /* \"#utility.yul\":24766:24864   */\n      swap2\n      swap1\n      pop\n      jump\t// out\n        /* \"#utility.yul\":24870:25038   */\n    tag_322:\n        /* \"#utility.yul\":24953:24964   */\n      0x00\n        /* \"#utility.yul\":24987:24993   */\n      dup3\n        /* \"#utility.yul\":24982:24985   */\n      dup3\n        /* \"#utility.yul\":24975:24994   */\n      mstore\n        /* \"#utility.yul\":25027:25031   */\n      0x20\n        /* \"#utility.yul\":25022:25025   */\n      dup3\n        /* \"#utility.yul\":25018:25032   */\n      add\n        /* \"#utility.yul\":25003:25032   */\n      swap1\n      pop\n        /* \"#utility.yul\":24870:25038   */\n      swap3\n      swap2\n      pop\n      pop\n      jump\t// out\n        /* \"#utility.yul\":25044:25417   */\n    tag_323:\n        /* \"#utility.yul\":25130:25133   */\n      0x00\n        /* \"#utility.yul\":25158:25196   */\n      tag_554\n        /* \"#utility.yul\":25190:25195   */\n      dup3\n        /* \"#utility.yul\":25158:25196   */\n      tag_321\n      jump\t// in\n    tag_554:\n        /* \"#utility.yul\":25212:25282   */\n      tag_555\n        /* \"#utility.yul\":25275:25281   */\n      dup2\n        /* \"#utility.yul\":25270:25273   */\n      dup6\n        /* \"#utility.yul\":25212:25282   */\n      tag_322\n      jump\t// in\n    tag_555:\n        /* \"#utility.yul\":25205:25282   */\n      swap4\n      pop\n        /* \"#utility.yul\":25291:25356   */\n      tag_556\n        /* \"#utility.yul\":25349:25355   */\n      dup2\n        /* \"#utility.yul\":25344:25347   */\n      dup6\n        /* \"#utility.yul\":25337:25341   */\n      0x20\n        /* \"#utility.yul\":25330:25335   */\n      dup7\n        /* \"#utility.yul\":25326:25342   */\n      add\n        /* \"#utility.yul\":25291:25356   */\n      tag_274\n      jump\t// in\n    tag_556:\n        /* \"#utility.yul\":25381:25410   */\n      tag_557\n        /* \"#utility.yul\":25403:25409   */\n      dup2\n        /* \"#utility.yul\":25381:25410   */\n      tag_275\n      jump\t// in\n    tag_557:\n        /* \"#utility.yul\":25376:25379   */\n      dup5\n        /* \"#utility.yul\":25372:25411   */\n      add\n        /* \"#utility.yul\":25365:25411   */\n      swap2\n      pop\n        /* \"#utility.yul\":25134:25417   */\n      pop\n        /* \"#utility.yul\":25044:25417   */\n      swap3\n      swap2\n      pop\n      pop\n      jump\t// out\n        /* \"#utility.yul\":25423:26039   */\n    tag_220:\n        /* \"#utility.yul\":25608:25612   */\n      0x00\n        /* \"#utility.yul\":25646:25648   */\n      0x60\n        /* \"#utility.yul\":25635:25644   */\n      dup3\n        /* \"#utility.yul\":25631:25649   */\n      add\n        /* \"#utility.yul\":25623:25649   */\n      swap1\n      pop\n        /* \"#utility.yul\":25659:25730   */\n      tag_559\n        /* \"#utility.yul\":25727:25728   */\n      0x00\n        /* \"#utility.yul\":25716:25725   */\n      dup4\n        /* \"#utility.yul\":25712:25729   */\n      add\n        /* \"#utility.yul\":25703:25709   */\n      dup7\n        /* \"#utility.yul\":25659:25730   */\n      tag_287\n      jump\t// in\n    tag_559:\n        /* \"#utility.yul\":25777:25786   */\n      dup2\n        /* \"#utility.yul\":25771:25775   */\n      dup2\n        /* \"#utility.yul\":25767:25787   */\n      sub\n        /* \"#utility.yul\":25762:25764   */\n      0x20\n        /* \"#utility.yul\":25751:25760   */\n      dup4\n        /* \"#utility.yul\":25747:25765   */\n      add\n        /* \"#utility.yul\":25740:25788   */\n      mstore\n        /* \"#utility.yul\":25805:25881   */\n      tag_560\n        /* \"#utility.yul\":25876:25880   */\n      dup2\n        /* \"#utility.yul\":25867:25873   */\n      dup6\n        /* \"#utility.yul\":25805:25881   */\n      tag_323\n      jump\t// in\n    tag_560:\n        /* \"#utility.yul\":25797:25881   */\n      swap1\n      pop\n        /* \"#utility.yul\":25928:25937   */\n      dup2\n        /* \"#utility.yul\":25922:25926   */\n      dup2\n        /* \"#utility.yul\":25918:25938   */\n      sub\n        /* \"#utility.yul\":25913:25915   */\n      0x40\n        /* \"#utility.yul\":25902:25911   */\n      dup4\n        /* \"#utility.yul\":25898:25916   */\n      add\n        /* \"#utility.yul\":25891:25939   */\n      mstore\n        /* \"#utility.yul\":25956:26032   */\n      tag_561\n        /* \"#utility.yul\":26027:26031   */\n      dup2\n        /* \"#utility.yul\":26018:26024   */\n      dup5\n        /* \"#utility.yul\":25956:26032   */\n      tag_323\n      jump\t// in\n    tag_561:\n        /* \"#utility.yul\":25948:26032   */\n      swap1\n      pop\n        /* \"#utility.yul\":25423:26039   */\n      swap5\n      swap4\n      pop\n      pop\n      pop\n      pop\n      jump\t// out\n        /* \"#utility.yul\":26045:26163   */\n    tag_324:\n        /* \"#utility.yul\":26132:26156   */\n      tag_563\n        /* \"#utility.yul\":26150:26155   */\n      dup2\n        /* \"#utility.yul\":26132:26156   */\n      tag_267\n      jump\t// in\n    tag_563:\n        /* \"#utility.yul\":26127:26130   */\n      dup3\n        /* \"#utility.yul\":26120:26157   */\n      mstore\n        /* \"#utility.yul\":26045:26163   */\n      pop\n      pop\n      jump\t// out\n        /* \"#utility.yul\":26169:26246   */\n    tag_325:\n        /* \"#utility.yul\":26206:26213   */\n      0x00\n        /* \"#utility.yul\":26235:26240   */\n      dup2\n        /* \"#utility.yul\":26224:26240   */\n      swap1\n      pop\n        /* \"#utility.yul\":26169:26246   */\n      swap2\n      swap1\n      pop\n      jump\t// out\n        /* \"#utility.yul\":26252:26370   */\n    tag_326:\n        /* \"#utility.yul\":26339:26363   */\n      tag_566\n        /* \"#utility.yul\":26357:26362   */\n      dup2\n        /* \"#utility.yul\":26339:26363   */\n      tag_325\n      jump\t// in\n    tag_566:\n        /* \"#utility.yul\":26334:26337   */\n      dup3\n        /* \"#utility.yul\":26327:26364   */\n      mstore\n        /* \"#utility.yul\":26252:26370   */\n      pop\n      pop\n      jump\t// out\n        /* \"#utility.yul\":26376:26708   */\n    tag_224:\n        /* \"#utility.yul\":26497:26501   */\n      0x00\n        /* \"#utility.yul\":26535:26537   */\n      0x40\n        /* \"#utility.yul\":26524:26533   */\n      dup3\n        /* \"#utility.yul\":26520:26538   */\n      add\n        /* \"#utility.yul\":26512:26538   */\n      swap1\n      pop\n        /* \"#utility.yul\":26548:26619   */\n      tag_568\n        /* \"#utility.yul\":26616:26617   */\n      0x00\n        /* \"#utility.yul\":26605:26614   */\n      dup4\n        /* \"#utility.yul\":26601:26618   */\n      add\n        /* \"#utility.yul\":26592:26598   */\n      dup6\n        /* \"#utility.yul\":26548:26619   */\n      tag_324\n      jump\t// in\n    tag_568:\n        /* \"#utility.yul\":26629:26701   */\n      tag_569\n        /* \"#utility.yul\":26697:26699   */\n      0x20\n        /* \"#utility.yul\":26686:26695   */\n      dup4\n        /* \"#utility.yul\":26682:26700   */\n      add\n        /* \"#utility.yul\":26673:26679   */\n      dup5\n        /* \"#utility.yul\":26629:26701   */\n      tag_326\n      jump\t// in\n    tag_569:\n        /* \"#utility.yul\":26376:26708   */\n      swap4\n      swap3\n      pop\n      pop\n      pop\n      jump\t// out\n        /* \"#utility.yul\":26714:26857   */\n    tag_327:\n        /* \"#utility.yul\":26771:26776   */\n      0x00\n        /* \"#utility.yul\":26802:26808   */\n      dup2\n        /* \"#utility.yul\":26796:26809   */\n      mload\n        /* \"#utility.yul\":26787:26809   */\n      swap1\n      pop\n        /* \"#utility.yul\":26818:26851   */\n      tag_571\n        /* \"#utility.yul\":26845:26850   */\n      dup2\n        /* \"#utility.yul\":26818:26851   */\n      tag_280\n      jump\t// in\n    tag_571:\n        /* \"#utility.yul\":26714:26857   */\n      swap3\n      swap2\n      pop\n      pop\n      jump\t// out\n        /* \"#utility.yul\":26863:27214   */\n    tag_228:\n        /* \"#utility.yul\":26933:26939   */\n      0x00\n        /* \"#utility.yul\":26982:26984   */\n      0x20\n        /* \"#utility.yul\":26970:26979   */\n      dup3\n        /* \"#utility.yul\":26961:26968   */\n      dup5\n        /* \"#utility.yul\":26957:26980   */\n      sub\n        /* \"#utility.yul\":26953:26985   */\n      slt\n        /* \"#utility.yul\":26950:27069   */\n      iszero\n      tag_573\n      jumpi\n        /* \"#utility.yul\":26988:27067   */\n      tag_574\n      tag_278\n      jump\t// in\n    tag_574:\n        /* \"#utility.yul\":26950:27069   */\n    tag_573:\n        /* \"#utility.yul\":27108:27109   */\n      0x00\n        /* \"#utility.yul\":27133:27197   */\n      tag_575\n        /* \"#utility.yul\":27189:27196   */\n      dup5\n        /* \"#utility.yul\":27180:27186   */\n      dup3\n        /* \"#utility.yul\":27169:27178   */\n      dup6\n        /* \"#utility.yul\":27165:27187   */\n      add\n        /* \"#utility.yul\":27133:27197   */\n      tag_327\n      jump\t// in\n    tag_575:\n        /* \"#utility.yul\":27123:27197   */\n      swap2\n      pop\n        /* \"#utility.yul\":27079:27207   */\n      pop\n        /* \"#utility.yul\":26863:27214   */\n      swap3\n      swap2\n      pop\n      pop\n      jump\t// out\n        /* \"#utility.yul\":27220:28169   */\n    tag_231:\n        /* \"#utility.yul\":27489:27493   */\n      0x00\n        /* \"#utility.yul\":27527:27530   */\n      0xc0\n        /* \"#utility.yul\":27516:27525   */\n      dup3\n        /* \"#utility.yul\":27512:27531   */\n      add\n        /* \"#utility.yul\":27504:27531   */\n      swap1\n      pop\n        /* \"#utility.yul\":27541:27612   */\n      tag_577\n        /* \"#utility.yul\":27609:27610   */\n      0x00\n        /* \"#utility.yul\":27598:27607   */\n      dup4\n        /* \"#utility.yul\":27594:27611   */\n      add\n        /* \"#utility.yul\":27585:27591   */\n      dup10\n        /* \"#utility.yul\":27541:27612   */\n      tag_324\n      jump\t// in\n    tag_577:\n        /* \"#utility.yul\":27622:27694   */\n      tag_578\n        /* \"#utility.yul\":27690:27692   */\n      0x20\n        /* \"#utility.yul\":27679:27688   */\n      dup4\n        /* \"#utility.yul\":27675:27693   */\n      add\n        /* \"#utility.yul\":27666:27672   */\n      dup9\n        /* \"#utility.yul\":27622:27694   */\n      tag_324\n      jump\t// in\n    tag_578:\n        /* \"#utility.yul\":27704:27776   */\n      tag_579\n        /* \"#utility.yul\":27772:27774   */\n      0x40\n        /* \"#utility.yul\":27761:27770   */\n      dup4\n        /* \"#utility.yul\":27757:27775   */\n      add\n        /* \"#utility.yul\":27748:27754   */\n      dup8\n        /* \"#utility.yul\":27704:27776   */\n      tag_324\n      jump\t// in\n    tag_579:\n        /* \"#utility.yul\":27786:27858   */\n      tag_580\n        /* \"#utility.yul\":27854:27856   */\n      0x60\n        /* \"#utility.yul\":27843:27852   */\n      dup4\n        /* \"#utility.yul\":27839:27857   */\n      add\n        /* \"#utility.yul\":27830:27836   */\n      dup7\n        /* \"#utility.yul\":27786:27858   */\n      tag_287\n      jump\t// in\n    tag_580:\n        /* \"#utility.yul\":27906:27915   */\n      dup2\n        /* \"#utility.yul\":27900:27904   */\n      dup2\n        /* \"#utility.yul\":27896:27916   */\n      sub\n        /* \"#utility.yul\":27890:27893   */\n      0x80\n        /* \"#utility.yul\":27879:27888   */\n      dup4\n        /* \"#utility.yul\":27875:27894   */\n      add\n        /* \"#utility.yul\":27868:27917   */\n      mstore\n        /* \"#utility.yul\":27934:28010   */\n      tag_581\n        /* \"#utility.yul\":28005:28009   */\n      dup2\n        /* \"#utility.yul\":27996:28002   */\n      dup6\n        /* \"#utility.yul\":27934:28010   */\n      tag_323\n      jump\t// in\n    tag_581:\n        /* \"#utility.yul\":27926:28010   */\n      swap1\n      pop\n        /* \"#utility.yul\":28058:28067   */\n      dup2\n        /* \"#utility.yul\":28052:28056   */\n      dup2\n        /* \"#utility.yul\":28048:28068   */\n      sub\n        /* \"#utility.yul\":28042:28045   */\n      0xa0\n        /* \"#utility.yul\":28031:28040   */\n      dup4\n        /* \"#utility.yul\":28027:28046   */\n      add\n        /* \"#utility.yul\":28020:28069   */\n      mstore\n        /* \"#utility.yul\":28086:28162   */\n      tag_582\n        /* \"#utility.yul\":28157:28161   */\n      dup2\n        /* \"#utility.yul\":28148:28154   */\n      dup5\n        /* \"#utility.yul\":28086:28162   */\n      tag_323\n      jump\t// in\n    tag_582:\n        /* \"#utility.yul\":28078:28162   */\n      swap1\n      pop\n        /* \"#utility.yul\":27220:28169   */\n      swap8\n      swap7\n      pop\n      pop\n      pop\n      pop\n      pop\n      pop\n      pop\n      jump\t// out\n        /* \"#utility.yul\":28175:28401   */\n    tag_328:\n        /* \"#utility.yul\":28315:28349   */\n      0x4552433737373a207472616e7366657220616d6f756e74206578636565647320\n        /* \"#utility.yul\":28311:28312   */\n      0x00\n        /* \"#utility.yul\":28303:28309   */\n      dup3\n        /* \"#utility.yul\":28299:28313   */\n      add\n        /* \"#utility.yul\":28292:28350   */\n      mstore\n        /* \"#utility.yul\":28384:28393   */\n      0x62616c616e636500000000000000000000000000000000000000000000000000\n        /* \"#utility.yul\":28379:28381   */\n      0x20\n        /* \"#utility.yul\":28371:28377   */\n      dup3\n        /* \"#utility.yul\":28367:28382   */\n      add\n        /* \"#utility.yul\":28360:28394   */\n      mstore\n        /* \"#utility.yul\":28175:28401   */\n      pop\n      jump\t// out\n        /* \"#utility.yul\":28407:28773   */\n    tag_329:\n        /* \"#utility.yul\":28549:28552   */\n      0x00\n        /* \"#utility.yul\":28570:28637   */\n      tag_585\n        /* \"#utility.yul\":28634:28636   */\n      0x27\n        /* \"#utility.yul\":28629:28632   */\n      dup4\n        /* \"#utility.yul\":28570:28637   */\n      tag_273\n      jump\t// in\n    tag_585:\n        /* \"#utility.yul\":28563:28637   */\n      swap2\n      pop\n        /* \"#utility.yul\":28646:28739   */\n      tag_586\n        /* \"#utility.yul\":28735:28738   */\n      dup3\n        /* \"#utility.yul\":28646:28739   */\n      tag_328\n      jump\t// in\n    tag_586:\n        /* \"#utility.yul\":28764:28766   */\n      0x40\n        /* \"#utility.yul\":28759:28762   */\n      dup3\n        /* \"#utility.yul\":28755:28767   */\n      add\n        /* \"#utility.yul\":28748:28767   */\n      swap1\n      pop\n        /* \"#utility.yul\":28407:28773   */\n      swap2\n      swap1\n      pop\n      jump\t// out\n        /* \"#utility.yul\":28779:29198   */\n    tag_239:\n        /* \"#utility.yul\":28945:28949   */\n      0x00\n        /* \"#utility.yul\":28983:28985   */\n      0x20\n        /* \"#utility.yul\":28972:28981   */\n      dup3\n        /* \"#utility.yul\":28968:28986   */\n      add\n        /* \"#utility.yul\":28960:28986   */\n      swap1\n      pop\n        /* \"#utility.yul\":29032:29041   */\n      dup2\n        /* \"#utility.yul\":29026:29030   */\n      dup2\n        /* \"#utility.yul\":29022:29042   */\n      sub\n        /* \"#utility.yul\":29018:29019   */\n      0x00\n        /* \"#utility.yul\":29007:29016   */\n      dup4\n        /* \"#utility.yul\":29003:29020   */\n      add\n        /* \"#utility.yul\":28996:29043   */\n      mstore\n        /* \"#utility.yul\":29060:29191   */\n      tag_588\n        /* \"#utility.yul\":29186:29190   */\n      dup2\n        /* \"#utility.yul\":29060:29191   */\n      tag_329\n      jump\t// in\n    tag_588:\n        /* \"#utility.yul\":29052:29191   */\n      swap1\n      pop\n        /* \"#utility.yul\":28779:29198   */\n      swap2\n      swap1\n      pop\n      jump\t// out\n        /* \"#utility.yul\":29204:29395   */\n    tag_241:\n        /* \"#utility.yul\":29244:29247   */\n      0x00\n        /* \"#utility.yul\":29263:29283   */\n      tag_590\n        /* \"#utility.yul\":29281:29282   */\n      dup3\n        /* \"#utility.yul\":29263:29283   */\n      tag_282\n      jump\t// in\n    tag_590:\n        /* \"#utility.yul\":29258:29283   */\n      swap2\n      pop\n        /* \"#utility.yul\":29297:29317   */\n      tag_591\n        /* \"#utility.yul\":29315:29316   */\n      dup4\n        /* \"#utility.yul\":29297:29317   */\n      tag_282\n      jump\t// in\n    tag_591:\n        /* \"#utility.yul\":29292:29317   */\n      swap3\n      pop\n        /* \"#utility.yul\":29340:29341   */\n      dup3\n        /* \"#utility.yul\":29337:29338   */\n      dup3\n        /* \"#utility.yul\":29333:29342   */\n      add\n        /* \"#utility.yul\":29326:29342   */\n      swap1\n      pop\n        /* \"#utility.yul\":29361:29364   */\n      dup1\n        /* \"#utility.yul\":29358:29359   */\n      dup3\n        /* \"#utility.yul\":29355:29365   */\n      gt\n        /* \"#utility.yul\":29352:29388   */\n      iszero\n      tag_592\n      jumpi\n        /* \"#utility.yul\":29368:29386   */\n      tag_593\n      tag_320\n      jump\t// in\n    tag_593:\n        /* \"#utility.yul\":29352:29388   */\n    tag_592:\n        /* \"#utility.yul\":29204:29395   */\n      swap3\n      swap2\n      pop\n      pop\n      jump\t// out\n        /* \"#utility.yul\":29401:29702   */\n    tag_330:\n        /* \"#utility.yul\":29541:29575   */\n      0x4552433737373a20746f6b656e20726563697069656e7420636f6e7472616374\n        /* \"#utility.yul\":29537:29538   */\n      0x00\n        /* \"#utility.yul\":29529:29535   */\n      dup3\n        /* \"#utility.yul\":29525:29539   */\n      add\n        /* \"#utility.yul\":29518:29576   */\n      mstore\n        /* \"#utility.yul\":29610:29644   */\n      0x20686173206e6f20696d706c656d656e74657220666f7220455243373737546f\n        /* \"#utility.yul\":29605:29607   */\n      0x20\n        /* \"#utility.yul\":29597:29603   */\n      dup3\n        /* \"#utility.yul\":29593:29608   */\n      add\n        /* \"#utility.yul\":29586:29645   */\n      mstore\n        /* \"#utility.yul\":29679:29694   */\n      0x6b656e73526563697069656e7400000000000000000000000000000000000000\n        /* \"#utility.yul\":29674:29676   */\n      0x40\n        /* \"#utility.yul\":29666:29672   */\n      dup3\n        /* \"#utility.yul\":29662:29677   */\n      add\n        /* \"#utility.yul\":29655:29695   */\n      mstore\n        /* \"#utility.yul\":29401:29702   */\n      pop\n      jump\t// out\n        /* \"#utility.yul\":29708:30074   */\n    tag_331:\n        /* \"#utility.yul\":29850:29853   */\n      0x00\n        /* \"#utility.yul\":29871:29938   */\n      tag_596\n        /* \"#utility.yul\":29935:29937   */\n      0x4d\n        /* \"#utility.yul\":29930:29933   */\n      dup4\n        /* \"#utility.yul\":29871:29938   */\n      tag_273\n      jump\t// in\n    tag_596:\n        /* \"#utility.yul\":29864:29938   */\n      swap2\n      pop\n        /* \"#utility.yul\":29947:30040   */\n      tag_597\n        /* \"#utility.yul\":30036:30039   */\n      dup3\n        /* \"#utility.yul\":29947:30040   */\n      tag_330\n      jump\t// in\n    tag_597:\n        /* \"#utility.yul\":30065:30067   */\n      0x60\n        /* \"#utility.yul\":30060:30063   */\n      dup3\n        /* \"#utility.yul\":30056:30068   */\n      add\n        /* \"#utility.yul\":30049:30068   */\n      swap1\n      pop\n        /* \"#utility.yul\":29708:30074   */\n      swap2\n      swap1\n      pop\n      jump\t// out\n        /* \"#utility.yul\":30080:30499   */\n    tag_260:\n        /* \"#utility.yul\":30246:30250   */\n      0x00\n        /* \"#utility.yul\":30284:30286   */\n      0x20\n        /* \"#utility.yul\":30273:30282   */\n      dup3\n        /* \"#utility.yul\":30269:30287   */\n      add\n        /* \"#utility.yul\":30261:30287   */\n      swap1\n      pop\n        /* \"#utility.yul\":30333:30342   */\n      dup2\n        /* \"#utility.yul\":30327:30331   */\n      dup2\n        /* \"#utility.yul\":30323:30343   */\n      sub\n        /* \"#utility.yul\":30319:30320   */\n      0x00\n        /* \"#utility.yul\":30308:30317   */\n      dup4\n        /* \"#utility.yul\":30304:30321   */\n      add\n        /* \"#utility.yul\":30297:30344   */\n      mstore\n        /* \"#utility.yul\":30361:30492   */\n      tag_599\n        /* \"#utility.yul\":30487:30491   */\n      dup2\n        /* \"#utility.yul\":30361:30492   */\n      tag_331\n      jump\t// in\n    tag_599:\n        /* \"#utility.yul\":30353:30492   */\n      swap1\n      pop\n        /* \"#utility.yul\":30080:30499   */\n      swap2\n      swap1\n      pop\n      jump\t// out\n\n    auxdata: 0xa264697066735822122014e10a8d34903e142f43c17b0e012419cb01a52347e233c23a63d3de79e661d964736f6c63430008120033\n}\n",
				"bytecode": {
					"linkReferences": {},
					"object": "60806040523480156200001157600080fd5b5060405162003572380380620035728339818101604052810190620000379190620005e5565b8260029081620000489190620008e9565b5081600390816200005a9190620008e9565b5080600490805190602001906200007392919062000264565b5060005b81518110156200010c576001600560008484815181106200009d576200009c620009d0565b5b602002602001015173ffffffffffffffffffffffffffffffffffffffff1673ffffffffffffffffffffffffffffffffffffffff16815260200190815260200160002060006101000a81548160ff0219169083151502179055508080620001039062000a2e565b91505062000077565b50731820a4b7618bde71dce8cdc73aab6c95905fad2473ffffffffffffffffffffffffffffffffffffffff166329965a1d307fac7fbab5f54a3ca8194167523c6753bfeb96a445279294b6125b68cce2177054306040518463ffffffff1660e01b8152600401620001809392919062000aa7565b600060405180830381600087803b1580156200019b57600080fd5b505af1158015620001b0573d6000803e3d6000fd5b50505050731820a4b7618bde71dce8cdc73aab6c95905fad2473ffffffffffffffffffffffffffffffffffffffff166329965a1d307faea199e31a596269b42cdafd93407f14436db6e4cad65417994c2eb37381e05a306040518463ffffffff1660e01b8152600401620002279392919062000aa7565b600060405180830381600087803b1580156200024257600080fd5b505af115801562000257573d6000803e3d6000fd5b5050505050505062000ae4565b828054828255906000526020600020908101928215620002e0579160200282015b82811115620002df5782518260006101000a81548173ffffffffffffffffffffffffffffffffffffffff021916908373ffffffffffffffffffffffffffffffffffffffff1602179055509160200191906001019062000285565b5b509050620002ef9190620002f3565b5090565b5b808211156200030e576000816000905550600101620002f4565b5090565b6000604051905090565b600080fd5b600080fd5b600080fd5b600080fd5b6000601f19601f8301169050919050565b7f4e487b7100000000000000000000000000000000000000000000000000000000600052604160045260246000fd5b6200037b8262000330565b810181811067ffffffffffffffff821117156200039d576200039c62000341565b5b80604052505050565b6000620003b262000312565b9050620003c0828262000370565b919050565b600067ffffffffffffffff821115620003e357620003e262000341565b5b620003ee8262000330565b9050602081019050919050565b60005b838110156200041b578082015181840152602081019050620003fe565b60008484015250505050565b60006200043e6200043884620003c5565b620003a6565b9050828152602081018484840111156200045d576200045c6200032b565b5b6200046a848285620003fb565b509392505050565b600082601f8301126200048a576200048962000326565b5b81516200049c84826020860162000427565b91505092915050565b600067ffffffffffffffff821115620004c357620004c262000341565b5b602082029050602081019050919050565b600080fd5b600073ffffffffffffffffffffffffffffffffffffffff82169050919050565b60006200050682620004d9565b9050919050565b6200051881620004f9565b81146200052457600080fd5b50565b60008151905062000538816200050d565b92915050565b6000620005556200054f84620004a5565b620003a6565b905080838252602082019050602084028301858111156200057b576200057a620004d4565b5b835b81811015620005a8578062000593888262000527565b8452602084019350506020810190506200057d565b5050509392505050565b600082601f830112620005ca57620005c962000326565b5b8151620005dc8482602086016200053e565b91505092915050565b6000806000606084860312156200060157620006006200031c565b5b600084015167ffffffffffffffff81111562000622576200062162000321565b5b620006308682870162000472565b935050602084015167ffffffffffffffff81111562000654576200065362000321565b5b620006628682870162000472565b925050604084015167ffffffffffffffff81111562000686576200068562000321565b5b6200069486828701620005b2565b9150509250925092565b600081519050919050565b7f4e487b7100000000000000000000000000000000000000000000000000000000600052602260045260246000fd5b60006002820490506001821680620006f157607f821691505b602082108103620007075762000706620006a9565b5b50919050565b60008190508160005260206000209050919050565b60006020601f8301049050919050565b600082821b905092915050565b600060088302620007717fffffffffffffffffffffffffffffffffffffffffffffffffffffffffffffffff8262000732565b6200077d868362000732565b95508019841693508086168417925050509392505050565b6000819050919050565b6000819050919050565b6000620007ca620007c4620007be8462000795565b6200079f565b62000795565b9050919050565b6000819050919050565b620007e683620007a9565b620007fe620007f582620007d1565b8484546200073f565b825550505050565b600090565b6200081562000806565b62000822818484620007db565b505050565b5b818110156200084a576200083e6000826200080b565b60018101905062000828565b5050565b601f821115620008995762000863816200070d565b6200086e8462000722565b810160208510156200087e578190505b620008966200088d8562000722565b83018262000827565b50505b505050565b600082821c905092915050565b6000620008be600019846008026200089e565b1980831691505092915050565b6000620008d98383620008ab565b9150826002028217905092915050565b620008f4826200069e565b67ffffffffffffffff81111562000910576200090f62000341565b5b6200091c8254620006d8565b620009298282856200084e565b600060209050601f8311600181146200096157600084156200094c578287015190505b620009588582620008cb565b865550620009c8565b601f19841662000971866200070d565b60005b828110156200099b5784890151825560018201915060208501945060208101905062000974565b86831015620009bb5784890151620009b7601f891682620008ab565b8355505b6001600288020188555050505b505050505050565b7f4e487b7100000000000000000000000000000000000000000000000000000000600052603260045260246000fd5b7f4e487b7100000000000000000000000000000000000000000000000000000000600052601160045260246000fd5b600062000a3b8262000795565b91507fffffffffffffffffffffffffffffffffffffffffffffffffffffffffffffffff820362000a705762000a6f620009ff565b5b600182019050919050565b62000a8681620004f9565b82525050565b6000819050919050565b62000aa18162000a8c565b82525050565b600060608201905062000abe600083018662000a7b565b62000acd602083018562000a96565b62000adc604083018462000a7b565b949350505050565b612a7e8062000af46000396000f3fe608060405234801561001057600080fd5b50600436106101165760003560e01c8063959b8c3f116100a2578063d95b637111610071578063d95b6371146102e3578063dd62ed3e14610313578063fad8b32a14610343578063fc673c4f1461035f578063fe9d93031461037b57610116565b8063959b8c3f1461025d57806395d89b41146102795780639bd9bbc614610297578063a9059cbb146102b357610116565b806323b872dd116100e957806323b872dd146101a5578063313ce567146101d5578063556f0dc7146101f357806362ad1b831461021157806370a082311461022d57610116565b806306e485381461011b57806306fdde0314610139578063095ea7b31461015757806318160ddd14610187575b600080fd5b610123610397565b6040516101309190611aaa565b60405180910390f35b610141610425565b60405161014e9190611b5c565b60405180910390f35b610171600480360381019061016c9190611bf4565b6104b7565b60405161017e9190611c4f565b60405180910390f35b61018f6104da565b60405161019c9190611c79565b60405180910390f35b6101bf60048036038101906101ba9190611c94565b6104e4565b6040516101cc9190611c4f565b60405180910390f35b6101dd610535565b6040516101ea9190611d03565b60405180910390f35b6101fb61053e565b6040516102089190611c79565b60405180910390f35b61022b60048036038101906102269190611e53565b610547565b005b61024760048036038101906102429190611f06565b6105ad565b6040516102549190611c79565b60405180910390f35b61027760048036038101906102729190611f06565b6105f5565b005b610281610855565b60405161028e9190611b5c565b60405180910390f35b6102b160048036038101906102ac9190611f33565b6108e7565b005b6102cd60048036038101906102c89190611bf4565b610911565b6040516102da9190611c4f565b60405180910390f35b6102fd60048036038101906102f89190611fa2565b610951565b60405161030a9190611c4f565b60405180910390f35b61032d60048036038101906103289190611fa2565b610b02565b60405161033a9190611c79565b60405180910390f35b61035d60048036038101906103589190611f06565b610b89565b005b61037960048036038101906103749190611fe2565b610de9565b005b61039560048036038101906103909190612081565b610e4b565b005b6060600480548060200260200160405190810160405280929190818152602001828054801561041b57602002820191906000526020600020905b8160009054906101000a900473ffffffffffffffffffffffffffffffffffffffff1673ffffffffffffffffffffffffffffffffffffffff16815260200190600101908083116103d1575b5050505050905090565b6060600280546104349061210c565b80601f01602080910402602001604051908101604052809291908181526020018280546104609061210c565b80156104ad5780601f10610482576101008083540402835291602001916104ad565b820191906000526020600020905b81548152906001019060200180831161049057829003601f168201915b5050505050905090565b6000806104c2610e71565b90506104cf818585610e79565b600191505092915050565b6000600154905090565b6000806104ef610e71565b90506104fc858285611042565b610529858585604051806020016040528060008152506040518060200160405280600081525060006110ce565b60019150509392505050565b60006012905090565b60006001905090565b610558610552610e71565b86610951565b610597576040517f08c379a000000000000000000000000000000000000000000000000000000000815260040161058e906121af565b60405180910390fd5b6105a6858585858560016110ce565b5050505050565b60008060008373ffffffffffffffffffffffffffffffffffffffff1673ffffffffffffffffffffffffffffffffffffffff168152602001908152602001600020549050919050565b8073ffffffffffffffffffffffffffffffffffffffff16610614610e71565b73ffffffffffffffffffffffffffffffffffffffff160361066a576040517f08c379a000000000000000000000000000000000000000000000000000000000815260040161066190612241565b60405180910390fd5b600560008273ffffffffffffffffffffffffffffffffffffffff1673ffffffffffffffffffffffffffffffffffffffff16815260200190815260200160002060009054906101000a900460ff161561075457600760006106c8610e71565b73ffffffffffffffffffffffffffffffffffffffff1673ffffffffffffffffffffffffffffffffffffffff16815260200190815260200160002060008273ffffffffffffffffffffffffffffffffffffffff1673ffffffffffffffffffffffffffffffffffffffff16815260200190815260200160002060006101000a81549060ff02191690556107f1565b600160066000610762610e71565b73ffffffffffffffffffffffffffffffffffffffff1673ffffffffffffffffffffffffffffffffffffffff16815260200190815260200160002060008373ffffffffffffffffffffffffffffffffffffffff1673ffffffffffffffffffffffffffffffffffffffff16815260200190815260200160002060006101000a81548160ff0219169083151502179055505b6107f9610e71565b73ffffffffffffffffffffffffffffffffffffffff168173ffffffffffffffffffffffffffffffffffffffff167ff4caeb2d6ca8932a215a353d0703c326ec2d81fc68170f320eb2ab49e9df61f960405160405180910390a350565b6060600380546108649061210c565b80601f01602080910402602001604051908101604052809291908181526020018280546108909061210c565b80156108dd5780601f106108b2576101008083540402835291602001916108dd565b820191906000526020600020905b8154815290600101906020018083116108c057829003601f168201915b5050505050905090565b61090c6108f2610e71565b8484846040518060200160405280600081525060016110ce565b505050565b600061094761091e610e71565b8484604051806020016040528060008152506040518060200160405280600081525060006110ce565b6001905092915050565b60008173ffffffffffffffffffffffffffffffffffffffff168373ffffffffffffffffffffffffffffffffffffffff161480610a695750600560008473ffffffffffffffffffffffffffffffffffffffff1673ffffffffffffffffffffffffffffffffffffffff16815260200190815260200160002060009054906101000a900460ff168015610a685750600760008373ffffffffffffffffffffffffffffffffffffffff1673ffffffffffffffffffffffffffffffffffffffff16815260200190815260200160002060008473ffffffffffffffffffffffffffffffffffffffff1673ffffffffffffffffffffffffffffffffffffffff16815260200190815260200160002060009054906101000a900460ff16155b5b80610afa5750600660008373ffffffffffffffffffffffffffffffffffffffff1673ffffffffffffffffffffffffffffffffffffffff16815260200190815260200160002060008473ffffffffffffffffffffffffffffffffffffffff1673ffffffffffffffffffffffffffffffffffffffff16815260200190815260200160002060009054906101000a900460ff165b905092915050565b6000600860008473ffffffffffffffffffffffffffffffffffffffff1673ffffffffffffffffffffffffffffffffffffffff16815260200190815260200160002060008373ffffffffffffffffffffffffffffffffffffffff1673ffffffffffffffffffffffffffffffffffffffff16815260200190815260200160002054905092915050565b610b91610e71565b73ffffffffffffffffffffffffffffffffffffffff168173ffffffffffffffffffffffffffffffffffffffff1603610bfe576040517f08c379a0000000000000000000000000000000000000000000000000000000008152600401610bf5906122d3565b60405180910390fd5b600560008273ffffffffffffffffffffffffffffffffffffffff1673ffffffffffffffffffffffffffffffffffffffff16815260200190815260200160002060009054906101000a900460ff1615610cf157600160076000610c5e610e71565b73ffffffffffffffffffffffffffffffffffffffff1673ffffffffffffffffffffffffffffffffffffffff16815260200190815260200160002060008373ffffffffffffffffffffffffffffffffffffffff1673ffffffffffffffffffffffffffffffffffffffff16815260200190815260200160002060006101000a81548160ff021916908315150217905550610d85565b60066000610cfd610e71565b73ffffffffffffffffffffffffffffffffffffffff1673ffffffffffffffffffffffffffffffffffffffff16815260200190815260200160002060008273ffffffffffffffffffffffffffffffffffffffff1673ffffffffffffffffffffffffffffffffffffffff16815260200190815260200160002060006101000a81549060ff02191690555b610d8d610e71565b73ffffffffffffffffffffffffffffffffffffffff168173ffffffffffffffffffffffffffffffffffffffff167f50546e66e5f44d728365dc3908c63bc5cfeeab470722c1677e3073a6ac294aa160405160405180910390a350565b610dfa610df4610e71565b85610951565b610e39576040517f08c379a0000000000000000000000000000000000000000000000000000000008152600401610e30906121af565b60405180910390fd5b610e45848484846111ec565b50505050565b610e6d610e56610e71565b8383604051806020016040528060008152506111ec565b5050565b600033905090565b600073ffffffffffffffffffffffffffffffffffffffff168373ffffffffffffffffffffffffffffffffffffffff1603610ee8576040517f08c379a0000000000000000000000000000000000000000000000000000000008152600401610edf90612365565b60405180910390fd5b600073ffffffffffffffffffffffffffffffffffffffff168273ffffffffffffffffffffffffffffffffffffffff1603610f57576040517f08c379a0000000000000000000000000000000000000000000000000000000008152600401610f4e906123f7565b60405180910390fd5b80600860008573ffffffffffffffffffffffffffffffffffffffff1673ffffffffffffffffffffffffffffffffffffffff16815260200190815260200160002060008473ffffffffffffffffffffffffffffffffffffffff1673ffffffffffffffffffffffffffffffffffffffff168152602001908152602001600020819055508173ffffffffffffffffffffffffffffffffffffffff168373ffffffffffffffffffffffffffffffffffffffff167f8c5be1e5ebec7d5bd14f71427d1e84f3dd0314c0f7b2291e5b200ac8c7c3b925836040516110359190611c79565b60405180910390a3505050565b600061104e8484610b02565b90507fffffffffffffffffffffffffffffffffffffffffffffffffffffffffffffffff81146110c857818110156110ba576040517f08c379a00000000000000000000000000000000000000000000000000000000081526004016110b190612463565b60405180910390fd5b6110c78484848403610e79565b5b50505050565b600073ffffffffffffffffffffffffffffffffffffffff168673ffffffffffffffffffffffffffffffffffffffff160361113d576040517f08c379a0000000000000000000000000000000000000000000000000000000008152600401611134906124f5565b60405180910390fd5b600073ffffffffffffffffffffffffffffffffffffffff168573ffffffffffffffffffffffffffffffffffffffff16036111ac576040517f08c379a00000000000000000000000000000000000000000000000000000000081526004016111a390612587565b60405180910390fd5b60006111b6610e71565b90506111c681888888888861143e565b6111d48188888888886115a5565b6111e3818888888888886117bf565b50505050505050565b600073ffffffffffffffffffffffffffffffffffffffff168473ffffffffffffffffffffffffffffffffffffffff160361125b576040517f08c379a000000000000000000000000000000000000000000000000000000000815260040161125290612619565b60405180910390fd5b6000611265610e71565b90506112768186600087878761143e565b6112838186600087611991565b60008060008773ffffffffffffffffffffffffffffffffffffffff1673ffffffffffffffffffffffffffffffffffffffff16815260200190815260200160002054905084811015611309576040517f08c379a0000000000000000000000000000000000000000000000000000000008152600401611300906126ab565b60405180910390fd5b8481036000808873ffffffffffffffffffffffffffffffffffffffff1673ffffffffffffffffffffffffffffffffffffffff16815260200190815260200160002081905550846001600082825461136091906126fa565b925050819055508573ffffffffffffffffffffffffffffffffffffffff168273ffffffffffffffffffffffffffffffffffffffff167fa78a9be3a7b862d26933ad85fb11d80ef66b8f972d7cbba06621d583943a40988787876040516113c893929190612783565b60405180910390a3600073ffffffffffffffffffffffffffffffffffffffff168673ffffffffffffffffffffffffffffffffffffffff167fddf252ad1be2c89b69c2b068fc378daa952ba7f163c4a11628f55a4df523b3ef8760405161142e9190611c79565b60405180910390a3505050505050565b6000731820a4b7618bde71dce8cdc73aab6c95905fad2473ffffffffffffffffffffffffffffffffffffffff1663aabbb8ca877f29ddb589b1fb5fc7cf394961c1adf5f8c6454761adf795e67fe149f658abe8956040518363ffffffff1660e01b81526004016114af9291906127f0565b602060405180830381865afa1580156114cc573d6000803e3d6000fd5b505050506040513d601f19601f820116820180604052508101906114f0919061282e565b9050600073ffffffffffffffffffffffffffffffffffffffff168173ffffffffffffffffffffffffffffffffffffffff161461159c578073ffffffffffffffffffffffffffffffffffffffff166375ab97828888888888886040518763ffffffff1660e01b81526004016115699695949392919061285b565b600060405180830381600087803b15801561158357600080fd5b505af1158015611597573d6000803e3d6000fd5b505050505b50505050505050565b6115b186868686611991565b60008060008773ffffffffffffffffffffffffffffffffffffffff1673ffffffffffffffffffffffffffffffffffffffff16815260200190815260200160002054905083811015611637576040517f08c379a000000000000000000000000000000000000000000000000000000000815260040161162e9061293c565b60405180910390fd5b8381036000808873ffffffffffffffffffffffffffffffffffffffff1673ffffffffffffffffffffffffffffffffffffffff16815260200190815260200160002081905550836000808773ffffffffffffffffffffffffffffffffffffffff1673ffffffffffffffffffffffffffffffffffffffff16815260200190815260200160002060008282546116ca919061295c565b925050819055508473ffffffffffffffffffffffffffffffffffffffff168673ffffffffffffffffffffffffffffffffffffffff168873ffffffffffffffffffffffffffffffffffffffff167f06b541ddaa720db2b10a4d0cdac39b8d360425fc073085fac19bc8261467798787878760405161174993929190612783565b60405180910390a48473ffffffffffffffffffffffffffffffffffffffff168673ffffffffffffffffffffffffffffffffffffffff167fddf252ad1be2c89b69c2b068fc378daa952ba7f163c4a11628f55a4df523b3ef866040516117ae9190611c79565b60405180910390a350505050505050565b6000731820a4b7618bde71dce8cdc73aab6c95905fad2473ffffffffffffffffffffffffffffffffffffffff1663aabbb8ca877fb281fc8c12954d22544db45de3159a39272895b169a852b314f9cc762e44c53b6040518363ffffffff1660e01b81526004016118309291906127f0565b602060405180830381865afa15801561184d573d6000803e3d6000fd5b505050506040513d601f19601f82011682018060405250810190611871919061282e565b9050600073ffffffffffffffffffffffffffffffffffffffff168173ffffffffffffffffffffffffffffffffffffffff1614611920578073ffffffffffffffffffffffffffffffffffffffff166223de298989898989896040518763ffffffff1660e01b81526004016118e99695949392919061285b565b600060405180830381600087803b15801561190357600080fd5b505af1158015611917573d6000803e3d6000fd5b50505050611987565b8115611986576119458673ffffffffffffffffffffffffffffffffffffffff16611997565b15611985576040517f08c379a000000000000000000000000000000000000000000000000000000000815260040161197c90612a28565b60405180910390fd5b5b5b5050505050505050565b50505050565b6000808273ffffffffffffffffffffffffffffffffffffffff163b119050919050565b600081519050919050565b600082825260208201905092915050565b6000819050602082019050919050565b600073ffffffffffffffffffffffffffffffffffffffff82169050919050565b6000611a11826119e6565b9050919050565b611a2181611a06565b82525050565b6000611a338383611a18565b60208301905092915050565b6000602082019050919050565b6000611a57826119ba565b611a6181856119c5565b9350611a6c836119d6565b8060005b83811015611a9d578151611a848882611a27565b9750611a8f83611a3f565b925050600181019050611a70565b5085935050505092915050565b60006020820190508181036000830152611ac48184611a4c565b905092915050565b600081519050919050565b600082825260208201905092915050565b60005b83811015611b06578082015181840152602081019050611aeb565b60008484015250505050565b6000601f19601f8301169050919050565b6000611b2e82611acc565b611b388185611ad7565b9350611b48818560208601611ae8565b611b5181611b12565b840191505092915050565b60006020820190508181036000830152611b768184611b23565b905092915050565b6000604051905090565b600080fd5b600080fd5b611b9b81611a06565b8114611ba657600080fd5b50565b600081359050611bb881611b92565b92915050565b6000819050919050565b611bd181611bbe565b8114611bdc57600080fd5b50565b600081359050611bee81611bc8565b92915050565b60008060408385031215611c0b57611c0a611b88565b5b6000611c1985828601611ba9565b9250506020611c2a85828601611bdf565b9150509250929050565b60008115159050919050565b611c4981611c34565b82525050565b6000602082019050611c646000830184611c40565b92915050565b611c7381611bbe565b82525050565b6000602082019050611c8e6000830184611c6a565b92915050565b600080600060608486031215611cad57611cac611b88565b5b6000611cbb86828701611ba9565b9350506020611ccc86828701611ba9565b9250506040611cdd86828701611bdf565b9150509250925092565b600060ff82169050919050565b611cfd81611ce7565b82525050565b6000602082019050611d186000830184611cf4565b92915050565b600080fd5b600080fd5b7f4e487b7100000000000000000000000000000000000000000000000000000000600052604160045260246000fd5b611d6082611b12565b810181811067ffffffffffffffff82111715611d7f57611d7e611d28565b5b80604052505050565b6000611d92611b7e565b9050611d9e8282611d57565b919050565b600067ffffffffffffffff821115611dbe57611dbd611d28565b5b611dc782611b12565b9050602081019050919050565b82818337600083830152505050565b6000611df6611df184611da3565b611d88565b905082815260208101848484011115611e1257611e11611d23565b5b611e1d848285611dd4565b509392505050565b600082601f830112611e3a57611e39611d1e565b5b8135611e4a848260208601611de3565b91505092915050565b600080600080600060a08688031215611e6f57611e6e611b88565b5b6000611e7d88828901611ba9565b9550506020611e8e88828901611ba9565b9450506040611e9f88828901611bdf565b935050606086013567ffffffffffffffff811115611ec057611ebf611b8d565b5b611ecc88828901611e25565b925050608086013567ffffffffffffffff811115611eed57611eec611b8d565b5b611ef988828901611e25565b9150509295509295909350565b600060208284031215611f1c57611f1b611b88565b5b6000611f2a84828501611ba9565b91505092915050565b600080600060608486031215611f4c57611f4b611b88565b5b6000611f5a86828701611ba9565b9350506020611f6b86828701611bdf565b925050604084013567ffffffffffffffff811115611f8c57611f8b611b8d565b5b611f9886828701611e25565b9150509250925092565b60008060408385031215611fb957611fb8611b88565b5b6000611fc785828601611ba9565b9250506020611fd885828601611ba9565b9150509250929050565b60008060008060808587031215611ffc57611ffb611b88565b5b600061200a87828801611ba9565b945050602061201b87828801611bdf565b935050604085013567ffffffffffffffff81111561203c5761203b611b8d565b5b61204887828801611e25565b925050606085013567ffffffffffffffff81111561206957612068611b8d565b5b61207587828801611e25565b91505092959194509250565b6000806040838503121561209857612097611b88565b5b60006120a685828601611bdf565b925050602083013567ffffffffffffffff8111156120c7576120c6611b8d565b5b6120d385828601611e25565b9150509250929050565b7f4e487b7100000000000000000000000000000000000000000000000000000000600052602260045260246000fd5b6000600282049050600182168061212457607f821691505b602082108103612137576121366120dd565b5b50919050565b7f4552433737373a2063616c6c6572206973206e6f7420616e206f70657261746f60008201527f7220666f7220686f6c6465720000000000000000000000000000000000000000602082015250565b6000612199602c83611ad7565b91506121a48261213d565b604082019050919050565b600060208201905081810360008301526121c88161218c565b9050919050565b7f4552433737373a20617574686f72697a696e672073656c66206173206f70657260008201527f61746f7200000000000000000000000000000000000000000000000000000000602082015250565b600061222b602483611ad7565b9150612236826121cf565b604082019050919050565b6000602082019050818103600083015261225a8161221e565b9050919050565b7f4552433737373a207265766f6b696e672073656c66206173206f70657261746f60008201527f7200000000000000000000000000000000000000000000000000000000000000602082015250565b60006122bd602183611ad7565b91506122c882612261565b604082019050919050565b600060208201905081810360008301526122ec816122b0565b9050919050565b7f4552433737373a20617070726f76652066726f6d20746865207a65726f20616460008201527f6472657373000000000000000000000000000000000000000000000000000000602082015250565b600061234f602583611ad7565b915061235a826122f3565b604082019050919050565b6000602082019050818103600083015261237e81612342565b9050919050565b7f4552433737373a20617070726f766520746f20746865207a65726f206164647260008201527f6573730000000000000000000000000000000000000000000000000000000000602082015250565b60006123e1602383611ad7565b91506123ec82612385565b604082019050919050565b60006020820190508181036000830152612410816123d4565b9050919050565b7f4552433737373a20696e73756666696369656e7420616c6c6f77616e63650000600082015250565b600061244d601e83611ad7565b915061245882612417565b602082019050919050565b6000602082019050818103600083015261247c81612440565b9050919050565b7f4552433737373a207472616e736665722066726f6d20746865207a65726f206160008201527f6464726573730000000000000000000000000000000000000000000000000000602082015250565b60006124df602683611ad7565b91506124ea82612483565b604082019050919050565b6000602082019050818103600083015261250e816124d2565b9050919050565b7f4552433737373a207472616e7366657220746f20746865207a65726f2061646460008201527f7265737300000000000000000000000000000000000000000000000000000000602082015250565b6000612571602483611ad7565b915061257c82612515565b604082019050919050565b600060208201905081810360008301526125a081612564565b9050919050565b7f4552433737373a206275726e2066726f6d20746865207a65726f20616464726560008201527f7373000000000000000000000000000000000000000000000000000000000000602082015250565b6000612603602283611ad7565b915061260e826125a7565b604082019050919050565b60006020820190508181036000830152612632816125f6565b9050919050565b7f4552433737373a206275726e20616d6f756e7420657863656564732062616c6160008201527f6e63650000000000000000000000000000000000000000000000000000000000602082015250565b6000612695602383611ad7565b91506126a082612639565b604082019050919050565b600060208201905081810360008301526126c481612688565b9050919050565b7f4e487b7100000000000000000000000000000000000000000000000000000000600052601160045260246000fd5b600061270582611bbe565b915061271083611bbe565b9250828203905081811115612728576127276126cb565b5b92915050565b600081519050919050565b600082825260208201905092915050565b60006127558261272e565b61275f8185612739565b935061276f818560208601611ae8565b61277881611b12565b840191505092915050565b60006060820190506127986000830186611c6a565b81810360208301526127aa818561274a565b905081810360408301526127be818461274a565b9050949350505050565b6127d181611a06565b82525050565b6000819050919050565b6127ea816127d7565b82525050565b600060408201905061280560008301856127c8565b61281260208301846127e1565b9392505050565b60008151905061282881611b92565b92915050565b60006020828403121561284457612843611b88565b5b600061285284828501612819565b91505092915050565b600060c08201905061287060008301896127c8565b61287d60208301886127c8565b61288a60408301876127c8565b6128976060830186611c6a565b81810360808301526128a9818561274a565b905081810360a08301526128bd818461274a565b9050979650505050505050565b7f4552433737373a207472616e7366657220616d6f756e7420657863656564732060008201527f62616c616e636500000000000000000000000000000000000000000000000000602082015250565b6000612926602783611ad7565b9150612931826128ca565b604082019050919050565b6000602082019050818103600083015261295581612919565b9050919050565b600061296782611bbe565b915061297283611bbe565b925082820190508082111561298a576129896126cb565b5b92915050565b7f4552433737373a20746f6b656e20726563697069656e7420636f6e747261637460008201527f20686173206e6f20696d706c656d656e74657220666f7220455243373737546f60208201527f6b656e73526563697069656e7400000000000000000000000000000000000000604082015250565b6000612a12604d83611ad7565b9150612a1d82612990565b606082019050919050565b60006020820190508181036000830152612a4181612a05565b905091905056fea264697066735822122014e10a8d34903e142f43c17b0e012419cb01a52347e233c23a63d3de79e661d964736f6c63430008120033",
					"opcodes": "PUSH1 0x80 PUSH1 0x40 MSTORE CALLVALUE DUP1 ISZERO PUSH3 0x11 JUMPI PUSH1 0x0 DUP1 REVERT JUMPDEST POP PUSH1 0x40 MLOAD PUSH3 0x3572 CODESIZE SUB DUP1 PUSH3 0x3572 DUP4 CODECOPY DUP2 DUP2 ADD PUSH1 0x40 MSTORE DUP2 ADD SWAP1 PUSH3 0x37 SWAP2 SWAP1 PUSH3 0x5E5 JUMP JUMPDEST DUP3 PUSH1 0x2 SWAP1 DUP2 PUSH3 0x48 SWAP2 SWAP1 PUSH3 0x8E9 JUMP JUMPDEST POP DUP2 PUSH1 0x3 SWAP1 DUP2 PUSH3 0x5A SWAP2 SWAP1 PUSH3 0x8E9 JUMP JUMPDEST POP DUP1 PUSH1 0x4 SWAP1 DUP1 MLOAD SWAP1 PUSH1 0x20 ADD SWAP1 PUSH3 0x73 SWAP3 SWAP2 SWAP1 PUSH3 0x264 JUMP JUMPDEST POP PUSH1 0x0 JUMPDEST DUP2 MLOAD DUP2 LT ISZERO PUSH3 0x10C JUMPI PUSH1 0x1 PUSH1 0x5 PUSH1 0x0 DUP5 DUP5 DUP2 MLOAD DUP2 LT PUSH3 0x9D JUMPI PUSH3 0x9C PUSH3 0x9D0 JUMP JUMPDEST JUMPDEST PUSH1 0x20 MUL PUSH1 0x20 ADD ADD MLOAD PUSH20 0xFFFFFFFFFFFFFFFFFFFFFFFFFFFFFFFFFFFFFFFF AND PUSH20 0xFFFFFFFFFFFFFFFFFFFFFFFFFFFFFFFFFFFFFFFF AND DUP2 MSTORE PUSH1 0x20 ADD SWAP1 DUP2 MSTORE PUSH1 0x20 ADD PUSH1 0x0 KECCAK256 PUSH1 0x0 PUSH2 0x100 EXP DUP2 SLOAD DUP2 PUSH1 0xFF MUL NOT AND SWAP1 DUP4 ISZERO ISZERO MUL OR SWAP1 SSTORE POP DUP1 DUP1 PUSH3 0x103 SWAP1 PUSH3 0xA2E JUMP JUMPDEST SWAP2 POP POP PUSH3 0x77 JUMP JUMPDEST POP PUSH20 0x1820A4B7618BDE71DCE8CDC73AAB6C95905FAD24 PUSH20 0xFFFFFFFFFFFFFFFFFFFFFFFFFFFFFFFFFFFFFFFF AND PUSH4 0x29965A1D ADDRESS PUSH32 0xAC7FBAB5F54A3CA8194167523C6753BFEB96A445279294B6125B68CCE2177054 ADDRESS PUSH1 0x40 MLOAD DUP5 PUSH4 0xFFFFFFFF AND PUSH1 0xE0 SHL DUP2 MSTORE PUSH1 0x4 ADD PUSH3 0x180 SWAP4 SWAP3 SWAP2 SWAP1 PUSH3 0xAA7 JUMP JUMPDEST PUSH1 0x0 PUSH1 0x40 MLOAD DUP1 DUP4 SUB DUP2 PUSH1 0x0 DUP8 DUP1 EXTCODESIZE ISZERO DUP1 ISZERO PUSH3 0x19B JUMPI PUSH1 0x0 DUP1 REVERT JUMPDEST POP GAS CALL ISZERO DUP1 ISZERO PUSH3 0x1B0 JUMPI RETURNDATASIZE PUSH1 0x0 DUP1 RETURNDATACOPY RETURNDATASIZE PUSH1 0x0 REVERT JUMPDEST POP POP POP POP PUSH20 0x1820A4B7618BDE71DCE8CDC73AAB6C95905FAD24 PUSH20 0xFFFFFFFFFFFFFFFFFFFFFFFFFFFFFFFFFFFFFFFF AND PUSH4 0x29965A1D ADDRESS PUSH32 0xAEA199E31A596269B42CDAFD93407F14436DB6E4CAD65417994C2EB37381E05A ADDRESS PUSH1 0x40 MLOAD DUP5 PUSH4 0xFFFFFFFF AND PUSH1 0xE0 SHL DUP2 MSTORE PUSH1 0x4 ADD PUSH3 0x227 SWAP4 SWAP3 SWAP2 SWAP1 PUSH3 0xAA7 JUMP JUMPDEST PUSH1 0x0 PUSH1 0x40 MLOAD DUP1 DUP4 SUB DUP2 PUSH1 0x0 DUP8 DUP1 EXTCODESIZE ISZERO DUP1 ISZERO PUSH3 0x242 JUMPI PUSH1 0x0 DUP1 REVERT JUMPDEST POP GAS CALL ISZERO DUP1 ISZERO PUSH3 0x257 JUMPI RETURNDATASIZE PUSH1 0x0 DUP1 RETURNDATACOPY RETURNDATASIZE PUSH1 0x0 REVERT JUMPDEST POP POP POP POP POP POP POP PUSH3 0xAE4 JUMP JUMPDEST DUP3 DUP1 SLOAD DUP3 DUP3 SSTORE SWAP1 PUSH1 0x0 MSTORE PUSH1 0x20 PUSH1 0x0 KECCAK256 SWAP1 DUP2 ADD SWAP3 DUP3 ISZERO PUSH3 0x2E0 JUMPI SWAP2 PUSH1 0x20 MUL DUP3 ADD JUMPDEST DUP3 DUP2 GT ISZERO PUSH3 0x2DF JUMPI DUP3 MLOAD DUP3 PUSH1 0x0 PUSH2 0x100 EXP DUP2 SLOAD DUP2 PUSH20 0xFFFFFFFFFFFFFFFFFFFFFFFFFFFFFFFFFFFFFFFF MUL NOT AND SWAP1 DUP4 PUSH20 0xFFFFFFFFFFFFFFFFFFFFFFFFFFFFFFFFFFFFFFFF AND MUL OR SWAP1 SSTORE POP SWAP2 PUSH1 0x20 ADD SWAP2 SWAP1 PUSH1 0x1 ADD SWAP1 PUSH3 0x285 JUMP JUMPDEST JUMPDEST POP SWAP1 POP PUSH3 0x2EF SWAP2 SWAP1 PUSH3 0x2F3 JUMP JUMPDEST POP SWAP1 JUMP JUMPDEST JUMPDEST DUP1 DUP3 GT ISZERO PUSH3 0x30E JUMPI PUSH1 0x0 DUP2 PUSH1 0x0 SWAP1 SSTORE POP PUSH1 0x1 ADD PUSH3 0x2F4 JUMP JUMPDEST POP SWAP1 JUMP JUMPDEST PUSH1 0x0 PUSH1 0x40 MLOAD SWAP1 POP SWAP1 JUMP JUMPDEST PUSH1 0x0 DUP1 REVERT JUMPDEST PUSH1 0x0 DUP1 REVERT JUMPDEST PUSH1 0x0 DUP1 REVERT JUMPDEST PUSH1 0x0 DUP1 REVERT JUMPDEST PUSH1 0x0 PUSH1 0x1F NOT PUSH1 0x1F DUP4 ADD AND SWAP1 POP SWAP2 SWAP1 POP JUMP JUMPDEST PUSH32 0x4E487B7100000000000000000000000000000000000000000000000000000000 PUSH1 0x0 MSTORE PUSH1 0x41 PUSH1 0x4 MSTORE PUSH1 0x24 PUSH1 0x0 REVERT JUMPDEST PUSH3 0x37B DUP3 PUSH3 0x330 JUMP JUMPDEST DUP2 ADD DUP2 DUP2 LT PUSH8 0xFFFFFFFFFFFFFFFF DUP3 GT OR ISZERO PUSH3 0x39D JUMPI PUSH3 0x39C PUSH3 0x341 JUMP JUMPDEST JUMPDEST DUP1 PUSH1 0x40 MSTORE POP POP POP JUMP JUMPDEST PUSH1 0x0 PUSH3 0x3B2 PUSH3 0x312 JUMP JUMPDEST SWAP1 POP PUSH3 0x3C0 DUP3 DUP3 PUSH3 0x370 JUMP JUMPDEST SWAP2 SWAP1 POP JUMP JUMPDEST PUSH1 0x0 PUSH8 0xFFFFFFFFFFFFFFFF DUP3 GT ISZERO PUSH3 0x3E3 JUMPI PUSH3 0x3E2 PUSH3 0x341 JUMP JUMPDEST JUMPDEST PUSH3 0x3EE DUP3 PUSH3 0x330 JUMP JUMPDEST SWAP1 POP PUSH1 0x20 DUP2 ADD SWAP1 POP SWAP2 SWAP1 POP JUMP JUMPDEST PUSH1 0x0 JUMPDEST DUP4 DUP2 LT ISZERO PUSH3 0x41B JUMPI DUP1 DUP3 ADD MLOAD DUP2 DUP5 ADD MSTORE PUSH1 0x20 DUP2 ADD SWAP1 POP PUSH3 0x3FE JUMP JUMPDEST PUSH1 0x0 DUP5 DUP5 ADD MSTORE POP POP POP POP JUMP JUMPDEST PUSH1 0x0 PUSH3 0x43E PUSH3 0x438 DUP5 PUSH3 0x3C5 JUMP JUMPDEST PUSH3 0x3A6 JUMP JUMPDEST SWAP1 POP DUP3 DUP2 MSTORE PUSH1 0x20 DUP2 ADD DUP5 DUP5 DUP5 ADD GT ISZERO PUSH3 0x45D JUMPI PUSH3 0x45C PUSH3 0x32B JUMP JUMPDEST JUMPDEST PUSH3 0x46A DUP5 DUP3 DUP6 PUSH3 0x3FB JUMP JUMPDEST POP SWAP4 SWAP3 POP POP POP JUMP JUMPDEST PUSH1 0x0 DUP3 PUSH1 0x1F DUP4 ADD SLT PUSH3 0x48A JUMPI PUSH3 0x489 PUSH3 0x326 JUMP JUMPDEST JUMPDEST DUP2 MLOAD PUSH3 0x49C DUP5 DUP3 PUSH1 0x20 DUP7 ADD PUSH3 0x427 JUMP JUMPDEST SWAP2 POP POP SWAP3 SWAP2 POP POP JUMP JUMPDEST PUSH1 0x0 PUSH8 0xFFFFFFFFFFFFFFFF DUP3 GT ISZERO PUSH3 0x4C3 JUMPI PUSH3 0x4C2 PUSH3 0x341 JUMP JUMPDEST JUMPDEST PUSH1 0x20 DUP3 MUL SWAP1 POP PUSH1 0x20 DUP2 ADD SWAP1 POP SWAP2 SWAP1 POP JUMP JUMPDEST PUSH1 0x0 DUP1 REVERT JUMPDEST PUSH1 0x0 PUSH20 0xFFFFFFFFFFFFFFFFFFFFFFFFFFFFFFFFFFFFFFFF DUP3 AND SWAP1 POP SWAP2 SWAP1 POP JUMP JUMPDEST PUSH1 0x0 PUSH3 0x506 DUP3 PUSH3 0x4D9 JUMP JUMPDEST SWAP1 POP SWAP2 SWAP1 POP JUMP JUMPDEST PUSH3 0x518 DUP2 PUSH3 0x4F9 JUMP JUMPDEST DUP2 EQ PUSH3 0x524 JUMPI PUSH1 0x0 DUP1 REVERT JUMPDEST POP JUMP JUMPDEST PUSH1 0x0 DUP2 MLOAD SWAP1 POP PUSH3 0x538 DUP2 PUSH3 0x50D JUMP JUMPDEST SWAP3 SWAP2 POP POP JUMP JUMPDEST PUSH1 0x0 PUSH3 0x555 PUSH3 0x54F DUP5 PUSH3 0x4A5 JUMP JUMPDEST PUSH3 0x3A6 JUMP JUMPDEST SWAP1 POP DUP1 DUP4 DUP3 MSTORE PUSH1 0x20 DUP3 ADD SWAP1 POP PUSH1 0x20 DUP5 MUL DUP4 ADD DUP6 DUP2 GT ISZERO PUSH3 0x57B JUMPI PUSH3 0x57A PUSH3 0x4D4 JUMP JUMPDEST JUMPDEST DUP4 JUMPDEST DUP2 DUP2 LT ISZERO PUSH3 0x5A8 JUMPI DUP1 PUSH3 0x593 DUP9 DUP3 PUSH3 0x527 JUMP JUMPDEST DUP5 MSTORE PUSH1 0x20 DUP5 ADD SWAP4 POP POP PUSH1 0x20 DUP2 ADD SWAP1 POP PUSH3 0x57D JUMP JUMPDEST POP POP POP SWAP4 SWAP3 POP POP POP JUMP JUMPDEST PUSH1 0x0 DUP3 PUSH1 0x1F DUP4 ADD SLT PUSH3 0x5CA JUMPI PUSH3 0x5C9 PUSH3 0x326 JUMP JUMPDEST JUMPDEST DUP2 MLOAD PUSH3 0x5DC DUP5 DUP3 PUSH1 0x20 DUP7 ADD PUSH3 0x53E JUMP JUMPDEST SWAP2 POP POP SWAP3 SWAP2 POP POP JUMP JUMPDEST PUSH1 0x0 DUP1 PUSH1 0x0 PUSH1 0x60 DUP5 DUP7 SUB SLT ISZERO PUSH3 0x601 JUMPI PUSH3 0x600 PUSH3 0x31C JUMP JUMPDEST JUMPDEST PUSH1 0x0 DUP5 ADD MLOAD PUSH8 0xFFFFFFFFFFFFFFFF DUP2 GT ISZERO PUSH3 0x622 JUMPI PUSH3 0x621 PUSH3 0x321 JUMP JUMPDEST JUMPDEST PUSH3 0x630 DUP7 DUP3 DUP8 ADD PUSH3 0x472 JUMP JUMPDEST SWAP4 POP POP PUSH1 0x20 DUP5 ADD MLOAD PUSH8 0xFFFFFFFFFFFFFFFF DUP2 GT ISZERO PUSH3 0x654 JUMPI PUSH3 0x653 PUSH3 0x321 JUMP JUMPDEST JUMPDEST PUSH3 0x662 DUP7 DUP3 DUP8 ADD PUSH3 0x472 JUMP JUMPDEST SWAP3 POP POP PUSH1 0x40 DUP5 ADD MLOAD PUSH8 0xFFFFFFFFFFFFFFFF DUP2 GT ISZERO PUSH3 0x686 JUMPI PUSH3 0x685 PUSH3 0x321 JUMP JUMPDEST JUMPDEST PUSH3 0x694 DUP7 DUP3 DUP8 ADD PUSH3 0x5B2 JUMP JUMPDEST SWAP2 POP POP SWAP3 POP SWAP3 POP SWAP3 JUMP JUMPDEST PUSH1 0x0 DUP2 MLOAD SWAP1 POP SWAP2 SWAP1 POP JUMP JUMPDEST PUSH32 0x4E487B7100000000000000000000000000000000000000000000000000000000 PUSH1 0x0 MSTORE PUSH1 0x22 PUSH1 0x4 MSTORE PUSH1 0x24 PUSH1 0x0 REVERT JUMPDEST PUSH1 0x0 PUSH1 0x2 DUP3 DIV SWAP1 POP PUSH1 0x1 DUP3 AND DUP1 PUSH3 0x6F1 JUMPI PUSH1 0x7F DUP3 AND SWAP2 POP JUMPDEST PUSH1 0x20 DUP3 LT DUP2 SUB PUSH3 0x707 JUMPI PUSH3 0x706 PUSH3 0x6A9 JUMP JUMPDEST JUMPDEST POP SWAP2 SWAP1 POP JUMP JUMPDEST PUSH1 0x0 DUP2 SWAP1 POP DUP2 PUSH1 0x0 MSTORE PUSH1 0x20 PUSH1 0x0 KECCAK256 SWAP1 POP SWAP2 SWAP1 POP JUMP JUMPDEST PUSH1 0x0 PUSH1 0x20 PUSH1 0x1F DUP4 ADD DIV SWAP1 POP SWAP2 SWAP1 POP JUMP JUMPDEST PUSH1 0x0 DUP3 DUP3 SHL SWAP1 POP SWAP3 SWAP2 POP POP JUMP JUMPDEST PUSH1 0x0 PUSH1 0x8 DUP4 MUL PUSH3 0x771 PUSH32 0xFFFFFFFFFFFFFFFFFFFFFFFFFFFFFFFFFFFFFFFFFFFFFFFFFFFFFFFFFFFFFFFF DUP3 PUSH3 0x732 JUMP JUMPDEST PUSH3 0x77D DUP7 DUP4 PUSH3 0x732 JUMP JUMPDEST SWAP6 POP DUP1 NOT DUP5 AND SWAP4 POP DUP1 DUP7 AND DUP5 OR SWAP3 POP POP POP SWAP4 SWAP3 POP POP POP JUMP JUMPDEST PUSH1 0x0 DUP2 SWAP1 POP SWAP2 SWAP1 POP JUMP JUMPDEST PUSH1 0x0 DUP2 SWAP1 POP SWAP2 SWAP1 POP JUMP JUMPDEST PUSH1 0x0 PUSH3 0x7CA PUSH3 0x7C4 PUSH3 0x7BE DUP5 PUSH3 0x795 JUMP JUMPDEST PUSH3 0x79F JUMP JUMPDEST PUSH3 0x795 JUMP JUMPDEST SWAP1 POP SWAP2 SWAP1 POP JUMP JUMPDEST PUSH1 0x0 DUP2 SWAP1 POP SWAP2 SWAP1 POP JUMP JUMPDEST PUSH3 0x7E6 DUP4 PUSH3 0x7A9 JUMP JUMPDEST PUSH3 0x7FE PUSH3 0x7F5 DUP3 PUSH3 0x7D1 JUMP JUMPDEST DUP5 DUP5 SLOAD PUSH3 0x73F JUMP JUMPDEST DUP3 SSTORE POP POP POP POP JUMP JUMPDEST PUSH1 0x0 SWAP1 JUMP JUMPDEST PUSH3 0x815 PUSH3 0x806 JUMP JUMPDEST PUSH3 0x822 DUP2 DUP5 DUP5 PUSH3 0x7DB JUMP JUMPDEST POP POP POP JUMP JUMPDEST JUMPDEST DUP2 DUP2 LT ISZERO PUSH3 0x84A JUMPI PUSH3 0x83E PUSH1 0x0 DUP3 PUSH3 0x80B JUMP JUMPDEST PUSH1 0x1 DUP2 ADD SWAP1 POP PUSH3 0x828 JUMP JUMPDEST POP POP JUMP JUMPDEST PUSH1 0x1F DUP3 GT ISZERO PUSH3 0x899 JUMPI PUSH3 0x863 DUP2 PUSH3 0x70D JUMP JUMPDEST PUSH3 0x86E DUP5 PUSH3 0x722 JUMP JUMPDEST DUP2 ADD PUSH1 0x20 DUP6 LT ISZERO PUSH3 0x87E JUMPI DUP2 SWAP1 POP JUMPDEST PUSH3 0x896 PUSH3 0x88D DUP6 PUSH3 0x722 JUMP JUMPDEST DUP4 ADD DUP3 PUSH3 0x827 JUMP JUMPDEST POP POP JUMPDEST POP POP POP JUMP JUMPDEST PUSH1 0x0 DUP3 DUP3 SHR SWAP1 POP SWAP3 SWAP2 POP POP JUMP JUMPDEST PUSH1 0x0 PUSH3 0x8BE PUSH1 0x0 NOT DUP5 PUSH1 0x8 MUL PUSH3 0x89E JUMP JUMPDEST NOT DUP1 DUP4 AND SWAP2 POP POP SWAP3 SWAP2 POP POP JUMP JUMPDEST PUSH1 0x0 PUSH3 0x8D9 DUP4 DUP4 PUSH3 0x8AB JUMP JUMPDEST SWAP2 POP DUP3 PUSH1 0x2 MUL DUP3 OR SWAP1 POP SWAP3 SWAP2 POP POP JUMP JUMPDEST PUSH3 0x8F4 DUP3 PUSH3 0x69E JUMP JUMPDEST PUSH8 0xFFFFFFFFFFFFFFFF DUP2 GT ISZERO PUSH3 0x910 JUMPI PUSH3 0x90F PUSH3 0x341 JUMP JUMPDEST JUMPDEST PUSH3 0x91C DUP3 SLOAD PUSH3 0x6D8 JUMP JUMPDEST PUSH3 0x929 DUP3 DUP3 DUP6 PUSH3 0x84E JUMP JUMPDEST PUSH1 0x0 PUSH1 0x20 SWAP1 POP PUSH1 0x1F DUP4 GT PUSH1 0x1 DUP2 EQ PUSH3 0x961 JUMPI PUSH1 0x0 DUP5 ISZERO PUSH3 0x94C JUMPI DUP3 DUP8 ADD MLOAD SWAP1 POP JUMPDEST PUSH3 0x958 DUP6 DUP3 PUSH3 0x8CB JUMP JUMPDEST DUP7 SSTORE POP PUSH3 0x9C8 JUMP JUMPDEST PUSH1 0x1F NOT DUP5 AND PUSH3 0x971 DUP7 PUSH3 0x70D JUMP JUMPDEST PUSH1 0x0 JUMPDEST DUP3 DUP2 LT ISZERO PUSH3 0x99B JUMPI DUP5 DUP10 ADD MLOAD DUP3 SSTORE PUSH1 0x1 DUP3 ADD SWAP2 POP PUSH1 0x20 DUP6 ADD SWAP5 POP PUSH1 0x20 DUP2 ADD SWAP1 POP PUSH3 0x974 JUMP JUMPDEST DUP7 DUP4 LT ISZERO PUSH3 0x9BB JUMPI DUP5 DUP10 ADD MLOAD PUSH3 0x9B7 PUSH1 0x1F DUP10 AND DUP3 PUSH3 0x8AB JUMP JUMPDEST DUP4 SSTORE POP JUMPDEST PUSH1 0x1 PUSH1 0x2 DUP9 MUL ADD DUP9 SSTORE POP POP POP JUMPDEST POP POP POP POP POP POP JUMP JUMPDEST PUSH32 0x4E487B7100000000000000000000000000000000000000000000000000000000 PUSH1 0x0 MSTORE PUSH1 0x32 PUSH1 0x4 MSTORE PUSH1 0x24 PUSH1 0x0 REVERT JUMPDEST PUSH32 0x4E487B7100000000000000000000000000000000000000000000000000000000 PUSH1 0x0 MSTORE PUSH1 0x11 PUSH1 0x4 MSTORE PUSH1 0x24 PUSH1 0x0 REVERT JUMPDEST PUSH1 0x0 PUSH3 0xA3B DUP3 PUSH3 0x795 JUMP JUMPDEST SWAP2 POP PUSH32 0xFFFFFFFFFFFFFFFFFFFFFFFFFFFFFFFFFFFFFFFFFFFFFFFFFFFFFFFFFFFFFFFF DUP3 SUB PUSH3 0xA70 JUMPI PUSH3 0xA6F PUSH3 0x9FF JUMP JUMPDEST JUMPDEST PUSH1 0x1 DUP3 ADD SWAP1 POP SWAP2 SWAP1 POP JUMP JUMPDEST PUSH3 0xA86 DUP2 PUSH3 0x4F9 JUMP JUMPDEST DUP3 MSTORE POP POP JUMP JUMPDEST PUSH1 0x0 DUP2 SWAP1 POP SWAP2 SWAP1 POP JUMP JUMPDEST PUSH3 0xAA1 DUP2 PUSH3 0xA8C JUMP JUMPDEST DUP3 MSTORE POP POP JUMP JUMPDEST PUSH1 0x0 PUSH1 0x60 DUP3 ADD SWAP1 POP PUSH3 0xABE PUSH1 0x0 DUP4 ADD DUP7 PUSH3 0xA7B JUMP JUMPDEST PUSH3 0xACD PUSH1 0x20 DUP4 ADD DUP6 PUSH3 0xA96 JUMP JUMPDEST PUSH3 0xADC PUSH1 0x40 DUP4 ADD DUP5 PUSH3 0xA7B JUMP JUMPDEST SWAP5 SWAP4 POP POP POP POP JUMP JUMPDEST PUSH2 0x2A7E DUP1 PUSH3 0xAF4 PUSH1 0x0 CODECOPY PUSH1 0x0 RETURN INVALID PUSH1 0x80 PUSH1 0x40 MSTORE CALLVALUE DUP1 ISZERO PUSH2 0x10 JUMPI PUSH1 0x0 DUP1 REVERT JUMPDEST POP PUSH1 0x4 CALLDATASIZE LT PUSH2 0x116 JUMPI PUSH1 0x0 CALLDATALOAD PUSH1 0xE0 SHR DUP1 PUSH4 0x959B8C3F GT PUSH2 0xA2 JUMPI DUP1 PUSH4 0xD95B6371 GT PUSH2 0x71 JUMPI DUP1 PUSH4 0xD95B6371 EQ PUSH2 0x2E3 JUMPI DUP1 PUSH4 0xDD62ED3E EQ PUSH2 0x313 JUMPI DUP1 PUSH4 0xFAD8B32A EQ PUSH2 0x343 JUMPI DUP1 PUSH4 0xFC673C4F EQ PUSH2 0x35F JUMPI DUP1 PUSH4 0xFE9D9303 EQ PUSH2 0x37B JUMPI PUSH2 0x116 JUMP JUMPDEST DUP1 PUSH4 0x959B8C3F EQ PUSH2 0x25D JUMPI DUP1 PUSH4 0x95D89B41 EQ PUSH2 0x279 JUMPI DUP1 PUSH4 0x9BD9BBC6 EQ PUSH2 0x297 JUMPI DUP1 PUSH4 0xA9059CBB EQ PUSH2 0x2B3 JUMPI PUSH2 0x116 JUMP JUMPDEST DUP1 PUSH4 0x23B872DD GT PUSH2 0xE9 JUMPI DUP1 PUSH4 0x23B872DD EQ PUSH2 0x1A5 JUMPI DUP1 PUSH4 0x313CE567 EQ PUSH2 0x1D5 JUMPI DUP1 PUSH4 0x556F0DC7 EQ PUSH2 0x1F3 JUMPI DUP1 PUSH4 0x62AD1B83 EQ PUSH2 0x211 JUMPI DUP1 PUSH4 0x70A08231 EQ PUSH2 0x22D JUMPI PUSH2 0x116 JUMP JUMPDEST DUP1 PUSH4 0x6E48538 EQ PUSH2 0x11B JUMPI DUP1 PUSH4 0x6FDDE03 EQ PUSH2 0x139 JUMPI DUP1 PUSH4 0x95EA7B3 EQ PUSH2 0x157 JUMPI DUP1 PUSH4 0x18160DDD EQ PUSH2 0x187 JUMPI JUMPDEST PUSH1 0x0 DUP1 REVERT JUMPDEST PUSH2 0x123 PUSH2 0x397 JUMP JUMPDEST PUSH1 0x40 MLOAD PUSH2 0x130 SWAP2 SWAP1 PUSH2 0x1AAA JUMP JUMPDEST PUSH1 0x40 MLOAD DUP1 SWAP2 SUB SWAP1 RETURN JUMPDEST PUSH2 0x141 PUSH2 0x425 JUMP JUMPDEST PUSH1 0x40 MLOAD PUSH2 0x14E SWAP2 SWAP1 PUSH2 0x1B5C JUMP JUMPDEST PUSH1 0x40 MLOAD DUP1 SWAP2 SUB SWAP1 RETURN JUMPDEST PUSH2 0x171 PUSH1 0x4 DUP1 CALLDATASIZE SUB DUP2 ADD SWAP1 PUSH2 0x16C SWAP2 SWAP1 PUSH2 0x1BF4 JUMP JUMPDEST PUSH2 0x4B7 JUMP JUMPDEST PUSH1 0x40 MLOAD PUSH2 0x17E SWAP2 SWAP1 PUSH2 0x1C4F JUMP JUMPDEST PUSH1 0x40 MLOAD DUP1 SWAP2 SUB SWAP1 RETURN JUMPDEST PUSH2 0x18F PUSH2 0x4DA JUMP JUMPDEST PUSH1 0x40 MLOAD PUSH2 0x19C SWAP2 SWAP1 PUSH2 0x1C79 JUMP JUMPDEST PUSH1 0x40 MLOAD DUP1 SWAP2 SUB SWAP1 RETURN JUMPDEST PUSH2 0x1BF PUSH1 0x4 DUP1 CALLDATASIZE SUB DUP2 ADD SWAP1 PUSH2 0x1BA SWAP2 SWAP1 PUSH2 0x1C94 JUMP JUMPDEST PUSH2 0x4E4 JUMP JUMPDEST PUSH1 0x40 MLOAD PUSH2 0x1CC SWAP2 SWAP1 PUSH2 0x1C4F JUMP JUMPDEST PUSH1 0x40 MLOAD DUP1 SWAP2 SUB SWAP1 RETURN JUMPDEST PUSH2 0x1DD PUSH2 0x535 JUMP JUMPDEST PUSH1 0x40 MLOAD PUSH2 0x1EA SWAP2 SWAP1 PUSH2 0x1D03 JUMP JUMPDEST PUSH1 0x40 MLOAD DUP1 SWAP2 SUB SWAP1 RETURN JUMPDEST PUSH2 0x1FB PUSH2 0x53E JUMP JUMPDEST PUSH1 0x40 MLOAD PUSH2 0x208 SWAP2 SWAP1 PUSH2 0x1C79 JUMP JUMPDEST PUSH1 0x40 MLOAD DUP1 SWAP2 SUB SWAP1 RETURN JUMPDEST PUSH2 0x22B PUSH1 0x4 DUP1 CALLDATASIZE SUB DUP2 ADD SWAP1 PUSH2 0x226 SWAP2 SWAP1 PUSH2 0x1E53 JUMP JUMPDEST PUSH2 0x547 JUMP JUMPDEST STOP JUMPDEST PUSH2 0x247 PUSH1 0x4 DUP1 CALLDATASIZE SUB DUP2 ADD SWAP1 PUSH2 0x242 SWAP2 SWAP1 PUSH2 0x1F06 JUMP JUMPDEST PUSH2 0x5AD JUMP JUMPDEST PUSH1 0x40 MLOAD PUSH2 0x254 SWAP2 SWAP1 PUSH2 0x1C79 JUMP JUMPDEST PUSH1 0x40 MLOAD DUP1 SWAP2 SUB SWAP1 RETURN JUMPDEST PUSH2 0x277 PUSH1 0x4 DUP1 CALLDATASIZE SUB DUP2 ADD SWAP1 PUSH2 0x272 SWAP2 SWAP1 PUSH2 0x1F06 JUMP JUMPDEST PUSH2 0x5F5 JUMP JUMPDEST STOP JUMPDEST PUSH2 0x281 PUSH2 0x855 JUMP JUMPDEST PUSH1 0x40 MLOAD PUSH2 0x28E SWAP2 SWAP1 PUSH2 0x1B5C JUMP JUMPDEST PUSH1 0x40 MLOAD DUP1 SWAP2 SUB SWAP1 RETURN JUMPDEST PUSH2 0x2B1 PUSH1 0x4 DUP1 CALLDATASIZE SUB DUP2 ADD SWAP1 PUSH2 0x2AC SWAP2 SWAP1 PUSH2 0x1F33 JUMP JUMPDEST PUSH2 0x8E7 JUMP JUMPDEST STOP JUMPDEST PUSH2 0x2CD PUSH1 0x4 DUP1 CALLDATASIZE SUB DUP2 ADD SWAP1 PUSH2 0x2C8 SWAP2 SWAP1 PUSH2 0x1BF4 JUMP JUMPDEST PUSH2 0x911 JUMP JUMPDEST PUSH1 0x40 MLOAD PUSH2 0x2DA SWAP2 SWAP1 PUSH2 0x1C4F JUMP JUMPDEST PUSH1 0x40 MLOAD DUP1 SWAP2 SUB SWAP1 RETURN JUMPDEST PUSH2 0x2FD PUSH1 0x4 DUP1 CALLDATASIZE SUB DUP2 ADD SWAP1 PUSH2 0x2F8 SWAP2 SWAP1 PUSH2 0x1FA2 JUMP JUMPDEST PUSH2 0x951 JUMP JUMPDEST PUSH1 0x40 MLOAD PUSH2 0x30A SWAP2 SWAP1 PUSH2 0x1C4F JUMP JUMPDEST PUSH1 0x40 MLOAD DUP1 SWAP2 SUB SWAP1 RETURN JUMPDEST PUSH2 0x32D PUSH1 0x4 DUP1 CALLDATASIZE SUB DUP2 ADD SWAP1 PUSH2 0x328 SWAP2 SWAP1 PUSH2 0x1FA2 JUMP JUMPDEST PUSH2 0xB02 JUMP JUMPDEST PUSH1 0x40 MLOAD PUSH2 0x33A SWAP2 SWAP1 PUSH2 0x1C79 JUMP JUMPDEST PUSH1 0x40 MLOAD DUP1 SWAP2 SUB SWAP1 RETURN JUMPDEST PUSH2 0x35D PUSH1 0x4 DUP1 CALLDATASIZE SUB DUP2 ADD SWAP1 PUSH2 0x358 SWAP2 SWAP1 PUSH2 0x1F06 JUMP JUMPDEST PUSH2 0xB89 JUMP JUMPDEST STOP JUMPDEST PUSH2 0x379 PUSH1 0x4 DUP1 CALLDATASIZE SUB DUP2 ADD SWAP1 PUSH2 0x374 SWAP2 SWAP1 PUSH2 0x1FE2 JUMP JUMPDEST PUSH2 0xDE9 JUMP JUMPDEST STOP JUMPDEST PUSH2 0x395 PUSH1 0x4 DUP1 CALLDATASIZE SUB DUP2 ADD SWAP1 PUSH2 0x390 SWAP2 SWAP1 PUSH2 0x2081 JUMP JUMPDEST PUSH2 0xE4B JUMP JUMPDEST STOP JUMPDEST PUSH1 0x60 PUSH1 0x4 DUP1 SLOAD DUP1 PUSH1 0x20 MUL PUSH1 0x20 ADD PUSH1 0x40 MLOAD SWAP1 DUP2 ADD PUSH1 0x40 MSTORE DUP1 SWAP3 SWAP2 SWAP1 DUP2 DUP2 MSTORE PUSH1 0x20 ADD DUP3 DUP1 SLOAD DUP1 ISZERO PUSH2 0x41B JUMPI PUSH1 0x20 MUL DUP3 ADD SWAP2 SWAP1 PUSH1 0x0 MSTORE PUSH1 0x20 PUSH1 0x0 KECCAK256 SWAP1 JUMPDEST DUP2 PUSH1 0x0 SWAP1 SLOAD SWAP1 PUSH2 0x100 EXP SWAP1 DIV PUSH20 0xFFFFFFFFFFFFFFFFFFFFFFFFFFFFFFFFFFFFFFFF AND PUSH20 0xFFFFFFFFFFFFFFFFFFFFFFFFFFFFFFFFFFFFFFFF AND DUP2 MSTORE PUSH1 0x20 ADD SWAP1 PUSH1 0x1 ADD SWAP1 DUP1 DUP4 GT PUSH2 0x3D1 JUMPI JUMPDEST POP POP POP POP POP SWAP1 POP SWAP1 JUMP JUMPDEST PUSH1 0x60 PUSH1 0x2 DUP1 SLOAD PUSH2 0x434 SWAP1 PUSH2 0x210C JUMP JUMPDEST DUP1 PUSH1 0x1F ADD PUSH1 0x20 DUP1 SWAP2 DIV MUL PUSH1 0x20 ADD PUSH1 0x40 MLOAD SWAP1 DUP2 ADD PUSH1 0x40 MSTORE DUP1 SWAP3 SWAP2 SWAP1 DUP2 DUP2 MSTORE PUSH1 0x20 ADD DUP3 DUP1 SLOAD PUSH2 0x460 SWAP1 PUSH2 0x210C JUMP JUMPDEST DUP1 ISZERO PUSH2 0x4AD JUMPI DUP1 PUSH1 0x1F LT PUSH2 0x482 JUMPI PUSH2 0x100 DUP1 DUP4 SLOAD DIV MUL DUP4 MSTORE SWAP2 PUSH1 0x20 ADD SWAP2 PUSH2 0x4AD JUMP JUMPDEST DUP3 ADD SWAP2 SWAP1 PUSH1 0x0 MSTORE PUSH1 0x20 PUSH1 0x0 KECCAK256 SWAP1 JUMPDEST DUP2 SLOAD DUP2 MSTORE SWAP1 PUSH1 0x1 ADD SWAP1 PUSH1 0x20 ADD DUP1 DUP4 GT PUSH2 0x490 JUMPI DUP3 SWAP1 SUB PUSH1 0x1F AND DUP3 ADD SWAP2 JUMPDEST POP POP POP POP POP SWAP1 POP SWAP1 JUMP JUMPDEST PUSH1 0x0 DUP1 PUSH2 0x4C2 PUSH2 0xE71 JUMP JUMPDEST SWAP1 POP PUSH2 0x4CF DUP2 DUP6 DUP6 PUSH2 0xE79 JUMP JUMPDEST PUSH1 0x1 SWAP2 POP POP SWAP3 SWAP2 POP POP JUMP JUMPDEST PUSH1 0x0 PUSH1 0x1 SLOAD SWAP1 POP SWAP1 JUMP JUMPDEST PUSH1 0x0 DUP1 PUSH2 0x4EF PUSH2 0xE71 JUMP JUMPDEST SWAP1 POP PUSH2 0x4FC DUP6 DUP3 DUP6 PUSH2 0x1042 JUMP JUMPDEST PUSH2 0x529 DUP6 DUP6 DUP6 PUSH1 0x40 MLOAD DUP1 PUSH1 0x20 ADD PUSH1 0x40 MSTORE DUP1 PUSH1 0x0 DUP2 MSTORE POP PUSH1 0x40 MLOAD DUP1 PUSH1 0x20 ADD PUSH1 0x40 MSTORE DUP1 PUSH1 0x0 DUP2 MSTORE POP PUSH1 0x0 PUSH2 0x10CE JUMP JUMPDEST PUSH1 0x1 SWAP2 POP POP SWAP4 SWAP3 POP POP POP JUMP JUMPDEST PUSH1 0x0 PUSH1 0x12 SWAP1 POP SWAP1 JUMP JUMPDEST PUSH1 0x0 PUSH1 0x1 SWAP1 POP SWAP1 JUMP JUMPDEST PUSH2 0x558 PUSH2 0x552 PUSH2 0xE71 JUMP JUMPDEST DUP7 PUSH2 0x951 JUMP JUMPDEST PUSH2 0x597 JUMPI PUSH1 0x40 MLOAD PUSH32 0x8C379A000000000000000000000000000000000000000000000000000000000 DUP2 MSTORE PUSH1 0x4 ADD PUSH2 0x58E SWAP1 PUSH2 0x21AF JUMP JUMPDEST PUSH1 0x40 MLOAD DUP1 SWAP2 SUB SWAP1 REVERT JUMPDEST PUSH2 0x5A6 DUP6 DUP6 DUP6 DUP6 DUP6 PUSH1 0x1 PUSH2 0x10CE JUMP JUMPDEST POP POP POP POP POP JUMP JUMPDEST PUSH1 0x0 DUP1 PUSH1 0x0 DUP4 PUSH20 0xFFFFFFFFFFFFFFFFFFFFFFFFFFFFFFFFFFFFFFFF AND PUSH20 0xFFFFFFFFFFFFFFFFFFFFFFFFFFFFFFFFFFFFFFFF AND DUP2 MSTORE PUSH1 0x20 ADD SWAP1 DUP2 MSTORE PUSH1 0x20 ADD PUSH1 0x0 KECCAK256 SLOAD SWAP1 POP SWAP2 SWAP1 POP JUMP JUMPDEST DUP1 PUSH20 0xFFFFFFFFFFFFFFFFFFFFFFFFFFFFFFFFFFFFFFFF AND PUSH2 0x614 PUSH2 0xE71 JUMP JUMPDEST PUSH20 0xFFFFFFFFFFFFFFFFFFFFFFFFFFFFFFFFFFFFFFFF AND SUB PUSH2 0x66A JUMPI PUSH1 0x40 MLOAD PUSH32 0x8C379A000000000000000000000000000000000000000000000000000000000 DUP2 MSTORE PUSH1 0x4 ADD PUSH2 0x661 SWAP1 PUSH2 0x2241 JUMP JUMPDEST PUSH1 0x40 MLOAD DUP1 SWAP2 SUB SWAP1 REVERT JUMPDEST PUSH1 0x5 PUSH1 0x0 DUP3 PUSH20 0xFFFFFFFFFFFFFFFFFFFFFFFFFFFFFFFFFFFFFFFF AND PUSH20 0xFFFFFFFFFFFFFFFFFFFFFFFFFFFFFFFFFFFFFFFF AND DUP2 MSTORE PUSH1 0x20 ADD SWAP1 DUP2 MSTORE PUSH1 0x20 ADD PUSH1 0x0 KECCAK256 PUSH1 0x0 SWAP1 SLOAD SWAP1 PUSH2 0x100 EXP SWAP1 DIV PUSH1 0xFF AND ISZERO PUSH2 0x754 JUMPI PUSH1 0x7 PUSH1 0x0 PUSH2 0x6C8 PUSH2 0xE71 JUMP JUMPDEST PUSH20 0xFFFFFFFFFFFFFFFFFFFFFFFFFFFFFFFFFFFFFFFF AND PUSH20 0xFFFFFFFFFFFFFFFFFFFFFFFFFFFFFFFFFFFFFFFF AND DUP2 MSTORE PUSH1 0x20 ADD SWAP1 DUP2 MSTORE PUSH1 0x20 ADD PUSH1 0x0 KECCAK256 PUSH1 0x0 DUP3 PUSH20 0xFFFFFFFFFFFFFFFFFFFFFFFFFFFFFFFFFFFFFFFF AND PUSH20 0xFFFFFFFFFFFFFFFFFFFFFFFFFFFFFFFFFFFFFFFF AND DUP2 MSTORE PUSH1 0x20 ADD SWAP1 DUP2 MSTORE PUSH1 0x20 ADD PUSH1 0x0 KECCAK256 PUSH1 0x0 PUSH2 0x100 EXP DUP2 SLOAD SWAP1 PUSH1 0xFF MUL NOT AND SWAP1 SSTORE PUSH2 0x7F1 JUMP JUMPDEST PUSH1 0x1 PUSH1 0x6 PUSH1 0x0 PUSH2 0x762 PUSH2 0xE71 JUMP JUMPDEST PUSH20 0xFFFFFFFFFFFFFFFFFFFFFFFFFFFFFFFFFFFFFFFF AND PUSH20 0xFFFFFFFFFFFFFFFFFFFFFFFFFFFFFFFFFFFFFFFF AND DUP2 MSTORE PUSH1 0x20 ADD SWAP1 DUP2 MSTORE PUSH1 0x20 ADD PUSH1 0x0 KECCAK256 PUSH1 0x0 DUP4 PUSH20 0xFFFFFFFFFFFFFFFFFFFFFFFFFFFFFFFFFFFFFFFF AND PUSH20 0xFFFFFFFFFFFFFFFFFFFFFFFFFFFFFFFFFFFFFFFF AND DUP2 MSTORE PUSH1 0x20 ADD SWAP1 DUP2 MSTORE PUSH1 0x20 ADD PUSH1 0x0 KECCAK256 PUSH1 0x0 PUSH2 0x100 EXP DUP2 SLOAD DUP2 PUSH1 0xFF MUL NOT AND SWAP1 DUP4 ISZERO ISZERO MUL OR SWAP1 SSTORE POP JUMPDEST PUSH2 0x7F9 PUSH2 0xE71 JUMP JUMPDEST PUSH20 0xFFFFFFFFFFFFFFFFFFFFFFFFFFFFFFFFFFFFFFFF AND DUP2 PUSH20 0xFFFFFFFFFFFFFFFFFFFFFFFFFFFFFFFFFFFFFFFF AND PUSH32 0xF4CAEB2D6CA8932A215A353D0703C326EC2D81FC68170F320EB2AB49E9DF61F9 PUSH1 0x40 MLOAD PUSH1 0x40 MLOAD DUP1 SWAP2 SUB SWAP1 LOG3 POP JUMP JUMPDEST PUSH1 0x60 PUSH1 0x3 DUP1 SLOAD PUSH2 0x864 SWAP1 PUSH2 0x210C JUMP JUMPDEST DUP1 PUSH1 0x1F ADD PUSH1 0x20 DUP1 SWAP2 DIV MUL PUSH1 0x20 ADD PUSH1 0x40 MLOAD SWAP1 DUP2 ADD PUSH1 0x40 MSTORE DUP1 SWAP3 SWAP2 SWAP1 DUP2 DUP2 MSTORE PUSH1 0x20 ADD DUP3 DUP1 SLOAD PUSH2 0x890 SWAP1 PUSH2 0x210C JUMP JUMPDEST DUP1 ISZERO PUSH2 0x8DD JUMPI DUP1 PUSH1 0x1F LT PUSH2 0x8B2 JUMPI PUSH2 0x100 DUP1 DUP4 SLOAD DIV MUL DUP4 MSTORE SWAP2 PUSH1 0x20 ADD SWAP2 PUSH2 0x8DD JUMP JUMPDEST DUP3 ADD SWAP2 SWAP1 PUSH1 0x0 MSTORE PUSH1 0x20 PUSH1 0x0 KECCAK256 SWAP1 JUMPDEST DUP2 SLOAD DUP2 MSTORE SWAP1 PUSH1 0x1 ADD SWAP1 PUSH1 0x20 ADD DUP1 DUP4 GT PUSH2 0x8C0 JUMPI DUP3 SWAP1 SUB PUSH1 0x1F AND DUP3 ADD SWAP2 JUMPDEST POP POP POP POP POP SWAP1 POP SWAP1 JUMP JUMPDEST PUSH2 0x90C PUSH2 0x8F2 PUSH2 0xE71 JUMP JUMPDEST DUP5 DUP5 DUP5 PUSH1 0x40 MLOAD DUP1 PUSH1 0x20 ADD PUSH1 0x40 MSTORE DUP1 PUSH1 0x0 DUP2 MSTORE POP PUSH1 0x1 PUSH2 0x10CE JUMP JUMPDEST POP POP POP JUMP JUMPDEST PUSH1 0x0 PUSH2 0x947 PUSH2 0x91E PUSH2 0xE71 JUMP JUMPDEST DUP5 DUP5 PUSH1 0x40 MLOAD DUP1 PUSH1 0x20 ADD PUSH1 0x40 MSTORE DUP1 PUSH1 0x0 DUP2 MSTORE POP PUSH1 0x40 MLOAD DUP1 PUSH1 0x20 ADD PUSH1 0x40 MSTORE DUP1 PUSH1 0x0 DUP2 MSTORE POP PUSH1 0x0 PUSH2 0x10CE JUMP JUMPDEST PUSH1 0x1 SWAP1 POP SWAP3 SWAP2 POP POP JUMP JUMPDEST PUSH1 0x0 DUP2 PUSH20 0xFFFFFFFFFFFFFFFFFFFFFFFFFFFFFFFFFFFFFFFF AND DUP4 PUSH20 0xFFFFFFFFFFFFFFFFFFFFFFFFFFFFFFFFFFFFFFFF AND EQ DUP1 PUSH2 0xA69 JUMPI POP PUSH1 0x5 PUSH1 0x0 DUP5 PUSH20 0xFFFFFFFFFFFFFFFFFFFFFFFFFFFFFFFFFFFFFFFF AND PUSH20 0xFFFFFFFFFFFFFFFFFFFFFFFFFFFFFFFFFFFFFFFF AND DUP2 MSTORE PUSH1 0x20 ADD SWAP1 DUP2 MSTORE PUSH1 0x20 ADD PUSH1 0x0 KECCAK256 PUSH1 0x0 SWAP1 SLOAD SWAP1 PUSH2 0x100 EXP SWAP1 DIV PUSH1 0xFF AND DUP1 ISZERO PUSH2 0xA68 JUMPI POP PUSH1 0x7 PUSH1 0x0 DUP4 PUSH20 0xFFFFFFFFFFFFFFFFFFFFFFFFFFFFFFFFFFFFFFFF AND PUSH20 0xFFFFFFFFFFFFFFFFFFFFFFFFFFFFFFFFFFFFFFFF AND DUP2 MSTORE PUSH1 0x20 ADD SWAP1 DUP2 MSTORE PUSH1 0x20 ADD PUSH1 0x0 KECCAK256 PUSH1 0x0 DUP5 PUSH20 0xFFFFFFFFFFFFFFFFFFFFFFFFFFFFFFFFFFFFFFFF AND PUSH20 0xFFFFFFFFFFFFFFFFFFFFFFFFFFFFFFFFFFFFFFFF AND DUP2 MSTORE PUSH1 0x20 ADD SWAP1 DUP2 MSTORE PUSH1 0x20 ADD PUSH1 0x0 KECCAK256 PUSH1 0x0 SWAP1 SLOAD SWAP1 PUSH2 0x100 EXP SWAP1 DIV PUSH1 0xFF AND ISZERO JUMPDEST JUMPDEST DUP1 PUSH2 0xAFA JUMPI POP PUSH1 0x6 PUSH1 0x0 DUP4 PUSH20 0xFFFFFFFFFFFFFFFFFFFFFFFFFFFFFFFFFFFFFFFF AND PUSH20 0xFFFFFFFFFFFFFFFFFFFFFFFFFFFFFFFFFFFFFFFF AND DUP2 MSTORE PUSH1 0x20 ADD SWAP1 DUP2 MSTORE PUSH1 0x20 ADD PUSH1 0x0 KECCAK256 PUSH1 0x0 DUP5 PUSH20 0xFFFFFFFFFFFFFFFFFFFFFFFFFFFFFFFFFFFFFFFF AND PUSH20 0xFFFFFFFFFFFFFFFFFFFFFFFFFFFFFFFFFFFFFFFF AND DUP2 MSTORE PUSH1 0x20 ADD SWAP1 DUP2 MSTORE PUSH1 0x20 ADD PUSH1 0x0 KECCAK256 PUSH1 0x0 SWAP1 SLOAD SWAP1 PUSH2 0x100 EXP SWAP1 DIV PUSH1 0xFF AND JUMPDEST SWAP1 POP SWAP3 SWAP2 POP POP JUMP JUMPDEST PUSH1 0x0 PUSH1 0x8 PUSH1 0x0 DUP5 PUSH20 0xFFFFFFFFFFFFFFFFFFFFFFFFFFFFFFFFFFFFFFFF AND PUSH20 0xFFFFFFFFFFFFFFFFFFFFFFFFFFFFFFFFFFFFFFFF AND DUP2 MSTORE PUSH1 0x20 ADD SWAP1 DUP2 MSTORE PUSH1 0x20 ADD PUSH1 0x0 KECCAK256 PUSH1 0x0 DUP4 PUSH20 0xFFFFFFFFFFFFFFFFFFFFFFFFFFFFFFFFFFFFFFFF AND PUSH20 0xFFFFFFFFFFFFFFFFFFFFFFFFFFFFFFFFFFFFFFFF AND DUP2 MSTORE PUSH1 0x20 ADD SWAP1 DUP2 MSTORE PUSH1 0x20 ADD PUSH1 0x0 KECCAK256 SLOAD SWAP1 POP SWAP3 SWAP2 POP POP JUMP JUMPDEST PUSH2 0xB91 PUSH2 0xE71 JUMP JUMPDEST PUSH20 0xFFFFFFFFFFFFFFFFFFFFFFFFFFFFFFFFFFFFFFFF AND DUP2 PUSH20 0xFFFFFFFFFFFFFFFFFFFFFFFFFFFFFFFFFFFFFFFF AND SUB PUSH2 0xBFE JUMPI PUSH1 0x40 MLOAD PUSH32 0x8C379A000000000000000000000000000000000000000000000000000000000 DUP2 MSTORE PUSH1 0x4 ADD PUSH2 0xBF5 SWAP1 PUSH2 0x22D3 JUMP JUMPDEST PUSH1 0x40 MLOAD DUP1 SWAP2 SUB SWAP1 REVERT JUMPDEST PUSH1 0x5 PUSH1 0x0 DUP3 PUSH20 0xFFFFFFFFFFFFFFFFFFFFFFFFFFFFFFFFFFFFFFFF AND PUSH20 0xFFFFFFFFFFFFFFFFFFFFFFFFFFFFFFFFFFFFFFFF AND DUP2 MSTORE PUSH1 0x20 ADD SWAP1 DUP2 MSTORE PUSH1 0x20 ADD PUSH1 0x0 KECCAK256 PUSH1 0x0 SWAP1 SLOAD SWAP1 PUSH2 0x100 EXP SWAP1 DIV PUSH1 0xFF AND ISZERO PUSH2 0xCF1 JUMPI PUSH1 0x1 PUSH1 0x7 PUSH1 0x0 PUSH2 0xC5E PUSH2 0xE71 JUMP JUMPDEST PUSH20 0xFFFFFFFFFFFFFFFFFFFFFFFFFFFFFFFFFFFFFFFF AND PUSH20 0xFFFFFFFFFFFFFFFFFFFFFFFFFFFFFFFFFFFFFFFF AND DUP2 MSTORE PUSH1 0x20 ADD SWAP1 DUP2 MSTORE PUSH1 0x20 ADD PUSH1 0x0 KECCAK256 PUSH1 0x0 DUP4 PUSH20 0xFFFFFFFFFFFFFFFFFFFFFFFFFFFFFFFFFFFFFFFF AND PUSH20 0xFFFFFFFFFFFFFFFFFFFFFFFFFFFFFFFFFFFFFFFF AND DUP2 MSTORE PUSH1 0x20 ADD SWAP1 DUP2 MSTORE PUSH1 0x20 ADD PUSH1 0x0 KECCAK256 PUSH1 0x0 PUSH2 0x100 EXP DUP2 SLOAD DUP2 PUSH1 0xFF MUL NOT AND SWAP1 DUP4 ISZERO ISZERO MUL OR SWAP1 SSTORE POP PUSH2 0xD85 JUMP JUMPDEST PUSH1 0x6 PUSH1 0x0 PUSH2 0xCFD PUSH2 0xE71 JUMP JUMPDEST PUSH20 0xFFFFFFFFFFFFFFFFFFFFFFFFFFFFFFFFFFFFFFFF AND PUSH20 0xFFFFFFFFFFFFFFFFFFFFFFFFFFFFFFFFFFFFFFFF AND DUP2 MSTORE PUSH1 0x20 ADD SWAP1 DUP2 MSTORE PUSH1 0x20 ADD PUSH1 0x0 KECCAK256 PUSH1 0x0 DUP3 PUSH20 0xFFFFFFFFFFFFFFFFFFFFFFFFFFFFFFFFFFFFFFFF AND PUSH20 0xFFFFFFFFFFFFFFFFFFFFFFFFFFFFFFFFFFFFFFFF AND DUP2 MSTORE PUSH1 0x20 ADD SWAP1 DUP2 MSTORE PUSH1 0x20 ADD PUSH1 0x0 KECCAK256 PUSH1 0x0 PUSH2 0x100 EXP DUP2 SLOAD SWAP1 PUSH1 0xFF MUL NOT AND SWAP1 SSTORE JUMPDEST PUSH2 0xD8D PUSH2 0xE71 JUMP JUMPDEST PUSH20 0xFFFFFFFFFFFFFFFFFFFFFFFFFFFFFFFFFFFFFFFF AND DUP2 PUSH20 0xFFFFFFFFFFFFFFFFFFFFFFFFFFFFFFFFFFFFFFFF AND PUSH32 0x50546E66E5F44D728365DC3908C63BC5CFEEAB470722C1677E3073A6AC294AA1 PUSH1 0x40 MLOAD PUSH1 0x40 MLOAD DUP1 SWAP2 SUB SWAP1 LOG3 POP JUMP JUMPDEST PUSH2 0xDFA PUSH2 0xDF4 PUSH2 0xE71 JUMP JUMPDEST DUP6 PUSH2 0x951 JUMP JUMPDEST PUSH2 0xE39 JUMPI PUSH1 0x40 MLOAD PUSH32 0x8C379A000000000000000000000000000000000000000000000000000000000 DUP2 MSTORE PUSH1 0x4 ADD PUSH2 0xE30 SWAP1 PUSH2 0x21AF JUMP JUMPDEST PUSH1 0x40 MLOAD DUP1 SWAP2 SUB SWAP1 REVERT JUMPDEST PUSH2 0xE45 DUP5 DUP5 DUP5 DUP5 PUSH2 0x11EC JUMP JUMPDEST POP POP POP POP JUMP JUMPDEST PUSH2 0xE6D PUSH2 0xE56 PUSH2 0xE71 JUMP JUMPDEST DUP4 DUP4 PUSH1 0x40 MLOAD DUP1 PUSH1 0x20 ADD PUSH1 0x40 MSTORE DUP1 PUSH1 0x0 DUP2 MSTORE POP PUSH2 0x11EC JUMP JUMPDEST POP POP JUMP JUMPDEST PUSH1 0x0 CALLER SWAP1 POP SWAP1 JUMP JUMPDEST PUSH1 0x0 PUSH20 0xFFFFFFFFFFFFFFFFFFFFFFFFFFFFFFFFFFFFFFFF AND DUP4 PUSH20 0xFFFFFFFFFFFFFFFFFFFFFFFFFFFFFFFFFFFFFFFF AND SUB PUSH2 0xEE8 JUMPI PUSH1 0x40 MLOAD PUSH32 0x8C379A000000000000000000000000000000000000000000000000000000000 DUP2 MSTORE PUSH1 0x4 ADD PUSH2 0xEDF SWAP1 PUSH2 0x2365 JUMP JUMPDEST PUSH1 0x40 MLOAD DUP1 SWAP2 SUB SWAP1 REVERT JUMPDEST PUSH1 0x0 PUSH20 0xFFFFFFFFFFFFFFFFFFFFFFFFFFFFFFFFFFFFFFFF AND DUP3 PUSH20 0xFFFFFFFFFFFFFFFFFFFFFFFFFFFFFFFFFFFFFFFF AND SUB PUSH2 0xF57 JUMPI PUSH1 0x40 MLOAD PUSH32 0x8C379A000000000000000000000000000000000000000000000000000000000 DUP2 MSTORE PUSH1 0x4 ADD PUSH2 0xF4E SWAP1 PUSH2 0x23F7 JUMP JUMPDEST PUSH1 0x40 MLOAD DUP1 SWAP2 SUB SWAP1 REVERT JUMPDEST DUP1 PUSH1 0x8 PUSH1 0x0 DUP6 PUSH20 0xFFFFFFFFFFFFFFFFFFFFFFFFFFFFFFFFFFFFFFFF AND PUSH20 0xFFFFFFFFFFFFFFFFFFFFFFFFFFFFFFFFFFFFFFFF AND DUP2 MSTORE PUSH1 0x20 ADD SWAP1 DUP2 MSTORE PUSH1 0x20 ADD PUSH1 0x0 KECCAK256 PUSH1 0x0 DUP5 PUSH20 0xFFFFFFFFFFFFFFFFFFFFFFFFFFFFFFFFFFFFFFFF AND PUSH20 0xFFFFFFFFFFFFFFFFFFFFFFFFFFFFFFFFFFFFFFFF AND DUP2 MSTORE PUSH1 0x20 ADD SWAP1 DUP2 MSTORE PUSH1 0x20 ADD PUSH1 0x0 KECCAK256 DUP2 SWAP1 SSTORE POP DUP2 PUSH20 0xFFFFFFFFFFFFFFFFFFFFFFFFFFFFFFFFFFFFFFFF AND DUP4 PUSH20 0xFFFFFFFFFFFFFFFFFFFFFFFFFFFFFFFFFFFFFFFF AND PUSH32 0x8C5BE1E5EBEC7D5BD14F71427D1E84F3DD0314C0F7B2291E5B200AC8C7C3B925 DUP4 PUSH1 0x40 MLOAD PUSH2 0x1035 SWAP2 SWAP1 PUSH2 0x1C79 JUMP JUMPDEST PUSH1 0x40 MLOAD DUP1 SWAP2 SUB SWAP1 LOG3 POP POP POP JUMP JUMPDEST PUSH1 0x0 PUSH2 0x104E DUP5 DUP5 PUSH2 0xB02 JUMP JUMPDEST SWAP1 POP PUSH32 0xFFFFFFFFFFFFFFFFFFFFFFFFFFFFFFFFFFFFFFFFFFFFFFFFFFFFFFFFFFFFFFFF DUP2 EQ PUSH2 0x10C8 JUMPI DUP2 DUP2 LT ISZERO PUSH2 0x10BA JUMPI PUSH1 0x40 MLOAD PUSH32 0x8C379A000000000000000000000000000000000000000000000000000000000 DUP2 MSTORE PUSH1 0x4 ADD PUSH2 0x10B1 SWAP1 PUSH2 0x2463 JUMP JUMPDEST PUSH1 0x40 MLOAD DUP1 SWAP2 SUB SWAP1 REVERT JUMPDEST PUSH2 0x10C7 DUP5 DUP5 DUP5 DUP5 SUB PUSH2 0xE79 JUMP JUMPDEST JUMPDEST POP POP POP POP JUMP JUMPDEST PUSH1 0x0 PUSH20 0xFFFFFFFFFFFFFFFFFFFFFFFFFFFFFFFFFFFFFFFF AND DUP7 PUSH20 0xFFFFFFFFFFFFFFFFFFFFFFFFFFFFFFFFFFFFFFFF AND SUB PUSH2 0x113D JUMPI PUSH1 0x40 MLOAD PUSH32 0x8C379A000000000000000000000000000000000000000000000000000000000 DUP2 MSTORE PUSH1 0x4 ADD PUSH2 0x1134 SWAP1 PUSH2 0x24F5 JUMP JUMPDEST PUSH1 0x40 MLOAD DUP1 SWAP2 SUB SWAP1 REVERT JUMPDEST PUSH1 0x0 PUSH20 0xFFFFFFFFFFFFFFFFFFFFFFFFFFFFFFFFFFFFFFFF AND DUP6 PUSH20 0xFFFFFFFFFFFFFFFFFFFFFFFFFFFFFFFFFFFFFFFF AND SUB PUSH2 0x11AC JUMPI PUSH1 0x40 MLOAD PUSH32 0x8C379A000000000000000000000000000000000000000000000000000000000 DUP2 MSTORE PUSH1 0x4 ADD PUSH2 0x11A3 SWAP1 PUSH2 0x2587 JUMP JUMPDEST PUSH1 0x40 MLOAD DUP1 SWAP2 SUB SWAP1 REVERT JUMPDEST PUSH1 0x0 PUSH2 0x11B6 PUSH2 0xE71 JUMP JUMPDEST SWAP1 POP PUSH2 0x11C6 DUP2 DUP9 DUP9 DUP9 DUP9 DUP9 PUSH2 0x143E JUMP JUMPDEST PUSH2 0x11D4 DUP2 DUP9 DUP9 DUP9 DUP9 DUP9 PUSH2 0x15A5 JUMP JUMPDEST PUSH2 0x11E3 DUP2 DUP9 DUP9 DUP9 DUP9 DUP9 DUP9 PUSH2 0x17BF JUMP JUMPDEST POP POP POP POP POP POP POP JUMP JUMPDEST PUSH1 0x0 PUSH20 0xFFFFFFFFFFFFFFFFFFFFFFFFFFFFFFFFFFFFFFFF AND DUP5 PUSH20 0xFFFFFFFFFFFFFFFFFFFFFFFFFFFFFFFFFFFFFFFF AND SUB PUSH2 0x125B JUMPI PUSH1 0x40 MLOAD PUSH32 0x8C379A000000000000000000000000000000000000000000000000000000000 DUP2 MSTORE PUSH1 0x4 ADD PUSH2 0x1252 SWAP1 PUSH2 0x2619 JUMP JUMPDEST PUSH1 0x40 MLOAD DUP1 SWAP2 SUB SWAP1 REVERT JUMPDEST PUSH1 0x0 PUSH2 0x1265 PUSH2 0xE71 JUMP JUMPDEST SWAP1 POP PUSH2 0x1276 DUP2 DUP7 PUSH1 0x0 DUP8 DUP8 DUP8 PUSH2 0x143E JUMP JUMPDEST PUSH2 0x1283 DUP2 DUP7 PUSH1 0x0 DUP8 PUSH2 0x1991 JUMP JUMPDEST PUSH1 0x0 DUP1 PUSH1 0x0 DUP8 PUSH20 0xFFFFFFFFFFFFFFFFFFFFFFFFFFFFFFFFFFFFFFFF AND PUSH20 0xFFFFFFFFFFFFFFFFFFFFFFFFFFFFFFFFFFFFFFFF AND DUP2 MSTORE PUSH1 0x20 ADD SWAP1 DUP2 MSTORE PUSH1 0x20 ADD PUSH1 0x0 KECCAK256 SLOAD SWAP1 POP DUP5 DUP2 LT ISZERO PUSH2 0x1309 JUMPI PUSH1 0x40 MLOAD PUSH32 0x8C379A000000000000000000000000000000000000000000000000000000000 DUP2 MSTORE PUSH1 0x4 ADD PUSH2 0x1300 SWAP1 PUSH2 0x26AB JUMP JUMPDEST PUSH1 0x40 MLOAD DUP1 SWAP2 SUB SWAP1 REVERT JUMPDEST DUP5 DUP2 SUB PUSH1 0x0 DUP1 DUP9 PUSH20 0xFFFFFFFFFFFFFFFFFFFFFFFFFFFFFFFFFFFFFFFF AND PUSH20 0xFFFFFFFFFFFFFFFFFFFFFFFFFFFFFFFFFFFFFFFF AND DUP2 MSTORE PUSH1 0x20 ADD SWAP1 DUP2 MSTORE PUSH1 0x20 ADD PUSH1 0x0 KECCAK256 DUP2 SWAP1 SSTORE POP DUP5 PUSH1 0x1 PUSH1 0x0 DUP3 DUP3 SLOAD PUSH2 0x1360 SWAP2 SWAP1 PUSH2 0x26FA JUMP JUMPDEST SWAP3 POP POP DUP2 SWAP1 SSTORE POP DUP6 PUSH20 0xFFFFFFFFFFFFFFFFFFFFFFFFFFFFFFFFFFFFFFFF AND DUP3 PUSH20 0xFFFFFFFFFFFFFFFFFFFFFFFFFFFFFFFFFFFFFFFF AND PUSH32 0xA78A9BE3A7B862D26933AD85FB11D80EF66B8F972D7CBBA06621D583943A4098 DUP8 DUP8 DUP8 PUSH1 0x40 MLOAD PUSH2 0x13C8 SWAP4 SWAP3 SWAP2 SWAP1 PUSH2 0x2783 JUMP JUMPDEST PUSH1 0x40 MLOAD DUP1 SWAP2 SUB SWAP1 LOG3 PUSH1 0x0 PUSH20 0xFFFFFFFFFFFFFFFFFFFFFFFFFFFFFFFFFFFFFFFF AND DUP7 PUSH20 0xFFFFFFFFFFFFFFFFFFFFFFFFFFFFFFFFFFFFFFFF AND PUSH32 0xDDF252AD1BE2C89B69C2B068FC378DAA952BA7F163C4A11628F55A4DF523B3EF DUP8 PUSH1 0x40 MLOAD PUSH2 0x142E SWAP2 SWAP1 PUSH2 0x1C79 JUMP JUMPDEST PUSH1 0x40 MLOAD DUP1 SWAP2 SUB SWAP1 LOG3 POP POP POP POP POP POP JUMP JUMPDEST PUSH1 0x0 PUSH20 0x1820A4B7618BDE71DCE8CDC73AAB6C95905FAD24 PUSH20 0xFFFFFFFFFFFFFFFFFFFFFFFFFFFFFFFFFFFFFFFF AND PUSH4 0xAABBB8CA DUP8 PUSH32 0x29DDB589B1FB5FC7CF394961C1ADF5F8C6454761ADF795E67FE149F658ABE895 PUSH1 0x40 MLOAD DUP4 PUSH4 0xFFFFFFFF AND PUSH1 0xE0 SHL DUP2 MSTORE PUSH1 0x4 ADD PUSH2 0x14AF SWAP3 SWAP2 SWAP1 PUSH2 0x27F0 JUMP JUMPDEST PUSH1 0x20 PUSH1 0x40 MLOAD DUP1 DUP4 SUB DUP2 DUP7 GAS STATICCALL ISZERO DUP1 ISZERO PUSH2 0x14CC JUMPI RETURNDATASIZE PUSH1 0x0 DUP1 RETURNDATACOPY RETURNDATASIZE PUSH1 0x0 REVERT JUMPDEST POP POP POP POP PUSH1 0x40 MLOAD RETURNDATASIZE PUSH1 0x1F NOT PUSH1 0x1F DUP3 ADD AND DUP3 ADD DUP1 PUSH1 0x40 MSTORE POP DUP2 ADD SWAP1 PUSH2 0x14F0 SWAP2 SWAP1 PUSH2 0x282E JUMP JUMPDEST SWAP1 POP PUSH1 0x0 PUSH20 0xFFFFFFFFFFFFFFFFFFFFFFFFFFFFFFFFFFFFFFFF AND DUP2 PUSH20 0xFFFFFFFFFFFFFFFFFFFFFFFFFFFFFFFFFFFFFFFF AND EQ PUSH2 0x159C JUMPI DUP1 PUSH20 0xFFFFFFFFFFFFFFFFFFFFFFFFFFFFFFFFFFFFFFFF AND PUSH4 0x75AB9782 DUP9 DUP9 DUP9 DUP9 DUP9 DUP9 PUSH1 0x40 MLOAD DUP8 PUSH4 0xFFFFFFFF AND PUSH1 0xE0 SHL DUP2 MSTORE PUSH1 0x4 ADD PUSH2 0x1569 SWAP7 SWAP6 SWAP5 SWAP4 SWAP3 SWAP2 SWAP1 PUSH2 0x285B JUMP JUMPDEST PUSH1 0x0 PUSH1 0x40 MLOAD DUP1 DUP4 SUB DUP2 PUSH1 0x0 DUP8 DUP1 EXTCODESIZE ISZERO DUP1 ISZERO PUSH2 0x1583 JUMPI PUSH1 0x0 DUP1 REVERT JUMPDEST POP GAS CALL ISZERO DUP1 ISZERO PUSH2 0x1597 JUMPI RETURNDATASIZE PUSH1 0x0 DUP1 RETURNDATACOPY RETURNDATASIZE PUSH1 0x0 REVERT JUMPDEST POP POP POP POP JUMPDEST POP POP POP POP POP POP POP JUMP JUMPDEST PUSH2 0x15B1 DUP7 DUP7 DUP7 DUP7 PUSH2 0x1991 JUMP JUMPDEST PUSH1 0x0 DUP1 PUSH1 0x0 DUP8 PUSH20 0xFFFFFFFFFFFFFFFFFFFFFFFFFFFFFFFFFFFFFFFF AND PUSH20 0xFFFFFFFFFFFFFFFFFFFFFFFFFFFFFFFFFFFFFFFF AND DUP2 MSTORE PUSH1 0x20 ADD SWAP1 DUP2 MSTORE PUSH1 0x20 ADD PUSH1 0x0 KECCAK256 SLOAD SWAP1 POP DUP4 DUP2 LT ISZERO PUSH2 0x1637 JUMPI PUSH1 0x40 MLOAD PUSH32 0x8C379A000000000000000000000000000000000000000000000000000000000 DUP2 MSTORE PUSH1 0x4 ADD PUSH2 0x162E SWAP1 PUSH2 0x293C JUMP JUMPDEST PUSH1 0x40 MLOAD DUP1 SWAP2 SUB SWAP1 REVERT JUMPDEST DUP4 DUP2 SUB PUSH1 0x0 DUP1 DUP9 PUSH20 0xFFFFFFFFFFFFFFFFFFFFFFFFFFFFFFFFFFFFFFFF AND PUSH20 0xFFFFFFFFFFFFFFFFFFFFFFFFFFFFFFFFFFFFFFFF AND DUP2 MSTORE PUSH1 0x20 ADD SWAP1 DUP2 MSTORE PUSH1 0x20 ADD PUSH1 0x0 KECCAK256 DUP2 SWAP1 SSTORE POP DUP4 PUSH1 0x0 DUP1 DUP8 PUSH20 0xFFFFFFFFFFFFFFFFFFFFFFFFFFFFFFFFFFFFFFFF AND PUSH20 0xFFFFFFFFFFFFFFFFFFFFFFFFFFFFFFFFFFFFFFFF AND DUP2 MSTORE PUSH1 0x20 ADD SWAP1 DUP2 MSTORE PUSH1 0x20 ADD PUSH1 0x0 KECCAK256 PUSH1 0x0 DUP3 DUP3 SLOAD PUSH2 0x16CA SWAP2 SWAP1 PUSH2 0x295C JUMP JUMPDEST SWAP3 POP POP DUP2 SWAP1 SSTORE POP DUP5 PUSH20 0xFFFFFFFFFFFFFFFFFFFFFFFFFFFFFFFFFFFFFFFF AND DUP7 PUSH20 0xFFFFFFFFFFFFFFFFFFFFFFFFFFFFFFFFFFFFFFFF AND DUP9 PUSH20 0xFFFFFFFFFFFFFFFFFFFFFFFFFFFFFFFFFFFFFFFF AND PUSH32 0x6B541DDAA720DB2B10A4D0CDAC39B8D360425FC073085FAC19BC82614677987 DUP8 DUP8 DUP8 PUSH1 0x40 MLOAD PUSH2 0x1749 SWAP4 SWAP3 SWAP2 SWAP1 PUSH2 0x2783 JUMP JUMPDEST PUSH1 0x40 MLOAD DUP1 SWAP2 SUB SWAP1 LOG4 DUP5 PUSH20 0xFFFFFFFFFFFFFFFFFFFFFFFFFFFFFFFFFFFFFFFF AND DUP7 PUSH20 0xFFFFFFFFFFFFFFFFFFFFFFFFFFFFFFFFFFFFFFFF AND PUSH32 0xDDF252AD1BE2C89B69C2B068FC378DAA952BA7F163C4A11628F55A4DF523B3EF DUP7 PUSH1 0x40 MLOAD PUSH2 0x17AE SWAP2 SWAP1 PUSH2 0x1C79 JUMP JUMPDEST PUSH1 0x40 MLOAD DUP1 SWAP2 SUB SWAP1 LOG3 POP POP POP POP POP POP POP JUMP JUMPDEST PUSH1 0x0 PUSH20 0x1820A4B7618BDE71DCE8CDC73AAB6C95905FAD24 PUSH20 0xFFFFFFFFFFFFFFFFFFFFFFFFFFFFFFFFFFFFFFFF AND PUSH4 0xAABBB8CA DUP8 PUSH32 0xB281FC8C12954D22544DB45DE3159A39272895B169A852B314F9CC762E44C53B PUSH1 0x40 MLOAD DUP4 PUSH4 0xFFFFFFFF AND PUSH1 0xE0 SHL DUP2 MSTORE PUSH1 0x4 ADD PUSH2 0x1830 SWAP3 SWAP2 SWAP1 PUSH2 0x27F0 JUMP JUMPDEST PUSH1 0x20 PUSH1 0x40 MLOAD DUP1 DUP4 SUB DUP2 DUP7 GAS STATICCALL ISZERO DUP1 ISZERO PUSH2 0x184D JUMPI RETURNDATASIZE PUSH1 0x0 DUP1 RETURNDATACOPY RETURNDATASIZE PUSH1 0x0 REVERT JUMPDEST POP POP POP POP PUSH1 0x40 MLOAD RETURNDATASIZE PUSH1 0x1F NOT PUSH1 0x1F DUP3 ADD AND DUP3 ADD DUP1 PUSH1 0x40 MSTORE POP DUP2 ADD SWAP1 PUSH2 0x1871 SWAP2 SWAP1 PUSH2 0x282E JUMP JUMPDEST SWAP1 POP PUSH1 0x0 PUSH20 0xFFFFFFFFFFFFFFFFFFFFFFFFFFFFFFFFFFFFFFFF AND DUP2 PUSH20 0xFFFFFFFFFFFFFFFFFFFFFFFFFFFFFFFFFFFFFFFF AND EQ PUSH2 0x1920 JUMPI DUP1 PUSH20 0xFFFFFFFFFFFFFFFFFFFFFFFFFFFFFFFFFFFFFFFF AND PUSH3 0x23DE29 DUP10 DUP10 DUP10 DUP10 DUP10 DUP10 PUSH1 0x40 MLOAD DUP8 PUSH4 0xFFFFFFFF AND PUSH1 0xE0 SHL DUP2 MSTORE PUSH1 0x4 ADD PUSH2 0x18E9 SWAP7 SWAP6 SWAP5 SWAP4 SWAP3 SWAP2 SWAP1 PUSH2 0x285B JUMP JUMPDEST PUSH1 0x0 PUSH1 0x40 MLOAD DUP1 DUP4 SUB DUP2 PUSH1 0x0 DUP8 DUP1 EXTCODESIZE ISZERO DUP1 ISZERO PUSH2 0x1903 JUMPI PUSH1 0x0 DUP1 REVERT JUMPDEST POP GAS CALL ISZERO DUP1 ISZERO PUSH2 0x1917 JUMPI RETURNDATASIZE PUSH1 0x0 DUP1 RETURNDATACOPY RETURNDATASIZE PUSH1 0x0 REVERT JUMPDEST POP POP POP POP PUSH2 0x1987 JUMP JUMPDEST DUP2 ISZERO PUSH2 0x1986 JUMPI PUSH2 0x1945 DUP7 PUSH20 0xFFFFFFFFFFFFFFFFFFFFFFFFFFFFFFFFFFFFFFFF AND PUSH2 0x1997 JUMP JUMPDEST ISZERO PUSH2 0x1985 JUMPI PUSH1 0x40 MLOAD PUSH32 0x8C379A000000000000000000000000000000000000000000000000000000000 DUP2 MSTORE PUSH1 0x4 ADD PUSH2 0x197C SWAP1 PUSH2 0x2A28 JUMP JUMPDEST PUSH1 0x40 MLOAD DUP1 SWAP2 SUB SWAP1 REVERT JUMPDEST JUMPDEST JUMPDEST POP POP POP POP POP POP POP POP JUMP JUMPDEST POP POP POP POP JUMP JUMPDEST PUSH1 0x0 DUP1 DUP3 PUSH20 0xFFFFFFFFFFFFFFFFFFFFFFFFFFFFFFFFFFFFFFFF AND EXTCODESIZE GT SWAP1 POP SWAP2 SWAP1 POP JUMP JUMPDEST PUSH1 0x0 DUP2 MLOAD SWAP1 POP SWAP2 SWAP1 POP JUMP JUMPDEST PUSH1 0x0 DUP3 DUP3 MSTORE PUSH1 0x20 DUP3 ADD SWAP1 POP SWAP3 SWAP2 POP POP JUMP JUMPDEST PUSH1 0x0 DUP2 SWAP1 POP PUSH1 0x20 DUP3 ADD SWAP1 POP SWAP2 SWAP1 POP JUMP JUMPDEST PUSH1 0x0 PUSH20 0xFFFFFFFFFFFFFFFFFFFFFFFFFFFFFFFFFFFFFFFF DUP3 AND SWAP1 POP SWAP2 SWAP1 POP JUMP JUMPDEST PUSH1 0x0 PUSH2 0x1A11 DUP3 PUSH2 0x19E6 JUMP JUMPDEST SWAP1 POP SWAP2 SWAP1 POP JUMP JUMPDEST PUSH2 0x1A21 DUP2 PUSH2 0x1A06 JUMP JUMPDEST DUP3 MSTORE POP POP JUMP JUMPDEST PUSH1 0x0 PUSH2 0x1A33 DUP4 DUP4 PUSH2 0x1A18 JUMP JUMPDEST PUSH1 0x20 DUP4 ADD SWAP1 POP SWAP3 SWAP2 POP POP JUMP JUMPDEST PUSH1 0x0 PUSH1 0x20 DUP3 ADD SWAP1 POP SWAP2 SWAP1 POP JUMP JUMPDEST PUSH1 0x0 PUSH2 0x1A57 DUP3 PUSH2 0x19BA JUMP JUMPDEST PUSH2 0x1A61 DUP2 DUP6 PUSH2 0x19C5 JUMP JUMPDEST SWAP4 POP PUSH2 0x1A6C DUP4 PUSH2 0x19D6 JUMP JUMPDEST DUP1 PUSH1 0x0 JUMPDEST DUP4 DUP2 LT ISZERO PUSH2 0x1A9D JUMPI DUP2 MLOAD PUSH2 0x1A84 DUP9 DUP3 PUSH2 0x1A27 JUMP JUMPDEST SWAP8 POP PUSH2 0x1A8F DUP4 PUSH2 0x1A3F JUMP JUMPDEST SWAP3 POP POP PUSH1 0x1 DUP2 ADD SWAP1 POP PUSH2 0x1A70 JUMP JUMPDEST POP DUP6 SWAP4 POP POP POP POP SWAP3 SWAP2 POP POP JUMP JUMPDEST PUSH1 0x0 PUSH1 0x20 DUP3 ADD SWAP1 POP DUP2 DUP2 SUB PUSH1 0x0 DUP4 ADD MSTORE PUSH2 0x1AC4 DUP2 DUP5 PUSH2 0x1A4C JUMP JUMPDEST SWAP1 POP SWAP3 SWAP2 POP POP JUMP JUMPDEST PUSH1 0x0 DUP2 MLOAD SWAP1 POP SWAP2 SWAP1 POP JUMP JUMPDEST PUSH1 0x0 DUP3 DUP3 MSTORE PUSH1 0x20 DUP3 ADD SWAP1 POP SWAP3 SWAP2 POP POP JUMP JUMPDEST PUSH1 0x0 JUMPDEST DUP4 DUP2 LT ISZERO PUSH2 0x1B06 JUMPI DUP1 DUP3 ADD MLOAD DUP2 DUP5 ADD MSTORE PUSH1 0x20 DUP2 ADD SWAP1 POP PUSH2 0x1AEB JUMP JUMPDEST PUSH1 0x0 DUP5 DUP5 ADD MSTORE POP POP POP POP JUMP JUMPDEST PUSH1 0x0 PUSH1 0x1F NOT PUSH1 0x1F DUP4 ADD AND SWAP1 POP SWAP2 SWAP1 POP JUMP JUMPDEST PUSH1 0x0 PUSH2 0x1B2E DUP3 PUSH2 0x1ACC JUMP JUMPDEST PUSH2 0x1B38 DUP2 DUP6 PUSH2 0x1AD7 JUMP JUMPDEST SWAP4 POP PUSH2 0x1B48 DUP2 DUP6 PUSH1 0x20 DUP7 ADD PUSH2 0x1AE8 JUMP JUMPDEST PUSH2 0x1B51 DUP2 PUSH2 0x1B12 JUMP JUMPDEST DUP5 ADD SWAP2 POP POP SWAP3 SWAP2 POP POP JUMP JUMPDEST PUSH1 0x0 PUSH1 0x20 DUP3 ADD SWAP1 POP DUP2 DUP2 SUB PUSH1 0x0 DUP4 ADD MSTORE PUSH2 0x1B76 DUP2 DUP5 PUSH2 0x1B23 JUMP JUMPDEST SWAP1 POP SWAP3 SWAP2 POP POP JUMP JUMPDEST PUSH1 0x0 PUSH1 0x40 MLOAD SWAP1 POP SWAP1 JUMP JUMPDEST PUSH1 0x0 DUP1 REVERT JUMPDEST PUSH1 0x0 DUP1 REVERT JUMPDEST PUSH2 0x1B9B DUP2 PUSH2 0x1A06 JUMP JUMPDEST DUP2 EQ PUSH2 0x1BA6 JUMPI PUSH1 0x0 DUP1 REVERT JUMPDEST POP JUMP JUMPDEST PUSH1 0x0 DUP2 CALLDATALOAD SWAP1 POP PUSH2 0x1BB8 DUP2 PUSH2 0x1B92 JUMP JUMPDEST SWAP3 SWAP2 POP POP JUMP JUMPDEST PUSH1 0x0 DUP2 SWAP1 POP SWAP2 SWAP1 POP JUMP JUMPDEST PUSH2 0x1BD1 DUP2 PUSH2 0x1BBE JUMP JUMPDEST DUP2 EQ PUSH2 0x1BDC JUMPI PUSH1 0x0 DUP1 REVERT JUMPDEST POP JUMP JUMPDEST PUSH1 0x0 DUP2 CALLDATALOAD SWAP1 POP PUSH2 0x1BEE DUP2 PUSH2 0x1BC8 JUMP JUMPDEST SWAP3 SWAP2 POP POP JUMP JUMPDEST PUSH1 0x0 DUP1 PUSH1 0x40 DUP4 DUP6 SUB SLT ISZERO PUSH2 0x1C0B JUMPI PUSH2 0x1C0A PUSH2 0x1B88 JUMP JUMPDEST JUMPDEST PUSH1 0x0 PUSH2 0x1C19 DUP6 DUP3 DUP7 ADD PUSH2 0x1BA9 JUMP JUMPDEST SWAP3 POP POP PUSH1 0x20 PUSH2 0x1C2A DUP6 DUP3 DUP7 ADD PUSH2 0x1BDF JUMP JUMPDEST SWAP2 POP POP SWAP3 POP SWAP3 SWAP1 POP JUMP JUMPDEST PUSH1 0x0 DUP2 ISZERO ISZERO SWAP1 POP SWAP2 SWAP1 POP JUMP JUMPDEST PUSH2 0x1C49 DUP2 PUSH2 0x1C34 JUMP JUMPDEST DUP3 MSTORE POP POP JUMP JUMPDEST PUSH1 0x0 PUSH1 0x20 DUP3 ADD SWAP1 POP PUSH2 0x1C64 PUSH1 0x0 DUP4 ADD DUP5 PUSH2 0x1C40 JUMP JUMPDEST SWAP3 SWAP2 POP POP JUMP JUMPDEST PUSH2 0x1C73 DUP2 PUSH2 0x1BBE JUMP JUMPDEST DUP3 MSTORE POP POP JUMP JUMPDEST PUSH1 0x0 PUSH1 0x20 DUP3 ADD SWAP1 POP PUSH2 0x1C8E PUSH1 0x0 DUP4 ADD DUP5 PUSH2 0x1C6A JUMP JUMPDEST SWAP3 SWAP2 POP POP JUMP JUMPDEST PUSH1 0x0 DUP1 PUSH1 0x0 PUSH1 0x60 DUP5 DUP7 SUB SLT ISZERO PUSH2 0x1CAD JUMPI PUSH2 0x1CAC PUSH2 0x1B88 JUMP JUMPDEST JUMPDEST PUSH1 0x0 PUSH2 0x1CBB DUP7 DUP3 DUP8 ADD PUSH2 0x1BA9 JUMP JUMPDEST SWAP4 POP POP PUSH1 0x20 PUSH2 0x1CCC DUP7 DUP3 DUP8 ADD PUSH2 0x1BA9 JUMP JUMPDEST SWAP3 POP POP PUSH1 0x40 PUSH2 0x1CDD DUP7 DUP3 DUP8 ADD PUSH2 0x1BDF JUMP JUMPDEST SWAP2 POP POP SWAP3 POP SWAP3 POP SWAP3 JUMP JUMPDEST PUSH1 0x0 PUSH1 0xFF DUP3 AND SWAP1 POP SWAP2 SWAP1 POP JUMP JUMPDEST PUSH2 0x1CFD DUP2 PUSH2 0x1CE7 JUMP JUMPDEST DUP3 MSTORE POP POP JUMP JUMPDEST PUSH1 0x0 PUSH1 0x20 DUP3 ADD SWAP1 POP PUSH2 0x1D18 PUSH1 0x0 DUP4 ADD DUP5 PUSH2 0x1CF4 JUMP JUMPDEST SWAP3 SWAP2 POP POP JUMP JUMPDEST PUSH1 0x0 DUP1 REVERT JUMPDEST PUSH1 0x0 DUP1 REVERT JUMPDEST PUSH32 0x4E487B7100000000000000000000000000000000000000000000000000000000 PUSH1 0x0 MSTORE PUSH1 0x41 PUSH1 0x4 MSTORE PUSH1 0x24 PUSH1 0x0 REVERT JUMPDEST PUSH2 0x1D60 DUP3 PUSH2 0x1B12 JUMP JUMPDEST DUP2 ADD DUP2 DUP2 LT PUSH8 0xFFFFFFFFFFFFFFFF DUP3 GT OR ISZERO PUSH2 0x1D7F JUMPI PUSH2 0x1D7E PUSH2 0x1D28 JUMP JUMPDEST JUMPDEST DUP1 PUSH1 0x40 MSTORE POP POP POP JUMP JUMPDEST PUSH1 0x0 PUSH2 0x1D92 PUSH2 0x1B7E JUMP JUMPDEST SWAP1 POP PUSH2 0x1D9E DUP3 DUP3 PUSH2 0x1D57 JUMP JUMPDEST SWAP2 SWAP1 POP JUMP JUMPDEST PUSH1 0x0 PUSH8 0xFFFFFFFFFFFFFFFF DUP3 GT ISZERO PUSH2 0x1DBE JUMPI PUSH2 0x1DBD PUSH2 0x1D28 JUMP JUMPDEST JUMPDEST PUSH2 0x1DC7 DUP3 PUSH2 0x1B12 JUMP JUMPDEST SWAP1 POP PUSH1 0x20 DUP2 ADD SWAP1 POP SWAP2 SWAP1 POP JUMP JUMPDEST DUP3 DUP2 DUP4 CALLDATACOPY PUSH1 0x0 DUP4 DUP4 ADD MSTORE POP POP POP JUMP JUMPDEST PUSH1 0x0 PUSH2 0x1DF6 PUSH2 0x1DF1 DUP5 PUSH2 0x1DA3 JUMP JUMPDEST PUSH2 0x1D88 JUMP JUMPDEST SWAP1 POP DUP3 DUP2 MSTORE PUSH1 0x20 DUP2 ADD DUP5 DUP5 DUP5 ADD GT ISZERO PUSH2 0x1E12 JUMPI PUSH2 0x1E11 PUSH2 0x1D23 JUMP JUMPDEST JUMPDEST PUSH2 0x1E1D DUP5 DUP3 DUP6 PUSH2 0x1DD4 JUMP JUMPDEST POP SWAP4 SWAP3 POP POP POP JUMP JUMPDEST PUSH1 0x0 DUP3 PUSH1 0x1F DUP4 ADD SLT PUSH2 0x1E3A JUMPI PUSH2 0x1E39 PUSH2 0x1D1E JUMP JUMPDEST JUMPDEST DUP2 CALLDATALOAD PUSH2 0x1E4A DUP5 DUP3 PUSH1 0x20 DUP7 ADD PUSH2 0x1DE3 JUMP JUMPDEST SWAP2 POP POP SWAP3 SWAP2 POP POP JUMP JUMPDEST PUSH1 0x0 DUP1 PUSH1 0x0 DUP1 PUSH1 0x0 PUSH1 0xA0 DUP7 DUP9 SUB SLT ISZERO PUSH2 0x1E6F JUMPI PUSH2 0x1E6E PUSH2 0x1B88 JUMP JUMPDEST JUMPDEST PUSH1 0x0 PUSH2 0x1E7D DUP9 DUP3 DUP10 ADD PUSH2 0x1BA9 JUMP JUMPDEST SWAP6 POP POP PUSH1 0x20 PUSH2 0x1E8E DUP9 DUP3 DUP10 ADD PUSH2 0x1BA9 JUMP JUMPDEST SWAP5 POP POP PUSH1 0x40 PUSH2 0x1E9F DUP9 DUP3 DUP10 ADD PUSH2 0x1BDF JUMP JUMPDEST SWAP4 POP POP PUSH1 0x60 DUP7 ADD CALLDATALOAD PUSH8 0xFFFFFFFFFFFFFFFF DUP2 GT ISZERO PUSH2 0x1EC0 JUMPI PUSH2 0x1EBF PUSH2 0x1B8D JUMP JUMPDEST JUMPDEST PUSH2 0x1ECC DUP9 DUP3 DUP10 ADD PUSH2 0x1E25 JUMP JUMPDEST SWAP3 POP POP PUSH1 0x80 DUP7 ADD CALLDATALOAD PUSH8 0xFFFFFFFFFFFFFFFF DUP2 GT ISZERO PUSH2 0x1EED JUMPI PUSH2 0x1EEC PUSH2 0x1B8D JUMP JUMPDEST JUMPDEST PUSH2 0x1EF9 DUP9 DUP3 DUP10 ADD PUSH2 0x1E25 JUMP JUMPDEST SWAP2 POP POP SWAP3 SWAP6 POP SWAP3 SWAP6 SWAP1 SWAP4 POP JUMP JUMPDEST PUSH1 0x0 PUSH1 0x20 DUP3 DUP5 SUB SLT ISZERO PUSH2 0x1F1C JUMPI PUSH2 0x1F1B PUSH2 0x1B88 JUMP JUMPDEST JUMPDEST PUSH1 0x0 PUSH2 0x1F2A DUP5 DUP3 DUP6 ADD PUSH2 0x1BA9 JUMP JUMPDEST SWAP2 POP POP SWAP3 SWAP2 POP POP JUMP JUMPDEST PUSH1 0x0 DUP1 PUSH1 0x0 PUSH1 0x60 DUP5 DUP7 SUB SLT ISZERO PUSH2 0x1F4C JUMPI PUSH2 0x1F4B PUSH2 0x1B88 JUMP JUMPDEST JUMPDEST PUSH1 0x0 PUSH2 0x1F5A DUP7 DUP3 DUP8 ADD PUSH2 0x1BA9 JUMP JUMPDEST SWAP4 POP POP PUSH1 0x20 PUSH2 0x1F6B DUP7 DUP3 DUP8 ADD PUSH2 0x1BDF JUMP JUMPDEST SWAP3 POP POP PUSH1 0x40 DUP5 ADD CALLDATALOAD PUSH8 0xFFFFFFFFFFFFFFFF DUP2 GT ISZERO PUSH2 0x1F8C JUMPI PUSH2 0x1F8B PUSH2 0x1B8D JUMP JUMPDEST JUMPDEST PUSH2 0x1F98 DUP7 DUP3 DUP8 ADD PUSH2 0x1E25 JUMP JUMPDEST SWAP2 POP POP SWAP3 POP SWAP3 POP SWAP3 JUMP JUMPDEST PUSH1 0x0 DUP1 PUSH1 0x40 DUP4 DUP6 SUB SLT ISZERO PUSH2 0x1FB9 JUMPI PUSH2 0x1FB8 PUSH2 0x1B88 JUMP JUMPDEST JUMPDEST PUSH1 0x0 PUSH2 0x1FC7 DUP6 DUP3 DUP7 ADD PUSH2 0x1BA9 JUMP JUMPDEST SWAP3 POP POP PUSH1 0x20 PUSH2 0x1FD8 DUP6 DUP3 DUP7 ADD PUSH2 0x1BA9 JUMP JUMPDEST SWAP2 POP POP SWAP3 POP SWAP3 SWAP1 POP JUMP JUMPDEST PUSH1 0x0 DUP1 PUSH1 0x0 DUP1 PUSH1 0x80 DUP6 DUP8 SUB SLT ISZERO PUSH2 0x1FFC JUMPI PUSH2 0x1FFB PUSH2 0x1B88 JUMP JUMPDEST JUMPDEST PUSH1 0x0 PUSH2 0x200A DUP8 DUP3 DUP9 ADD PUSH2 0x1BA9 JUMP JUMPDEST SWAP5 POP POP PUSH1 0x20 PUSH2 0x201B DUP8 DUP3 DUP9 ADD PUSH2 0x1BDF JUMP JUMPDEST SWAP4 POP POP PUSH1 0x40 DUP6 ADD CALLDATALOAD PUSH8 0xFFFFFFFFFFFFFFFF DUP2 GT ISZERO PUSH2 0x203C JUMPI PUSH2 0x203B PUSH2 0x1B8D JUMP JUMPDEST JUMPDEST PUSH2 0x2048 DUP8 DUP3 DUP9 ADD PUSH2 0x1E25 JUMP JUMPDEST SWAP3 POP POP PUSH1 0x60 DUP6 ADD CALLDATALOAD PUSH8 0xFFFFFFFFFFFFFFFF DUP2 GT ISZERO PUSH2 0x2069 JUMPI PUSH2 0x2068 PUSH2 0x1B8D JUMP JUMPDEST JUMPDEST PUSH2 0x2075 DUP8 DUP3 DUP9 ADD PUSH2 0x1E25 JUMP JUMPDEST SWAP2 POP POP SWAP3 SWAP6 SWAP2 SWAP5 POP SWAP3 POP JUMP JUMPDEST PUSH1 0x0 DUP1 PUSH1 0x40 DUP4 DUP6 SUB SLT ISZERO PUSH2 0x2098 JUMPI PUSH2 0x2097 PUSH2 0x1B88 JUMP JUMPDEST JUMPDEST PUSH1 0x0 PUSH2 0x20A6 DUP6 DUP3 DUP7 ADD PUSH2 0x1BDF JUMP JUMPDEST SWAP3 POP POP PUSH1 0x20 DUP4 ADD CALLDATALOAD PUSH8 0xFFFFFFFFFFFFFFFF DUP2 GT ISZERO PUSH2 0x20C7 JUMPI PUSH2 0x20C6 PUSH2 0x1B8D JUMP JUMPDEST JUMPDEST PUSH2 0x20D3 DUP6 DUP3 DUP7 ADD PUSH2 0x1E25 JUMP JUMPDEST SWAP2 POP POP SWAP3 POP SWAP3 SWAP1 POP JUMP JUMPDEST PUSH32 0x4E487B7100000000000000000000000000000000000000000000000000000000 PUSH1 0x0 MSTORE PUSH1 0x22 PUSH1 0x4 MSTORE PUSH1 0x24 PUSH1 0x0 REVERT JUMPDEST PUSH1 0x0 PUSH1 0x2 DUP3 DIV SWAP1 POP PUSH1 0x1 DUP3 AND DUP1 PUSH2 0x2124 JUMPI PUSH1 0x7F DUP3 AND SWAP2 POP JUMPDEST PUSH1 0x20 DUP3 LT DUP2 SUB PUSH2 0x2137 JUMPI PUSH2 0x2136 PUSH2 0x20DD JUMP JUMPDEST JUMPDEST POP SWAP2 SWAP1 POP JUMP JUMPDEST PUSH32 0x4552433737373A2063616C6C6572206973206E6F7420616E206F70657261746F PUSH1 0x0 DUP3 ADD MSTORE PUSH32 0x7220666F7220686F6C6465720000000000000000000000000000000000000000 PUSH1 0x20 DUP3 ADD MSTORE POP JUMP JUMPDEST PUSH1 0x0 PUSH2 0x2199 PUSH1 0x2C DUP4 PUSH2 0x1AD7 JUMP JUMPDEST SWAP2 POP PUSH2 0x21A4 DUP3 PUSH2 0x213D JUMP JUMPDEST PUSH1 0x40 DUP3 ADD SWAP1 POP SWAP2 SWAP1 POP JUMP JUMPDEST PUSH1 0x0 PUSH1 0x20 DUP3 ADD SWAP1 POP DUP2 DUP2 SUB PUSH1 0x0 DUP4 ADD MSTORE PUSH2 0x21C8 DUP2 PUSH2 0x218C JUMP JUMPDEST SWAP1 POP SWAP2 SWAP1 POP JUMP JUMPDEST PUSH32 0x4552433737373A20617574686F72697A696E672073656C66206173206F706572 PUSH1 0x0 DUP3 ADD MSTORE PUSH32 0x61746F7200000000000000000000000000000000000000000000000000000000 PUSH1 0x20 DUP3 ADD MSTORE POP JUMP JUMPDEST PUSH1 0x0 PUSH2 0x222B PUSH1 0x24 DUP4 PUSH2 0x1AD7 JUMP JUMPDEST SWAP2 POP PUSH2 0x2236 DUP3 PUSH2 0x21CF JUMP JUMPDEST PUSH1 0x40 DUP3 ADD SWAP1 POP SWAP2 SWAP1 POP JUMP JUMPDEST PUSH1 0x0 PUSH1 0x20 DUP3 ADD SWAP1 POP DUP2 DUP2 SUB PUSH1 0x0 DUP4 ADD MSTORE PUSH2 0x225A DUP2 PUSH2 0x221E JUMP JUMPDEST SWAP1 POP SWAP2 SWAP1 POP JUMP JUMPDEST PUSH32 0x4552433737373A207265766F6B696E672073656C66206173206F70657261746F PUSH1 0x0 DUP3 ADD MSTORE PUSH32 0x7200000000000000000000000000000000000000000000000000000000000000 PUSH1 0x20 DUP3 ADD MSTORE POP JUMP JUMPDEST PUSH1 0x0 PUSH2 0x22BD PUSH1 0x21 DUP4 PUSH2 0x1AD7 JUMP JUMPDEST SWAP2 POP PUSH2 0x22C8 DUP3 PUSH2 0x2261 JUMP JUMPDEST PUSH1 0x40 DUP3 ADD SWAP1 POP SWAP2 SWAP1 POP JUMP JUMPDEST PUSH1 0x0 PUSH1 0x20 DUP3 ADD SWAP1 POP DUP2 DUP2 SUB PUSH1 0x0 DUP4 ADD MSTORE PUSH2 0x22EC DUP2 PUSH2 0x22B0 JUMP JUMPDEST SWAP1 POP SWAP2 SWAP1 POP JUMP JUMPDEST PUSH32 0x4552433737373A20617070726F76652066726F6D20746865207A65726F206164 PUSH1 0x0 DUP3 ADD MSTORE PUSH32 0x6472657373000000000000000000000000000000000000000000000000000000 PUSH1 0x20 DUP3 ADD MSTORE POP JUMP JUMPDEST PUSH1 0x0 PUSH2 0x234F PUSH1 0x25 DUP4 PUSH2 0x1AD7 JUMP JUMPDEST SWAP2 POP PUSH2 0x235A DUP3 PUSH2 0x22F3 JUMP JUMPDEST PUSH1 0x40 DUP3 ADD SWAP1 POP SWAP2 SWAP1 POP JUMP JUMPDEST PUSH1 0x0 PUSH1 0x20 DUP3 ADD SWAP1 POP DUP2 DUP2 SUB PUSH1 0x0 DUP4 ADD MSTORE PUSH2 0x237E DUP2 PUSH2 0x2342 JUMP JUMPDEST SWAP1 POP SWAP2 SWAP1 POP JUMP JUMPDEST PUSH32 0x4552433737373A20617070726F766520746F20746865207A65726F2061646472 PUSH1 0x0 DUP3 ADD MSTORE PUSH32 0x6573730000000000000000000000000000000000000000000000000000000000 PUSH1 0x20 DUP3 ADD MSTORE POP JUMP JUMPDEST PUSH1 0x0 PUSH2 0x23E1 PUSH1 0x23 DUP4 PUSH2 0x1AD7 JUMP JUMPDEST SWAP2 POP PUSH2 0x23EC DUP3 PUSH2 0x2385 JUMP JUMPDEST PUSH1 0x40 DUP3 ADD SWAP1 POP SWAP2 SWAP1 POP JUMP JUMPDEST PUSH1 0x0 PUSH1 0x20 DUP3 ADD SWAP1 POP DUP2 DUP2 SUB PUSH1 0x0 DUP4 ADD MSTORE PUSH2 0x2410 DUP2 PUSH2 0x23D4 JUMP JUMPDEST SWAP1 POP SWAP2 SWAP1 POP JUMP JUMPDEST PUSH32 0x4552433737373A20696E73756666696369656E7420616C6C6F77616E63650000 PUSH1 0x0 DUP3 ADD MSTORE POP JUMP JUMPDEST PUSH1 0x0 PUSH2 0x244D PUSH1 0x1E DUP4 PUSH2 0x1AD7 JUMP JUMPDEST SWAP2 POP PUSH2 0x2458 DUP3 PUSH2 0x2417 JUMP JUMPDEST PUSH1 0x20 DUP3 ADD SWAP1 POP SWAP2 SWAP1 POP JUMP JUMPDEST PUSH1 0x0 PUSH1 0x20 DUP3 ADD SWAP1 POP DUP2 DUP2 SUB PUSH1 0x0 DUP4 ADD MSTORE PUSH2 0x247C DUP2 PUSH2 0x2440 JUMP JUMPDEST SWAP1 POP SWAP2 SWAP1 POP JUMP JUMPDEST PUSH32 0x4552433737373A207472616E736665722066726F6D20746865207A65726F2061 PUSH1 0x0 DUP3 ADD MSTORE PUSH32 0x6464726573730000000000000000000000000000000000000000000000000000 PUSH1 0x20 DUP3 ADD MSTORE POP JUMP JUMPDEST PUSH1 0x0 PUSH2 0x24DF PUSH1 0x26 DUP4 PUSH2 0x1AD7 JUMP JUMPDEST SWAP2 POP PUSH2 0x24EA DUP3 PUSH2 0x2483 JUMP JUMPDEST PUSH1 0x40 DUP3 ADD SWAP1 POP SWAP2 SWAP1 POP JUMP JUMPDEST PUSH1 0x0 PUSH1 0x20 DUP3 ADD SWAP1 POP DUP2 DUP2 SUB PUSH1 0x0 DUP4 ADD MSTORE PUSH2 0x250E DUP2 PUSH2 0x24D2 JUMP JUMPDEST SWAP1 POP SWAP2 SWAP1 POP JUMP JUMPDEST PUSH32 0x4552433737373A207472616E7366657220746F20746865207A65726F20616464 PUSH1 0x0 DUP3 ADD MSTORE PUSH32 0x7265737300000000000000000000000000000000000000000000000000000000 PUSH1 0x20 DUP3 ADD MSTORE POP JUMP JUMPDEST PUSH1 0x0 PUSH2 0x2571 PUSH1 0x24 DUP4 PUSH2 0x1AD7 JUMP JUMPDEST SWAP2 POP PUSH2 0x257C DUP3 PUSH2 0x2515 JUMP JUMPDEST PUSH1 0x40 DUP3 ADD SWAP1 POP SWAP2 SWAP1 POP JUMP JUMPDEST PUSH1 0x0 PUSH1 0x20 DUP3 ADD SWAP1 POP DUP2 DUP2 SUB PUSH1 0x0 DUP4 ADD MSTORE PUSH2 0x25A0 DUP2 PUSH2 0x2564 JUMP JUMPDEST SWAP1 POP SWAP2 SWAP1 POP JUMP JUMPDEST PUSH32 0x4552433737373A206275726E2066726F6D20746865207A65726F206164647265 PUSH1 0x0 DUP3 ADD MSTORE PUSH32 0x7373000000000000000000000000000000000000000000000000000000000000 PUSH1 0x20 DUP3 ADD MSTORE POP JUMP JUMPDEST PUSH1 0x0 PUSH2 0x2603 PUSH1 0x22 DUP4 PUSH2 0x1AD7 JUMP JUMPDEST SWAP2 POP PUSH2 0x260E DUP3 PUSH2 0x25A7 JUMP JUMPDEST PUSH1 0x40 DUP3 ADD SWAP1 POP SWAP2 SWAP1 POP JUMP JUMPDEST PUSH1 0x0 PUSH1 0x20 DUP3 ADD SWAP1 POP DUP2 DUP2 SUB PUSH1 0x0 DUP4 ADD MSTORE PUSH2 0x2632 DUP2 PUSH2 0x25F6 JUMP JUMPDEST SWAP1 POP SWAP2 SWAP1 POP JUMP JUMPDEST PUSH32 0x4552433737373A206275726E20616D6F756E7420657863656564732062616C61 PUSH1 0x0 DUP3 ADD MSTORE PUSH32 0x6E63650000000000000000000000000000000000000000000000000000000000 PUSH1 0x20 DUP3 ADD MSTORE POP JUMP JUMPDEST PUSH1 0x0 PUSH2 0x2695 PUSH1 0x23 DUP4 PUSH2 0x1AD7 JUMP JUMPDEST SWAP2 POP PUSH2 0x26A0 DUP3 PUSH2 0x2639 JUMP JUMPDEST PUSH1 0x40 DUP3 ADD SWAP1 POP SWAP2 SWAP1 POP JUMP JUMPDEST PUSH1 0x0 PUSH1 0x20 DUP3 ADD SWAP1 POP DUP2 DUP2 SUB PUSH1 0x0 DUP4 ADD MSTORE PUSH2 0x26C4 DUP2 PUSH2 0x2688 JUMP JUMPDEST SWAP1 POP SWAP2 SWAP1 POP JUMP JUMPDEST PUSH32 0x4E487B7100000000000000000000000000000000000000000000000000000000 PUSH1 0x0 MSTORE PUSH1 0x11 PUSH1 0x4 MSTORE PUSH1 0x24 PUSH1 0x0 REVERT JUMPDEST PUSH1 0x0 PUSH2 0x2705 DUP3 PUSH2 0x1BBE JUMP JUMPDEST SWAP2 POP PUSH2 0x2710 DUP4 PUSH2 0x1BBE JUMP JUMPDEST SWAP3 POP DUP3 DUP3 SUB SWAP1 POP DUP2 DUP2 GT ISZERO PUSH2 0x2728 JUMPI PUSH2 0x2727 PUSH2 0x26CB JUMP JUMPDEST JUMPDEST SWAP3 SWAP2 POP POP JUMP JUMPDEST PUSH1 0x0 DUP2 MLOAD SWAP1 POP SWAP2 SWAP1 POP JUMP JUMPDEST PUSH1 0x0 DUP3 DUP3 MSTORE PUSH1 0x20 DUP3 ADD SWAP1 POP SWAP3 SWAP2 POP POP JUMP JUMPDEST PUSH1 0x0 PUSH2 0x2755 DUP3 PUSH2 0x272E JUMP JUMPDEST PUSH2 0x275F DUP2 DUP6 PUSH2 0x2739 JUMP JUMPDEST SWAP4 POP PUSH2 0x276F DUP2 DUP6 PUSH1 0x20 DUP7 ADD PUSH2 0x1AE8 JUMP JUMPDEST PUSH2 0x2778 DUP2 PUSH2 0x1B12 JUMP JUMPDEST DUP5 ADD SWAP2 POP POP SWAP3 SWAP2 POP POP JUMP JUMPDEST PUSH1 0x0 PUSH1 0x60 DUP3 ADD SWAP1 POP PUSH2 0x2798 PUSH1 0x0 DUP4 ADD DUP7 PUSH2 0x1C6A JUMP JUMPDEST DUP2 DUP2 SUB PUSH1 0x20 DUP4 ADD MSTORE PUSH2 0x27AA DUP2 DUP6 PUSH2 0x274A JUMP JUMPDEST SWAP1 POP DUP2 DUP2 SUB PUSH1 0x40 DUP4 ADD MSTORE PUSH2 0x27BE DUP2 DUP5 PUSH2 0x274A JUMP JUMPDEST SWAP1 POP SWAP5 SWAP4 POP POP POP POP JUMP JUMPDEST PUSH2 0x27D1 DUP2 PUSH2 0x1A06 JUMP JUMPDEST DUP3 MSTORE POP POP JUMP JUMPDEST PUSH1 0x0 DUP2 SWAP1 POP SWAP2 SWAP1 POP JUMP JUMPDEST PUSH2 0x27EA DUP2 PUSH2 0x27D7 JUMP JUMPDEST DUP3 MSTORE POP POP JUMP JUMPDEST PUSH1 0x0 PUSH1 0x40 DUP3 ADD SWAP1 POP PUSH2 0x2805 PUSH1 0x0 DUP4 ADD DUP6 PUSH2 0x27C8 JUMP JUMPDEST PUSH2 0x2812 PUSH1 0x20 DUP4 ADD DUP5 PUSH2 0x27E1 JUMP JUMPDEST SWAP4 SWAP3 POP POP POP JUMP JUMPDEST PUSH1 0x0 DUP2 MLOAD SWAP1 POP PUSH2 0x2828 DUP2 PUSH2 0x1B92 JUMP JUMPDEST SWAP3 SWAP2 POP POP JUMP JUMPDEST PUSH1 0x0 PUSH1 0x20 DUP3 DUP5 SUB SLT ISZERO PUSH2 0x2844 JUMPI PUSH2 0x2843 PUSH2 0x1B88 JUMP JUMPDEST JUMPDEST PUSH1 0x0 PUSH2 0x2852 DUP5 DUP3 DUP6 ADD PUSH2 0x2819 JUMP JUMPDEST SWAP2 POP POP SWAP3 SWAP2 POP POP JUMP JUMPDEST PUSH1 0x0 PUSH1 0xC0 DUP3 ADD SWAP1 POP PUSH2 0x2870 PUSH1 0x0 DUP4 ADD DUP10 PUSH2 0x27C8 JUMP JUMPDEST PUSH2 0x287D PUSH1 0x20 DUP4 ADD DUP9 PUSH2 0x27C8 JUMP JUMPDEST PUSH2 0x288A PUSH1 0x40 DUP4 ADD DUP8 PUSH2 0x27C8 JUMP JUMPDEST PUSH2 0x2897 PUSH1 0x60 DUP4 ADD DUP7 PUSH2 0x1C6A JUMP JUMPDEST DUP2 DUP2 SUB PUSH1 0x80 DUP4 ADD MSTORE PUSH2 0x28A9 DUP2 DUP6 PUSH2 0x274A JUMP JUMPDEST SWAP1 POP DUP2 DUP2 SUB PUSH1 0xA0 DUP4 ADD MSTORE PUSH2 0x28BD DUP2 DUP5 PUSH2 0x274A JUMP JUMPDEST SWAP1 POP SWAP8 SWAP7 POP POP POP POP POP POP POP JUMP JUMPDEST PUSH32 0x4552433737373A207472616E7366657220616D6F756E74206578636565647320 PUSH1 0x0 DUP3 ADD MSTORE PUSH32 0x62616C616E636500000000000000000000000000000000000000000000000000 PUSH1 0x20 DUP3 ADD MSTORE POP JUMP JUMPDEST PUSH1 0x0 PUSH2 0x2926 PUSH1 0x27 DUP4 PUSH2 0x1AD7 JUMP JUMPDEST SWAP2 POP PUSH2 0x2931 DUP3 PUSH2 0x28CA JUMP JUMPDEST PUSH1 0x40 DUP3 ADD SWAP1 POP SWAP2 SWAP1 POP JUMP JUMPDEST PUSH1 0x0 PUSH1 0x20 DUP3 ADD SWAP1 POP DUP2 DUP2 SUB PUSH1 0x0 DUP4 ADD MSTORE PUSH2 0x2955 DUP2 PUSH2 0x2919 JUMP JUMPDEST SWAP1 POP SWAP2 SWAP1 POP JUMP JUMPDEST PUSH1 0x0 PUSH2 0x2967 DUP3 PUSH2 0x1BBE JUMP JUMPDEST SWAP2 POP PUSH2 0x2972 DUP4 PUSH2 0x1BBE JUMP JUMPDEST SWAP3 POP DUP3 DUP3 ADD SWAP1 POP DUP1 DUP3 GT ISZERO PUSH2 0x298A JUMPI PUSH2 0x2989 PUSH2 0x26CB JUMP JUMPDEST JUMPDEST SWAP3 SWAP2 POP POP JUMP JUMPDEST PUSH32 0x4552433737373A20746F6B656E20726563697069656E7420636F6E7472616374 PUSH1 0x0 DUP3 ADD MSTORE PUSH32 0x20686173206E6F20696D706C656D656E74657220666F7220455243373737546F PUSH1 0x20 DUP3 ADD MSTORE PUSH32 0x6B656E73526563697069656E7400000000000000000000000000000000000000 PUSH1 0x40 DUP3 ADD MSTORE POP JUMP JUMPDEST PUSH1 0x0 PUSH2 0x2A12 PUSH1 0x4D DUP4 PUSH2 0x1AD7 JUMP JUMPDEST SWAP2 POP PUSH2 0x2A1D DUP3 PUSH2 0x2990 JUMP JUMPDEST PUSH1 0x60 DUP3 ADD SWAP1 POP SWAP2 SWAP1 POP JUMP JUMPDEST PUSH1 0x0 PUSH1 0x20 DUP3 ADD SWAP1 POP DUP2 DUP2 SUB PUSH1 0x0 DUP4 ADD MSTORE PUSH2 0x2A41 DUP2 PUSH2 0x2A05 JUMP JUMPDEST SWAP1 POP SWAP2 SWAP1 POP JUMP INVALID LOG2 PUSH5 0x6970667358 0x22 SLT KECCAK256 EQ 0xE1 EXP DUP14 CALLVALUE SWAP1 RETURNDATACOPY EQ 0x2F NUMBER 0xC1 PUSH28 0xE012419CB01A52347E233C23A63D3DE79E661D964736F6C63430008 SLT STOP CALLER "
				},
				"gasEstimates": {
					"creation": {
						"codeDepositCost": "2175600",
						"executionCost": "infinite",
						"totalCost": "infinite"
					},
					"external": {
						"allowance(address,address)": "infinite",
						"approve(address,uint256)": "infinite",
						"authorizeOperator(address)": "infinite",
						"balanceOf(address)": "2952",
						"burn(uint256,bytes)": "infinite",
						"decimals()": "388",
						"defaultOperators()": "infinite",
						"granularity()": "404",
						"isOperatorFor(address,address)": "infinite",
						"name()": "infinite",
						"operatorBurn(address,uint256,bytes,bytes)": "infinite",
						"operatorSend(address,address,uint256,bytes,bytes)": "infinite",
						"revokeOperator(address)": "infinite",
						"send(address,uint256,bytes)": "infinite",
						"symbol()": "infinite",
						"totalSupply()": "2527",
						"transfer(address,uint256)": "infinite",
						"transferFrom(address,address,uint256)": "infinite"
					},
					"internal": {
						"_approve(address,address,uint256)": "infinite",
						"_beforeTokenTransfer(address,address,address,uint256)": "17",
						"_burn(address,uint256,bytes memory,bytes memory)": "infinite",
						"_callTokensReceived(address,address,address,uint256,bytes memory,bytes memory,bool)": "infinite",
						"_callTokensToSend(address,address,address,uint256,bytes memory,bytes memory)": "infinite",
						"_mint(address,uint256,bytes memory,bytes memory)": "infinite",
						"_mint(address,uint256,bytes memory,bytes memory,bool)": "infinite",
						"_move(address,address,address,uint256,bytes memory,bytes memory)": "infinite",
						"_send(address,address,uint256,bytes memory,bytes memory,bool)": "infinite",
						"_spendAllowance(address,address,uint256)": "infinite"
					}
				},
				"methodIdentifiers": {
					"allowance(address,address)": "dd62ed3e",
					"approve(address,uint256)": "095ea7b3",
					"authorizeOperator(address)": "959b8c3f",
					"balanceOf(address)": "70a08231",
					"burn(uint256,bytes)": "fe9d9303",
					"decimals()": "313ce567",
					"defaultOperators()": "06e48538",
					"granularity()": "556f0dc7",
					"isOperatorFor(address,address)": "d95b6371",
					"name()": "06fdde03",
					"operatorBurn(address,uint256,bytes,bytes)": "fc673c4f",
					"operatorSend(address,address,uint256,bytes,bytes)": "62ad1b83",
					"revokeOperator(address)": "fad8b32a",
					"send(address,uint256,bytes)": "9bd9bbc6",
					"symbol()": "95d89b41",
					"totalSupply()": "18160ddd",
					"transfer(address,uint256)": "a9059cbb",
					"transferFrom(address,address,uint256)": "23b872dd"
				}
			},
			"storageLayout": {
				"storage": [
					{
						"astId": 722,
						"contract": "ERC777.sol:ERC777",
						"label": "_balances",
						"offset": 0,
						"slot": "0",
						"type": "t_mapping(t_address,t_uint256)"
					},
					{
						"astId": 724,
						"contract": "ERC777.sol:ERC777",
						"label": "_totalSupply",
						"offset": 0,
						"slot": "1",
						"type": "t_uint256"
					},
					{
						"astId": 726,
						"contract": "ERC777.sol:ERC777",
						"label": "_name",
						"offset": 0,
						"slot": "2",
						"type": "t_string_storage"
					},
					{
						"astId": 728,
						"contract": "ERC777.sol:ERC777",
						"label": "_symbol",
						"offset": 0,
						"slot": "3",
						"type": "t_string_storage"
					},
					{
						"astId": 741,
						"contract": "ERC777.sol:ERC777",
						"label": "_defaultOperatorsArray",
						"offset": 0,
						"slot": "4",
						"type": "t_array(t_address)dyn_storage"
					},
					{
						"astId": 745,
						"contract": "ERC777.sol:ERC777",
						"label": "_defaultOperators",
						"offset": 0,
						"slot": "5",
						"type": "t_mapping(t_address,t_bool)"
					},
					{
						"astId": 751,
						"contract": "ERC777.sol:ERC777",
						"label": "_operators",
						"offset": 0,
						"slot": "6",
						"type": "t_mapping(t_address,t_mapping(t_address,t_bool))"
					},
					{
						"astId": 757,
						"contract": "ERC777.sol:ERC777",
						"label": "_revokedDefaultOperators",
						"offset": 0,
						"slot": "7",
						"type": "t_mapping(t_address,t_mapping(t_address,t_bool))"
					},
					{
						"astId": 763,
						"contract": "ERC777.sol:ERC777",
						"label": "_allowances",
						"offset": 0,
						"slot": "8",
						"type": "t_mapping(t_address,t_mapping(t_address,t_uint256))"
					}
				],
				"types": {
					"t_address": {
						"encoding": "inplace",
						"label": "address",
						"numberOfBytes": "20"
					},
					"t_array(t_address)dyn_storage": {
						"base": "t_address",
						"encoding": "dynamic_array",
						"label": "address[]",
						"numberOfBytes": "32"
					},
					"t_bool": {
						"encoding": "inplace",
						"label": "bool",
						"numberOfBytes": "1"
					},
					"t_mapping(t_address,t_bool)": {
						"encoding": "mapping",
						"key": "t_address",
						"label": "mapping(address => bool)",
						"numberOfBytes": "32",
						"value": "t_bool"
					},
					"t_mapping(t_address,t_mapping(t_address,t_bool))": {
						"encoding": "mapping",
						"key": "t_address",
						"label": "mapping(address => mapping(address => bool))",
						"numberOfBytes": "32",
						"value": "t_mapping(t_address,t_bool)"
					},
					"t_mapping(t_address,t_mapping(t_address,t_uint256))": {
						"encoding": "mapping",
						"key": "t_address",
						"label": "mapping(address => mapping(address => uint256))",
						"numberOfBytes": "32",
						"value": "t_mapping(t_address,t_uint256)"
					},
					"t_mapping(t_address,t_uint256)": {
						"encoding": "mapping",
						"key": "t_address",
						"label": "mapping(address => uint256)",
						"numberOfBytes": "32",
						"value": "t_uint256"
					},
					"t_string_storage": {
						"encoding": "bytes",
						"label": "string",
						"numberOfBytes": "32"
					},
					"t_uint256": {
						"encoding": "inplace",
						"label": "uint256",
						"numberOfBytes": "32"
					}
				}
			},
			"userdoc": {
				"kind": "user",
				"methods": {},
				"version": 1
			}
		}
	}
}